{"contracts/Signin.sol":{"enterDetails":{"abi":[{"inputs":[{"internalType":"address","name":"id","type":"address"}],"name":"check","outputs":[{"internalType":"bool","name":"","type":"bool"}],"stateMutability":"view","type":"function"},{"inputs":[],"name":"getMemos","outputs":[{"components":[{"internalType":"string","name":"name","type":"string"},{"internalType":"uint256","name":"hospital_id","type":"uint256"},{"internalType":"int256","name":"longitude","type":"int256"},{"internalType":"int256","name":"latitude","type":"int256"},{"internalType":"uint256","name":"timestamp","type":"uint256"},{"internalType":"bool","name":"flag","type":"bool"}],"internalType":"struct enterDetails.Memo[]","name":"","type":"tuple[]"}],"stateMutability":"view","type":"function"},{"inputs":[{"internalType":"string","name":"name","type":"string"},{"internalType":"uint256","name":"hospital_id","type":"uint256"},{"internalType":"int256","name":"longitude","type":"int256"},{"internalType":"int256","name":"latitude","type":"int256"},{"internalType":"address","name":"metamask_address","type":"address"}],"name":"registerHospital","outputs":[],"stateMutability":"payable","type":"function"}],"evm":{"bytecode":{"linkReferences":{},"object":"608060405234801561001057600080fd5b50610bfc806100206000396000f3fe6080604052600436106100345760003560e01c8063865c517214610039578063c23697a814610064578063f8655e2f146100a1575b600080fd5b34801561004557600080fd5b5061004e6100bd565b60405161005b91906105d9565b60405180910390f35b34801561007057600080fd5b5061008b6004803603810190610086919061066d565b6101f1565b60405161009891906106a9565b60405180910390f35b6100bb60048036038101906100b69190610851565b610249565b005b60606001805480602002602001604051908101604052809291908181526020016000905b828210156101e857838290600052602060002090600602016040518060c001604052908160008201805461011490610917565b80601f016020809104026020016040519081016040528092919081815260200182805461014090610917565b801561018d5780601f106101625761010080835404028352916020019161018d565b820191906000526020600020905b81548152906001019060200180831161017057829003601f168201915b50505050508152602001600182015481526020016002820154815260200160038201548152602001600482015481526020016005820160009054906101000a900460ff161515151581525050815260200190600101906100e1565b50505050905090565b60008060008373ffffffffffffffffffffffffffffffffffffffff1673ffffffffffffffffffffffffffffffffffffffff16815260200190815260200160002060050160009054906101000a900460ff169050919050565b60006040518060c00160405280878152602001868152602001858152602001848152602001428152602001600115158152509050806000808473ffffffffffffffffffffffffffffffffffffffff1673ffffffffffffffffffffffffffffffffffffffff16815260200190815260200160002060008201518160000190816102d19190610af4565b506020820151816001015560408201518160020155606082015181600301556080820151816004015560a08201518160050160006101000a81548160ff0219169083151502179055509050506001819080600181540180825580915050600190039060005260206000209060060201600090919091909150600082015181600001908161035e9190610af4565b506020820151816001015560408201518160020155606082015181600301556080820151816004015560a08201518160050160006101000a81548160ff0219169083151502179055505050505050505050565b600081519050919050565b600082825260208201905092915050565b6000819050602082019050919050565b600081519050919050565b600082825260208201905092915050565b60005b838110156104175780820151818401526020810190506103fc565b60008484015250505050565b6000601f19601f8301169050919050565b600061043f826103dd565b61044981856103e8565b93506104598185602086016103f9565b61046281610423565b840191505092915050565b6000819050919050565b6104808161046d565b82525050565b6000819050919050565b61049981610486565b82525050565b60008115159050919050565b6104b48161049f565b82525050565b600060c08301600083015184820360008601526104d78282610434565b91505060208301516104ec6020860182610477565b5060408301516104ff6040860182610490565b5060608301516105126060860182610490565b5060808301516105256080860182610477565b5060a083015161053860a08601826104ab565b508091505092915050565b600061054f83836104ba565b905092915050565b6000602082019050919050565b600061056f826103b1565b61057981856103bc565b93508360208202850161058b856103cd565b8060005b858110156105c757848403895281516105a88582610543565b94506105b383610557565b925060208a0199505060018101905061058f565b50829750879550505050505092915050565b600060208201905081810360008301526105f38184610564565b905092915050565b6000604051905090565b600080fd5b600080fd5b600073ffffffffffffffffffffffffffffffffffffffff82169050919050565b600061063a8261060f565b9050919050565b61064a8161062f565b811461065557600080fd5b50565b60008135905061066781610641565b92915050565b60006020828403121561068357610682610605565b5b600061069184828501610658565b91505092915050565b6106a38161049f565b82525050565b60006020820190506106be600083018461069a565b92915050565b600080fd5b600080fd5b7f4e487b7100000000000000000000000000000000000000000000000000000000600052604160045260246000fd5b61070682610423565b810181811067ffffffffffffffff82111715610725576107246106ce565b5b80604052505050565b60006107386105fb565b905061074482826106fd565b919050565b600067ffffffffffffffff821115610764576107636106ce565b5b61076d82610423565b9050602081019050919050565b82818337600083830152505050565b600061079c61079784610749565b61072e565b9050828152602081018484840111156107b8576107b76106c9565b5b6107c384828561077a565b509392505050565b600082601f8301126107e0576107df6106c4565b5b81356107f0848260208601610789565b91505092915050565b6108028161046d565b811461080d57600080fd5b50565b60008135905061081f816107f9565b92915050565b61082e81610486565b811461083957600080fd5b50565b60008135905061084b81610825565b92915050565b600080600080600060a0868803121561086d5761086c610605565b5b600086013567ffffffffffffffff81111561088b5761088a61060a565b5b610897888289016107cb565b95505060206108a888828901610810565b94505060406108b98882890161083c565b93505060606108ca8882890161083c565b92505060806108db88828901610658565b9150509295509295909350565b7f4e487b7100000000000000000000000000000000000000000000000000000000600052602260045260246000fd5b6000600282049050600182168061092f57607f821691505b602082108103610942576109416108e8565b5b50919050565b60008190508160005260206000209050919050565b60006020601f8301049050919050565b600082821b905092915050565b6000600883026109aa7fffffffffffffffffffffffffffffffffffffffffffffffffffffffffffffffff8261096d565b6109b4868361096d565b95508019841693508086168417925050509392505050565b6000819050919050565b60006109f16109ec6109e78461046d565b6109cc565b61046d565b9050919050565b6000819050919050565b610a0b836109d6565b610a1f610a17826109f8565b84845461097a565b825550505050565b600090565b610a34610a27565b610a3f818484610a02565b505050565b5b81811015610a6357610a58600082610a2c565b600181019050610a45565b5050565b601f821115610aa857610a7981610948565b610a828461095d565b81016020851015610a91578190505b610aa5610a9d8561095d565b830182610a44565b50505b505050565b600082821c905092915050565b6000610acb60001984600802610aad565b1980831691505092915050565b6000610ae48383610aba565b9150826002028217905092915050565b610afd826103dd565b67ffffffffffffffff811115610b1657610b156106ce565b5b610b208254610917565b610b2b828285610a67565b600060209050601f831160018114610b5e5760008415610b4c578287015190505b610b568582610ad8565b865550610bbe565b601f198416610b6c86610948565b60005b82811015610b9457848901518255600182019150602085019450602081019050610b6f565b86831015610bb15784890151610bad601f891682610aba565b8355505b6001600288020188555050505b50505050505056fea2646970667358221220aece970476314e52ffae9110545afa85f97e0082fff24319412854a4d9ba2bf964736f6c63430008110033","opcodes":"PUSH1 0x80 PUSH1 0x40 MSTORE CALLVALUE DUP1 ISZERO PUSH2 0x10 JUMPI PUSH1 0x0 DUP1 REVERT JUMPDEST POP PUSH2 0xBFC DUP1 PUSH2 0x20 PUSH1 0x0 CODECOPY PUSH1 0x0 RETURN INVALID PUSH1 0x80 PUSH1 0x40 MSTORE PUSH1 0x4 CALLDATASIZE LT PUSH2 0x34 JUMPI PUSH1 0x0 CALLDATALOAD PUSH1 0xE0 SHR DUP1 PUSH4 0x865C5172 EQ PUSH2 0x39 JUMPI DUP1 PUSH4 0xC23697A8 EQ PUSH2 0x64 JUMPI DUP1 PUSH4 0xF8655E2F EQ PUSH2 0xA1 JUMPI JUMPDEST PUSH1 0x0 DUP1 REVERT JUMPDEST CALLVALUE DUP1 ISZERO PUSH2 0x45 JUMPI PUSH1 0x0 DUP1 REVERT JUMPDEST POP PUSH2 0x4E PUSH2 0xBD JUMP JUMPDEST PUSH1 0x40 MLOAD PUSH2 0x5B SWAP2 SWAP1 PUSH2 0x5D9 JUMP JUMPDEST PUSH1 0x40 MLOAD DUP1 SWAP2 SUB SWAP1 RETURN JUMPDEST CALLVALUE DUP1 ISZERO PUSH2 0x70 JUMPI PUSH1 0x0 DUP1 REVERT JUMPDEST POP PUSH2 0x8B PUSH1 0x4 DUP1 CALLDATASIZE SUB DUP2 ADD SWAP1 PUSH2 0x86 SWAP2 SWAP1 PUSH2 0x66D JUMP JUMPDEST PUSH2 0x1F1 JUMP JUMPDEST PUSH1 0x40 MLOAD PUSH2 0x98 SWAP2 SWAP1 PUSH2 0x6A9 JUMP JUMPDEST PUSH1 0x40 MLOAD DUP1 SWAP2 SUB SWAP1 RETURN JUMPDEST PUSH2 0xBB PUSH1 0x4 DUP1 CALLDATASIZE SUB DUP2 ADD SWAP1 PUSH2 0xB6 SWAP2 SWAP1 PUSH2 0x851 JUMP JUMPDEST PUSH2 0x249 JUMP JUMPDEST STOP JUMPDEST PUSH1 0x60 PUSH1 0x1 DUP1 SLOAD DUP1 PUSH1 0x20 MUL PUSH1 0x20 ADD PUSH1 0x40 MLOAD SWAP1 DUP2 ADD PUSH1 0x40 MSTORE DUP1 SWAP3 SWAP2 SWAP1 DUP2 DUP2 MSTORE PUSH1 0x20 ADD PUSH1 0x0 SWAP1 JUMPDEST DUP3 DUP3 LT ISZERO PUSH2 0x1E8 JUMPI DUP4 DUP3 SWAP1 PUSH1 0x0 MSTORE PUSH1 0x20 PUSH1 0x0 KECCAK256 SWAP1 PUSH1 0x6 MUL ADD PUSH1 0x40 MLOAD DUP1 PUSH1 0xC0 ADD PUSH1 0x40 MSTORE SWAP1 DUP2 PUSH1 0x0 DUP3 ADD DUP1 SLOAD PUSH2 0x114 SWAP1 PUSH2 0x917 JUMP JUMPDEST DUP1 PUSH1 0x1F ADD PUSH1 0x20 DUP1 SWAP2 DIV MUL PUSH1 0x20 ADD PUSH1 0x40 MLOAD SWAP1 DUP2 ADD PUSH1 0x40 MSTORE DUP1 SWAP3 SWAP2 SWAP1 DUP2 DUP2 MSTORE PUSH1 0x20 ADD DUP3 DUP1 SLOAD PUSH2 0x140 SWAP1 PUSH2 0x917 JUMP JUMPDEST DUP1 ISZERO PUSH2 0x18D JUMPI DUP1 PUSH1 0x1F LT PUSH2 0x162 JUMPI PUSH2 0x100 DUP1 DUP4 SLOAD DIV MUL DUP4 MSTORE SWAP2 PUSH1 0x20 ADD SWAP2 PUSH2 0x18D JUMP JUMPDEST DUP3 ADD SWAP2 SWAP1 PUSH1 0x0 MSTORE PUSH1 0x20 PUSH1 0x0 KECCAK256 SWAP1 JUMPDEST DUP2 SLOAD DUP2 MSTORE SWAP1 PUSH1 0x1 ADD SWAP1 PUSH1 0x20 ADD DUP1 DUP4 GT PUSH2 0x170 JUMPI DUP3 SWAP1 SUB PUSH1 0x1F AND DUP3 ADD SWAP2 JUMPDEST POP POP POP POP POP DUP2 MSTORE PUSH1 0x20 ADD PUSH1 0x1 DUP3 ADD SLOAD DUP2 MSTORE PUSH1 0x20 ADD PUSH1 0x2 DUP3 ADD SLOAD DUP2 MSTORE PUSH1 0x20 ADD PUSH1 0x3 DUP3 ADD SLOAD DUP2 MSTORE PUSH1 0x20 ADD PUSH1 0x4 DUP3 ADD SLOAD DUP2 MSTORE PUSH1 0x20 ADD PUSH1 0x5 DUP3 ADD PUSH1 0x0 SWAP1 SLOAD SWAP1 PUSH2 0x100 EXP SWAP1 DIV PUSH1 0xFF AND ISZERO ISZERO ISZERO ISZERO DUP2 MSTORE POP POP DUP2 MSTORE PUSH1 0x20 ADD SWAP1 PUSH1 0x1 ADD SWAP1 PUSH2 0xE1 JUMP JUMPDEST POP POP POP POP SWAP1 POP SWAP1 JUMP JUMPDEST PUSH1 0x0 DUP1 PUSH1 0x0 DUP4 PUSH20 0xFFFFFFFFFFFFFFFFFFFFFFFFFFFFFFFFFFFFFFFF AND PUSH20 0xFFFFFFFFFFFFFFFFFFFFFFFFFFFFFFFFFFFFFFFF AND DUP2 MSTORE PUSH1 0x20 ADD SWAP1 DUP2 MSTORE PUSH1 0x20 ADD PUSH1 0x0 KECCAK256 PUSH1 0x5 ADD PUSH1 0x0 SWAP1 SLOAD SWAP1 PUSH2 0x100 EXP SWAP1 DIV PUSH1 0xFF AND SWAP1 POP SWAP2 SWAP1 POP JUMP JUMPDEST PUSH1 0x0 PUSH1 0x40 MLOAD DUP1 PUSH1 0xC0 ADD PUSH1 0x40 MSTORE DUP1 DUP8 DUP2 MSTORE PUSH1 0x20 ADD DUP7 DUP2 MSTORE PUSH1 0x20 ADD DUP6 DUP2 MSTORE PUSH1 0x20 ADD DUP5 DUP2 MSTORE PUSH1 0x20 ADD TIMESTAMP DUP2 MSTORE PUSH1 0x20 ADD PUSH1 0x1 ISZERO ISZERO DUP2 MSTORE POP SWAP1 POP DUP1 PUSH1 0x0 DUP1 DUP5 PUSH20 0xFFFFFFFFFFFFFFFFFFFFFFFFFFFFFFFFFFFFFFFF AND PUSH20 0xFFFFFFFFFFFFFFFFFFFFFFFFFFFFFFFFFFFFFFFF AND DUP2 MSTORE PUSH1 0x20 ADD SWAP1 DUP2 MSTORE PUSH1 0x20 ADD PUSH1 0x0 KECCAK256 PUSH1 0x0 DUP3 ADD MLOAD DUP2 PUSH1 0x0 ADD SWAP1 DUP2 PUSH2 0x2D1 SWAP2 SWAP1 PUSH2 0xAF4 JUMP JUMPDEST POP PUSH1 0x20 DUP3 ADD MLOAD DUP2 PUSH1 0x1 ADD SSTORE PUSH1 0x40 DUP3 ADD MLOAD DUP2 PUSH1 0x2 ADD SSTORE PUSH1 0x60 DUP3 ADD MLOAD DUP2 PUSH1 0x3 ADD SSTORE PUSH1 0x80 DUP3 ADD MLOAD DUP2 PUSH1 0x4 ADD SSTORE PUSH1 0xA0 DUP3 ADD MLOAD DUP2 PUSH1 0x5 ADD PUSH1 0x0 PUSH2 0x100 EXP DUP2 SLOAD DUP2 PUSH1 0xFF MUL NOT AND SWAP1 DUP4 ISZERO ISZERO MUL OR SWAP1 SSTORE POP SWAP1 POP POP PUSH1 0x1 DUP2 SWAP1 DUP1 PUSH1 0x1 DUP2 SLOAD ADD DUP1 DUP3 SSTORE DUP1 SWAP2 POP POP PUSH1 0x1 SWAP1 SUB SWAP1 PUSH1 0x0 MSTORE PUSH1 0x20 PUSH1 0x0 KECCAK256 SWAP1 PUSH1 0x6 MUL ADD PUSH1 0x0 SWAP1 SWAP2 SWAP1 SWAP2 SWAP1 SWAP2 POP PUSH1 0x0 DUP3 ADD MLOAD DUP2 PUSH1 0x0 ADD SWAP1 DUP2 PUSH2 0x35E SWAP2 SWAP1 PUSH2 0xAF4 JUMP JUMPDEST POP PUSH1 0x20 DUP3 ADD MLOAD DUP2 PUSH1 0x1 ADD SSTORE PUSH1 0x40 DUP3 ADD MLOAD DUP2 PUSH1 0x2 ADD SSTORE PUSH1 0x60 DUP3 ADD MLOAD DUP2 PUSH1 0x3 ADD SSTORE PUSH1 0x80 DUP3 ADD MLOAD DUP2 PUSH1 0x4 ADD SSTORE PUSH1 0xA0 DUP3 ADD MLOAD DUP2 PUSH1 0x5 ADD PUSH1 0x0 PUSH2 0x100 EXP DUP2 SLOAD DUP2 PUSH1 0xFF MUL NOT AND SWAP1 DUP4 ISZERO ISZERO MUL OR SWAP1 SSTORE POP POP POP POP POP POP POP POP POP JUMP JUMPDEST PUSH1 0x0 DUP2 MLOAD SWAP1 POP SWAP2 SWAP1 POP JUMP JUMPDEST PUSH1 0x0 DUP3 DUP3 MSTORE PUSH1 0x20 DUP3 ADD SWAP1 POP SWAP3 SWAP2 POP POP JUMP JUMPDEST PUSH1 0x0 DUP2 SWAP1 POP PUSH1 0x20 DUP3 ADD SWAP1 POP SWAP2 SWAP1 POP JUMP JUMPDEST PUSH1 0x0 DUP2 MLOAD SWAP1 POP SWAP2 SWAP1 POP JUMP JUMPDEST PUSH1 0x0 DUP3 DUP3 MSTORE PUSH1 0x20 DUP3 ADD SWAP1 POP SWAP3 SWAP2 POP POP JUMP JUMPDEST PUSH1 0x0 JUMPDEST DUP4 DUP2 LT ISZERO PUSH2 0x417 JUMPI DUP1 DUP3 ADD MLOAD DUP2 DUP5 ADD MSTORE PUSH1 0x20 DUP2 ADD SWAP1 POP PUSH2 0x3FC JUMP JUMPDEST PUSH1 0x0 DUP5 DUP5 ADD MSTORE POP POP POP POP JUMP JUMPDEST PUSH1 0x0 PUSH1 0x1F NOT PUSH1 0x1F DUP4 ADD AND SWAP1 POP SWAP2 SWAP1 POP JUMP JUMPDEST PUSH1 0x0 PUSH2 0x43F DUP3 PUSH2 0x3DD JUMP JUMPDEST PUSH2 0x449 DUP2 DUP6 PUSH2 0x3E8 JUMP JUMPDEST SWAP4 POP PUSH2 0x459 DUP2 DUP6 PUSH1 0x20 DUP7 ADD PUSH2 0x3F9 JUMP JUMPDEST PUSH2 0x462 DUP2 PUSH2 0x423 JUMP JUMPDEST DUP5 ADD SWAP2 POP POP SWAP3 SWAP2 POP POP JUMP JUMPDEST PUSH1 0x0 DUP2 SWAP1 POP SWAP2 SWAP1 POP JUMP JUMPDEST PUSH2 0x480 DUP2 PUSH2 0x46D JUMP JUMPDEST DUP3 MSTORE POP POP JUMP JUMPDEST PUSH1 0x0 DUP2 SWAP1 POP SWAP2 SWAP1 POP JUMP JUMPDEST PUSH2 0x499 DUP2 PUSH2 0x486 JUMP JUMPDEST DUP3 MSTORE POP POP JUMP JUMPDEST PUSH1 0x0 DUP2 ISZERO ISZERO SWAP1 POP SWAP2 SWAP1 POP JUMP JUMPDEST PUSH2 0x4B4 DUP2 PUSH2 0x49F JUMP JUMPDEST DUP3 MSTORE POP POP JUMP JUMPDEST PUSH1 0x0 PUSH1 0xC0 DUP4 ADD PUSH1 0x0 DUP4 ADD MLOAD DUP5 DUP3 SUB PUSH1 0x0 DUP7 ADD MSTORE PUSH2 0x4D7 DUP3 DUP3 PUSH2 0x434 JUMP JUMPDEST SWAP2 POP POP PUSH1 0x20 DUP4 ADD MLOAD PUSH2 0x4EC PUSH1 0x20 DUP7 ADD DUP3 PUSH2 0x477 JUMP JUMPDEST POP PUSH1 0x40 DUP4 ADD MLOAD PUSH2 0x4FF PUSH1 0x40 DUP7 ADD DUP3 PUSH2 0x490 JUMP JUMPDEST POP PUSH1 0x60 DUP4 ADD MLOAD PUSH2 0x512 PUSH1 0x60 DUP7 ADD DUP3 PUSH2 0x490 JUMP JUMPDEST POP PUSH1 0x80 DUP4 ADD MLOAD PUSH2 0x525 PUSH1 0x80 DUP7 ADD DUP3 PUSH2 0x477 JUMP JUMPDEST POP PUSH1 0xA0 DUP4 ADD MLOAD PUSH2 0x538 PUSH1 0xA0 DUP7 ADD DUP3 PUSH2 0x4AB JUMP JUMPDEST POP DUP1 SWAP2 POP POP SWAP3 SWAP2 POP POP JUMP JUMPDEST PUSH1 0x0 PUSH2 0x54F DUP4 DUP4 PUSH2 0x4BA JUMP JUMPDEST SWAP1 POP SWAP3 SWAP2 POP POP JUMP JUMPDEST PUSH1 0x0 PUSH1 0x20 DUP3 ADD SWAP1 POP SWAP2 SWAP1 POP JUMP JUMPDEST PUSH1 0x0 PUSH2 0x56F DUP3 PUSH2 0x3B1 JUMP JUMPDEST PUSH2 0x579 DUP2 DUP6 PUSH2 0x3BC JUMP JUMPDEST SWAP4 POP DUP4 PUSH1 0x20 DUP3 MUL DUP6 ADD PUSH2 0x58B DUP6 PUSH2 0x3CD JUMP JUMPDEST DUP1 PUSH1 0x0 JUMPDEST DUP6 DUP2 LT ISZERO PUSH2 0x5C7 JUMPI DUP5 DUP5 SUB DUP10 MSTORE DUP2 MLOAD PUSH2 0x5A8 DUP6 DUP3 PUSH2 0x543 JUMP JUMPDEST SWAP5 POP PUSH2 0x5B3 DUP4 PUSH2 0x557 JUMP JUMPDEST SWAP3 POP PUSH1 0x20 DUP11 ADD SWAP10 POP POP PUSH1 0x1 DUP2 ADD SWAP1 POP PUSH2 0x58F JUMP JUMPDEST POP DUP3 SWAP8 POP DUP8 SWAP6 POP POP POP POP POP POP SWAP3 SWAP2 POP POP JUMP JUMPDEST PUSH1 0x0 PUSH1 0x20 DUP3 ADD SWAP1 POP DUP2 DUP2 SUB PUSH1 0x0 DUP4 ADD MSTORE PUSH2 0x5F3 DUP2 DUP5 PUSH2 0x564 JUMP JUMPDEST SWAP1 POP SWAP3 SWAP2 POP POP JUMP JUMPDEST PUSH1 0x0 PUSH1 0x40 MLOAD SWAP1 POP SWAP1 JUMP JUMPDEST PUSH1 0x0 DUP1 REVERT JUMPDEST PUSH1 0x0 DUP1 REVERT JUMPDEST PUSH1 0x0 PUSH20 0xFFFFFFFFFFFFFFFFFFFFFFFFFFFFFFFFFFFFFFFF DUP3 AND SWAP1 POP SWAP2 SWAP1 POP JUMP JUMPDEST PUSH1 0x0 PUSH2 0x63A DUP3 PUSH2 0x60F JUMP JUMPDEST SWAP1 POP SWAP2 SWAP1 POP JUMP JUMPDEST PUSH2 0x64A DUP2 PUSH2 0x62F JUMP JUMPDEST DUP2 EQ PUSH2 0x655 JUMPI PUSH1 0x0 DUP1 REVERT JUMPDEST POP JUMP JUMPDEST PUSH1 0x0 DUP2 CALLDATALOAD SWAP1 POP PUSH2 0x667 DUP2 PUSH2 0x641 JUMP JUMPDEST SWAP3 SWAP2 POP POP JUMP JUMPDEST PUSH1 0x0 PUSH1 0x20 DUP3 DUP5 SUB SLT ISZERO PUSH2 0x683 JUMPI PUSH2 0x682 PUSH2 0x605 JUMP JUMPDEST JUMPDEST PUSH1 0x0 PUSH2 0x691 DUP5 DUP3 DUP6 ADD PUSH2 0x658 JUMP JUMPDEST SWAP2 POP POP SWAP3 SWAP2 POP POP JUMP JUMPDEST PUSH2 0x6A3 DUP2 PUSH2 0x49F JUMP JUMPDEST DUP3 MSTORE POP POP JUMP JUMPDEST PUSH1 0x0 PUSH1 0x20 DUP3 ADD SWAP1 POP PUSH2 0x6BE PUSH1 0x0 DUP4 ADD DUP5 PUSH2 0x69A JUMP JUMPDEST SWAP3 SWAP2 POP POP JUMP JUMPDEST PUSH1 0x0 DUP1 REVERT JUMPDEST PUSH1 0x0 DUP1 REVERT JUMPDEST PUSH32 0x4E487B7100000000000000000000000000000000000000000000000000000000 PUSH1 0x0 MSTORE PUSH1 0x41 PUSH1 0x4 MSTORE PUSH1 0x24 PUSH1 0x0 REVERT JUMPDEST PUSH2 0x706 DUP3 PUSH2 0x423 JUMP JUMPDEST DUP2 ADD DUP2 DUP2 LT PUSH8 0xFFFFFFFFFFFFFFFF DUP3 GT OR ISZERO PUSH2 0x725 JUMPI PUSH2 0x724 PUSH2 0x6CE JUMP JUMPDEST JUMPDEST DUP1 PUSH1 0x40 MSTORE POP POP POP JUMP JUMPDEST PUSH1 0x0 PUSH2 0x738 PUSH2 0x5FB JUMP JUMPDEST SWAP1 POP PUSH2 0x744 DUP3 DUP3 PUSH2 0x6FD JUMP JUMPDEST SWAP2 SWAP1 POP JUMP JUMPDEST PUSH1 0x0 PUSH8 0xFFFFFFFFFFFFFFFF DUP3 GT ISZERO PUSH2 0x764 JUMPI PUSH2 0x763 PUSH2 0x6CE JUMP JUMPDEST JUMPDEST PUSH2 0x76D DUP3 PUSH2 0x423 JUMP JUMPDEST SWAP1 POP PUSH1 0x20 DUP2 ADD SWAP1 POP SWAP2 SWAP1 POP JUMP JUMPDEST DUP3 DUP2 DUP4 CALLDATACOPY PUSH1 0x0 DUP4 DUP4 ADD MSTORE POP POP POP JUMP JUMPDEST PUSH1 0x0 PUSH2 0x79C PUSH2 0x797 DUP5 PUSH2 0x749 JUMP JUMPDEST PUSH2 0x72E JUMP JUMPDEST SWAP1 POP DUP3 DUP2 MSTORE PUSH1 0x20 DUP2 ADD DUP5 DUP5 DUP5 ADD GT ISZERO PUSH2 0x7B8 JUMPI PUSH2 0x7B7 PUSH2 0x6C9 JUMP JUMPDEST JUMPDEST PUSH2 0x7C3 DUP5 DUP3 DUP6 PUSH2 0x77A JUMP JUMPDEST POP SWAP4 SWAP3 POP POP POP JUMP JUMPDEST PUSH1 0x0 DUP3 PUSH1 0x1F DUP4 ADD SLT PUSH2 0x7E0 JUMPI PUSH2 0x7DF PUSH2 0x6C4 JUMP JUMPDEST JUMPDEST DUP2 CALLDATALOAD PUSH2 0x7F0 DUP5 DUP3 PUSH1 0x20 DUP7 ADD PUSH2 0x789 JUMP JUMPDEST SWAP2 POP POP SWAP3 SWAP2 POP POP JUMP JUMPDEST PUSH2 0x802 DUP2 PUSH2 0x46D JUMP JUMPDEST DUP2 EQ PUSH2 0x80D JUMPI PUSH1 0x0 DUP1 REVERT JUMPDEST POP JUMP JUMPDEST PUSH1 0x0 DUP2 CALLDATALOAD SWAP1 POP PUSH2 0x81F DUP2 PUSH2 0x7F9 JUMP JUMPDEST SWAP3 SWAP2 POP POP JUMP JUMPDEST PUSH2 0x82E DUP2 PUSH2 0x486 JUMP JUMPDEST DUP2 EQ PUSH2 0x839 JUMPI PUSH1 0x0 DUP1 REVERT JUMPDEST POP JUMP JUMPDEST PUSH1 0x0 DUP2 CALLDATALOAD SWAP1 POP PUSH2 0x84B DUP2 PUSH2 0x825 JUMP JUMPDEST SWAP3 SWAP2 POP POP JUMP JUMPDEST PUSH1 0x0 DUP1 PUSH1 0x0 DUP1 PUSH1 0x0 PUSH1 0xA0 DUP7 DUP9 SUB SLT ISZERO PUSH2 0x86D JUMPI PUSH2 0x86C PUSH2 0x605 JUMP JUMPDEST JUMPDEST PUSH1 0x0 DUP7 ADD CALLDATALOAD PUSH8 0xFFFFFFFFFFFFFFFF DUP2 GT ISZERO PUSH2 0x88B JUMPI PUSH2 0x88A PUSH2 0x60A JUMP JUMPDEST JUMPDEST PUSH2 0x897 DUP9 DUP3 DUP10 ADD PUSH2 0x7CB JUMP JUMPDEST SWAP6 POP POP PUSH1 0x20 PUSH2 0x8A8 DUP9 DUP3 DUP10 ADD PUSH2 0x810 JUMP JUMPDEST SWAP5 POP POP PUSH1 0x40 PUSH2 0x8B9 DUP9 DUP3 DUP10 ADD PUSH2 0x83C JUMP JUMPDEST SWAP4 POP POP PUSH1 0x60 PUSH2 0x8CA DUP9 DUP3 DUP10 ADD PUSH2 0x83C JUMP JUMPDEST SWAP3 POP POP PUSH1 0x80 PUSH2 0x8DB DUP9 DUP3 DUP10 ADD PUSH2 0x658 JUMP JUMPDEST SWAP2 POP POP SWAP3 SWAP6 POP SWAP3 SWAP6 SWAP1 SWAP4 POP JUMP JUMPDEST PUSH32 0x4E487B7100000000000000000000000000000000000000000000000000000000 PUSH1 0x0 MSTORE PUSH1 0x22 PUSH1 0x4 MSTORE PUSH1 0x24 PUSH1 0x0 REVERT JUMPDEST PUSH1 0x0 PUSH1 0x2 DUP3 DIV SWAP1 POP PUSH1 0x1 DUP3 AND DUP1 PUSH2 0x92F JUMPI PUSH1 0x7F DUP3 AND SWAP2 POP JUMPDEST PUSH1 0x20 DUP3 LT DUP2 SUB PUSH2 0x942 JUMPI PUSH2 0x941 PUSH2 0x8E8 JUMP JUMPDEST JUMPDEST POP SWAP2 SWAP1 POP JUMP JUMPDEST PUSH1 0x0 DUP2 SWAP1 POP DUP2 PUSH1 0x0 MSTORE PUSH1 0x20 PUSH1 0x0 KECCAK256 SWAP1 POP SWAP2 SWAP1 POP JUMP JUMPDEST PUSH1 0x0 PUSH1 0x20 PUSH1 0x1F DUP4 ADD DIV SWAP1 POP SWAP2 SWAP1 POP JUMP JUMPDEST PUSH1 0x0 DUP3 DUP3 SHL SWAP1 POP SWAP3 SWAP2 POP POP JUMP JUMPDEST PUSH1 0x0 PUSH1 0x8 DUP4 MUL PUSH2 0x9AA PUSH32 0xFFFFFFFFFFFFFFFFFFFFFFFFFFFFFFFFFFFFFFFFFFFFFFFFFFFFFFFFFFFFFFFF DUP3 PUSH2 0x96D JUMP JUMPDEST PUSH2 0x9B4 DUP7 DUP4 PUSH2 0x96D JUMP JUMPDEST SWAP6 POP DUP1 NOT DUP5 AND SWAP4 POP DUP1 DUP7 AND DUP5 OR SWAP3 POP POP POP SWAP4 SWAP3 POP POP POP JUMP JUMPDEST PUSH1 0x0 DUP2 SWAP1 POP SWAP2 SWAP1 POP JUMP JUMPDEST PUSH1 0x0 PUSH2 0x9F1 PUSH2 0x9EC PUSH2 0x9E7 DUP5 PUSH2 0x46D JUMP JUMPDEST PUSH2 0x9CC JUMP JUMPDEST PUSH2 0x46D JUMP JUMPDEST SWAP1 POP SWAP2 SWAP1 POP JUMP JUMPDEST PUSH1 0x0 DUP2 SWAP1 POP SWAP2 SWAP1 POP JUMP JUMPDEST PUSH2 0xA0B DUP4 PUSH2 0x9D6 JUMP JUMPDEST PUSH2 0xA1F PUSH2 0xA17 DUP3 PUSH2 0x9F8 JUMP JUMPDEST DUP5 DUP5 SLOAD PUSH2 0x97A JUMP JUMPDEST DUP3 SSTORE POP POP POP POP JUMP JUMPDEST PUSH1 0x0 SWAP1 JUMP JUMPDEST PUSH2 0xA34 PUSH2 0xA27 JUMP JUMPDEST PUSH2 0xA3F DUP2 DUP5 DUP5 PUSH2 0xA02 JUMP JUMPDEST POP POP POP JUMP JUMPDEST JUMPDEST DUP2 DUP2 LT ISZERO PUSH2 0xA63 JUMPI PUSH2 0xA58 PUSH1 0x0 DUP3 PUSH2 0xA2C JUMP JUMPDEST PUSH1 0x1 DUP2 ADD SWAP1 POP PUSH2 0xA45 JUMP JUMPDEST POP POP JUMP JUMPDEST PUSH1 0x1F DUP3 GT ISZERO PUSH2 0xAA8 JUMPI PUSH2 0xA79 DUP2 PUSH2 0x948 JUMP JUMPDEST PUSH2 0xA82 DUP5 PUSH2 0x95D JUMP JUMPDEST DUP2 ADD PUSH1 0x20 DUP6 LT ISZERO PUSH2 0xA91 JUMPI DUP2 SWAP1 POP JUMPDEST PUSH2 0xAA5 PUSH2 0xA9D DUP6 PUSH2 0x95D JUMP JUMPDEST DUP4 ADD DUP3 PUSH2 0xA44 JUMP JUMPDEST POP POP JUMPDEST POP POP POP JUMP JUMPDEST PUSH1 0x0 DUP3 DUP3 SHR SWAP1 POP SWAP3 SWAP2 POP POP JUMP JUMPDEST PUSH1 0x0 PUSH2 0xACB PUSH1 0x0 NOT DUP5 PUSH1 0x8 MUL PUSH2 0xAAD JUMP JUMPDEST NOT DUP1 DUP4 AND SWAP2 POP POP SWAP3 SWAP2 POP POP JUMP JUMPDEST PUSH1 0x0 PUSH2 0xAE4 DUP4 DUP4 PUSH2 0xABA JUMP JUMPDEST SWAP2 POP DUP3 PUSH1 0x2 MUL DUP3 OR SWAP1 POP SWAP3 SWAP2 POP POP JUMP JUMPDEST PUSH2 0xAFD DUP3 PUSH2 0x3DD JUMP JUMPDEST PUSH8 0xFFFFFFFFFFFFFFFF DUP2 GT ISZERO PUSH2 0xB16 JUMPI PUSH2 0xB15 PUSH2 0x6CE JUMP JUMPDEST JUMPDEST PUSH2 0xB20 DUP3 SLOAD PUSH2 0x917 JUMP JUMPDEST PUSH2 0xB2B DUP3 DUP3 DUP6 PUSH2 0xA67 JUMP JUMPDEST PUSH1 0x0 PUSH1 0x20 SWAP1 POP PUSH1 0x1F DUP4 GT PUSH1 0x1 DUP2 EQ PUSH2 0xB5E JUMPI PUSH1 0x0 DUP5 ISZERO PUSH2 0xB4C JUMPI DUP3 DUP8 ADD MLOAD SWAP1 POP JUMPDEST PUSH2 0xB56 DUP6 DUP3 PUSH2 0xAD8 JUMP JUMPDEST DUP7 SSTORE POP PUSH2 0xBBE JUMP JUMPDEST PUSH1 0x1F NOT DUP5 AND PUSH2 0xB6C DUP7 PUSH2 0x948 JUMP JUMPDEST PUSH1 0x0 JUMPDEST DUP3 DUP2 LT ISZERO PUSH2 0xB94 JUMPI DUP5 DUP10 ADD MLOAD DUP3 SSTORE PUSH1 0x1 DUP3 ADD SWAP2 POP PUSH1 0x20 DUP6 ADD SWAP5 POP PUSH1 0x20 DUP2 ADD SWAP1 POP PUSH2 0xB6F JUMP JUMPDEST DUP7 DUP4 LT ISZERO PUSH2 0xBB1 JUMPI DUP5 DUP10 ADD MLOAD PUSH2 0xBAD PUSH1 0x1F DUP10 AND DUP3 PUSH2 0xABA JUMP JUMPDEST DUP4 SSTORE POP JUMPDEST PUSH1 0x1 PUSH1 0x2 DUP9 MUL ADD DUP9 SSTORE POP POP POP JUMPDEST POP POP POP POP POP POP JUMP INVALID LOG2 PUSH5 0x6970667358 0x22 SLT KECCAK256 0xAE 0xCE SWAP8 DIV PUSH23 0x314E52FFAE9110545AFA85F97E0082FFF24319412854A4 0xD9 0xBA 0x2B 0xF9 PUSH5 0x736F6C6343 STOP ADDMOD GT STOP CALLER "},"methodIdentifiers":{"check(address)":"c23697a8","getMemos()":"865c5172","registerHospital(string,uint256,int256,int256,address)":"f8655e2f"}}}}}