{
  "_format": "hh-sol-artifact-1",
  "contractName": "NFT",
  "sourceName": "contracts/Contract_2.sol",
  "abi": [
    {
      "inputs": [],
      "stateMutability": "nonpayable",
      "type": "constructor"
    },
    {
      "inputs": [
        {
          "internalType": "address",
          "name": "sender",
          "type": "address"
        },
        {
          "internalType": "uint256",
          "name": "tokenId",
          "type": "uint256"
        },
        {
          "internalType": "address",
          "name": "owner",
          "type": "address"
        }
      ],
      "name": "ERC721IncorrectOwner",
      "type": "error"
    },
    {
      "inputs": [
        {
          "internalType": "address",
          "name": "operator",
          "type": "address"
        },
        {
          "internalType": "uint256",
          "name": "tokenId",
          "type": "uint256"
        }
      ],
      "name": "ERC721InsufficientApproval",
      "type": "error"
    },
    {
      "inputs": [
        {
          "internalType": "address",
          "name": "approver",
          "type": "address"
        }
      ],
      "name": "ERC721InvalidApprover",
      "type": "error"
    },
    {
      "inputs": [
        {
          "internalType": "address",
          "name": "operator",
          "type": "address"
        }
      ],
      "name": "ERC721InvalidOperator",
      "type": "error"
    },
    {
      "inputs": [
        {
          "internalType": "address",
          "name": "owner",
          "type": "address"
        }
      ],
      "name": "ERC721InvalidOwner",
      "type": "error"
    },
    {
      "inputs": [
        {
          "internalType": "address",
          "name": "receiver",
          "type": "address"
        }
      ],
      "name": "ERC721InvalidReceiver",
      "type": "error"
    },
    {
      "inputs": [
        {
          "internalType": "address",
          "name": "sender",
          "type": "address"
        }
      ],
      "name": "ERC721InvalidSender",
      "type": "error"
    },
    {
      "inputs": [
        {
          "internalType": "uint256",
          "name": "tokenId",
          "type": "uint256"
        }
      ],
      "name": "ERC721NonexistentToken",
      "type": "error"
    },
    {
      "anonymous": false,
      "inputs": [
        {
          "indexed": true,
          "internalType": "address",
          "name": "owner",
          "type": "address"
        },
        {
          "indexed": true,
          "internalType": "address",
          "name": "approved",
          "type": "address"
        },
        {
          "indexed": true,
          "internalType": "uint256",
          "name": "tokenId",
          "type": "uint256"
        }
      ],
      "name": "Approval",
      "type": "event"
    },
    {
      "anonymous": false,
      "inputs": [
        {
          "indexed": true,
          "internalType": "address",
          "name": "owner",
          "type": "address"
        },
        {
          "indexed": true,
          "internalType": "address",
          "name": "operator",
          "type": "address"
        },
        {
          "indexed": false,
          "internalType": "bool",
          "name": "approved",
          "type": "bool"
        }
      ],
      "name": "ApprovalForAll",
      "type": "event"
    },
    {
      "anonymous": false,
      "inputs": [
        {
          "indexed": false,
          "internalType": "uint256",
          "name": "_fromTokenId",
          "type": "uint256"
        },
        {
          "indexed": false,
          "internalType": "uint256",
          "name": "_toTokenId",
          "type": "uint256"
        }
      ],
      "name": "BatchMetadataUpdate",
      "type": "event"
    },
    {
      "anonymous": false,
      "inputs": [
        {
          "indexed": false,
          "internalType": "uint256",
          "name": "_tokenId",
          "type": "uint256"
        }
      ],
      "name": "MetadataUpdate",
      "type": "event"
    },
    {
      "anonymous": false,
      "inputs": [
        {
          "indexed": true,
          "internalType": "address",
          "name": "from",
          "type": "address"
        },
        {
          "indexed": true,
          "internalType": "address",
          "name": "to",
          "type": "address"
        },
        {
          "indexed": true,
          "internalType": "uint256",
          "name": "tokenId",
          "type": "uint256"
        }
      ],
      "name": "Transfer",
      "type": "event"
    },
    {
      "inputs": [
        {
          "internalType": "uint256",
          "name": "",
          "type": "uint256"
        }
      ],
      "name": "BDmapping",
      "outputs": [
        {
          "internalType": "uint256",
          "name": "id",
          "type": "uint256"
        },
        {
          "internalType": "address",
          "name": "donor_hosp",
          "type": "address"
        },
        {
          "internalType": "address",
          "name": "doc_1",
          "type": "address"
        },
        {
          "internalType": "address",
          "name": "doc_2",
          "type": "address"
        },
        {
          "internalType": "uint256",
          "name": "id1",
          "type": "uint256"
        },
        {
          "internalType": "uint256",
          "name": "id2",
          "type": "uint256"
        },
        {
          "internalType": "uint256",
          "name": "sign1",
          "type": "uint256"
        },
        {
          "internalType": "uint256",
          "name": "sign2",
          "type": "uint256"
        },
        {
          "internalType": "bool",
          "name": "status",
          "type": "bool"
        },
        {
          "internalType": "bool",
          "name": "flag",
          "type": "bool"
        },
        {
          "internalType": "uint256",
          "name": "timestamp",
          "type": "uint256"
        }
      ],
      "stateMutability": "view",
      "type": "function"
    },
    {
      "inputs": [
        {
          "internalType": "uint256",
          "name": "id",
          "type": "uint256"
        }
      ],
      "name": "DocPat",
      "outputs": [
        {
          "components": [
            {
              "internalType": "uint256",
              "name": "id",
              "type": "uint256"
            },
            {
              "internalType": "address",
              "name": "donor_hosp",
              "type": "address"
            },
            {
              "internalType": "address",
              "name": "doc_1",
              "type": "address"
            },
            {
              "internalType": "address",
              "name": "doc_2",
              "type": "address"
            },
            {
              "internalType": "uint256",
              "name": "id1",
              "type": "uint256"
            },
            {
              "internalType": "uint256",
              "name": "id2",
              "type": "uint256"
            },
            {
              "internalType": "uint256",
              "name": "sign1",
              "type": "uint256"
            },
            {
              "internalType": "uint256",
              "name": "sign2",
              "type": "uint256"
            },
            {
              "internalType": "bool",
              "name": "status",
              "type": "bool"
            },
            {
              "internalType": "bool",
              "name": "flag",
              "type": "bool"
            },
            {
              "internalType": "uint256",
              "name": "timestamp",
              "type": "uint256"
            }
          ],
          "internalType": "struct NFT.BD[]",
          "name": "",
          "type": "tuple[]"
        }
      ],
      "stateMutability": "view",
      "type": "function"
    },
    {
      "inputs": [
        {
          "internalType": "uint256",
          "name": "donor_id",
          "type": "uint256"
        },
        {
          "internalType": "uint256",
          "name": "reciever_id",
          "type": "uint256"
        },
        {
          "internalType": "address",
          "name": "donor_hosp",
          "type": "address"
        },
        {
          "internalType": "address",
          "name": "reciever_hosp",
          "type": "address"
        },
        {
          "internalType": "int256",
          "name": "transplant_id",
          "type": "int256"
        },
        {
          "internalType": "string",
          "name": "organ",
          "type": "string"
        },
        {
          "internalType": "int256",
          "name": "stage",
          "type": "int256"
        },
        {
          "internalType": "address",
          "name": "ContractA_Address",
          "type": "address"
        }
      ],
      "name": "TransDetails",
      "outputs": [
        {
          "internalType": "bool",
          "name": "",
          "type": "bool"
        }
      ],
      "stateMutability": "nonpayable",
      "type": "function"
    },
    {
      "inputs": [
        {
          "internalType": "address",
          "name": "to",
          "type": "address"
        },
        {
          "internalType": "uint256",
          "name": "tokenId",
          "type": "uint256"
        }
      ],
      "name": "approve",
      "outputs": [],
      "stateMutability": "nonpayable",
      "type": "function"
    },
    {
      "inputs": [
        {
          "internalType": "address[]",
          "name": "to",
          "type": "address[]"
        },
        {
          "internalType": "uint256",
          "name": "tokenId",
          "type": "uint256"
        }
      ],
      "name": "approveTransfer",
      "outputs": [],
      "stateMutability": "nonpayable",
      "type": "function"
    },
    {
      "inputs": [
        {
          "internalType": "address",
          "name": "player",
          "type": "address"
        },
        {
          "internalType": "string",
          "name": "tokenURI",
          "type": "string"
        }
      ],
      "name": "awardItem",
      "outputs": [
        {
          "internalType": "uint256",
          "name": "",
          "type": "uint256"
        }
      ],
      "stateMutability": "nonpayable",
      "type": "function"
    },
    {
      "inputs": [
        {
          "internalType": "address",
          "name": "owner",
          "type": "address"
        }
      ],
      "name": "balanceOf",
      "outputs": [
        {
          "internalType": "uint256",
          "name": "",
          "type": "uint256"
        }
      ],
      "stateMutability": "view",
      "type": "function"
    },
    {
      "inputs": [
        {
          "internalType": "uint256",
          "name": "donor_id",
          "type": "uint256"
        },
        {
          "internalType": "address",
          "name": "donor_hosp",
          "type": "address"
        }
      ],
      "name": "brain_Dead",
      "outputs": [
        {
          "internalType": "bool",
          "name": "",
          "type": "bool"
        }
      ],
      "stateMutability": "nonpayable",
      "type": "function"
    },
    {
      "inputs": [
        {
          "internalType": "int256",
          "name": "",
          "type": "int256"
        }
      ],
      "name": "driver_details",
      "outputs": [
        {
          "internalType": "string",
          "name": "name",
          "type": "string"
        },
        {
          "internalType": "string",
          "name": "plate_num",
          "type": "string"
        },
        {
          "internalType": "uint256",
          "name": "id",
          "type": "uint256"
        }
      ],
      "stateMutability": "view",
      "type": "function"
    },
    {
      "inputs": [
        {
          "internalType": "int256",
          "name": "transplant_id",
          "type": "int256"
        },
        {
          "internalType": "address",
          "name": "ContractA_Address",
          "type": "address"
        }
      ],
      "name": "end_surgery",
      "outputs": [
        {
          "internalType": "bool",
          "name": "",
          "type": "bool"
        }
      ],
      "stateMutability": "nonpayable",
      "type": "function"
    },
    {
      "inputs": [
        {
          "internalType": "int256",
          "name": "transplant_id",
          "type": "int256"
        },
        {
          "internalType": "address",
          "name": "ContractA_Address",
          "type": "address"
        }
      ],
      "name": "end_transport",
      "outputs": [
        {
          "internalType": "bool",
          "name": "",
          "type": "bool"
        }
      ],
      "stateMutability": "nonpayable",
      "type": "function"
    },
    {
      "inputs": [
        {
          "internalType": "int256",
          "name": "transplant_id",
          "type": "int256"
        }
      ],
      "name": "failed",
      "outputs": [],
      "stateMutability": "nonpayable",
      "type": "function"
    },
    {
      "inputs": [],
      "name": "getAllBDs",
      "outputs": [
        {
          "components": [
            {
              "internalType": "uint256",
              "name": "id",
              "type": "uint256"
            },
            {
              "internalType": "address",
              "name": "donor_hosp",
              "type": "address"
            },
            {
              "internalType": "address",
              "name": "doc_1",
              "type": "address"
            },
            {
              "internalType": "address",
              "name": "doc_2",
              "type": "address"
            },
            {
              "internalType": "uint256",
              "name": "id1",
              "type": "uint256"
            },
            {
              "internalType": "uint256",
              "name": "id2",
              "type": "uint256"
            },
            {
              "internalType": "uint256",
              "name": "sign1",
              "type": "uint256"
            },
            {
              "internalType": "uint256",
              "name": "sign2",
              "type": "uint256"
            },
            {
              "internalType": "bool",
              "name": "status",
              "type": "bool"
            },
            {
              "internalType": "bool",
              "name": "flag",
              "type": "bool"
            },
            {
              "internalType": "uint256",
              "name": "timestamp",
              "type": "uint256"
            }
          ],
          "internalType": "struct NFT.BD[]",
          "name": "",
          "type": "tuple[]"
        }
      ],
      "stateMutability": "view",
      "type": "function"
    },
    {
      "inputs": [
        {
          "internalType": "uint256",
          "name": "tokenId",
          "type": "uint256"
        }
      ],
      "name": "getApproved",
      "outputs": [
        {
          "internalType": "address",
          "name": "",
          "type": "address"
        }
      ],
      "stateMutability": "view",
      "type": "function"
    },
    {
      "inputs": [
        {
          "internalType": "uint256[]",
          "name": "list",
          "type": "uint256[]"
        }
      ],
      "name": "getBrainDeadDetails",
      "outputs": [
        {
          "components": [
            {
              "internalType": "uint256",
              "name": "id",
              "type": "uint256"
            },
            {
              "internalType": "address",
              "name": "donor_hosp",
              "type": "address"
            },
            {
              "internalType": "address",
              "name": "doc_1",
              "type": "address"
            },
            {
              "internalType": "address",
              "name": "doc_2",
              "type": "address"
            },
            {
              "internalType": "uint256",
              "name": "id1",
              "type": "uint256"
            },
            {
              "internalType": "uint256",
              "name": "id2",
              "type": "uint256"
            },
            {
              "internalType": "uint256",
              "name": "sign1",
              "type": "uint256"
            },
            {
              "internalType": "uint256",
              "name": "sign2",
              "type": "uint256"
            },
            {
              "internalType": "bool",
              "name": "status",
              "type": "bool"
            },
            {
              "internalType": "bool",
              "name": "flag",
              "type": "bool"
            },
            {
              "internalType": "uint256",
              "name": "timestamp",
              "type": "uint256"
            }
          ],
          "internalType": "struct NFT.BD[]",
          "name": "",
          "type": "tuple[]"
        }
      ],
      "stateMutability": "view",
      "type": "function"
    },
    {
      "inputs": [
        {
          "internalType": "address",
          "name": "donor_hosp",
          "type": "address"
        },
        {
          "internalType": "address",
          "name": "ContractA_Address",
          "type": "address"
        }
      ],
      "name": "getbrainDead",
      "outputs": [
        {
          "internalType": "uint256[]",
          "name": "",
          "type": "uint256[]"
        }
      ],
      "stateMutability": "view",
      "type": "function"
    },
    {
      "inputs": [
        {
          "internalType": "address",
          "name": "owner",
          "type": "address"
        },
        {
          "internalType": "address",
          "name": "operator",
          "type": "address"
        }
      ],
      "name": "isApprovedForAll",
      "outputs": [
        {
          "internalType": "bool",
          "name": "",
          "type": "bool"
        }
      ],
      "stateMutability": "view",
      "type": "function"
    },
    {
      "inputs": [],
      "name": "name",
      "outputs": [
        {
          "internalType": "string",
          "name": "",
          "type": "string"
        }
      ],
      "stateMutability": "view",
      "type": "function"
    },
    {
      "inputs": [
        {
          "internalType": "uint256",
          "name": "tokenId",
          "type": "uint256"
        }
      ],
      "name": "ownerOf",
      "outputs": [
        {
          "internalType": "address",
          "name": "",
          "type": "address"
        }
      ],
      "stateMutability": "view",
      "type": "function"
    },
    {
      "inputs": [
        {
          "internalType": "uint256",
          "name": "id",
          "type": "uint256"
        },
        {
          "internalType": "address",
          "name": "doc_1",
          "type": "address"
        },
        {
          "internalType": "address",
          "name": "doc_2",
          "type": "address"
        },
        {
          "internalType": "uint256",
          "name": "id1",
          "type": "uint256"
        },
        {
          "internalType": "uint256",
          "name": "id2",
          "type": "uint256"
        }
      ],
      "name": "reg_braindead",
      "outputs": [],
      "stateMutability": "nonpayable",
      "type": "function"
    },
    {
      "inputs": [
        {
          "internalType": "address",
          "name": "from",
          "type": "address"
        },
        {
          "internalType": "address",
          "name": "to",
          "type": "address"
        },
        {
          "internalType": "uint256",
          "name": "tokenId",
          "type": "uint256"
        }
      ],
      "name": "safeTransferFrom",
      "outputs": [],
      "stateMutability": "nonpayable",
      "type": "function"
    },
    {
      "inputs": [
        {
          "internalType": "address",
          "name": "from",
          "type": "address"
        },
        {
          "internalType": "address",
          "name": "to",
          "type": "address"
        },
        {
          "internalType": "uint256",
          "name": "tokenId",
          "type": "uint256"
        },
        {
          "internalType": "bytes",
          "name": "data",
          "type": "bytes"
        }
      ],
      "name": "safeTransferFrom",
      "outputs": [],
      "stateMutability": "nonpayable",
      "type": "function"
    },
    {
      "inputs": [
        {
          "internalType": "address",
          "name": "operator",
          "type": "address"
        },
        {
          "internalType": "bool",
          "name": "approved",
          "type": "bool"
        }
      ],
      "name": "setApprovalForAll",
      "outputs": [],
      "stateMutability": "nonpayable",
      "type": "function"
    },
    {
      "inputs": [
        {
          "internalType": "uint256",
          "name": "id",
          "type": "uint256"
        },
        {
          "internalType": "uint256",
          "name": "val",
          "type": "uint256"
        }
      ],
      "name": "signApproval",
      "outputs": [],
      "stateMutability": "nonpayable",
      "type": "function"
    },
    {
      "inputs": [
        {
          "internalType": "int256",
          "name": "transplant_id",
          "type": "int256"
        },
        {
          "internalType": "address",
          "name": "ContractA_Address",
          "type": "address"
        }
      ],
      "name": "start_surgery",
      "outputs": [
        {
          "internalType": "bool",
          "name": "",
          "type": "bool"
        }
      ],
      "stateMutability": "nonpayable",
      "type": "function"
    },
    {
      "inputs": [
        {
          "internalType": "int256",
          "name": "transplant_id",
          "type": "int256"
        },
        {
          "internalType": "uint256",
          "name": "contact",
          "type": "uint256"
        },
        {
          "internalType": "string",
          "name": "name",
          "type": "string"
        },
        {
          "internalType": "string",
          "name": "plate_num",
          "type": "string"
        },
        {
          "internalType": "address",
          "name": "ContractA_Address",
          "type": "address"
        }
      ],
      "name": "start_transport",
      "outputs": [
        {
          "internalType": "bool",
          "name": "",
          "type": "bool"
        }
      ],
      "stateMutability": "nonpayable",
      "type": "function"
    },
    {
      "inputs": [
        {
          "internalType": "bytes4",
          "name": "interfaceId",
          "type": "bytes4"
        }
      ],
      "name": "supportsInterface",
      "outputs": [
        {
          "internalType": "bool",
          "name": "",
          "type": "bool"
        }
      ],
      "stateMutability": "view",
      "type": "function"
    },
    {
      "inputs": [],
      "name": "symbol",
      "outputs": [
        {
          "internalType": "string",
          "name": "",
          "type": "string"
        }
      ],
      "stateMutability": "view",
      "type": "function"
    },
    {
      "inputs": [
        {
          "internalType": "uint256",
          "name": "tokenId",
          "type": "uint256"
        }
      ],
      "name": "tokenURI",
      "outputs": [
        {
          "internalType": "string",
          "name": "",
          "type": "string"
        }
      ],
      "stateMutability": "view",
      "type": "function"
    },
    {
      "inputs": [
        {
          "internalType": "int256",
          "name": "",
          "type": "int256"
        }
      ],
      "name": "trans_Detail",
      "outputs": [
        {
          "internalType": "uint256",
          "name": "donor_id",
          "type": "uint256"
        },
        {
          "internalType": "uint256",
          "name": "reciever_id",
          "type": "uint256"
        },
        {
          "internalType": "address",
          "name": "donor_hosp",
          "type": "address"
        },
        {
          "internalType": "address",
          "name": "reciever_hosp",
          "type": "address"
        },
        {
          "internalType": "string",
          "name": "organ",
          "type": "string"
        },
        {
          "internalType": "int256",
          "name": "stage",
          "type": "int256"
        },
        {
          "internalType": "uint256",
          "name": "success",
          "type": "uint256"
        },
        {
          "internalType": "bool",
          "name": "flag",
          "type": "bool"
        }
      ],
      "stateMutability": "view",
      "type": "function"
    },
    {
      "inputs": [
        {
          "internalType": "int256",
          "name": "",
          "type": "int256"
        }
      ],
      "name": "trans_timeline",
      "outputs": [
        {
          "internalType": "uint256",
          "name": "organ_match",
          "type": "uint256"
        },
        {
          "internalType": "uint256",
          "name": "start_trans",
          "type": "uint256"
        },
        {
          "internalType": "uint256",
          "name": "end_trans",
          "type": "uint256"
        },
        {
          "internalType": "uint256",
          "name": "start_sur",
          "type": "uint256"
        },
        {
          "internalType": "uint256",
          "name": "end_sur",
          "type": "uint256"
        }
      ],
      "stateMutability": "view",
      "type": "function"
    },
    {
      "inputs": [
        {
          "internalType": "address",
          "name": "from",
          "type": "address"
        },
        {
          "internalType": "address",
          "name": "to",
          "type": "address"
        },
        {
          "internalType": "uint256",
          "name": "tokenId",
          "type": "uint256"
        }
      ],
      "name": "transferFrom",
      "outputs": [],
      "stateMutability": "nonpayable",
      "type": "function"
    },
    {
      "inputs": [
        {
          "internalType": "address",
          "name": "from",
          "type": "address"
        },
        {
          "internalType": "address",
          "name": "to",
          "type": "address"
        },
        {
          "internalType": "uint256",
          "name": "tokenId",
          "type": "uint256"
        }
      ],
      "name": "transferNFT",
      "outputs": [],
      "stateMutability": "nonpayable",
      "type": "function"
    },
    {
      "inputs": [
        {
          "internalType": "int256",
          "name": "transplant_id",
          "type": "int256"
        }
      ],
      "name": "transferedNFT",
      "outputs": [],
      "stateMutability": "nonpayable",
      "type": "function"
    },
    {
      "inputs": [
        {
          "internalType": "uint256",
          "name": "id",
          "type": "uint256"
        }
      ],
      "name": "verifyBrainDead",
      "outputs": [
        {
          "internalType": "bool",
          "name": "",
          "type": "bool"
        }
      ],
      "stateMutability": "view",
      "type": "function"
    }
  ],
  "bytecode": "0x60806040523480156200001157600080fd5b506040518060400160405280600f81526020017f4f726167616e20446f6e6174696f6e00000000000000000000000000000000008152506040518060400160405280600281526020017f4f4400000000000000000000000000000000000000000000000000000000000081525081600090816200008f919062000324565b508060019081620000a1919062000324565b5050506200040b565b600081519050919050565b7f4e487b7100000000000000000000000000000000000000000000000000000000600052604160045260246000fd5b7f4e487b7100000000000000000000000000000000000000000000000000000000600052602260045260246000fd5b600060028204905060018216806200012c57607f821691505b602082108103620001425762000141620000e4565b5b50919050565b60008190508160005260206000209050919050565b60006020601f8301049050919050565b600082821b905092915050565b600060088302620001ac7fffffffffffffffffffffffffffffffffffffffffffffffffffffffffffffffff826200016d565b620001b886836200016d565b95508019841693508086168417925050509392505050565b6000819050919050565b6000819050919050565b600062000205620001ff620001f984620001d0565b620001da565b620001d0565b9050919050565b6000819050919050565b6200022183620001e4565b6200023962000230826200020c565b8484546200017a565b825550505050565b600090565b6200025062000241565b6200025d81848462000216565b505050565b5b8181101562000285576200027960008262000246565b60018101905062000263565b5050565b601f821115620002d4576200029e8162000148565b620002a9846200015d565b81016020851015620002b9578190505b620002d1620002c8856200015d565b83018262000262565b50505b505050565b600082821c905092915050565b6000620002f960001984600802620002d9565b1980831691505092915050565b6000620003148383620002e6565b9150826002028217905092915050565b6200032f82620000aa565b67ffffffffffffffff8111156200034b576200034a620000b5565b5b62000357825462000113565b6200036482828562000289565b600060209050601f8311600181146200039c576000841562000387578287015190505b62000393858262000306565b86555062000403565b601f198416620003ac8662000148565b60005b82811015620003d657848901518255600182019150602085019450602081019050620003af565b86831015620003f65784890151620003f2601f891682620002e6565b8355505b6001600288020188555050505b505050505050565b615edb806200041b6000396000f3fe608060405234801561001057600080fd5b50600436106102115760003560e01c80635bea674f11610125578063b88d4fde116100ad578063cf3783431161007c578063cf378343146106bb578063de326da0146106eb578063e8aa00141461071b578063e985e9c51461074b578063f0cb07831461077b57610211565b8063b88d4fde1461060d578063bf2a120514610629578063c87b56dd14610659578063cadb42631461068957610211565b806386459b9a116100f457806386459b9a1461055357806395d89b4114610587578063a22cb465146105a5578063a326bf00146105c1578063abe5b96b146105f157610211565b80635bea674f146104a75780636352211e146104d757806369e9cae11461050757806370a082311461052357610211565b806317ff262f116101a85780631ef96c38116101775780631ef96c38146103ec57806323b872dd1461040857806342842e0e146104245780634f8935a01461044057806352f50f0b1461047757610211565b806317ff262f146103545780631ae1d907146103845780631b59ede4146103b45780631c62ac17146103d057610211565b806306fdde03116101e457806306fdde03146102b0578063081812fc146102ce578063095ea7b3146102fe5780630decb3311461031a57610211565b8063018ba1281461021657806301ffc9a714610234578063047dd30114610264578063067bd86f14610294575b600080fd5b61021e6107ab565b60405161022b91906142d4565b60405180910390f35b61024e60048036038101906102499190614362565b610a0a565b60405161025b919061439e565b60405180910390f35b61027e600480360381019061027991906143e5565b610a6b565b60405161028b91906144d4565b60405180910390f35b6102ae60048036038101906102a9919061452c565b610bc9565b005b6102b8610be8565b6040516102c591906145e9565b60405180910390f35b6102e860048036038101906102e39190614637565b610c7a565b6040516102f59190614673565b60405180910390f35b6103186004803603810190610313919061468e565b610c96565b005b610334600480360381019061032f9190614637565b610cac565b60405161034b9b9a999897969594939291906146dd565b60405180910390f35b61036e60048036038101906103699190614637565b610d80565b60405161037b91906142d4565b60405180910390f35b61039e60048036038101906103999190614637565b611014565b6040516103ab919061439e565b60405180910390f35b6103ce60048036038101906103c991906148d0565b611041565b005b6103ea60048036038101906103e5919061492c565b611089565b005b6104066004803603810190610401919061452c565b6113dc565b005b610422600480360381019061041d919061496c565b6113fb565b005b61043e6004803603810190610439919061496c565b6114fd565b005b61045a6004803603810190610455919061452c565b61151d565b60405161046e9897969594939291906149ce565b60405180910390f35b610491600480360381019061048c9190614b08565b61163a565b60405161049e919061439e565b60405180910390f35b6104c160048036038101906104bc9190614bda565b611c0c565b6040516104ce919061439e565b60405180910390f35b6104f160048036038101906104ec9190614637565b611e11565b6040516104fe9190614673565b60405180910390f35b610521600480360381019061051c919061496c565b611e23565b005b61053d60048036038101906105389190614c1a565b611e33565b60405161054a9190614c47565b60405180910390f35b61056d6004803603810190610568919061452c565b611eed565b60405161057e959493929190614c62565b60405180910390f35b61058f611f23565b60405161059c91906145e9565b60405180910390f35b6105bf60048036038101906105ba9190614ce1565b611fb5565b005b6105db60048036038101906105d69190614bda565b611fcb565b6040516105e8919061439e565b60405180910390f35b61060b60048036038101906106069190614d21565b6121d0565b005b61062760048036038101906106229190614e3d565b61232b565b005b610643600480360381019061063e9190614ec0565b612348565b604051610650919061439e565b60405180910390f35b610673600480360381019061066e9190614637565b6125ce565b60405161068091906145e9565b60405180910390f35b6106a3600480360381019061069e919061452c565b6126e1565b6040516106b293929190614f73565b60405180910390f35b6106d560048036038101906106d09190614fb8565b61281b565b6040516106e29190614c47565b60405180910390f35b610705600480360381019061070091906150d7565b612852565b60405161071291906142d4565b60405180910390f35b61073560048036038101906107309190614bda565b612aa7565b604051610742919061439e565b60405180910390f35b610765600480360381019061076091906143e5565b612de9565b604051610772919061439e565b60405180910390f35b61079560048036038101906107909190615120565b612e7d565b6040516107a2919061439e565b60405180910390f35b6060600060098054905067ffffffffffffffff8111156107ce576107cd61478d565b5b60405190808252806020026020018201604052801561080757816020015b6107f461402e565b8152602001906001900390816107ec5790505b50905060005b600980549050811015610a02576000600a60006009848154811061083457610833615160565b5b9060005260206000200154815260200190815260200160002060405180610160016040529081600082015481526020016001820160009054906101000a900473ffffffffffffffffffffffffffffffffffffffff1673ffffffffffffffffffffffffffffffffffffffff1673ffffffffffffffffffffffffffffffffffffffff1681526020016002820160009054906101000a900473ffffffffffffffffffffffffffffffffffffffff1673ffffffffffffffffffffffffffffffffffffffff1673ffffffffffffffffffffffffffffffffffffffff1681526020016003820160009054906101000a900473ffffffffffffffffffffffffffffffffffffffff1673ffffffffffffffffffffffffffffffffffffffff1673ffffffffffffffffffffffffffffffffffffffff168152602001600482015481526020016005820154815260200160068201548152602001600782015481526020016008820160009054906101000a900460ff161515151581526020016008820160019054906101000a900460ff161515151581526020016009820154815250509050808383815181106109e3576109e2615160565b5b60200260200101819052505080806109fa906151be565b91505061080d565b508091505090565b6000634906490660e01b7bffffffffffffffffffffffffffffffffffffffffffffffffffffffff1916827bffffffffffffffffffffffffffffffffffffffffffffffffffffffff19161480610a645750610a6382613122565b5b9050919050565b60606000829050600115158173ffffffffffffffffffffffffffffffffffffffff1663c23697a8866040518263ffffffff1660e01b8152600401610aaf9190614673565b602060405180830381865afa158015610acc573d6000803e3d6000fd5b505050506040513d601f19601f82011682018060405250810190610af0919061521b565b151514610b32576040517f08c379a0000000000000000000000000000000000000000000000000000000008152600401610b29906152ba565b60405180910390fd5b600b60008573ffffffffffffffffffffffffffffffffffffffff1673ffffffffffffffffffffffffffffffffffffffff168152602001908152602001600020805480602002602001604051908101604052809291908181526020018280548015610bbb57602002820191906000526020600020905b815481526020019060010190808311610ba7575b505050505091505092915050565b6001600e60008381526020019081526020016000206006018190555050565b606060008054610bf790615309565b80601f0160208091040260200160405190810160405280929190818152602001828054610c2390615309565b8015610c705780601f10610c4557610100808354040283529160200191610c70565b820191906000526020600020905b815481529060010190602001808311610c5357829003601f168201915b5050505050905090565b6000610c8582613204565b50610c8f8261328c565b9050919050565b610ca88282610ca36132c9565b6132d1565b5050565b600a6020528060005260406000206000915090508060000154908060010160009054906101000a900473ffffffffffffffffffffffffffffffffffffffff16908060020160009054906101000a900473ffffffffffffffffffffffffffffffffffffffff16908060030160009054906101000a900473ffffffffffffffffffffffffffffffffffffffff16908060040154908060050154908060060154908060070154908060080160009054906101000a900460ff16908060080160019054906101000a900460ff1690806009015490508b565b60606000600c60008481526020019081526020016000208054905067ffffffffffffffff811115610db457610db361478d565b5b604051908082528060200260200182016040528015610ded57816020015b610dda61402e565b815260200190600190039081610dd25790505b50905060005b600c60008581526020019081526020016000208054905081101561100a576000600a6000600c60008881526020019081526020016000208481548110610e3c57610e3b615160565b5b9060005260206000200154815260200190815260200160002060405180610160016040529081600082015481526020016001820160009054906101000a900473ffffffffffffffffffffffffffffffffffffffff1673ffffffffffffffffffffffffffffffffffffffff1673ffffffffffffffffffffffffffffffffffffffff1681526020016002820160009054906101000a900473ffffffffffffffffffffffffffffffffffffffff1673ffffffffffffffffffffffffffffffffffffffff1673ffffffffffffffffffffffffffffffffffffffff1681526020016003820160009054906101000a900473ffffffffffffffffffffffffffffffffffffffff1673ffffffffffffffffffffffffffffffffffffffff1673ffffffffffffffffffffffffffffffffffffffff168152602001600482015481526020016005820154815260200160068201548152602001600782015481526020016008820160009054906101000a900460ff161515151581526020016008820160019054906101000a900460ff16151515158152602001600982015481525050905080838381518110610feb57610fea615160565b5b6020026020010181905250508080611002906151be565b915050610df3565b5080915050919050565b6000600a600083815260200190815260200160002060080160009054906101000a900460ff169050919050565b60005b82518110156110845761107183828151811061106357611062615160565b5b602002602001015183610c96565b808061107c906151be565b915050611044565b505050565b600a600083815260200190815260200160002060020160009054906101000a900473ffffffffffffffffffffffffffffffffffffffff1673ffffffffffffffffffffffffffffffffffffffff163373ffffffffffffffffffffffffffffffffffffffff16148061115a5750600a600083815260200190815260200160002060030160009054906101000a900473ffffffffffffffffffffffffffffffffffffffff1673ffffffffffffffffffffffffffffffffffffffff163373ffffffffffffffffffffffffffffffffffffffff16145b611199576040517f08c379a0000000000000000000000000000000000000000000000000000000008152600401611190906153ac565b60405180910390fd5b600a600083815260200190815260200160002060020160009054906101000a900473ffffffffffffffffffffffffffffffffffffffff1673ffffffffffffffffffffffffffffffffffffffff163373ffffffffffffffffffffffffffffffffffffffff160361127b576000600a6000848152602001908152602001600020600601541461125b576040517f08c379a000000000000000000000000000000000000000000000000000000000815260040161125290615418565b60405180910390fd5b80600a6000848152602001908152602001600020600601819055506112f0565b6000600a600084815260200190815260200160002060070154146112d4576040517f08c379a00000000000000000000000000000000000000000000000000000000081526004016112cb90615418565b60405180910390fd5b80600a6000848152602001908152602001600020600701819055505b6000600a6000848152602001908152602001600020600601541415801561132e57506000600a60008481526020019081526020016000206007015414155b156113d8576002600a600084815260200190815260200160002060060154148061136e57506002600a600084815260200190815260200160002060070154145b156113a7576000600a600084815260200190815260200160002060080160006101000a81548160ff0219169083151502179055506113d7565b6001600a600084815260200190815260200160002060080160006101000a81548160ff0219169083151502179055505b5b5050565b6002600e60008381526020019081526020016000206006018190555050565b600073ffffffffffffffffffffffffffffffffffffffff168273ffffffffffffffffffffffffffffffffffffffff160361146d5760006040517f64a0ae920000000000000000000000000000000000000000000000000000000081526004016114649190614673565b60405180910390fd5b6000611481838361147c6132c9565b6132e3565b90508373ffffffffffffffffffffffffffffffffffffffff168173ffffffffffffffffffffffffffffffffffffffff16146114f7578382826040517f64283d7b0000000000000000000000000000000000000000000000000000000081526004016114ee93929190615438565b60405180910390fd5b50505050565b6115188383836040518060200160405280600081525061232b565b505050565b600e6020528060005260406000206000915090508060000154908060010154908060020160009054906101000a900473ffffffffffffffffffffffffffffffffffffffff16908060030160009054906101000a900473ffffffffffffffffffffffffffffffffffffffff169080600401805461159890615309565b80601f01602080910402602001604051908101604052809291908181526020018280546115c490615309565b80156116115780601f106115e657610100808354040283529160200191611611565b820191906000526020600020905b8154815290600101906020018083116115f457829003601f168201915b5050505050908060050154908060060154908060070160009054906101000a900460ff16905088565b600080829050600015158173ffffffffffffffffffffffffffffffffffffffff16634a84f3a9886040518263ffffffff1660e01b815260040161167d919061546f565b602060405180830381865afa15801561169a573d6000803e3d6000fd5b505050506040513d601f19601f820116820180604052508101906116be919061521b565b151514611700576040517f08c379a00000000000000000000000000000000000000000000000000000000081526004016116f790615522565b60405180910390fd5b6001151561170d8b611014565b15151461174f576040517f08c379a0000000000000000000000000000000000000000000000000000000008152600401611746906155b4565b60405180910390fd5b600115158173ffffffffffffffffffffffffffffffffffffffff1663c23697a88a6040518263ffffffff1660e01b815260040161178c9190614673565b602060405180830381865afa1580156117a9573d6000803e3d6000fd5b505050506040513d601f19601f820116820180604052508101906117cd919061521b565b15151461180f576040517f08c379a0000000000000000000000000000000000000000000000000000000008152600401611806906152ba565b60405180910390fd5b600115158173ffffffffffffffffffffffffffffffffffffffff166368bdf2428c6040518263ffffffff1660e01b815260040161184c9190614c47565b602060405180830381865afa158015611869573d6000803e3d6000fd5b505050506040513d601f19601f8201168201806040525081019061188d919061521b565b1515146118cf576040517f08c379a00000000000000000000000000000000000000000000000000000000081526004016118c690615620565b60405180910390fd5b600115158173ffffffffffffffffffffffffffffffffffffffff1663627360218b6040518263ffffffff1660e01b815260040161190c9190614c47565b602060405180830381865afa158015611929573d6000803e3d6000fd5b505050506040513d601f19601f8201168201806040525081019061194d919061521b565b15151461198f576040517f08c379a0000000000000000000000000000000000000000000000000000000008152600401611986906156b2565b60405180910390fd5b60006040518061010001604052808c81526020018b81526020018a73ffffffffffffffffffffffffffffffffffffffff1681526020018973ffffffffffffffffffffffffffffffffffffffff1681526020018781526020018681526020016000815260200160011515815250905080600e6000898152602001908152602001600020600082015181600001556020820151816001015560408201518160020160006101000a81548173ffffffffffffffffffffffffffffffffffffffff021916908373ffffffffffffffffffffffffffffffffffffffff16021790555060608201518160030160006101000a81548173ffffffffffffffffffffffffffffffffffffffff021916908373ffffffffffffffffffffffffffffffffffffffff1602179055506080820151816004019081611ac8919061587e565b5060a0820151816005015560c0820151816006015560e08201518160070160006101000a81548160ff021916908315150217905550905050600042905060006040518060a0016040528083815260200142815260200142815260200142815260200142815250905080600d60008b815260200190815260200160002060008201518160000155602082015181600101556040820151816002015560608201518160030155608082015181600401559050508373ffffffffffffffffffffffffffffffffffffffff1663ea3facbf8d8a6040518363ffffffff1660e01b8152600401611bb4929190615950565b6020604051808303816000875af1158015611bd3573d6000803e3d6000fd5b505050506040513d601f19601f82011682018060405250810190611bf7919061521b565b50600194505050505098975050505050505050565b600080829050600015158173ffffffffffffffffffffffffffffffffffffffff16634a84f3a9866040518263ffffffff1660e01b8152600401611c4f919061546f565b602060405180830381865afa158015611c6c573d6000803e3d6000fd5b505050506040513d601f19601f82011682018060405250810190611c90919061521b565b151514611cd2576040517f08c379a0000000000000000000000000000000000000000000000000000000008152600401611cc990615522565b60405180910390fd5b600e600085815260200190815260200160002060030160009054906101000a900473ffffffffffffffffffffffffffffffffffffffff1673ffffffffffffffffffffffffffffffffffffffff163373ffffffffffffffffffffffffffffffffffffffff1614611d76576040517f08c379a0000000000000000000000000000000000000000000000000000000008152600401611d6d90615a18565b60405180910390fd5b6003600e60008681526020019081526020016000206005015414611dcf576040517f08c379a0000000000000000000000000000000000000000000000000000000008152600401611dc690615aaa565b60405180910390fd5b42600d6000868152602001908152602001600020600301819055506004600e600086815260200190815260200160002060050181905550600191505092915050565b6000611e1c82613204565b9050919050565b611e2e8383836114fd565b505050565b60008073ffffffffffffffffffffffffffffffffffffffff168273ffffffffffffffffffffffffffffffffffffffff1603611ea65760006040517f89c62b64000000000000000000000000000000000000000000000000000000008152600401611e9d9190614673565b60405180910390fd5b600360008373ffffffffffffffffffffffffffffffffffffffff1673ffffffffffffffffffffffffffffffffffffffff168152602001908152602001600020549050919050565b600d6020528060005260406000206000915090508060000154908060010154908060020154908060030154908060040154905085565b606060018054611f3290615309565b80601f0160208091040260200160405190810160405280929190818152602001828054611f5e90615309565b8015611fab5780601f10611f8057610100808354040283529160200191611fab565b820191906000526020600020905b815481529060010190602001808311611f8e57829003601f168201915b5050505050905090565b611fc7611fc06132c9565b83836134fd565b5050565b600080829050600015158173ffffffffffffffffffffffffffffffffffffffff16634a84f3a9866040518263ffffffff1660e01b815260040161200e919061546f565b602060405180830381865afa15801561202b573d6000803e3d6000fd5b505050506040513d601f19601f8201168201806040525081019061204f919061521b565b151514612091576040517f08c379a000000000000000000000000000000000000000000000000000000000815260040161208890615522565b60405180910390fd5b600e600085815260200190815260200160002060030160009054906101000a900473ffffffffffffffffffffffffffffffffffffffff1673ffffffffffffffffffffffffffffffffffffffff163373ffffffffffffffffffffffffffffffffffffffff1614612135576040517f08c379a000000000000000000000000000000000000000000000000000000000815260040161212c90615b62565b60405180910390fd5b6002600e6000868152602001908152602001600020600501541461218e576040517f08c379a000000000000000000000000000000000000000000000000000000000815260040161218590615aaa565b60405180910390fd5b42600d6000868152602001908152602001600020600201819055506003600e600086815260200190815260200160002060050181905550600191505092915050565b83600a600087815260200190815260200160002060020160006101000a81548173ffffffffffffffffffffffffffffffffffffffff021916908373ffffffffffffffffffffffffffffffffffffffff16021790555082600a600087815260200190815260200160002060030160006101000a81548173ffffffffffffffffffffffffffffffffffffffff021916908373ffffffffffffffffffffffffffffffffffffffff16021790555081600a600087815260200190815260200160002060040181905550600c600083815260200190815260200160002085908060018154018082558091505060019003906000526020600020016000909190919091505580600a600087815260200190815260200160002060050181905550600c60008281526020019081526020016000208590806001815401808255809150506001900390600052602060002001600090919091909150555050505050565b6123368484846113fb565b6123428484848461366c565b50505050565b600080829050600015158173ffffffffffffffffffffffffffffffffffffffff16634a84f3a9896040518263ffffffff1660e01b815260040161238b919061546f565b602060405180830381865afa1580156123a8573d6000803e3d6000fd5b505050506040513d601f19601f820116820180604052508101906123cc919061521b565b15151461240e576040517f08c379a000000000000000000000000000000000000000000000000000000000815260040161240590615522565b60405180910390fd5b600e600088815260200190815260200160002060020160009054906101000a900473ffffffffffffffffffffffffffffffffffffffff1673ffffffffffffffffffffffffffffffffffffffff163373ffffffffffffffffffffffffffffffffffffffff16146124b2576040517f08c379a00000000000000000000000000000000000000000000000000000000081526004016124a990615a18565b60405180910390fd5b60011515600e600089815260200190815260200160002060070160009054906101000a900460ff1615151461251c576040517f08c379a000000000000000000000000000000000000000000000000000000000815260040161251390615bf4565b60405180910390fd5b42600d600089815260200190815260200160002060010181905550600060405180606001604052808781526020018681526020018881525090506002600e60008a81526020019081526020016000206005018190555080600f60008a8152602001908152602001600020600082015181600001908161259b919061587e565b5060208201518160010190816125b1919061587e565b506040820151816002015590505060019250505095945050505050565b60606125d982613204565b5060006006600084815260200190815260200160002080546125fa90615309565b80601f016020809104026020016040519081016040528092919081815260200182805461262690615309565b80156126735780601f1061264857610100808354040283529160200191612673565b820191906000526020600020905b81548152906001019060200180831161265657829003601f168201915b505050505090506000612684613823565b905060008151036126995781925050506126dc565b6000825111156126ce5780826040516020016126b6929190615c50565b604051602081830303815290604052925050506126dc565b6126d78461383a565b925050505b919050565b600f60205280600052604060002060009150905080600001805461270490615309565b80601f016020809104026020016040519081016040528092919081815260200182805461273090615309565b801561277d5780601f106127525761010080835404028352916020019161277d565b820191906000526020600020905b81548152906001019060200180831161276057829003601f168201915b50505050509080600101805461279290615309565b80601f01602080910402602001604051908101604052809291908181526020018280546127be90615309565b801561280b5780601f106127e05761010080835404028352916020019161280b565b820191906000526020600020905b8154815290600101906020018083116127ee57829003601f168201915b5050505050908060020154905083565b60008061282860076138a3565b905061283484826138b1565b61283e81846139aa565b6128486007613a06565b8091505092915050565b60606000825167ffffffffffffffff8111156128715761287061478d565b5b6040519080825280602002602001820160405280156128aa57816020015b61289761402e565b81526020019060019003908161288f5790505b50905060005b8351811015612a9d576000600a60008684815181106128d2576128d1615160565b5b6020026020010151815260200190815260200160002060405180610160016040529081600082015481526020016001820160009054906101000a900473ffffffffffffffffffffffffffffffffffffffff1673ffffffffffffffffffffffffffffffffffffffff1673ffffffffffffffffffffffffffffffffffffffff1681526020016002820160009054906101000a900473ffffffffffffffffffffffffffffffffffffffff1673ffffffffffffffffffffffffffffffffffffffff1673ffffffffffffffffffffffffffffffffffffffff1681526020016003820160009054906101000a900473ffffffffffffffffffffffffffffffffffffffff1673ffffffffffffffffffffffffffffffffffffffff1673ffffffffffffffffffffffffffffffffffffffff168152602001600482015481526020016005820154815260200160068201548152602001600782015481526020016008820160009054906101000a900460ff161515151581526020016008820160019054906101000a900460ff16151515158152602001600982015481525050905080838381518110612a7e57612a7d615160565b5b6020026020010181905250508080612a95906151be565b9150506128b0565b5080915050919050565b600080829050600015158173ffffffffffffffffffffffffffffffffffffffff16634a84f3a9866040518263ffffffff1660e01b8152600401612aea919061546f565b602060405180830381865afa158015612b07573d6000803e3d6000fd5b505050506040513d601f19601f82011682018060405250810190612b2b919061521b565b151514612b6d576040517f08c379a0000000000000000000000000000000000000000000000000000000008152600401612b6490615522565b60405180910390fd5b600e600085815260200190815260200160002060030160009054906101000a900473ffffffffffffffffffffffffffffffffffffffff1673ffffffffffffffffffffffffffffffffffffffff163373ffffffffffffffffffffffffffffffffffffffff1614612c11576040517f08c379a0000000000000000000000000000000000000000000000000000000008152600401612c0890615a18565b60405180910390fd5b6004600e60008681526020019081526020016000206005015414612c6a576040517f08c379a0000000000000000000000000000000000000000000000000000000008152600401612c6190615aaa565b60405180910390fd5b42600d6000868152602001908152602001600020600401819055506005600e6000868152602001908152602001600020600501819055508073ffffffffffffffffffffffffffffffffffffffff1663e57a5c4f600e600087815260200190815260200160002060000154600e60008881526020019081526020016000206004016040518363ffffffff1660e01b8152600401612d07929190615cf8565b6020604051808303816000875af1158015612d26573d6000803e3d6000fd5b505050506040513d601f19601f82011682018060405250810190612d4a919061521b565b508073ffffffffffffffffffffffffffffffffffffffff1663eb0c3f5b600e6000878152602001908152602001600020600001546040518263ffffffff1660e01b8152600401612d9a9190614c47565b6020604051808303816000875af1158015612db9573d6000803e3d6000fd5b505050506040513d601f19601f82011682018060405250810190612ddd9190615d3d565b50600191505092915050565b6000600560008473ffffffffffffffffffffffffffffffffffffffff1673ffffffffffffffffffffffffffffffffffffffff16815260200190815260200160002060008373ffffffffffffffffffffffffffffffffffffffff1673ffffffffffffffffffffffffffffffffffffffff16815260200190815260200160002060009054906101000a900460ff16905092915050565b6000600b60008373ffffffffffffffffffffffffffffffffffffffff1673ffffffffffffffffffffffffffffffffffffffff16815260200190815260200160002083908060018154018082558091505060019003906000526020600020016000909190919091505560006040518061016001604052808581526020018473ffffffffffffffffffffffffffffffffffffffff168152602001600073ffffffffffffffffffffffffffffffffffffffff168152602001600073ffffffffffffffffffffffffffffffffffffffff1681526020016000815260200160008152602001600081526020016000815260200160001515815260200160011515815260200142815250905080600a60008681526020019081526020016000206000820151816000015560208201518160010160006101000a81548173ffffffffffffffffffffffffffffffffffffffff021916908373ffffffffffffffffffffffffffffffffffffffff16021790555060408201518160020160006101000a81548173ffffffffffffffffffffffffffffffffffffffff021916908373ffffffffffffffffffffffffffffffffffffffff16021790555060608201518160030160006101000a81548173ffffffffffffffffffffffffffffffffffffffff021916908373ffffffffffffffffffffffffffffffffffffffff1602179055506080820151816004015560a0820151816005015560c0820151816006015560e082015181600701556101008201518160080160006101000a81548160ff0219169083151502179055506101208201518160080160016101000a81548160ff02191690831515021790555061014082015181600901559050506009849080600181540180825580915050600190039060005260206000200160009091909190915055600191505092915050565b60007f80ac58cd000000000000000000000000000000000000000000000000000000007bffffffffffffffffffffffffffffffffffffffffffffffffffffffff1916827bffffffffffffffffffffffffffffffffffffffffffffffffffffffff191614806131ed57507f5b5e139f000000000000000000000000000000000000000000000000000000007bffffffffffffffffffffffffffffffffffffffffffffffffffffffff1916827bffffffffffffffffffffffffffffffffffffffffffffffffffffffff1916145b806131fd57506131fc82613a1c565b5b9050919050565b60008061321083613a86565b9050600073ffffffffffffffffffffffffffffffffffffffff168173ffffffffffffffffffffffffffffffffffffffff160361328357826040517f7e27328900000000000000000000000000000000000000000000000000000000815260040161327a9190614c47565b60405180910390fd5b80915050919050565b60006004600083815260200190815260200160002060009054906101000a900473ffffffffffffffffffffffffffffffffffffffff169050919050565b600033905090565b6132de8383836001613ac3565b505050565b6000806132ef84613a86565b9050600073ffffffffffffffffffffffffffffffffffffffff168373ffffffffffffffffffffffffffffffffffffffff161461333157613330818486613c88565b5b600073ffffffffffffffffffffffffffffffffffffffff168173ffffffffffffffffffffffffffffffffffffffff16146133c257613373600085600080613ac3565b6001600360008373ffffffffffffffffffffffffffffffffffffffff1673ffffffffffffffffffffffffffffffffffffffff168152602001908152602001600020600082825403925050819055505b600073ffffffffffffffffffffffffffffffffffffffff168573ffffffffffffffffffffffffffffffffffffffff1614613445576001600360008773ffffffffffffffffffffffffffffffffffffffff1673ffffffffffffffffffffffffffffffffffffffff168152602001908152602001600020600082825401925050819055505b846002600086815260200190815260200160002060006101000a81548173ffffffffffffffffffffffffffffffffffffffff021916908373ffffffffffffffffffffffffffffffffffffffff160217905550838573ffffffffffffffffffffffffffffffffffffffff168273ffffffffffffffffffffffffffffffffffffffff167fddf252ad1be2c89b69c2b068fc378daa952ba7f163c4a11628f55a4df523b3ef60405160405180910390a4809150509392505050565b600073ffffffffffffffffffffffffffffffffffffffff168273ffffffffffffffffffffffffffffffffffffffff160361356e57816040517f5b08ba180000000000000000000000000000000000000000000000000000000081526004016135659190614673565b60405180910390fd5b80600560008573ffffffffffffffffffffffffffffffffffffffff1673ffffffffffffffffffffffffffffffffffffffff16815260200190815260200160002060008473ffffffffffffffffffffffffffffffffffffffff1673ffffffffffffffffffffffffffffffffffffffff16815260200190815260200160002060006101000a81548160ff0219169083151502179055508173ffffffffffffffffffffffffffffffffffffffff168373ffffffffffffffffffffffffffffffffffffffff167f17307eab39ab6107e8899845ad3d59bd9653f200f220920489ca2b5937696c318360405161365f919061439e565b60405180910390a3505050565b60008373ffffffffffffffffffffffffffffffffffffffff163b111561381d578273ffffffffffffffffffffffffffffffffffffffff1663150b7a026136b06132c9565b8685856040518563ffffffff1660e01b81526004016136d29493929190615dbf565b6020604051808303816000875af192505050801561370e57506040513d601f19601f8201168201806040525081019061370b9190615e20565b60015b613792573d806000811461373e576040519150601f19603f3d011682016040523d82523d6000602084013e613743565b606091505b50600081510361378a57836040517f64a0ae920000000000000000000000000000000000000000000000000000000081526004016137819190614673565b60405180910390fd5b805181602001fd5b63150b7a0260e01b7bffffffffffffffffffffffffffffffffffffffffffffffffffffffff1916817bffffffffffffffffffffffffffffffffffffffffffffffffffffffff19161461381b57836040517f64a0ae920000000000000000000000000000000000000000000000000000000081526004016138129190614673565b60405180910390fd5b505b50505050565b606060405180602001604052806000815250905090565b606061384582613204565b506000613850613823565b90506000815111613870576040518060200160405280600081525061389b565b8061387a84613d4c565b60405160200161388b929190615c50565b6040516020818303038152906040525b915050919050565b600081600001549050919050565b600073ffffffffffffffffffffffffffffffffffffffff168273ffffffffffffffffffffffffffffffffffffffff16036139235760006040517f64a0ae9200000000000000000000000000000000000000000000000000000000815260040161391a9190614673565b60405180910390fd5b6000613931838360006132e3565b9050600073ffffffffffffffffffffffffffffffffffffffff168173ffffffffffffffffffffffffffffffffffffffff16146139a55760006040517f73c6ac6e00000000000000000000000000000000000000000000000000000000815260040161399c9190614673565b60405180910390fd5b505050565b806006600084815260200190815260200160002090816139ca919061587e565b507ff8e1a15aba9398e019f0b49df1a4fde98ee17ae345cb5f6b5e2c27f5033e8ce7826040516139fa9190614c47565b60405180910390a15050565b6001816000016000828254019250508190555050565b60007f01ffc9a7000000000000000000000000000000000000000000000000000000007bffffffffffffffffffffffffffffffffffffffffffffffffffffffff1916827bffffffffffffffffffffffffffffffffffffffffffffffffffffffff1916149050919050565b60006002600083815260200190815260200160002060009054906101000a900473ffffffffffffffffffffffffffffffffffffffff169050919050565b8080613afc5750600073ffffffffffffffffffffffffffffffffffffffff168273ffffffffffffffffffffffffffffffffffffffff1614155b15613c30576000613b0c84613204565b9050600073ffffffffffffffffffffffffffffffffffffffff168373ffffffffffffffffffffffffffffffffffffffff1614158015613b7757508273ffffffffffffffffffffffffffffffffffffffff168173ffffffffffffffffffffffffffffffffffffffff1614155b8015613b8a5750613b888184612de9565b155b15613bcc57826040517fa9fbf51f000000000000000000000000000000000000000000000000000000008152600401613bc39190614673565b60405180910390fd5b8115613c2e57838573ffffffffffffffffffffffffffffffffffffffff168273ffffffffffffffffffffffffffffffffffffffff167f8c5be1e5ebec7d5bd14f71427d1e84f3dd0314c0f7b2291e5b200ac8c7c3b92560405160405180910390a45b505b836004600085815260200190815260200160002060006101000a81548173ffffffffffffffffffffffffffffffffffffffff021916908373ffffffffffffffffffffffffffffffffffffffff16021790555050505050565b613c93838383613e1a565b613d4757600073ffffffffffffffffffffffffffffffffffffffff168373ffffffffffffffffffffffffffffffffffffffff1603613d0857806040517f7e273289000000000000000000000000000000000000000000000000000000008152600401613cff9190614c47565b60405180910390fd5b81816040517f177e802f000000000000000000000000000000000000000000000000000000008152600401613d3e929190615e4d565b60405180910390fd5b505050565b606060006001613d5b84613edb565b01905060008167ffffffffffffffff811115613d7a57613d7961478d565b5b6040519080825280601f01601f191660200182016040528015613dac5781602001600182028036833780820191505090505b509050600082602001820190505b600115613e0f578080600190039150507f3031323334353637383961626364656600000000000000000000000000000000600a86061a8153600a8581613e0357613e02615e76565b5b04945060008503613dba575b819350505050919050565b60008073ffffffffffffffffffffffffffffffffffffffff168373ffffffffffffffffffffffffffffffffffffffff1614158015613ed257508273ffffffffffffffffffffffffffffffffffffffff168473ffffffffffffffffffffffffffffffffffffffff161480613e935750613e928484612de9565b5b80613ed157508273ffffffffffffffffffffffffffffffffffffffff16613eb98361328c565b73ffffffffffffffffffffffffffffffffffffffff16145b5b90509392505050565b600080600090507a184f03e93ff9f4daa797ed6e38ed64bf6a1f0100000000000000008310613f39577a184f03e93ff9f4daa797ed6e38ed64bf6a1f0100000000000000008381613f2f57613f2e615e76565b5b0492506040810190505b6d04ee2d6d415b85acef81000000008310613f76576d04ee2d6d415b85acef81000000008381613f6c57613f6b615e76565b5b0492506020810190505b662386f26fc100008310613fa557662386f26fc100008381613f9b57613f9a615e76565b5b0492506010810190505b6305f5e1008310613fce576305f5e1008381613fc457613fc3615e76565b5b0492506008810190505b6127108310613ff3576127108381613fe957613fe8615e76565b5b0492506004810190505b60648310614016576064838161400c5761400b615e76565b5b0492506002810190505b600a8310614025576001810190505b80915050919050565b60405180610160016040528060008152602001600073ffffffffffffffffffffffffffffffffffffffff168152602001600073ffffffffffffffffffffffffffffffffffffffff168152602001600073ffffffffffffffffffffffffffffffffffffffff16815260200160008152602001600081526020016000815260200160008152602001600015158152602001600015158152602001600081525090565b600081519050919050565b600082825260208201905092915050565b6000819050602082019050919050565b6000819050919050565b61410d816140fa565b82525050565b600073ffffffffffffffffffffffffffffffffffffffff82169050919050565b600061413e82614113565b9050919050565b61414e81614133565b82525050565b60008115159050919050565b61416981614154565b82525050565b610160820160008201516141866000850182614104565b5060208201516141996020850182614145565b5060408201516141ac6040850182614145565b5060608201516141bf6060850182614145565b5060808201516141d26080850182614104565b5060a08201516141e560a0850182614104565b5060c08201516141f860c0850182614104565b5060e082015161420b60e0850182614104565b50610100820151614220610100850182614160565b50610120820151614235610120850182614160565b5061014082015161424a610140850182614104565b50505050565b600061425c838361416f565b6101608301905092915050565b6000602082019050919050565b6000614281826140ce565b61428b81856140d9565b9350614296836140ea565b8060005b838110156142c75781516142ae8882614250565b97506142b983614269565b92505060018101905061429a565b5085935050505092915050565b600060208201905081810360008301526142ee8184614276565b905092915050565b6000604051905090565b600080fd5b600080fd5b60007fffffffff0000000000000000000000000000000000000000000000000000000082169050919050565b61433f8161430a565b811461434a57600080fd5b50565b60008135905061435c81614336565b92915050565b60006020828403121561437857614377614300565b5b60006143868482850161434d565b91505092915050565b61439881614154565b82525050565b60006020820190506143b3600083018461438f565b92915050565b6143c281614133565b81146143cd57600080fd5b50565b6000813590506143df816143b9565b92915050565b600080604083850312156143fc576143fb614300565b5b600061440a858286016143d0565b925050602061441b858286016143d0565b9150509250929050565b600081519050919050565b600082825260208201905092915050565b6000819050602082019050919050565b600061445d8383614104565b60208301905092915050565b6000602082019050919050565b600061448182614425565b61448b8185614430565b935061449683614441565b8060005b838110156144c75781516144ae8882614451565b97506144b983614469565b92505060018101905061449a565b5085935050505092915050565b600060208201905081810360008301526144ee8184614476565b905092915050565b6000819050919050565b614509816144f6565b811461451457600080fd5b50565b60008135905061452681614500565b92915050565b60006020828403121561454257614541614300565b5b600061455084828501614517565b91505092915050565b600081519050919050565b600082825260208201905092915050565b60005b83811015614593578082015181840152602081019050614578565b60008484015250505050565b6000601f19601f8301169050919050565b60006145bb82614559565b6145c58185614564565b93506145d5818560208601614575565b6145de8161459f565b840191505092915050565b6000602082019050818103600083015261460381846145b0565b905092915050565b614614816140fa565b811461461f57600080fd5b50565b6000813590506146318161460b565b92915050565b60006020828403121561464d5761464c614300565b5b600061465b84828501614622565b91505092915050565b61466d81614133565b82525050565b60006020820190506146886000830184614664565b92915050565b600080604083850312156146a5576146a4614300565b5b60006146b3858286016143d0565b92505060206146c485828601614622565b9150509250929050565b6146d7816140fa565b82525050565b6000610160820190506146f3600083018e6146ce565b614700602083018d614664565b61470d604083018c614664565b61471a606083018b614664565b614727608083018a6146ce565b61473460a08301896146ce565b61474160c08301886146ce565b61474e60e08301876146ce565b61475c61010083018661438f565b61476a61012083018561438f565b6147786101408301846146ce565b9c9b505050505050505050505050565b600080fd5b7f4e487b7100000000000000000000000000000000000000000000000000000000600052604160045260246000fd5b6147c58261459f565b810181811067ffffffffffffffff821117156147e4576147e361478d565b5b80604052505050565b60006147f76142f6565b905061480382826147bc565b919050565b600067ffffffffffffffff8211156148235761482261478d565b5b602082029050602081019050919050565b600080fd5b600061484c61484784614808565b6147ed565b9050808382526020820190506020840283018581111561486f5761486e614834565b5b835b81811015614898578061488488826143d0565b845260208401935050602081019050614871565b5050509392505050565b600082601f8301126148b7576148b6614788565b5b81356148c7848260208601614839565b91505092915050565b600080604083850312156148e7576148e6614300565b5b600083013567ffffffffffffffff81111561490557614904614305565b5b614911858286016148a2565b925050602061492285828601614622565b9150509250929050565b6000806040838503121561494357614942614300565b5b600061495185828601614622565b925050602061496285828601614622565b9150509250929050565b60008060006060848603121561498557614984614300565b5b6000614993868287016143d0565b93505060206149a4868287016143d0565b92505060406149b586828701614622565b9150509250925092565b6149c8816144f6565b82525050565b6000610100820190506149e4600083018b6146ce565b6149f1602083018a6146ce565b6149fe6040830189614664565b614a0b6060830188614664565b8181036080830152614a1d81876145b0565b9050614a2c60a08301866149bf565b614a3960c08301856146ce565b614a4660e083018461438f565b9998505050505050505050565b600080fd5b600067ffffffffffffffff821115614a7357614a7261478d565b5b614a7c8261459f565b9050602081019050919050565b82818337600083830152505050565b6000614aab614aa684614a58565b6147ed565b905082815260208101848484011115614ac757614ac6614a53565b5b614ad2848285614a89565b509392505050565b600082601f830112614aef57614aee614788565b5b8135614aff848260208601614a98565b91505092915050565b600080600080600080600080610100898b031215614b2957614b28614300565b5b6000614b378b828c01614622565b9850506020614b488b828c01614622565b9750506040614b598b828c016143d0565b9650506060614b6a8b828c016143d0565b9550506080614b7b8b828c01614517565b94505060a089013567ffffffffffffffff811115614b9c57614b9b614305565b5b614ba88b828c01614ada565b93505060c0614bb98b828c01614517565b92505060e0614bca8b828c016143d0565b9150509295985092959890939650565b60008060408385031215614bf157614bf0614300565b5b6000614bff85828601614517565b9250506020614c10858286016143d0565b9150509250929050565b600060208284031215614c3057614c2f614300565b5b6000614c3e848285016143d0565b91505092915050565b6000602082019050614c5c60008301846146ce565b92915050565b600060a082019050614c7760008301886146ce565b614c8460208301876146ce565b614c9160408301866146ce565b614c9e60608301856146ce565b614cab60808301846146ce565b9695505050505050565b614cbe81614154565b8114614cc957600080fd5b50565b600081359050614cdb81614cb5565b92915050565b60008060408385031215614cf857614cf7614300565b5b6000614d06858286016143d0565b9250506020614d1785828601614ccc565b9150509250929050565b600080600080600060a08688031215614d3d57614d3c614300565b5b6000614d4b88828901614622565b9550506020614d5c888289016143d0565b9450506040614d6d888289016143d0565b9350506060614d7e88828901614622565b9250506080614d8f88828901614622565b9150509295509295909350565b600067ffffffffffffffff821115614db757614db661478d565b5b614dc08261459f565b9050602081019050919050565b6000614de0614ddb84614d9c565b6147ed565b905082815260208101848484011115614dfc57614dfb614a53565b5b614e07848285614a89565b509392505050565b600082601f830112614e2457614e23614788565b5b8135614e34848260208601614dcd565b91505092915050565b60008060008060808587031215614e5757614e56614300565b5b6000614e65878288016143d0565b9450506020614e76878288016143d0565b9350506040614e8787828801614622565b925050606085013567ffffffffffffffff811115614ea857614ea7614305565b5b614eb487828801614e0f565b91505092959194509250565b600080600080600060a08688031215614edc57614edb614300565b5b6000614eea88828901614517565b9550506020614efb88828901614622565b945050604086013567ffffffffffffffff811115614f1c57614f1b614305565b5b614f2888828901614ada565b935050606086013567ffffffffffffffff811115614f4957614f48614305565b5b614f5588828901614ada565b9250506080614f66888289016143d0565b9150509295509295909350565b60006060820190508181036000830152614f8d81866145b0565b90508181036020830152614fa181856145b0565b9050614fb060408301846146ce565b949350505050565b60008060408385031215614fcf57614fce614300565b5b6000614fdd858286016143d0565b925050602083013567ffffffffffffffff811115614ffe57614ffd614305565b5b61500a85828601614ada565b9150509250929050565b600067ffffffffffffffff82111561502f5761502e61478d565b5b602082029050602081019050919050565b600061505361504e84615014565b6147ed565b9050808382526020820190506020840283018581111561507657615075614834565b5b835b8181101561509f578061508b8882614622565b845260208401935050602081019050615078565b5050509392505050565b600082601f8301126150be576150bd614788565b5b81356150ce848260208601615040565b91505092915050565b6000602082840312156150ed576150ec614300565b5b600082013567ffffffffffffffff81111561510b5761510a614305565b5b615117848285016150a9565b91505092915050565b6000806040838503121561513757615136614300565b5b600061514585828601614622565b9250506020615156858286016143d0565b9150509250929050565b7f4e487b7100000000000000000000000000000000000000000000000000000000600052603260045260246000fd5b7f4e487b7100000000000000000000000000000000000000000000000000000000600052601160045260246000fd5b60006151c9826140fa565b91507fffffffffffffffffffffffffffffffffffffffffffffffffffffffffffffffff82036151fb576151fa61518f565b5b600182019050919050565b60008151905061521581614cb5565b92915050565b60006020828403121561523157615230614300565b5b600061523f84828501615206565b91505092915050565b7f4e6f2073756368204d6574614d61736b20416464726573732e2e506c6561736560008201527f20436865636b2e2e212100000000000000000000000000000000000000000000602082015250565b60006152a4602a83614564565b91506152af82615248565b604082019050919050565b600060208201905081810360008301526152d381615297565b9050919050565b7f4e487b7100000000000000000000000000000000000000000000000000000000600052602260045260246000fd5b6000600282049050600182168061532157607f821691505b602082108103615334576153336152da565b5b50919050565b7f596f757220617265206e6f7420616c6c6f77656420746f20706572666f726d2060008201527f74686973206f7065726174696f6e000000000000000000000000000000000000602082015250565b6000615396602e83614564565b91506153a18261533a565b604082019050919050565b600060208201905081810360008301526153c581615389565b9050919050565b7f596f752063616e206f6e6c7920646f206974206f6e6365000000000000000000600082015250565b6000615402601783614564565b915061540d826153cc565b602082019050919050565b60006020820190508181036000830152615431816153f5565b9050919050565b600060608201905061544d6000830186614664565b61545a60208301856146ce565b6154676040830184614664565b949350505050565b600060208201905061548460008301846149bf565b92915050565b7f41706f6c6f676965732c207468652070726f636573732068617320656e636f7560008201527f6e74657265642061206661696c75726520616e642063616e6e6f742070726f6360208201527f65656420667572746865722e0000000000000000000000000000000000000000604082015250565b600061550c604c83614564565b91506155178261548a565b606082019050919050565b6000602082019050818103600083015261553b816154ff565b9050919050565b7f41706f6c6f676965732c2074686520646f6e6f7220686173206e6f742079657460008201527f206265656e20617070726f7665642e2e00000000000000000000000000000000602082015250565b600061559e603083614564565b91506155a982615542565b604082019050919050565b600060208201905081810360008301526155cd81615591565b9050919050565b7f54686520476976656e20446f6e6f722069732072656a65637465642e2e212100600082015250565b600061560a601f83614564565b9150615615826155d4565b602082019050919050565b60006020820190508181036000830152615639816155fd565b9050919050565b7f54686520476976656e2052656369657665722069732072656a65637465642e2e60008201527f2121000000000000000000000000000000000000000000000000000000000000602082015250565b600061569c602283614564565b91506156a782615640565b604082019050919050565b600060208201905081810360008301526156cb8161568f565b9050919050565b60008190508160005260206000209050919050565b60006020601f8301049050919050565b600082821b905092915050565b6000600883026157347fffffffffffffffffffffffffffffffffffffffffffffffffffffffffffffffff826156f7565b61573e86836156f7565b95508019841693508086168417925050509392505050565b6000819050919050565b600061577b615776615771846140fa565b615756565b6140fa565b9050919050565b6000819050919050565b61579583615760565b6157a96157a182615782565b848454615704565b825550505050565b600090565b6157be6157b1565b6157c981848461578c565b505050565b5b818110156157ed576157e26000826157b6565b6001810190506157cf565b5050565b601f82111561583257615803816156d2565b61580c846156e7565b8101602085101561581b578190505b61582f615827856156e7565b8301826157ce565b50505b505050565b600082821c905092915050565b600061585560001984600802615837565b1980831691505092915050565b600061586e8383615844565b9150826002028217905092915050565b61588782614559565b67ffffffffffffffff8111156158a05761589f61478d565b5b6158aa8254615309565b6158b58282856157f1565b600060209050601f8311600181146158e857600084156158d6578287015190505b6158e08582615862565b865550615948565b601f1984166158f6866156d2565b60005b8281101561591e578489015182556001820191506020850194506020810190506158f9565b8683101561593b5784890151615937601f891682615844565b8355505b6001600288020188555050505b505050505050565b600060408201905061596560008301856146ce565b818103602083015261597781846145b0565b90509392505050565b7f506c6561736520656e737572652074686174207468652073656e64657220697360008201527f20696e64656564207468652064657369676e6174656420646f6e6f7220686f7360208201527f706974616c2e0000000000000000000000000000000000000000000000000000604082015250565b6000615a02604683614564565b9150615a0d82615980565b606082019050919050565b60006020820190508181036000830152615a31816159f5565b9050919050565b7f536f72727920636f6d706c657465207468652070726576696f7573207374657060008201527f2066697273740000000000000000000000000000000000000000000000000000602082015250565b6000615a94602683614564565b9150615a9f82615a38565b604082019050919050565b60006020820190508181036000830152615ac381615a87565b9050919050565b7f506c6561736520656e737572652074686174207468652073656e64657220697360008201527f20696e64656564207468652064657369676e617465642072656365696576657260208201527f20686f73706974616c2e00000000000000000000000000000000000000000000604082015250565b6000615b4c604a83614564565b9150615b5782615aca565b606082019050919050565b60006020820190508181036000830152615b7b81615b3f565b9050919050565b7f4e6f2073756368207472616e73706c616e742070726f636573732074616b696e60008201527f6720706c61636500000000000000000000000000000000000000000000000000602082015250565b6000615bde602783614564565b9150615be982615b82565b604082019050919050565b60006020820190508181036000830152615c0d81615bd1565b9050919050565b600081905092915050565b6000615c2a82614559565b615c348185615c14565b9350615c44818560208601614575565b80840191505092915050565b6000615c5c8285615c1f565b9150615c688284615c1f565b91508190509392505050565b60008154615c8181615309565b615c8b8186614564565b94506001821660008114615ca65760018114615cbc57615cef565b60ff198316865281151560200286019350615cef565b615cc5856156d2565b60005b83811015615ce757815481890152600182019150602081019050615cc8565b808801955050505b50505092915050565b6000604082019050615d0d60008301856146ce565b8181036020830152615d1f8184615c74565b90509392505050565b600081519050615d378161460b565b92915050565b600060208284031215615d5357615d52614300565b5b6000615d6184828501615d28565b91505092915050565b600081519050919050565b600082825260208201905092915050565b6000615d9182615d6a565b615d9b8185615d75565b9350615dab818560208601614575565b615db48161459f565b840191505092915050565b6000608082019050615dd46000830187614664565b615de16020830186614664565b615dee60408301856146ce565b8181036060830152615e008184615d86565b905095945050505050565b600081519050615e1a81614336565b92915050565b600060208284031215615e3657615e35614300565b5b6000615e4484828501615e0b565b91505092915050565b6000604082019050615e626000830185614664565b615e6f60208301846146ce565b9392505050565b7f4e487b7100000000000000000000000000000000000000000000000000000000600052601260045260246000fdfea2646970667358221220628c19064d04495d19681aba2101cb5f66c12bdf5899227009dda08338190a1d64736f6c63430008140033",
  "linkReferences": {},
  "deployedLinkReferences": {}
}