{
  "_format": "hh-sol-artifact-1",
  "contractName": "enterDetails",
  "sourceName": "contracts/Signin.sol",
  "abi": [
    {
      "inputs": [
        {
          "internalType": "address",
          "name": "id",
          "type": "address"
        }
      ],
      "name": "check",
      "outputs": [
        {
          "internalType": "bool",
          "name": "",
          "type": "bool"
        }
      ],
      "stateMutability": "view",
      "type": "function"
    },
    {
      "inputs": [
        {
          "internalType": "uint256",
          "name": "id",
          "type": "uint256"
        }
      ],
      "name": "checkDonor",
      "outputs": [
        {
          "internalType": "bool",
          "name": "",
          "type": "bool"
        }
      ],
      "stateMutability": "view",
      "type": "function"
    },
    {
      "inputs": [
        {
          "internalType": "uint256",
          "name": "id",
          "type": "uint256"
        }
      ],
      "name": "checkReceive",
      "outputs": [
        {
          "internalType": "bool",
          "name": "",
          "type": "bool"
        }
      ],
      "stateMutability": "view",
      "type": "function"
    },
    {
      "inputs": [],
      "name": "getDonorId",
      "outputs": [
        {
          "internalType": "uint256",
          "name": "",
          "type": "uint256"
        }
      ],
      "stateMutability": "view",
      "type": "function"
    },
    {
      "inputs": [],
      "name": "getMemos",
      "outputs": [
        {
          "components": [
            {
              "internalType": "string",
              "name": "name",
              "type": "string"
            },
            {
              "internalType": "uint256",
              "name": "hospital_id",
              "type": "uint256"
            },
            {
              "internalType": "string",
              "name": "email",
              "type": "string"
            },
            {
              "internalType": "int256",
              "name": "longitude",
              "type": "int256"
            },
            {
              "internalType": "int256",
              "name": "latitude",
              "type": "int256"
            },
            {
              "internalType": "uint256",
              "name": "timestamp",
              "type": "uint256"
            },
            {
              "internalType": "bool",
              "name": "flag",
              "type": "bool"
            }
          ],
          "internalType": "struct enterDetails.Memo[]",
          "name": "",
          "type": "tuple[]"
        }
      ],
      "stateMutability": "view",
      "type": "function"
    },
    {
      "inputs": [
        {
          "internalType": "uint256",
          "name": "id",
          "type": "uint256"
        }
      ],
      "name": "getRegDonor",
      "outputs": [
        {
          "components": [
            {
              "internalType": "address",
              "name": "metamask_address",
              "type": "address"
            },
            {
              "internalType": "string",
              "name": "name",
              "type": "string"
            },
            {
              "internalType": "int256",
              "name": "weight",
              "type": "int256"
            },
            {
              "internalType": "int256",
              "name": "height",
              "type": "int256"
            },
            {
              "internalType": "string",
              "name": "link",
              "type": "string"
            },
            {
              "internalType": "string",
              "name": "hla",
              "type": "string"
            },
            {
              "internalType": "string",
              "name": "bloodgrp",
              "type": "string"
            },
            {
              "internalType": "string[]",
              "name": "organs",
              "type": "string[]"
            },
            {
              "internalType": "int256",
              "name": "age",
              "type": "int256"
            },
            {
              "internalType": "int256",
              "name": "kincontact",
              "type": "int256"
            },
            {
              "internalType": "bool",
              "name": "flag",
              "type": "bool"
            },
            {
              "internalType": "bool",
              "name": "check",
              "type": "bool"
            }
          ],
          "internalType": "struct enterDetails.RegDonor",
          "name": "",
          "type": "tuple"
        }
      ],
      "stateMutability": "view",
      "type": "function"
    },
    {
      "inputs": [
        {
          "internalType": "uint256",
          "name": "id",
          "type": "uint256"
        }
      ],
      "name": "getRegReceive",
      "outputs": [
        {
          "components": [
            {
              "internalType": "address",
              "name": "metamask_address",
              "type": "address"
            },
            {
              "internalType": "string",
              "name": "name",
              "type": "string"
            },
            {
              "internalType": "int256",
              "name": "weight",
              "type": "int256"
            },
            {
              "internalType": "int256",
              "name": "height",
              "type": "int256"
            },
            {
              "internalType": "string",
              "name": "link",
              "type": "string"
            },
            {
              "internalType": "string",
              "name": "hla",
              "type": "string"
            },
            {
              "internalType": "string",
              "name": "bloodgrp",
              "type": "string"
            },
            {
              "internalType": "string[]",
              "name": "organs",
              "type": "string[]"
            },
            {
              "internalType": "int256",
              "name": "contact",
              "type": "int256"
            },
            {
              "internalType": "int256",
              "name": "age",
              "type": "int256"
            },
            {
              "internalType": "bool",
              "name": "flag",
              "type": "bool"
            },
            {
              "internalType": "bool",
              "name": "check",
              "type": "bool"
            }
          ],
          "internalType": "struct enterDetails.RegRecieve",
          "name": "",
          "type": "tuple"
        }
      ],
      "stateMutability": "view",
      "type": "function"
    },
    {
      "inputs": [
        {
          "internalType": "address",
          "name": "metamask_address",
          "type": "address"
        },
        {
          "internalType": "string",
          "name": "name",
          "type": "string"
        },
        {
          "internalType": "int256",
          "name": "weight",
          "type": "int256"
        },
        {
          "internalType": "int256",
          "name": "height",
          "type": "int256"
        },
        {
          "internalType": "string",
          "name": "link",
          "type": "string"
        },
        {
          "internalType": "string",
          "name": "hla",
          "type": "string"
        },
        {
          "internalType": "string",
          "name": "bloodgrp",
          "type": "string"
        },
        {
          "internalType": "string[]",
          "name": "organs",
          "type": "string[]"
        },
        {
          "internalType": "int256",
          "name": "age",
          "type": "int256"
        },
        {
          "internalType": "int256",
          "name": "kincontact",
          "type": "int256"
        },
        {
          "internalType": "bool",
          "name": "flag",
          "type": "bool"
        }
      ],
      "name": "registerDonor",
      "outputs": [],
      "stateMutability": "nonpayable",
      "type": "function"
    },
    {
      "inputs": [
        {
          "internalType": "string",
          "name": "name",
          "type": "string"
        },
        {
          "internalType": "uint256",
          "name": "hospital_id",
          "type": "uint256"
        },
        {
          "internalType": "string",
          "name": "email",
          "type": "string"
        },
        {
          "internalType": "int256",
          "name": "longitude",
          "type": "int256"
        },
        {
          "internalType": "int256",
          "name": "latitude",
          "type": "int256"
        },
        {
          "internalType": "address",
          "name": "metamask_address",
          "type": "address"
        }
      ],
      "name": "registerHospital",
      "outputs": [],
      "stateMutability": "payable",
      "type": "function"
    },
    {
      "inputs": [
        {
          "internalType": "address",
          "name": "metamask_address",
          "type": "address"
        },
        {
          "internalType": "string",
          "name": "name",
          "type": "string"
        },
        {
          "internalType": "int256",
          "name": "weight",
          "type": "int256"
        },
        {
          "internalType": "int256",
          "name": "height",
          "type": "int256"
        },
        {
          "internalType": "string",
          "name": "link",
          "type": "string"
        },
        {
          "internalType": "string",
          "name": "hla",
          "type": "string"
        },
        {
          "internalType": "string",
          "name": "bloodgrp",
          "type": "string"
        },
        {
          "internalType": "string[]",
          "name": "organs",
          "type": "string[]"
        },
        {
          "internalType": "int256",
          "name": "contact",
          "type": "int256"
        },
        {
          "internalType": "int256",
          "name": "age",
          "type": "int256"
        },
        {
          "internalType": "bool",
          "name": "flag",
          "type": "bool"
        }
      ],
      "name": "registerReceive",
      "outputs": [
        {
          "internalType": "uint256",
          "name": "",
          "type": "uint256"
        }
      ],
      "stateMutability": "payable",
      "type": "function"
    }
  ],
  "bytecode": "0x608060405260006007556040518060200160405280600060ff1681525060089060016200002e92919062000043565b503480156200003c57600080fd5b50620000b9565b82805482825590600052602060002090810192821562000087579160200282015b8281111562000086578251829060ff1690559160200191906001019062000064565b5b5090506200009691906200009a565b5090565b5b80821115620000b55760008160009055506001016200009b565b5090565b61291880620000c96000396000f3fe6080604052600436106100915760003560e01c8063b73d517911610059578063b73d517914610187578063c23697a8146101c4578063c560efe414610201578063e7fd15301461022a578063f7e3d5871461026757610091565b80630a0e6d591461009657806376607bae146100b2578063865c5172146100ef578063a06286fd1461011a578063a8cb69421461014a575b600080fd5b6100b060048036038101906100ab9190611a8b565b610292565b005b3480156100be57600080fd5b506100d960048036038101906100d49190611b50565b61042d565b6040516100e69190611e17565b60405180910390f35b3480156100fb57600080fd5b50610104610830565b6040516101119190611fad565b60405180910390f35b610134600480360381019061012f91906120e1565b6109f6565b6040516101419190612270565b60405180910390f35b34801561015657600080fd5b50610171600480360381019061016c9190611b50565b610dbf565b60405161017e919061229a565b60405180910390f35b34801561019357600080fd5b506101ae60048036038101906101a99190611b50565b610dec565b6040516101bb91906123d5565b60405180910390f35b3480156101d057600080fd5b506101eb60048036038101906101e691906123f7565b6111ef565b6040516101f8919061229a565b60405180910390f35b34801561020d57600080fd5b50610228600480360381019061022391906120e1565b611247565b005b34801561023657600080fd5b50610251600480360381019061024c9190611b50565b611633565b60405161025e919061229a565b60405180910390f35b34801561027357600080fd5b5061027c611660565b6040516102899190612270565b60405180910390f35b60006040518060e00160405280888152602001878152602001868152602001858152602001848152602001428152602001600115158152509050806000808473ffffffffffffffffffffffffffffffffffffffff1673ffffffffffffffffffffffffffffffffffffffff16815260200190815260200160002060008201518160000190816103209190612630565b506020820151816001015560408201518160020190816103409190612630565b50606082015181600301556080820151816004015560a0820151816005015560c08201518160060160006101000a81548160ff021916908315150217905550905050600181908060018154018082558091505060019003906000526020600020906007020160009091909190915060008201518160000190816103c39190612630565b506020820151816001015560408201518160020190816103e39190612630565b50606082015181600301556080820151816004015560a0820151816005015560c08201518160060160006101000a81548160ff021916908315150217905550505050505050505050565b610435611697565b60056000838152602001908152602001600020604051806101800160405290816000820160009054906101000a900473ffffffffffffffffffffffffffffffffffffffff1673ffffffffffffffffffffffffffffffffffffffff1673ffffffffffffffffffffffffffffffffffffffff1681526020016001820180546104ba90612453565b80601f01602080910402602001604051908101604052809291908181526020018280546104e690612453565b80156105335780601f1061050857610100808354040283529160200191610533565b820191906000526020600020905b81548152906001019060200180831161051657829003601f168201915b50505050508152602001600282015481526020016003820154815260200160048201805461056090612453565b80601f016020809104026020016040519081016040528092919081815260200182805461058c90612453565b80156105d95780601f106105ae576101008083540402835291602001916105d9565b820191906000526020600020905b8154815290600101906020018083116105bc57829003601f168201915b505050505081526020016005820180546105f290612453565b80601f016020809104026020016040519081016040528092919081815260200182805461061e90612453565b801561066b5780601f106106405761010080835404028352916020019161066b565b820191906000526020600020905b81548152906001019060200180831161064e57829003601f168201915b5050505050815260200160068201805461068490612453565b80601f01602080910402602001604051908101604052809291908181526020018280546106b090612453565b80156106fd5780601f106106d2576101008083540402835291602001916106fd565b820191906000526020600020905b8154815290600101906020018083116106e057829003601f168201915b5050505050815260200160078201805480602002602001604051908101604052809291908181526020016000905b828210156107d757838290600052602060002001805461074a90612453565b80601f016020809104026020016040519081016040528092919081815260200182805461077690612453565b80156107c35780601f10610798576101008083540402835291602001916107c3565b820191906000526020600020905b8154815290600101906020018083116107a657829003601f168201915b50505050508152602001906001019061072b565b5050505081526020016008820154815260200160098201548152602001600a820160009054906101000a900460ff16151515158152602001600a820160019054906101000a900460ff1615151515815250509050919050565b60606001805480602002602001604051908101604052809291908181526020016000905b828210156109ed57838290600052602060002090600702016040518060e001604052908160008201805461088790612453565b80601f01602080910402602001604051908101604052809291908181526020018280546108b390612453565b80156109005780601f106108d557610100808354040283529160200191610900565b820191906000526020600020905b8154815290600101906020018083116108e357829003601f168201915b505050505081526020016001820154815260200160028201805461092390612453565b80601f016020809104026020016040519081016040528092919081815260200182805461094f90612453565b801561099c5780601f106109715761010080835404028352916020019161099c565b820191906000526020600020905b81548152906001019060200180831161097f57829003601f168201915b505050505081526020016003820154815260200160048201548152602001600582015481526020016006820160009054906101000a900460ff16151515158152505081526020019060010190610854565b50505050905090565b6000806040518061018001604052808e73ffffffffffffffffffffffffffffffffffffffff1681526020018d81526020018c81526020018b81526020018a8152602001898152602001888152602001878152602001868152602001858152602001841515815260200160011515815250905060076000815480929190610a7b90612731565b919050555060005b620f42404233600754604051602001610a9e939291906127e2565b6040516020818303038152906040528051906020012060001c610ac1919061284e565b9050600115156004600083815260200190815260200160002060009054906101000a900460ff16151514610a835760016004600083815260200190815260200160002060006101000a81548160ff0219169083151502179055506001151584151503610c6b57816005600083815260200190815260200160002060008201518160000160006101000a81548173ffffffffffffffffffffffffffffffffffffffff021916908373ffffffffffffffffffffffffffffffffffffffff1602179055506020820151816001019081610b979190612630565b5060408201518160020155606082015181600301556080820151816004019081610bc19190612630565b5060a0820151816005019081610bd79190612630565b5060c0820151816006019081610bed9190612630565b5060e0820151816007019080519060200190610c0a929190611712565b506101008201518160080155610120820151816009015561014082015181600a0160006101000a81548160ff02191690831515021790555061016082015181600a0160016101000a81548160ff021916908315150217905550905050610dab565b816006600083815260200190815260200160002060008201518160000160006101000a81548173ffffffffffffffffffffffffffffffffffffffff021916908373ffffffffffffffffffffffffffffffffffffffff1602179055506020820151816001019081610cdb9190612630565b5060408201518160020155606082015181600301556080820151816004019081610d059190612630565b5060a0820151816005019081610d1b9190612630565b5060c0820151816006019081610d319190612630565b5060e0820151816007019080519060200190610d4e929190611712565b506101008201518160080155610120820151816009015561014082015181600a0160006101000a81548160ff02191690831515021790555061016082015181600a0160016101000a81548160ff0219169083151502179055509050505b80925050509b9a5050505050505050505050565b600060056000838152602001908152602001600020600a0160019054906101000a900460ff169050919050565b610df461176b565b60026000838152602001908152602001600020604051806101800160405290816000820160009054906101000a900473ffffffffffffffffffffffffffffffffffffffff1673ffffffffffffffffffffffffffffffffffffffff1673ffffffffffffffffffffffffffffffffffffffff168152602001600182018054610e7990612453565b80601f0160208091040260200160405190810160405280929190818152602001828054610ea590612453565b8015610ef25780601f10610ec757610100808354040283529160200191610ef2565b820191906000526020600020905b815481529060010190602001808311610ed557829003601f168201915b505050505081526020016002820154815260200160038201548152602001600482018054610f1f90612453565b80601f0160208091040260200160405190810160405280929190818152602001828054610f4b90612453565b8015610f985780601f10610f6d57610100808354040283529160200191610f98565b820191906000526020600020905b815481529060010190602001808311610f7b57829003601f168201915b50505050508152602001600582018054610fb190612453565b80601f0160208091040260200160405190810160405280929190818152602001828054610fdd90612453565b801561102a5780601f10610fff5761010080835404028352916020019161102a565b820191906000526020600020905b81548152906001019060200180831161100d57829003601f168201915b5050505050815260200160068201805461104390612453565b80601f016020809104026020016040519081016040528092919081815260200182805461106f90612453565b80156110bc5780601f10611091576101008083540402835291602001916110bc565b820191906000526020600020905b81548152906001019060200180831161109f57829003601f168201915b5050505050815260200160078201805480602002602001604051908101604052809291908181526020016000905b8282101561119657838290600052602060002001805461110990612453565b80601f016020809104026020016040519081016040528092919081815260200182805461113590612453565b80156111825780601f1061115757610100808354040283529160200191611182565b820191906000526020600020905b81548152906001019060200180831161116557829003601f168201915b5050505050815260200190600101906110ea565b5050505081526020016008820154815260200160098201548152602001600a820160009054906101000a900460ff16151515158152602001600a820160019054906101000a900460ff1615151515815250509050919050565b60008060008373ffffffffffffffffffffffffffffffffffffffff1673ffffffffffffffffffffffffffffffffffffffff16815260200190815260200160002060060160009054906101000a900460ff169050919050565b60006040518061018001604052808d73ffffffffffffffffffffffffffffffffffffffff1681526020018c81526020018b81526020018a81526020018981526020018881526020018781526020018681526020018581526020018481526020018315158152602001600115158152509050600760008154809291906112cb90612731565b919050555060005b620f424042336007546040516020016112ee939291906127e2565b6040516020818303038152906040528051906020012060001c611311919061284e565b9050600115156004600083815260200190815260200160002060009054906101000a900460ff161515146112d35760016004600083815260200190815260200160002060006101000a81548160ff02191690831515021790555060011515831515036114bb57816002600083815260200190815260200160002060008201518160000160006101000a81548173ffffffffffffffffffffffffffffffffffffffff021916908373ffffffffffffffffffffffffffffffffffffffff16021790555060208201518160010190816113e79190612630565b50604082015181600201556060820151816003015560808201518160040190816114119190612630565b5060a08201518160050190816114279190612630565b5060c082015181600601908161143d9190612630565b5060e082015181600701908051906020019061145a929190611712565b506101008201518160080155610120820151816009015561014082015181600a0160006101000a81548160ff02191690831515021790555061016082015181600a0160016101000a81548160ff0219169083151502179055509050506115fb565b816003600083815260200190815260200160002060008201518160000160006101000a81548173ffffffffffffffffffffffffffffffffffffffff021916908373ffffffffffffffffffffffffffffffffffffffff160217905550602082015181600101908161152b9190612630565b50604082015181600201556060820151816003015560808201518160040190816115559190612630565b5060a082015181600501908161156b9190612630565b5060c08201518160060190816115819190612630565b5060e082015181600701908051906020019061159e929190611712565b506101008201518160080155610120820151816009015561014082015181600a0160006101000a81548160ff02191690831515021790555061016082015181600a0160016101000a81548160ff0219169083151502179055509050505b600881908060018154018082558091505060019003906000526020600020016000909190919091505550505050505050505050505050565b600060026000838152602001908152602001600020600a0160019054906101000a900460ff169050919050565b600060086001600880549050611676919061287f565b81548110611687576116866128b3565b5b9060005260206000200154905090565b604051806101800160405280600073ffffffffffffffffffffffffffffffffffffffff1681526020016060815260200160008152602001600081526020016060815260200160608152602001606081526020016060815260200160008152602001600081526020016000151581526020016000151581525090565b82805482825590600052602060002090810192821561175a579160200282015b828111156117595782518290816117499190612630565b5091602001919060010190611732565b5b50905061176791906117e6565b5090565b604051806101800160405280600073ffffffffffffffffffffffffffffffffffffffff1681526020016060815260200160008152602001600081526020016060815260200160608152602001606081526020016060815260200160008152602001600081526020016000151581526020016000151581525090565b5b8082111561180657600081816117fd919061180a565b506001016117e7565b5090565b50805461181690612453565b6000825580601f106118285750611847565b601f016020900490600052602060002090810190611846919061184a565b5b50565b5b8082111561186357600081600090555060010161184b565b5090565b6000604051905090565b600080fd5b600080fd5b600080fd5b600080fd5b6000601f19601f8301169050919050565b7f4e487b7100000000000000000000000000000000000000000000000000000000600052604160045260246000fd5b6118ce82611885565b810181811067ffffffffffffffff821117156118ed576118ec611896565b5b80604052505050565b6000611900611867565b905061190c82826118c5565b919050565b600067ffffffffffffffff82111561192c5761192b611896565b5b61193582611885565b9050602081019050919050565b82818337600083830152505050565b600061196461195f84611911565b6118f6565b9050828152602081018484840111156119805761197f611880565b5b61198b848285611942565b509392505050565b600082601f8301126119a8576119a761187b565b5b81356119b8848260208601611951565b91505092915050565b6000819050919050565b6119d4816119c1565b81146119df57600080fd5b50565b6000813590506119f1816119cb565b92915050565b6000819050919050565b611a0a816119f7565b8114611a1557600080fd5b50565b600081359050611a2781611a01565b92915050565b600073ffffffffffffffffffffffffffffffffffffffff82169050919050565b6000611a5882611a2d565b9050919050565b611a6881611a4d565b8114611a7357600080fd5b50565b600081359050611a8581611a5f565b92915050565b60008060008060008060c08789031215611aa857611aa7611871565b5b600087013567ffffffffffffffff811115611ac657611ac5611876565b5b611ad289828a01611993565b9650506020611ae389828a016119e2565b955050604087013567ffffffffffffffff811115611b0457611b03611876565b5b611b1089828a01611993565b9450506060611b2189828a01611a18565b9350506080611b3289828a01611a18565b92505060a0611b4389828a01611a76565b9150509295509295509295565b600060208284031215611b6657611b65611871565b5b6000611b74848285016119e2565b91505092915050565b611b8681611a4d565b82525050565b600081519050919050565b600082825260208201905092915050565b60005b83811015611bc6578082015181840152602081019050611bab565b60008484015250505050565b6000611bdd82611b8c565b611be78185611b97565b9350611bf7818560208601611ba8565b611c0081611885565b840191505092915050565b611c14816119f7565b82525050565b600081519050919050565b600082825260208201905092915050565b6000819050602082019050919050565b6000611c528383611bd2565b905092915050565b6000602082019050919050565b6000611c7282611c1a565b611c7c8185611c25565b935083602082028501611c8e85611c36565b8060005b85811015611cca5784840389528151611cab8582611c46565b9450611cb683611c5a565b925060208a01995050600181019050611c92565b50829750879550505050505092915050565b60008115159050919050565b611cf181611cdc565b82525050565b600061018083016000830151611d106000860182611b7d565b5060208301518482036020860152611d288282611bd2565b9150506040830151611d3d6040860182611c0b565b506060830151611d506060860182611c0b565b5060808301518482036080860152611d688282611bd2565b91505060a083015184820360a0860152611d828282611bd2565b91505060c083015184820360c0860152611d9c8282611bd2565b91505060e083015184820360e0860152611db68282611c67565b915050610100830151611dcd610100860182611c0b565b50610120830151611de2610120860182611c0b565b50610140830151611df7610140860182611ce8565b50610160830151611e0c610160860182611ce8565b508091505092915050565b60006020820190508181036000830152611e318184611cf7565b905092915050565b600081519050919050565b600082825260208201905092915050565b6000819050602082019050919050565b611e6e816119c1565b82525050565b600060e0830160008301518482036000860152611e918282611bd2565b9150506020830151611ea66020860182611e65565b5060408301518482036040860152611ebe8282611bd2565b9150506060830151611ed36060860182611c0b565b506080830151611ee66080860182611c0b565b5060a0830151611ef960a0860182611e65565b5060c0830151611f0c60c0860182611ce8565b508091505092915050565b6000611f238383611e74565b905092915050565b6000602082019050919050565b6000611f4382611e39565b611f4d8185611e44565b935083602082028501611f5f85611e55565b8060005b85811015611f9b5784840389528151611f7c8582611f17565b9450611f8783611f2b565b925060208a01995050600181019050611f63565b50829750879550505050505092915050565b60006020820190508181036000830152611fc78184611f38565b905092915050565b600067ffffffffffffffff821115611fea57611fe9611896565b5b602082029050602081019050919050565b600080fd5b600061201361200e84611fcf565b6118f6565b9050808382526020820190506020840283018581111561203657612035611ffb565b5b835b8181101561207d57803567ffffffffffffffff81111561205b5761205a61187b565b5b8086016120688982611993565b85526020850194505050602081019050612038565b5050509392505050565b600082601f83011261209c5761209b61187b565b5b81356120ac848260208601612000565b91505092915050565b6120be81611cdc565b81146120c957600080fd5b50565b6000813590506120db816120b5565b92915050565b60008060008060008060008060008060006101608c8e03121561210757612106611871565b5b60006121158e828f01611a76565b9b505060208c013567ffffffffffffffff81111561213657612135611876565b5b6121428e828f01611993565b9a505060406121538e828f01611a18565b99505060606121648e828f01611a18565b98505060808c013567ffffffffffffffff81111561218557612184611876565b5b6121918e828f01611993565b97505060a08c013567ffffffffffffffff8111156121b2576121b1611876565b5b6121be8e828f01611993565b96505060c08c013567ffffffffffffffff8111156121df576121de611876565b5b6121eb8e828f01611993565b95505060e08c013567ffffffffffffffff81111561220c5761220b611876565b5b6122188e828f01612087565b94505061010061222a8e828f01611a18565b93505061012061223c8e828f01611a18565b92505061014061224e8e828f016120cc565b9150509295989b509295989b9093969950565b61226a816119c1565b82525050565b60006020820190506122856000830184612261565b92915050565b61229481611cdc565b82525050565b60006020820190506122af600083018461228b565b92915050565b6000610180830160008301516122ce6000860182611b7d565b50602083015184820360208601526122e68282611bd2565b91505060408301516122fb6040860182611c0b565b50606083015161230e6060860182611c0b565b50608083015184820360808601526123268282611bd2565b91505060a083015184820360a08601526123408282611bd2565b91505060c083015184820360c086015261235a8282611bd2565b91505060e083015184820360e08601526123748282611c67565b91505061010083015161238b610100860182611c0b565b506101208301516123a0610120860182611c0b565b506101408301516123b5610140860182611ce8565b506101608301516123ca610160860182611ce8565b508091505092915050565b600060208201905081810360008301526123ef81846122b5565b905092915050565b60006020828403121561240d5761240c611871565b5b600061241b84828501611a76565b91505092915050565b7f4e487b7100000000000000000000000000000000000000000000000000000000600052602260045260246000fd5b6000600282049050600182168061246b57607f821691505b60208210810361247e5761247d612424565b5b50919050565b60008190508160005260206000209050919050565b60006020601f8301049050919050565b600082821b905092915050565b6000600883026124e67fffffffffffffffffffffffffffffffffffffffffffffffffffffffffffffffff826124a9565b6124f086836124a9565b95508019841693508086168417925050509392505050565b6000819050919050565b600061252d612528612523846119c1565b612508565b6119c1565b9050919050565b6000819050919050565b61254783612512565b61255b61255382612534565b8484546124b6565b825550505050565b600090565b612570612563565b61257b81848461253e565b505050565b5b8181101561259f57612594600082612568565b600181019050612581565b5050565b601f8211156125e4576125b581612484565b6125be84612499565b810160208510156125cd578190505b6125e16125d985612499565b830182612580565b50505b505050565b600082821c905092915050565b6000612607600019846008026125e9565b1980831691505092915050565b600061262083836125f6565b9150826002028217905092915050565b61263982611b8c565b67ffffffffffffffff81111561265257612651611896565b5b61265c8254612453565b6126678282856125a3565b600060209050601f83116001811461269a5760008415612688578287015190505b6126928582612614565b8655506126fa565b601f1984166126a886612484565b60005b828110156126d0578489015182556001820191506020850194506020810190506126ab565b868310156126ed57848901516126e9601f8916826125f6565b8355505b6001600288020188555050505b505050505050565b7f4e487b7100000000000000000000000000000000000000000000000000000000600052601160045260246000fd5b600061273c826119c1565b91507fffffffffffffffffffffffffffffffffffffffffffffffffffffffffffffffff820361276e5761276d612702565b5b600182019050919050565b6000819050919050565b61279461278f826119c1565b612779565b82525050565b60008160601b9050919050565b60006127b28261279a565b9050919050565b60006127c4826127a7565b9050919050565b6127dc6127d782611a4d565b6127b9565b82525050565b60006127ee8286612783565b6020820191506127fe82856127cb565b60148201915061280e8284612783565b602082019150819050949350505050565b7f4e487b7100000000000000000000000000000000000000000000000000000000600052601260045260246000fd5b6000612859826119c1565b9150612864836119c1565b9250826128745761287361281f565b5b828206905092915050565b600061288a826119c1565b9150612895836119c1565b92508282039050818111156128ad576128ac612702565b5b92915050565b7f4e487b7100000000000000000000000000000000000000000000000000000000600052603260045260246000fdfea264697066735822122006cc33a134c68a5aa6bab26655f6fe05ea41ac950735ab7f1650794aee6909e964736f6c63430008110033",
  "linkReferences": {},
  "deployedLinkReferences": {}
}