{
  "_format": "hh-sol-artifact-1",
  "contractName": "enterDetails",
  "sourceName": "contracts/Signin.sol",
  "abi": [
    {
      "inputs": [
        {
          "internalType": "address",
          "name": "id",
          "type": "address"
        }
      ],
      "name": "check",
      "outputs": [
        {
          "internalType": "bool",
          "name": "",
          "type": "bool"
        }
      ],
      "stateMutability": "view",
      "type": "function"
    },
    {
      "inputs": [],
      "name": "getMemos",
      "outputs": [
        {
          "components": [
            {
              "internalType": "string",
              "name": "name",
              "type": "string"
            },
            {
              "internalType": "uint256",
              "name": "hospital_id",
              "type": "uint256"
            },
            {
              "internalType": "int256",
              "name": "longitude",
              "type": "int256"
            },
            {
              "internalType": "int256",
              "name": "latitude",
              "type": "int256"
            },
            {
              "internalType": "uint256",
              "name": "timestamp",
              "type": "uint256"
            },
            {
              "internalType": "bool",
              "name": "flag",
              "type": "bool"
            }
          ],
          "internalType": "struct enterDetails.Memo[]",
          "name": "",
          "type": "tuple[]"
        }
      ],
      "stateMutability": "view",
      "type": "function"
    },
    {
      "inputs": [
        {
          "internalType": "string",
          "name": "name",
          "type": "string"
        },
        {
          "internalType": "uint256",
          "name": "hospital_id",
          "type": "uint256"
        },
        {
          "internalType": "int256",
          "name": "longitude",
          "type": "int256"
        },
        {
          "internalType": "int256",
          "name": "latitude",
          "type": "int256"
        },
        {
          "internalType": "address",
          "name": "metamask_address",
          "type": "address"
        }
      ],
      "name": "registerHospital",
      "outputs": [],
      "stateMutability": "payable",
      "type": "function"
    }
  ],
  "bytecode": "0x608060405234801561001057600080fd5b50610bfc806100206000396000f3fe6080604052600436106100345760003560e01c8063865c517214610039578063c23697a814610064578063f8655e2f146100a1575b600080fd5b34801561004557600080fd5b5061004e6100bd565b60405161005b91906105d9565b60405180910390f35b34801561007057600080fd5b5061008b6004803603810190610086919061066d565b6101f1565b60405161009891906106a9565b60405180910390f35b6100bb60048036038101906100b69190610851565b610249565b005b60606001805480602002602001604051908101604052809291908181526020016000905b828210156101e857838290600052602060002090600602016040518060c001604052908160008201805461011490610917565b80601f016020809104026020016040519081016040528092919081815260200182805461014090610917565b801561018d5780601f106101625761010080835404028352916020019161018d565b820191906000526020600020905b81548152906001019060200180831161017057829003601f168201915b50505050508152602001600182015481526020016002820154815260200160038201548152602001600482015481526020016005820160009054906101000a900460ff161515151581525050815260200190600101906100e1565b50505050905090565b60008060008373ffffffffffffffffffffffffffffffffffffffff1673ffffffffffffffffffffffffffffffffffffffff16815260200190815260200160002060050160009054906101000a900460ff169050919050565b60006040518060c00160405280878152602001868152602001858152602001848152602001428152602001600115158152509050806000808473ffffffffffffffffffffffffffffffffffffffff1673ffffffffffffffffffffffffffffffffffffffff16815260200190815260200160002060008201518160000190816102d19190610af4565b506020820151816001015560408201518160020155606082015181600301556080820151816004015560a08201518160050160006101000a81548160ff0219169083151502179055509050506001819080600181540180825580915050600190039060005260206000209060060201600090919091909150600082015181600001908161035e9190610af4565b506020820151816001015560408201518160020155606082015181600301556080820151816004015560a08201518160050160006101000a81548160ff0219169083151502179055505050505050505050565b600081519050919050565b600082825260208201905092915050565b6000819050602082019050919050565b600081519050919050565b600082825260208201905092915050565b60005b838110156104175780820151818401526020810190506103fc565b60008484015250505050565b6000601f19601f8301169050919050565b600061043f826103dd565b61044981856103e8565b93506104598185602086016103f9565b61046281610423565b840191505092915050565b6000819050919050565b6104808161046d565b82525050565b6000819050919050565b61049981610486565b82525050565b60008115159050919050565b6104b48161049f565b82525050565b600060c08301600083015184820360008601526104d78282610434565b91505060208301516104ec6020860182610477565b5060408301516104ff6040860182610490565b5060608301516105126060860182610490565b5060808301516105256080860182610477565b5060a083015161053860a08601826104ab565b508091505092915050565b600061054f83836104ba565b905092915050565b6000602082019050919050565b600061056f826103b1565b61057981856103bc565b93508360208202850161058b856103cd565b8060005b858110156105c757848403895281516105a88582610543565b94506105b383610557565b925060208a0199505060018101905061058f565b50829750879550505050505092915050565b600060208201905081810360008301526105f38184610564565b905092915050565b6000604051905090565b600080fd5b600080fd5b600073ffffffffffffffffffffffffffffffffffffffff82169050919050565b600061063a8261060f565b9050919050565b61064a8161062f565b811461065557600080fd5b50565b60008135905061066781610641565b92915050565b60006020828403121561068357610682610605565b5b600061069184828501610658565b91505092915050565b6106a38161049f565b82525050565b60006020820190506106be600083018461069a565b92915050565b600080fd5b600080fd5b7f4e487b7100000000000000000000000000000000000000000000000000000000600052604160045260246000fd5b61070682610423565b810181811067ffffffffffffffff82111715610725576107246106ce565b5b80604052505050565b60006107386105fb565b905061074482826106fd565b919050565b600067ffffffffffffffff821115610764576107636106ce565b5b61076d82610423565b9050602081019050919050565b82818337600083830152505050565b600061079c61079784610749565b61072e565b9050828152602081018484840111156107b8576107b76106c9565b5b6107c384828561077a565b509392505050565b600082601f8301126107e0576107df6106c4565b5b81356107f0848260208601610789565b91505092915050565b6108028161046d565b811461080d57600080fd5b50565b60008135905061081f816107f9565b92915050565b61082e81610486565b811461083957600080fd5b50565b60008135905061084b81610825565b92915050565b600080600080600060a0868803121561086d5761086c610605565b5b600086013567ffffffffffffffff81111561088b5761088a61060a565b5b610897888289016107cb565b95505060206108a888828901610810565b94505060406108b98882890161083c565b93505060606108ca8882890161083c565b92505060806108db88828901610658565b9150509295509295909350565b7f4e487b7100000000000000000000000000000000000000000000000000000000600052602260045260246000fd5b6000600282049050600182168061092f57607f821691505b602082108103610942576109416108e8565b5b50919050565b60008190508160005260206000209050919050565b60006020601f8301049050919050565b600082821b905092915050565b6000600883026109aa7fffffffffffffffffffffffffffffffffffffffffffffffffffffffffffffffff8261096d565b6109b4868361096d565b95508019841693508086168417925050509392505050565b6000819050919050565b60006109f16109ec6109e78461046d565b6109cc565b61046d565b9050919050565b6000819050919050565b610a0b836109d6565b610a1f610a17826109f8565b84845461097a565b825550505050565b600090565b610a34610a27565b610a3f818484610a02565b505050565b5b81811015610a6357610a58600082610a2c565b600181019050610a45565b5050565b601f821115610aa857610a7981610948565b610a828461095d565b81016020851015610a91578190505b610aa5610a9d8561095d565b830182610a44565b50505b505050565b600082821c905092915050565b6000610acb60001984600802610aad565b1980831691505092915050565b6000610ae48383610aba565b9150826002028217905092915050565b610afd826103dd565b67ffffffffffffffff811115610b1657610b156106ce565b5b610b208254610917565b610b2b828285610a67565b600060209050601f831160018114610b5e5760008415610b4c578287015190505b610b568582610ad8565b865550610bbe565b601f198416610b6c86610948565b60005b82811015610b9457848901518255600182019150602085019450602081019050610b6f565b86831015610bb15784890151610bad601f891682610aba565b8355505b6001600288020188555050505b50505050505056fea2646970667358221220aece970476314e52ffae9110545afa85f97e0082fff24319412854a4d9ba2bf964736f6c63430008110033",
  "linkReferences": {},
  "deployedLinkReferences": {}
}