{
  "_format": "hh-sol-artifact-1",
  "contractName": "enterDetails",
  "sourceName": "contracts/Signin.sol",
  "abi": [
    {
      "inputs": [
        {
          "internalType": "address",
          "name": "id",
          "type": "address"
        }
      ],
      "name": "check",
      "outputs": [
        {
          "internalType": "bool",
          "name": "",
          "type": "bool"
        }
      ],
      "stateMutability": "view",
      "type": "function"
    },
    {
      "inputs": [
        {
          "internalType": "uint256",
          "name": "id",
          "type": "uint256"
        }
      ],
      "name": "checkDonor",
      "outputs": [
        {
          "internalType": "bool",
          "name": "",
          "type": "bool"
        }
      ],
      "stateMutability": "view",
      "type": "function"
    },
    {
      "inputs": [
        {
          "internalType": "uint256",
          "name": "id",
          "type": "uint256"
        }
      ],
      "name": "checkReceive",
      "outputs": [
        {
          "internalType": "bool",
          "name": "",
          "type": "bool"
        }
      ],
      "stateMutability": "view",
      "type": "function"
    },
    {
      "inputs": [],
      "name": "getMemos",
      "outputs": [
        {
          "components": [
            {
              "internalType": "string",
              "name": "name",
              "type": "string"
            },
            {
              "internalType": "uint256",
              "name": "hospital_id",
              "type": "uint256"
            },
            {
              "internalType": "string",
              "name": "email",
              "type": "string"
            },
            {
              "internalType": "int256",
              "name": "longitude",
              "type": "int256"
            },
            {
              "internalType": "int256",
              "name": "latitude",
              "type": "int256"
            },
            {
              "internalType": "uint256",
              "name": "timestamp",
              "type": "uint256"
            },
            {
              "internalType": "bool",
              "name": "flag",
              "type": "bool"
            }
          ],
          "internalType": "struct enterDetails.Memo[]",
          "name": "",
          "type": "tuple[]"
        }
      ],
      "stateMutability": "view",
      "type": "function"
    },
    {
      "inputs": [
        {
          "internalType": "uint256",
          "name": "id",
          "type": "uint256"
        }
      ],
      "name": "getRegDonor",
      "outputs": [
        {
          "components": [
            {
              "internalType": "address",
              "name": "metamask_address",
              "type": "address"
            },
            {
              "internalType": "string",
              "name": "name",
              "type": "string"
            },
            {
              "internalType": "int256",
              "name": "weight",
              "type": "int256"
            },
            {
              "internalType": "int256",
              "name": "height",
              "type": "int256"
            },
            {
              "internalType": "string",
              "name": "link",
              "type": "string"
            },
            {
              "internalType": "string",
              "name": "hla",
              "type": "string"
            },
            {
              "internalType": "string",
              "name": "bloodgrp",
              "type": "string"
            },
            {
              "internalType": "string",
              "name": "organs",
              "type": "string"
            },
            {
              "internalType": "int256",
              "name": "age",
              "type": "int256"
            },
            {
              "internalType": "int256",
              "name": "kincontact",
              "type": "int256"
            },
            {
              "internalType": "bool",
              "name": "flag",
              "type": "bool"
            },
            {
              "internalType": "bool",
              "name": "check",
              "type": "bool"
            }
          ],
          "internalType": "struct enterDetails.RegDonor",
          "name": "",
          "type": "tuple"
        }
      ],
      "stateMutability": "view",
      "type": "function"
    },
    {
      "inputs": [
        {
          "internalType": "uint256",
          "name": "id",
          "type": "uint256"
        }
      ],
      "name": "getRegReceive",
      "outputs": [
        {
          "components": [
            {
              "internalType": "address",
              "name": "metamask_address",
              "type": "address"
            },
            {
              "internalType": "string",
              "name": "name",
              "type": "string"
            },
            {
              "internalType": "int256",
              "name": "weight",
              "type": "int256"
            },
            {
              "internalType": "int256",
              "name": "height",
              "type": "int256"
            },
            {
              "internalType": "string",
              "name": "link",
              "type": "string"
            },
            {
              "internalType": "string",
              "name": "hla",
              "type": "string"
            },
            {
              "internalType": "string",
              "name": "bloodgrp",
              "type": "string"
            },
            {
              "internalType": "string",
              "name": "organs",
              "type": "string"
            },
            {
              "internalType": "int256",
              "name": "contact",
              "type": "int256"
            },
            {
              "internalType": "int256",
              "name": "age",
              "type": "int256"
            },
            {
              "internalType": "bool",
              "name": "flag",
              "type": "bool"
            },
            {
              "internalType": "bool",
              "name": "check",
              "type": "bool"
            }
          ],
          "internalType": "struct enterDetails.RegRecieve",
          "name": "",
          "type": "tuple"
        }
      ],
      "stateMutability": "view",
      "type": "function"
    },
    {
      "inputs": [
        {
          "internalType": "address",
          "name": "metamask_address",
          "type": "address"
        },
        {
          "internalType": "string",
          "name": "name",
          "type": "string"
        },
        {
          "internalType": "int256",
          "name": "weight",
          "type": "int256"
        },
        {
          "internalType": "int256",
          "name": "height",
          "type": "int256"
        },
        {
          "internalType": "string",
          "name": "link",
          "type": "string"
        },
        {
          "internalType": "string",
          "name": "hla",
          "type": "string"
        },
        {
          "internalType": "string",
          "name": "bloodgrp",
          "type": "string"
        },
        {
          "internalType": "string",
          "name": "organs",
          "type": "string"
        },
        {
          "internalType": "int256",
          "name": "age",
          "type": "int256"
        },
        {
          "internalType": "int256",
          "name": "kincontact",
          "type": "int256"
        },
        {
          "internalType": "bool",
          "name": "flag",
          "type": "bool"
        }
      ],
      "name": "registerDonor",
      "outputs": [
        {
          "internalType": "uint256",
          "name": "",
          "type": "uint256"
        }
      ],
      "stateMutability": "payable",
      "type": "function"
    },
    {
      "inputs": [
        {
          "internalType": "string",
          "name": "name",
          "type": "string"
        },
        {
          "internalType": "uint256",
          "name": "hospital_id",
          "type": "uint256"
        },
        {
          "internalType": "string",
          "name": "email",
          "type": "string"
        },
        {
          "internalType": "int256",
          "name": "longitude",
          "type": "int256"
        },
        {
          "internalType": "int256",
          "name": "latitude",
          "type": "int256"
        },
        {
          "internalType": "address",
          "name": "metamask_address",
          "type": "address"
        }
      ],
      "name": "registerHospital",
      "outputs": [],
      "stateMutability": "payable",
      "type": "function"
    },
    {
      "inputs": [
        {
          "internalType": "address",
          "name": "metamask_address",
          "type": "address"
        },
        {
          "internalType": "string",
          "name": "name",
          "type": "string"
        },
        {
          "internalType": "int256",
          "name": "weight",
          "type": "int256"
        },
        {
          "internalType": "int256",
          "name": "height",
          "type": "int256"
        },
        {
          "internalType": "string",
          "name": "link",
          "type": "string"
        },
        {
          "internalType": "string",
          "name": "hla",
          "type": "string"
        },
        {
          "internalType": "string",
          "name": "bloodgrp",
          "type": "string"
        },
        {
          "internalType": "string",
          "name": "organs",
          "type": "string"
        },
        {
          "internalType": "int256",
          "name": "contact",
          "type": "int256"
        },
        {
          "internalType": "int256",
          "name": "age",
          "type": "int256"
        },
        {
          "internalType": "bool",
          "name": "flag",
          "type": "bool"
        }
      ],
      "name": "registerReceive",
      "outputs": [
        {
          "internalType": "uint256",
          "name": "",
          "type": "uint256"
        }
      ],
      "stateMutability": "payable",
      "type": "function"
    }
  ],
  "bytecode": "0x6080604052600060075534801561001557600080fd5b50612500806100256000396000f3fe6080604052600436106100865760003560e01c8063865c517211610059578063865c517214610144578063a8cb69421461016f578063b73d5179146101ac578063c23697a8146101e9578063e7fd15301461022657610086565b80630a0e6d591461008b57806316da5742146100a75780633139cfc3146100d757806376607bae14610107575b600080fd5b6100a560048036038101906100a0919061187e565b610263565b005b6100c160048036038101906100bc919061197b565b6103fe565b6040516100ce9190611b0a565b60405180910390f35b6100f160048036038101906100ec919061197b565b6107b9565b6040516100fe9190611b0a565b60405180910390f35b34801561011357600080fd5b5061012e60048036038101906101299190611b25565b610b74565b60405161013b9190611d1e565b60405180910390f35b34801561015057600080fd5b50610159610f30565b6040516101669190611eb4565b60405180910390f35b34801561017b57600080fd5b5061019660048036038101906101919190611b25565b6110f6565b6040516101a39190611ee5565b60405180910390f35b3480156101b857600080fd5b506101d360048036038101906101ce9190611b25565b611123565b6040516101e09190612020565b60405180910390f35b3480156101f557600080fd5b50610210600480360381019061020b9190612042565b6114df565b60405161021d9190611ee5565b60405180910390f35b34801561023257600080fd5b5061024d60048036038101906102489190611b25565b611537565b60405161025a9190611ee5565b60405180910390f35b60006040518060e00160405280888152602001878152602001868152602001858152602001848152602001428152602001600115158152509050806000808473ffffffffffffffffffffffffffffffffffffffff1673ffffffffffffffffffffffffffffffffffffffff16815260200190815260200160002060008201518160000190816102f1919061227b565b50602082015181600101556040820151816002019081610311919061227b565b50606082015181600301556080820151816004015560a0820151816005015560c08201518160060160006101000a81548160ff02191690831515021790555090505060018190806001815401808255809150506001900390600052602060002090600702016000909190919091506000820151816000019081610394919061227b565b506020820151816001015560408201518160020190816103b4919061227b565b50606082015181600301556080820151816004015560a0820151816005015560c08201518160060160006101000a81548160ff021916908315150217905550505050505050505050565b6000806040518061018001604052808e73ffffffffffffffffffffffffffffffffffffffff1681526020018d81526020018c81526020018b81526020018a81526020018981526020018881526020018781526020018681526020018581526020018415158152602001600115158152509050600760008154809291906104839061237c565b919050555060005b620f424042336007546040516020016104a69392919061242d565b6040516020818303038152906040528051906020012060001c6104c99190612499565b9050600115156004600083815260200190815260200160002060009054906101000a900460ff1615151461048b5760016004600083815260200190815260200160002060006101000a81548160ff021916908315150217905550600115158415150361066c57816002600083815260200190815260200160002060008201518160000160006101000a81548173ffffffffffffffffffffffffffffffffffffffff021916908373ffffffffffffffffffffffffffffffffffffffff160217905550602082015181600101908161059f919061227b565b50604082015181600201556060820151816003015560808201518160040190816105c9919061227b565b5060a08201518160050190816105df919061227b565b5060c08201518160060190816105f5919061227b565b5060e082015181600701908161060b919061227b565b506101008201518160080155610120820151816009015561014082015181600a0160006101000a81548160ff02191690831515021790555061016082015181600a0160016101000a81548160ff0219169083151502179055509050506107a5565b816003600083815260200190815260200160002060008201518160000160006101000a81548173ffffffffffffffffffffffffffffffffffffffff021916908373ffffffffffffffffffffffffffffffffffffffff16021790555060208201518160010190816106dc919061227b565b5060408201518160020155606082015181600301556080820151816004019081610706919061227b565b5060a082015181600501908161071c919061227b565b5060c0820151816006019081610732919061227b565b5060e0820151816007019081610748919061227b565b506101008201518160080155610120820151816009015561014082015181600a0160006101000a81548160ff02191690831515021790555061016082015181600a0160016101000a81548160ff0219169083151502179055509050505b80925050509b9a5050505050505050505050565b6000806040518061018001604052808e73ffffffffffffffffffffffffffffffffffffffff1681526020018d81526020018c81526020018b81526020018a815260200189815260200188815260200187815260200186815260200185815260200184151581526020016001151581525090506007600081548092919061083e9061237c565b919050555060005b620f424042336007546040516020016108619392919061242d565b6040516020818303038152906040528051906020012060001c6108849190612499565b9050600115156004600083815260200190815260200160002060009054906101000a900460ff161515146108465760016004600083815260200190815260200160002060006101000a81548160ff0219169083151502179055506001151584151503610a2757816005600083815260200190815260200160002060008201518160000160006101000a81548173ffffffffffffffffffffffffffffffffffffffff021916908373ffffffffffffffffffffffffffffffffffffffff160217905550602082015181600101908161095a919061227b565b5060408201518160020155606082015181600301556080820151816004019081610984919061227b565b5060a082015181600501908161099a919061227b565b5060c08201518160060190816109b0919061227b565b5060e08201518160070190816109c6919061227b565b506101008201518160080155610120820151816009015561014082015181600a0160006101000a81548160ff02191690831515021790555061016082015181600a0160016101000a81548160ff021916908315150217905550905050610b60565b816006600083815260200190815260200160002060008201518160000160006101000a81548173ffffffffffffffffffffffffffffffffffffffff021916908373ffffffffffffffffffffffffffffffffffffffff1602179055506020820151816001019081610a97919061227b565b5060408201518160020155606082015181600301556080820151816004019081610ac1919061227b565b5060a0820151816005019081610ad7919061227b565b5060c0820151816006019081610aed919061227b565b5060e0820151816007019081610b03919061227b565b506101008201518160080155610120820151816009015561014082015181600a0160006101000a81548160ff02191690831515021790555061016082015181600a0160016101000a81548160ff0219169083151502179055509050505b80925050509b9a5050505050505050505050565b610b7c611564565b60056000838152602001908152602001600020604051806101800160405290816000820160009054906101000a900473ffffffffffffffffffffffffffffffffffffffff1673ffffffffffffffffffffffffffffffffffffffff1673ffffffffffffffffffffffffffffffffffffffff168152602001600182018054610c019061209e565b80601f0160208091040260200160405190810160405280929190818152602001828054610c2d9061209e565b8015610c7a5780601f10610c4f57610100808354040283529160200191610c7a565b820191906000526020600020905b815481529060010190602001808311610c5d57829003601f168201915b505050505081526020016002820154815260200160038201548152602001600482018054610ca79061209e565b80601f0160208091040260200160405190810160405280929190818152602001828054610cd39061209e565b8015610d205780601f10610cf557610100808354040283529160200191610d20565b820191906000526020600020905b815481529060010190602001808311610d0357829003601f168201915b50505050508152602001600582018054610d399061209e565b80601f0160208091040260200160405190810160405280929190818152602001828054610d659061209e565b8015610db25780601f10610d8757610100808354040283529160200191610db2565b820191906000526020600020905b815481529060010190602001808311610d9557829003601f168201915b50505050508152602001600682018054610dcb9061209e565b80601f0160208091040260200160405190810160405280929190818152602001828054610df79061209e565b8015610e445780601f10610e1957610100808354040283529160200191610e44565b820191906000526020600020905b815481529060010190602001808311610e2757829003601f168201915b50505050508152602001600782018054610e5d9061209e565b80601f0160208091040260200160405190810160405280929190818152602001828054610e899061209e565b8015610ed65780601f10610eab57610100808354040283529160200191610ed6565b820191906000526020600020905b815481529060010190602001808311610eb957829003601f168201915b505050505081526020016008820154815260200160098201548152602001600a820160009054906101000a900460ff16151515158152602001600a820160019054906101000a900460ff1615151515815250509050919050565b60606001805480602002602001604051908101604052809291908181526020016000905b828210156110ed57838290600052602060002090600702016040518060e0016040529081600082018054610f879061209e565b80601f0160208091040260200160405190810160405280929190818152602001828054610fb39061209e565b80156110005780601f10610fd557610100808354040283529160200191611000565b820191906000526020600020905b815481529060010190602001808311610fe357829003601f168201915b50505050508152602001600182015481526020016002820180546110239061209e565b80601f016020809104026020016040519081016040528092919081815260200182805461104f9061209e565b801561109c5780601f106110715761010080835404028352916020019161109c565b820191906000526020600020905b81548152906001019060200180831161107f57829003601f168201915b505050505081526020016003820154815260200160048201548152602001600582015481526020016006820160009054906101000a900460ff16151515158152505081526020019060010190610f54565b50505050905090565b600060056000838152602001908152602001600020600a0160019054906101000a900460ff169050919050565b61112b6115df565b60026000838152602001908152602001600020604051806101800160405290816000820160009054906101000a900473ffffffffffffffffffffffffffffffffffffffff1673ffffffffffffffffffffffffffffffffffffffff1673ffffffffffffffffffffffffffffffffffffffff1681526020016001820180546111b09061209e565b80601f01602080910402602001604051908101604052809291908181526020018280546111dc9061209e565b80156112295780601f106111fe57610100808354040283529160200191611229565b820191906000526020600020905b81548152906001019060200180831161120c57829003601f168201915b5050505050815260200160028201548152602001600382015481526020016004820180546112569061209e565b80601f01602080910402602001604051908101604052809291908181526020018280546112829061209e565b80156112cf5780601f106112a4576101008083540402835291602001916112cf565b820191906000526020600020905b8154815290600101906020018083116112b257829003601f168201915b505050505081526020016005820180546112e89061209e565b80601f01602080910402602001604051908101604052809291908181526020018280546113149061209e565b80156113615780601f1061133657610100808354040283529160200191611361565b820191906000526020600020905b81548152906001019060200180831161134457829003601f168201915b5050505050815260200160068201805461137a9061209e565b80601f01602080910402602001604051908101604052809291908181526020018280546113a69061209e565b80156113f35780601f106113c8576101008083540402835291602001916113f3565b820191906000526020600020905b8154815290600101906020018083116113d657829003601f168201915b5050505050815260200160078201805461140c9061209e565b80601f01602080910402602001604051908101604052809291908181526020018280546114389061209e565b80156114855780601f1061145a57610100808354040283529160200191611485565b820191906000526020600020905b81548152906001019060200180831161146857829003601f168201915b505050505081526020016008820154815260200160098201548152602001600a820160009054906101000a900460ff16151515158152602001600a820160019054906101000a900460ff1615151515815250509050919050565b60008060008373ffffffffffffffffffffffffffffffffffffffff1673ffffffffffffffffffffffffffffffffffffffff16815260200190815260200160002060060160009054906101000a900460ff169050919050565b600060026000838152602001908152602001600020600a0160019054906101000a900460ff169050919050565b604051806101800160405280600073ffffffffffffffffffffffffffffffffffffffff1681526020016060815260200160008152602001600081526020016060815260200160608152602001606081526020016060815260200160008152602001600081526020016000151581526020016000151581525090565b604051806101800160405280600073ffffffffffffffffffffffffffffffffffffffff1681526020016060815260200160008152602001600081526020016060815260200160608152602001606081526020016060815260200160008152602001600081526020016000151581526020016000151581525090565b6000604051905090565b600080fd5b600080fd5b600080fd5b600080fd5b6000601f19601f8301169050919050565b7f4e487b7100000000000000000000000000000000000000000000000000000000600052604160045260246000fd5b6116c182611678565b810181811067ffffffffffffffff821117156116e0576116df611689565b5b80604052505050565b60006116f361165a565b90506116ff82826116b8565b919050565b600067ffffffffffffffff82111561171f5761171e611689565b5b61172882611678565b9050602081019050919050565b82818337600083830152505050565b600061175761175284611704565b6116e9565b90508281526020810184848401111561177357611772611673565b5b61177e848285611735565b509392505050565b600082601f83011261179b5761179a61166e565b5b81356117ab848260208601611744565b91505092915050565b6000819050919050565b6117c7816117b4565b81146117d257600080fd5b50565b6000813590506117e4816117be565b92915050565b6000819050919050565b6117fd816117ea565b811461180857600080fd5b50565b60008135905061181a816117f4565b92915050565b600073ffffffffffffffffffffffffffffffffffffffff82169050919050565b600061184b82611820565b9050919050565b61185b81611840565b811461186657600080fd5b50565b60008135905061187881611852565b92915050565b60008060008060008060c0878903121561189b5761189a611664565b5b600087013567ffffffffffffffff8111156118b9576118b8611669565b5b6118c589828a01611786565b96505060206118d689828a016117d5565b955050604087013567ffffffffffffffff8111156118f7576118f6611669565b5b61190389828a01611786565b945050606061191489828a0161180b565b935050608061192589828a0161180b565b92505060a061193689828a01611869565b9150509295509295509295565b60008115159050919050565b61195881611943565b811461196357600080fd5b50565b6000813590506119758161194f565b92915050565b60008060008060008060008060008060006101608c8e0312156119a1576119a0611664565b5b60006119af8e828f01611869565b9b505060208c013567ffffffffffffffff8111156119d0576119cf611669565b5b6119dc8e828f01611786565b9a505060406119ed8e828f0161180b565b99505060606119fe8e828f0161180b565b98505060808c013567ffffffffffffffff811115611a1f57611a1e611669565b5b611a2b8e828f01611786565b97505060a08c013567ffffffffffffffff811115611a4c57611a4b611669565b5b611a588e828f01611786565b96505060c08c013567ffffffffffffffff811115611a7957611a78611669565b5b611a858e828f01611786565b95505060e08c013567ffffffffffffffff811115611aa657611aa5611669565b5b611ab28e828f01611786565b945050610100611ac48e828f0161180b565b935050610120611ad68e828f0161180b565b925050610140611ae88e828f01611966565b9150509295989b509295989b9093969950565b611b04816117b4565b82525050565b6000602082019050611b1f6000830184611afb565b92915050565b600060208284031215611b3b57611b3a611664565b5b6000611b49848285016117d5565b91505092915050565b611b5b81611840565b82525050565b600081519050919050565b600082825260208201905092915050565b60005b83811015611b9b578082015181840152602081019050611b80565b60008484015250505050565b6000611bb282611b61565b611bbc8185611b6c565b9350611bcc818560208601611b7d565b611bd581611678565b840191505092915050565b611be9816117ea565b82525050565b611bf881611943565b82525050565b600061018083016000830151611c176000860182611b52565b5060208301518482036020860152611c2f8282611ba7565b9150506040830151611c446040860182611be0565b506060830151611c576060860182611be0565b5060808301518482036080860152611c6f8282611ba7565b91505060a083015184820360a0860152611c898282611ba7565b91505060c083015184820360c0860152611ca38282611ba7565b91505060e083015184820360e0860152611cbd8282611ba7565b915050610100830151611cd4610100860182611be0565b50610120830151611ce9610120860182611be0565b50610140830151611cfe610140860182611bef565b50610160830151611d13610160860182611bef565b508091505092915050565b60006020820190508181036000830152611d388184611bfe565b905092915050565b600081519050919050565b600082825260208201905092915050565b6000819050602082019050919050565b611d75816117b4565b82525050565b600060e0830160008301518482036000860152611d988282611ba7565b9150506020830151611dad6020860182611d6c565b5060408301518482036040860152611dc58282611ba7565b9150506060830151611dda6060860182611be0565b506080830151611ded6080860182611be0565b5060a0830151611e0060a0860182611d6c565b5060c0830151611e1360c0860182611bef565b508091505092915050565b6000611e2a8383611d7b565b905092915050565b6000602082019050919050565b6000611e4a82611d40565b611e548185611d4b565b935083602082028501611e6685611d5c565b8060005b85811015611ea25784840389528151611e838582611e1e565b9450611e8e83611e32565b925060208a01995050600181019050611e6a565b50829750879550505050505092915050565b60006020820190508181036000830152611ece8184611e3f565b905092915050565b611edf81611943565b82525050565b6000602082019050611efa6000830184611ed6565b92915050565b600061018083016000830151611f196000860182611b52565b5060208301518482036020860152611f318282611ba7565b9150506040830151611f466040860182611be0565b506060830151611f596060860182611be0565b5060808301518482036080860152611f718282611ba7565b91505060a083015184820360a0860152611f8b8282611ba7565b91505060c083015184820360c0860152611fa58282611ba7565b91505060e083015184820360e0860152611fbf8282611ba7565b915050610100830151611fd6610100860182611be0565b50610120830151611feb610120860182611be0565b50610140830151612000610140860182611bef565b50610160830151612015610160860182611bef565b508091505092915050565b6000602082019050818103600083015261203a8184611f00565b905092915050565b60006020828403121561205857612057611664565b5b600061206684828501611869565b91505092915050565b7f4e487b7100000000000000000000000000000000000000000000000000000000600052602260045260246000fd5b600060028204905060018216806120b657607f821691505b6020821081036120c9576120c861206f565b5b50919050565b60008190508160005260206000209050919050565b60006020601f8301049050919050565b600082821b905092915050565b6000600883026121317fffffffffffffffffffffffffffffffffffffffffffffffffffffffffffffffff826120f4565b61213b86836120f4565b95508019841693508086168417925050509392505050565b6000819050919050565b600061217861217361216e846117b4565b612153565b6117b4565b9050919050565b6000819050919050565b6121928361215d565b6121a661219e8261217f565b848454612101565b825550505050565b600090565b6121bb6121ae565b6121c6818484612189565b505050565b5b818110156121ea576121df6000826121b3565b6001810190506121cc565b5050565b601f82111561222f57612200816120cf565b612209846120e4565b81016020851015612218578190505b61222c612224856120e4565b8301826121cb565b50505b505050565b600082821c905092915050565b600061225260001984600802612234565b1980831691505092915050565b600061226b8383612241565b9150826002028217905092915050565b61228482611b61565b67ffffffffffffffff81111561229d5761229c611689565b5b6122a7825461209e565b6122b28282856121ee565b600060209050601f8311600181146122e557600084156122d3578287015190505b6122dd858261225f565b865550612345565b601f1984166122f3866120cf565b60005b8281101561231b578489015182556001820191506020850194506020810190506122f6565b868310156123385784890151612334601f891682612241565b8355505b6001600288020188555050505b505050505050565b7f4e487b7100000000000000000000000000000000000000000000000000000000600052601160045260246000fd5b6000612387826117b4565b91507fffffffffffffffffffffffffffffffffffffffffffffffffffffffffffffffff82036123b9576123b861234d565b5b600182019050919050565b6000819050919050565b6123df6123da826117b4565b6123c4565b82525050565b60008160601b9050919050565b60006123fd826123e5565b9050919050565b600061240f826123f2565b9050919050565b61242761242282611840565b612404565b82525050565b600061243982866123ce565b6020820191506124498285612416565b60148201915061245982846123ce565b602082019150819050949350505050565b7f4e487b7100000000000000000000000000000000000000000000000000000000600052601260045260246000fd5b60006124a4826117b4565b91506124af836117b4565b9250826124bf576124be61246a565b5b82820690509291505056fea2646970667358221220db3c6a9e28e57849d3418986ca173e3dfaf310eddd67a31c530b99ca75aeace664736f6c63430008110033",
  "linkReferences": {},
  "deployedLinkReferences": {}
}