{
  "_format": "hh-sol-artifact-1",
  "contractName": "enterDetails",
  "sourceName": "contracts/Signin.sol",
  "abi": [
    {
      "inputs": [
        {
          "internalType": "address",
          "name": "id",
          "type": "address"
        }
      ],
      "name": "check",
      "outputs": [
        {
          "internalType": "bool",
          "name": "",
          "type": "bool"
        }
      ],
      "stateMutability": "view",
      "type": "function"
    },
    {
      "inputs": [
        {
          "internalType": "uint256",
          "name": "id",
          "type": "uint256"
        }
      ],
      "name": "checkDonor",
      "outputs": [
        {
          "internalType": "bool",
          "name": "",
          "type": "bool"
        }
      ],
      "stateMutability": "view",
      "type": "function"
    },
    {
      "inputs": [
        {
          "internalType": "uint256",
          "name": "id",
          "type": "uint256"
        }
      ],
      "name": "checkReceive",
      "outputs": [
        {
          "internalType": "bool",
          "name": "",
          "type": "bool"
        }
      ],
      "stateMutability": "view",
      "type": "function"
    },
    {
      "inputs": [],
      "name": "getDonorId",
      "outputs": [
        {
          "internalType": "uint256",
          "name": "",
          "type": "uint256"
        }
      ],
      "stateMutability": "view",
      "type": "function"
    },
    {
      "inputs": [],
      "name": "getMemos",
      "outputs": [
        {
          "components": [
            {
              "internalType": "string",
              "name": "name",
              "type": "string"
            },
            {
              "internalType": "uint256",
              "name": "hospital_id",
              "type": "uint256"
            },
            {
              "internalType": "string",
              "name": "email",
              "type": "string"
            },
            {
              "internalType": "int256",
              "name": "longitude",
              "type": "int256"
            },
            {
              "internalType": "int256",
              "name": "latitude",
              "type": "int256"
            },
            {
              "internalType": "uint256",
              "name": "timestamp",
              "type": "uint256"
            },
            {
              "internalType": "bool",
              "name": "flag",
              "type": "bool"
            }
          ],
          "internalType": "struct enterDetails.Memo[]",
          "name": "",
          "type": "tuple[]"
        }
      ],
      "stateMutability": "view",
      "type": "function"
    },
    {
      "inputs": [
        {
          "internalType": "uint256",
          "name": "id",
          "type": "uint256"
        }
      ],
      "name": "getRegDonor",
      "outputs": [
        {
          "components": [
            {
              "internalType": "address",
              "name": "metamask_address",
              "type": "address"
            },
            {
              "internalType": "string",
              "name": "name",
              "type": "string"
            },
            {
              "internalType": "int256",
              "name": "weight",
              "type": "int256"
            },
            {
              "internalType": "int256",
              "name": "height",
              "type": "int256"
            },
            {
              "internalType": "string[]",
              "name": "link",
              "type": "string[]"
            },
            {
              "internalType": "string",
              "name": "hla",
              "type": "string"
            },
            {
              "internalType": "string",
              "name": "bloodgrp",
              "type": "string"
            },
            {
              "internalType": "string[]",
              "name": "organs",
              "type": "string[]"
            },
            {
              "internalType": "int256",
              "name": "age",
              "type": "int256"
            },
            {
              "internalType": "int256",
              "name": "kincontact",
              "type": "int256"
            },
            {
              "internalType": "bool",
              "name": "flag",
              "type": "bool"
            },
            {
              "internalType": "bool",
              "name": "check",
              "type": "bool"
            }
          ],
          "internalType": "struct enterDetails.RegDonor",
          "name": "",
          "type": "tuple"
        }
      ],
      "stateMutability": "view",
      "type": "function"
    },
    {
      "inputs": [
        {
          "internalType": "uint256",
          "name": "id",
          "type": "uint256"
        }
      ],
      "name": "getRegReceive",
      "outputs": [
        {
          "components": [
            {
              "internalType": "address",
              "name": "metamask_address",
              "type": "address"
            },
            {
              "internalType": "string",
              "name": "name",
              "type": "string"
            },
            {
              "internalType": "int256",
              "name": "weight",
              "type": "int256"
            },
            {
              "internalType": "int256",
              "name": "height",
              "type": "int256"
            },
            {
              "internalType": "string",
              "name": "link",
              "type": "string"
            },
            {
              "internalType": "string",
              "name": "hla",
              "type": "string"
            },
            {
              "internalType": "string",
              "name": "bloodgrp",
              "type": "string"
            },
            {
              "internalType": "string[]",
              "name": "organs",
              "type": "string[]"
            },
            {
              "internalType": "int256",
              "name": "contact",
              "type": "int256"
            },
            {
              "internalType": "int256",
              "name": "age",
              "type": "int256"
            },
            {
              "internalType": "bool",
              "name": "flag",
              "type": "bool"
            },
            {
              "internalType": "bool",
              "name": "check",
              "type": "bool"
            }
          ],
          "internalType": "struct enterDetails.RegRecieve",
          "name": "",
          "type": "tuple"
        }
      ],
      "stateMutability": "view",
      "type": "function"
    },
    {
      "inputs": [
        {
          "internalType": "address",
          "name": "metamask_address",
          "type": "address"
        },
        {
          "internalType": "string",
          "name": "name",
          "type": "string"
        },
        {
          "internalType": "int256",
          "name": "weight",
          "type": "int256"
        },
        {
          "internalType": "int256",
          "name": "height",
          "type": "int256"
        },
        {
          "internalType": "string[]",
          "name": "link",
          "type": "string[]"
        },
        {
          "internalType": "string",
          "name": "hla",
          "type": "string"
        },
        {
          "internalType": "string",
          "name": "bloodgrp",
          "type": "string"
        },
        {
          "internalType": "string[]",
          "name": "organs",
          "type": "string[]"
        },
        {
          "internalType": "int256",
          "name": "age",
          "type": "int256"
        },
        {
          "internalType": "int256",
          "name": "kincontact",
          "type": "int256"
        },
        {
          "internalType": "bool",
          "name": "flag",
          "type": "bool"
        }
      ],
      "name": "registerDonor",
      "outputs": [],
      "stateMutability": "nonpayable",
      "type": "function"
    },
    {
      "inputs": [
        {
          "internalType": "string",
          "name": "name",
          "type": "string"
        },
        {
          "internalType": "uint256",
          "name": "hospital_id",
          "type": "uint256"
        },
        {
          "internalType": "string",
          "name": "email",
          "type": "string"
        },
        {
          "internalType": "int256",
          "name": "longitude",
          "type": "int256"
        },
        {
          "internalType": "int256",
          "name": "latitude",
          "type": "int256"
        },
        {
          "internalType": "address",
          "name": "metamask_address",
          "type": "address"
        }
      ],
      "name": "registerHospital",
      "outputs": [],
      "stateMutability": "payable",
      "type": "function"
    },
    {
      "inputs": [
        {
          "internalType": "address",
          "name": "metamask_address",
          "type": "address"
        },
        {
          "internalType": "string",
          "name": "name",
          "type": "string"
        },
        {
          "internalType": "int256",
          "name": "weight",
          "type": "int256"
        },
        {
          "internalType": "int256",
          "name": "height",
          "type": "int256"
        },
        {
          "internalType": "string",
          "name": "link",
          "type": "string"
        },
        {
          "internalType": "string",
          "name": "hla",
          "type": "string"
        },
        {
          "internalType": "string",
          "name": "bloodgrp",
          "type": "string"
        },
        {
          "internalType": "string[]",
          "name": "organs",
          "type": "string[]"
        },
        {
          "internalType": "int256",
          "name": "contact",
          "type": "int256"
        },
        {
          "internalType": "int256",
          "name": "age",
          "type": "int256"
        },
        {
          "internalType": "bool",
          "name": "flag",
          "type": "bool"
        }
      ],
      "name": "registerReceive",
      "outputs": [
        {
          "internalType": "uint256",
          "name": "",
          "type": "uint256"
        }
      ],
      "stateMutability": "payable",
      "type": "function"
    }
  ],
  "bytecode": "0x608060405260006007556040518060200160405280600060ff1681525060089060016200002e92919062000043565b503480156200003c57600080fd5b50620000b9565b82805482825590600052602060002090810192821562000087579160200282015b8281111562000086578251829060ff1690559160200191906001019062000064565b5b5090506200009691906200009a565b5090565b5b80821115620000b55760008160009055506001016200009b565b5090565b612aed80620000c96000396000f3fe6080604052600436106100915760003560e01c8063a8cb694211610059578063a8cb694214610173578063b73d5179146101b0578063c23697a8146101ed578063e7fd15301461022a578063f7e3d5871461026757610091565b80630a0e6d5914610096578063512a1964146100b257806376607bae146100db578063865c517214610118578063a06286fd14610143575b600080fd5b6100b060048036038101906100ab9190611ae0565b610292565b005b3480156100be57600080fd5b506100d960048036038101906100d49190611cc3565b61042d565b005b3480156100e757600080fd5b5061010260048036038101906100fd9190611e43565b610827565b60405161010f91906120fe565b60405180910390f35b34801561012457600080fd5b5061012d610c2a565b60405161013a9190612294565b60405180910390f35b61015d600480360381019061015891906122b6565b610df0565b60405161016a9190612445565b60405180910390f35b34801561017f57600080fd5b5061019a60048036038101906101959190611e43565b6111b9565b6040516101a7919061246f565b60405180910390f35b3480156101bc57600080fd5b506101d760048036038101906101d29190611e43565b6111e6565b6040516101e491906125aa565b60405180910390f35b3480156101f957600080fd5b50610214600480360381019061020f91906125cc565b611630565b604051610221919061246f565b60405180910390f35b34801561023657600080fd5b50610251600480360381019061024c9190611e43565b611688565b60405161025e919061246f565b60405180910390f35b34801561027357600080fd5b5061027c6116b5565b6040516102899190612445565b60405180910390f35b60006040518060e00160405280888152602001878152602001868152602001858152602001848152602001428152602001600115158152509050806000808473ffffffffffffffffffffffffffffffffffffffff1673ffffffffffffffffffffffffffffffffffffffff16815260200190815260200160002060008201518160000190816103209190612805565b506020820151816001015560408201518160020190816103409190612805565b50606082015181600301556080820151816004015560a0820151816005015560c08201518160060160006101000a81548160ff021916908315150217905550905050600181908060018154018082558091505060019003906000526020600020906007020160009091909190915060008201518160000190816103c39190612805565b506020820151816001015560408201518160020190816103e39190612805565b50606082015181600301556080820151816004015560a0820151816005015560c08201518160060160006101000a81548160ff021916908315150217905550505050505050505050565b60006040518061018001604052808d73ffffffffffffffffffffffffffffffffffffffff1681526020018c81526020018b81526020018a81526020018981526020018881526020018781526020018681526020018581526020018481526020018315158152602001600115158152509050600760008154809291906104b190612906565b919050555060005b620f424042336007546040516020016104d4939291906129b7565b6040516020818303038152906040528051906020012060001c6104f79190612a23565b9050600115156004600083815260200190815260200160002060009054906101000a900460ff161515146104b95760016004600083815260200190815260200160002060006101000a81548160ff02191690831515021790555060011515831515036106a857816002600083815260200190815260200160002060008201518160000160006101000a81548173ffffffffffffffffffffffffffffffffffffffff021916908373ffffffffffffffffffffffffffffffffffffffff16021790555060208201518160010190816105cd9190612805565b50604082015181600201556060820151816003015560808201518160040190805190602001906105fe9291906116ec565b5060a08201518160050190816106149190612805565b5060c082015181600601908161062a9190612805565b5060e08201518160070190805190602001906106479291906116ec565b506101008201518160080155610120820151816009015561014082015181600a0160006101000a81548160ff02191690831515021790555061016082015181600a0160016101000a81548160ff0219169083151502179055509050506107ef565b816003600083815260200190815260200160002060008201518160000160006101000a81548173ffffffffffffffffffffffffffffffffffffffff021916908373ffffffffffffffffffffffffffffffffffffffff16021790555060208201518160010190816107189190612805565b50604082015181600201556060820151816003015560808201518160040190805190602001906107499291906116ec565b5060a082015181600501908161075f9190612805565b5060c08201518160060190816107759190612805565b5060e08201518160070190805190602001906107929291906116ec565b506101008201518160080155610120820151816009015561014082015181600a0160006101000a81548160ff02191690831515021790555061016082015181600a0160016101000a81548160ff0219169083151502179055509050505b600881908060018154018082558091505060019003906000526020600020016000909190919091505550505050505050505050505050565b61082f611745565b60056000838152602001908152602001600020604051806101800160405290816000820160009054906101000a900473ffffffffffffffffffffffffffffffffffffffff1673ffffffffffffffffffffffffffffffffffffffff1673ffffffffffffffffffffffffffffffffffffffff1681526020016001820180546108b490612628565b80601f01602080910402602001604051908101604052809291908181526020018280546108e090612628565b801561092d5780601f106109025761010080835404028352916020019161092d565b820191906000526020600020905b81548152906001019060200180831161091057829003601f168201915b50505050508152602001600282015481526020016003820154815260200160048201805461095a90612628565b80601f016020809104026020016040519081016040528092919081815260200182805461098690612628565b80156109d35780601f106109a8576101008083540402835291602001916109d3565b820191906000526020600020905b8154815290600101906020018083116109b657829003601f168201915b505050505081526020016005820180546109ec90612628565b80601f0160208091040260200160405190810160405280929190818152602001828054610a1890612628565b8015610a655780601f10610a3a57610100808354040283529160200191610a65565b820191906000526020600020905b815481529060010190602001808311610a4857829003601f168201915b50505050508152602001600682018054610a7e90612628565b80601f0160208091040260200160405190810160405280929190818152602001828054610aaa90612628565b8015610af75780601f10610acc57610100808354040283529160200191610af7565b820191906000526020600020905b815481529060010190602001808311610ada57829003601f168201915b5050505050815260200160078201805480602002602001604051908101604052809291908181526020016000905b82821015610bd1578382906000526020600020018054610b4490612628565b80601f0160208091040260200160405190810160405280929190818152602001828054610b7090612628565b8015610bbd5780601f10610b9257610100808354040283529160200191610bbd565b820191906000526020600020905b815481529060010190602001808311610ba057829003601f168201915b505050505081526020019060010190610b25565b5050505081526020016008820154815260200160098201548152602001600a820160009054906101000a900460ff16151515158152602001600a820160019054906101000a900460ff1615151515815250509050919050565b60606001805480602002602001604051908101604052809291908181526020016000905b82821015610de757838290600052602060002090600702016040518060e0016040529081600082018054610c8190612628565b80601f0160208091040260200160405190810160405280929190818152602001828054610cad90612628565b8015610cfa5780601f10610ccf57610100808354040283529160200191610cfa565b820191906000526020600020905b815481529060010190602001808311610cdd57829003601f168201915b5050505050815260200160018201548152602001600282018054610d1d90612628565b80601f0160208091040260200160405190810160405280929190818152602001828054610d4990612628565b8015610d965780601f10610d6b57610100808354040283529160200191610d96565b820191906000526020600020905b815481529060010190602001808311610d7957829003601f168201915b505050505081526020016003820154815260200160048201548152602001600582015481526020016006820160009054906101000a900460ff16151515158152505081526020019060010190610c4e565b50505050905090565b6000806040518061018001604052808e73ffffffffffffffffffffffffffffffffffffffff1681526020018d81526020018c81526020018b81526020018a8152602001898152602001888152602001878152602001868152602001858152602001841515815260200160011515815250905060076000815480929190610e7590612906565b919050555060005b620f42404233600754604051602001610e98939291906129b7565b6040516020818303038152906040528051906020012060001c610ebb9190612a23565b9050600115156004600083815260200190815260200160002060009054906101000a900460ff16151514610e7d5760016004600083815260200190815260200160002060006101000a81548160ff021916908315150217905550600115158415150361106557816005600083815260200190815260200160002060008201518160000160006101000a81548173ffffffffffffffffffffffffffffffffffffffff021916908373ffffffffffffffffffffffffffffffffffffffff1602179055506020820151816001019081610f919190612805565b5060408201518160020155606082015181600301556080820151816004019081610fbb9190612805565b5060a0820151816005019081610fd19190612805565b5060c0820151816006019081610fe79190612805565b5060e08201518160070190805190602001906110049291906116ec565b506101008201518160080155610120820151816009015561014082015181600a0160006101000a81548160ff02191690831515021790555061016082015181600a0160016101000a81548160ff0219169083151502179055509050506111a5565b816006600083815260200190815260200160002060008201518160000160006101000a81548173ffffffffffffffffffffffffffffffffffffffff021916908373ffffffffffffffffffffffffffffffffffffffff16021790555060208201518160010190816110d59190612805565b50604082015181600201556060820151816003015560808201518160040190816110ff9190612805565b5060a08201518160050190816111159190612805565b5060c082015181600601908161112b9190612805565b5060e08201518160070190805190602001906111489291906116ec565b506101008201518160080155610120820151816009015561014082015181600a0160006101000a81548160ff02191690831515021790555061016082015181600a0160016101000a81548160ff0219169083151502179055509050505b80925050509b9a5050505050505050505050565b600060056000838152602001908152602001600020600a0160019054906101000a900460ff169050919050565b6111ee6117c0565b60026000838152602001908152602001600020604051806101800160405290816000820160009054906101000a900473ffffffffffffffffffffffffffffffffffffffff1673ffffffffffffffffffffffffffffffffffffffff1673ffffffffffffffffffffffffffffffffffffffff16815260200160018201805461127390612628565b80601f016020809104026020016040519081016040528092919081815260200182805461129f90612628565b80156112ec5780601f106112c1576101008083540402835291602001916112ec565b820191906000526020600020905b8154815290600101906020018083116112cf57829003601f168201915b50505050508152602001600282015481526020016003820154815260200160048201805480602002602001604051908101604052809291908181526020016000905b828210156113da57838290600052602060002001805461134d90612628565b80601f016020809104026020016040519081016040528092919081815260200182805461137990612628565b80156113c65780601f1061139b576101008083540402835291602001916113c6565b820191906000526020600020905b8154815290600101906020018083116113a957829003601f168201915b50505050508152602001906001019061132e565b5050505081526020016005820180546113f290612628565b80601f016020809104026020016040519081016040528092919081815260200182805461141e90612628565b801561146b5780601f106114405761010080835404028352916020019161146b565b820191906000526020600020905b81548152906001019060200180831161144e57829003601f168201915b5050505050815260200160068201805461148490612628565b80601f01602080910402602001604051908101604052809291908181526020018280546114b090612628565b80156114fd5780601f106114d2576101008083540402835291602001916114fd565b820191906000526020600020905b8154815290600101906020018083116114e057829003601f168201915b5050505050815260200160078201805480602002602001604051908101604052809291908181526020016000905b828210156115d757838290600052602060002001805461154a90612628565b80601f016020809104026020016040519081016040528092919081815260200182805461157690612628565b80156115c35780601f10611598576101008083540402835291602001916115c3565b820191906000526020600020905b8154815290600101906020018083116115a657829003601f168201915b50505050508152602001906001019061152b565b5050505081526020016008820154815260200160098201548152602001600a820160009054906101000a900460ff16151515158152602001600a820160019054906101000a900460ff1615151515815250509050919050565b60008060008373ffffffffffffffffffffffffffffffffffffffff1673ffffffffffffffffffffffffffffffffffffffff16815260200190815260200160002060060160009054906101000a900460ff169050919050565b600060026000838152602001908152602001600020600a0160019054906101000a900460ff169050919050565b6000600860016008805490506116cb9190612a54565b815481106116dc576116db612a88565b5b9060005260206000200154905090565b828054828255906000526020600020908101928215611734579160200282015b828111156117335782518290816117239190612805565b509160200191906001019061170c565b5b509050611741919061183b565b5090565b604051806101800160405280600073ffffffffffffffffffffffffffffffffffffffff1681526020016060815260200160008152602001600081526020016060815260200160608152602001606081526020016060815260200160008152602001600081526020016000151581526020016000151581525090565b604051806101800160405280600073ffffffffffffffffffffffffffffffffffffffff1681526020016060815260200160008152602001600081526020016060815260200160608152602001606081526020016060815260200160008152602001600081526020016000151581526020016000151581525090565b5b8082111561185b5760008181611852919061185f565b5060010161183c565b5090565b50805461186b90612628565b6000825580601f1061187d575061189c565b601f01602090049060005260206000209081019061189b919061189f565b5b50565b5b808211156118b85760008160009055506001016118a0565b5090565b6000604051905090565b600080fd5b600080fd5b600080fd5b600080fd5b6000601f19601f8301169050919050565b7f4e487b7100000000000000000000000000000000000000000000000000000000600052604160045260246000fd5b611923826118da565b810181811067ffffffffffffffff82111715611942576119416118eb565b5b80604052505050565b60006119556118bc565b9050611961828261191a565b919050565b600067ffffffffffffffff821115611981576119806118eb565b5b61198a826118da565b9050602081019050919050565b82818337600083830152505050565b60006119b96119b484611966565b61194b565b9050828152602081018484840111156119d5576119d46118d5565b5b6119e0848285611997565b509392505050565b600082601f8301126119fd576119fc6118d0565b5b8135611a0d8482602086016119a6565b91505092915050565b6000819050919050565b611a2981611a16565b8114611a3457600080fd5b50565b600081359050611a4681611a20565b92915050565b6000819050919050565b611a5f81611a4c565b8114611a6a57600080fd5b50565b600081359050611a7c81611a56565b92915050565b600073ffffffffffffffffffffffffffffffffffffffff82169050919050565b6000611aad82611a82565b9050919050565b611abd81611aa2565b8114611ac857600080fd5b50565b600081359050611ada81611ab4565b92915050565b60008060008060008060c08789031215611afd57611afc6118c6565b5b600087013567ffffffffffffffff811115611b1b57611b1a6118cb565b5b611b2789828a016119e8565b9650506020611b3889828a01611a37565b955050604087013567ffffffffffffffff811115611b5957611b586118cb565b5b611b6589828a016119e8565b9450506060611b7689828a01611a6d565b9350506080611b8789828a01611a6d565b92505060a0611b9889828a01611acb565b9150509295509295509295565b600067ffffffffffffffff821115611bc057611bbf6118eb565b5b602082029050602081019050919050565b600080fd5b6000611be9611be484611ba5565b61194b565b90508083825260208201905060208402830185811115611c0c57611c0b611bd1565b5b835b81811015611c5357803567ffffffffffffffff811115611c3157611c306118d0565b5b808601611c3e89826119e8565b85526020850194505050602081019050611c0e565b5050509392505050565b600082601f830112611c7257611c716118d0565b5b8135611c82848260208601611bd6565b91505092915050565b60008115159050919050565b611ca081611c8b565b8114611cab57600080fd5b50565b600081359050611cbd81611c97565b92915050565b60008060008060008060008060008060006101608c8e031215611ce957611ce86118c6565b5b6000611cf78e828f01611acb565b9b505060208c013567ffffffffffffffff811115611d1857611d176118cb565b5b611d248e828f016119e8565b9a50506040611d358e828f01611a6d565b9950506060611d468e828f01611a6d565b98505060808c013567ffffffffffffffff811115611d6757611d666118cb565b5b611d738e828f01611c5d565b97505060a08c013567ffffffffffffffff811115611d9457611d936118cb565b5b611da08e828f016119e8565b96505060c08c013567ffffffffffffffff811115611dc157611dc06118cb565b5b611dcd8e828f016119e8565b95505060e08c013567ffffffffffffffff811115611dee57611ded6118cb565b5b611dfa8e828f01611c5d565b945050610100611e0c8e828f01611a6d565b935050610120611e1e8e828f01611a6d565b925050610140611e308e828f01611cae565b9150509295989b509295989b9093969950565b600060208284031215611e5957611e586118c6565b5b6000611e6784828501611a37565b91505092915050565b611e7981611aa2565b82525050565b600081519050919050565b600082825260208201905092915050565b60005b83811015611eb9578082015181840152602081019050611e9e565b60008484015250505050565b6000611ed082611e7f565b611eda8185611e8a565b9350611eea818560208601611e9b565b611ef3816118da565b840191505092915050565b611f0781611a4c565b82525050565b600081519050919050565b600082825260208201905092915050565b6000819050602082019050919050565b6000611f458383611ec5565b905092915050565b6000602082019050919050565b6000611f6582611f0d565b611f6f8185611f18565b935083602082028501611f8185611f29565b8060005b85811015611fbd5784840389528151611f9e8582611f39565b9450611fa983611f4d565b925060208a01995050600181019050611f85565b50829750879550505050505092915050565b611fd881611c8b565b82525050565b600061018083016000830151611ff76000860182611e70565b506020830151848203602086015261200f8282611ec5565b91505060408301516120246040860182611efe565b5060608301516120376060860182611efe565b506080830151848203608086015261204f8282611ec5565b91505060a083015184820360a08601526120698282611ec5565b91505060c083015184820360c08601526120838282611ec5565b91505060e083015184820360e086015261209d8282611f5a565b9150506101008301516120b4610100860182611efe565b506101208301516120c9610120860182611efe565b506101408301516120de610140860182611fcf565b506101608301516120f3610160860182611fcf565b508091505092915050565b600060208201905081810360008301526121188184611fde565b905092915050565b600081519050919050565b600082825260208201905092915050565b6000819050602082019050919050565b61215581611a16565b82525050565b600060e08301600083015184820360008601526121788282611ec5565b915050602083015161218d602086018261214c565b50604083015184820360408601526121a58282611ec5565b91505060608301516121ba6060860182611efe565b5060808301516121cd6080860182611efe565b5060a08301516121e060a086018261214c565b5060c08301516121f360c0860182611fcf565b508091505092915050565b600061220a838361215b565b905092915050565b6000602082019050919050565b600061222a82612120565b612234818561212b565b9350836020820285016122468561213c565b8060005b85811015612282578484038952815161226385826121fe565b945061226e83612212565b925060208a0199505060018101905061224a565b50829750879550505050505092915050565b600060208201905081810360008301526122ae818461221f565b905092915050565b60008060008060008060008060008060006101608c8e0312156122dc576122db6118c6565b5b60006122ea8e828f01611acb565b9b505060208c013567ffffffffffffffff81111561230b5761230a6118cb565b5b6123178e828f016119e8565b9a505060406123288e828f01611a6d565b99505060606123398e828f01611a6d565b98505060808c013567ffffffffffffffff81111561235a576123596118cb565b5b6123668e828f016119e8565b97505060a08c013567ffffffffffffffff811115612387576123866118cb565b5b6123938e828f016119e8565b96505060c08c013567ffffffffffffffff8111156123b4576123b36118cb565b5b6123c08e828f016119e8565b95505060e08c013567ffffffffffffffff8111156123e1576123e06118cb565b5b6123ed8e828f01611c5d565b9450506101006123ff8e828f01611a6d565b9350506101206124118e828f01611a6d565b9250506101406124238e828f01611cae565b9150509295989b509295989b9093969950565b61243f81611a16565b82525050565b600060208201905061245a6000830184612436565b92915050565b61246981611c8b565b82525050565b60006020820190506124846000830184612460565b92915050565b6000610180830160008301516124a36000860182611e70565b50602083015184820360208601526124bb8282611ec5565b91505060408301516124d06040860182611efe565b5060608301516124e36060860182611efe565b50608083015184820360808601526124fb8282611f5a565b91505060a083015184820360a08601526125158282611ec5565b91505060c083015184820360c086015261252f8282611ec5565b91505060e083015184820360e08601526125498282611f5a565b915050610100830151612560610100860182611efe565b50610120830151612575610120860182611efe565b5061014083015161258a610140860182611fcf565b5061016083015161259f610160860182611fcf565b508091505092915050565b600060208201905081810360008301526125c4818461248a565b905092915050565b6000602082840312156125e2576125e16118c6565b5b60006125f084828501611acb565b91505092915050565b7f4e487b7100000000000000000000000000000000000000000000000000000000600052602260045260246000fd5b6000600282049050600182168061264057607f821691505b602082108103612653576126526125f9565b5b50919050565b60008190508160005260206000209050919050565b60006020601f8301049050919050565b600082821b905092915050565b6000600883026126bb7fffffffffffffffffffffffffffffffffffffffffffffffffffffffffffffffff8261267e565b6126c5868361267e565b95508019841693508086168417925050509392505050565b6000819050919050565b60006127026126fd6126f884611a16565b6126dd565b611a16565b9050919050565b6000819050919050565b61271c836126e7565b61273061272882612709565b84845461268b565b825550505050565b600090565b612745612738565b612750818484612713565b505050565b5b818110156127745761276960008261273d565b600181019050612756565b5050565b601f8211156127b95761278a81612659565b6127938461266e565b810160208510156127a2578190505b6127b66127ae8561266e565b830182612755565b50505b505050565b600082821c905092915050565b60006127dc600019846008026127be565b1980831691505092915050565b60006127f583836127cb565b9150826002028217905092915050565b61280e82611e7f565b67ffffffffffffffff811115612827576128266118eb565b5b6128318254612628565b61283c828285612778565b600060209050601f83116001811461286f576000841561285d578287015190505b61286785826127e9565b8655506128cf565b601f19841661287d86612659565b60005b828110156128a557848901518255600182019150602085019450602081019050612880565b868310156128c257848901516128be601f8916826127cb565b8355505b6001600288020188555050505b505050505050565b7f4e487b7100000000000000000000000000000000000000000000000000000000600052601160045260246000fd5b600061291182611a16565b91507fffffffffffffffffffffffffffffffffffffffffffffffffffffffffffffffff8203612943576129426128d7565b5b600182019050919050565b6000819050919050565b61296961296482611a16565b61294e565b82525050565b60008160601b9050919050565b60006129878261296f565b9050919050565b60006129998261297c565b9050919050565b6129b16129ac82611aa2565b61298e565b82525050565b60006129c38286612958565b6020820191506129d382856129a0565b6014820191506129e38284612958565b602082019150819050949350505050565b7f4e487b7100000000000000000000000000000000000000000000000000000000600052601260045260246000fd5b6000612a2e82611a16565b9150612a3983611a16565b925082612a4957612a486129f4565b5b828206905092915050565b6000612a5f82611a16565b9150612a6a83611a16565b9250828203905081811115612a8257612a816128d7565b5b92915050565b7f4e487b7100000000000000000000000000000000000000000000000000000000600052603260045260246000fdfea2646970667358221220389537455ba2c7b97c65f1f1e47978ac3426b95643c6165764552a7e0616778d64736f6c63430008110033",
  "linkReferences": {},
  "deployedLinkReferences": {}
}