{
  "_format": "hh-sol-artifact-1",
  "contractName": "enterDetails",
  "sourceName": "contracts/Signin.sol",
  "abi": [
    {
      "anonymous": false,
      "inputs": [
        {
          "indexed": false,
          "internalType": "uint256",
          "name": "id",
          "type": "uint256"
        }
      ],
      "name": "returnId",
      "type": "event"
    },
    {
      "inputs": [
        {
          "internalType": "address",
          "name": "id",
          "type": "address"
        }
      ],
      "name": "check",
      "outputs": [
        {
          "internalType": "bool",
          "name": "",
          "type": "bool"
        }
      ],
      "stateMutability": "view",
      "type": "function"
    },
    {
      "inputs": [
        {
          "internalType": "uint256",
          "name": "id",
          "type": "uint256"
        }
      ],
      "name": "checkDonor",
      "outputs": [
        {
          "internalType": "bool",
          "name": "",
          "type": "bool"
        }
      ],
      "stateMutability": "view",
      "type": "function"
    },
    {
      "inputs": [
        {
          "internalType": "uint256",
          "name": "id",
          "type": "uint256"
        }
      ],
      "name": "checkReceive",
      "outputs": [
        {
          "internalType": "bool",
          "name": "",
          "type": "bool"
        }
      ],
      "stateMutability": "view",
      "type": "function"
    },
    {
      "inputs": [],
      "name": "getMemos",
      "outputs": [
        {
          "components": [
            {
              "internalType": "string",
              "name": "name",
              "type": "string"
            },
            {
              "internalType": "uint256",
              "name": "hospital_id",
              "type": "uint256"
            },
            {
              "internalType": "string",
              "name": "email",
              "type": "string"
            },
            {
              "internalType": "int256",
              "name": "longitude",
              "type": "int256"
            },
            {
              "internalType": "int256",
              "name": "latitude",
              "type": "int256"
            },
            {
              "internalType": "uint256",
              "name": "timestamp",
              "type": "uint256"
            },
            {
              "internalType": "bool",
              "name": "flag",
              "type": "bool"
            }
          ],
          "internalType": "struct enterDetails.Memo[]",
          "name": "",
          "type": "tuple[]"
        }
      ],
      "stateMutability": "view",
      "type": "function"
    },
    {
      "inputs": [
        {
          "internalType": "uint256",
          "name": "id",
          "type": "uint256"
        }
      ],
      "name": "getRegDonor",
      "outputs": [
        {
          "components": [
            {
              "internalType": "address",
              "name": "metamask_address",
              "type": "address"
            },
            {
              "internalType": "string",
              "name": "name",
              "type": "string"
            },
            {
              "internalType": "int256",
              "name": "weight",
              "type": "int256"
            },
            {
              "internalType": "int256",
              "name": "height",
              "type": "int256"
            },
            {
              "internalType": "string",
              "name": "link",
              "type": "string"
            },
            {
              "internalType": "string",
              "name": "hla",
              "type": "string"
            },
            {
              "internalType": "string",
              "name": "bloodgrp",
              "type": "string"
            },
            {
              "internalType": "string[]",
              "name": "organs",
              "type": "string[]"
            },
            {
              "internalType": "int256",
              "name": "age",
              "type": "int256"
            },
            {
              "internalType": "int256",
              "name": "kincontact",
              "type": "int256"
            },
            {
              "internalType": "bool",
              "name": "flag",
              "type": "bool"
            },
            {
              "internalType": "bool",
              "name": "check",
              "type": "bool"
            }
          ],
          "internalType": "struct enterDetails.RegDonor",
          "name": "",
          "type": "tuple"
        }
      ],
      "stateMutability": "view",
      "type": "function"
    },
    {
      "inputs": [
        {
          "internalType": "uint256",
          "name": "id",
          "type": "uint256"
        }
      ],
      "name": "getRegReceive",
      "outputs": [
        {
          "components": [
            {
              "internalType": "address",
              "name": "metamask_address",
              "type": "address"
            },
            {
              "internalType": "string",
              "name": "name",
              "type": "string"
            },
            {
              "internalType": "int256",
              "name": "weight",
              "type": "int256"
            },
            {
              "internalType": "int256",
              "name": "height",
              "type": "int256"
            },
            {
              "internalType": "string",
              "name": "link",
              "type": "string"
            },
            {
              "internalType": "string",
              "name": "hla",
              "type": "string"
            },
            {
              "internalType": "string",
              "name": "bloodgrp",
              "type": "string"
            },
            {
              "internalType": "string[]",
              "name": "organs",
              "type": "string[]"
            },
            {
              "internalType": "int256",
              "name": "contact",
              "type": "int256"
            },
            {
              "internalType": "int256",
              "name": "age",
              "type": "int256"
            },
            {
              "internalType": "bool",
              "name": "flag",
              "type": "bool"
            },
            {
              "internalType": "bool",
              "name": "check",
              "type": "bool"
            }
          ],
          "internalType": "struct enterDetails.RegRecieve",
          "name": "",
          "type": "tuple"
        }
      ],
      "stateMutability": "view",
      "type": "function"
    },
    {
      "inputs": [
        {
          "internalType": "address",
          "name": "metamask_address",
          "type": "address"
        },
        {
          "internalType": "string",
          "name": "name",
          "type": "string"
        },
        {
          "internalType": "int256",
          "name": "weight",
          "type": "int256"
        },
        {
          "internalType": "int256",
          "name": "height",
          "type": "int256"
        },
        {
          "internalType": "string",
          "name": "link",
          "type": "string"
        },
        {
          "internalType": "string",
          "name": "hla",
          "type": "string"
        },
        {
          "internalType": "string",
          "name": "bloodgrp",
          "type": "string"
        },
        {
          "internalType": "string[]",
          "name": "organs",
          "type": "string[]"
        },
        {
          "internalType": "int256",
          "name": "age",
          "type": "int256"
        },
        {
          "internalType": "int256",
          "name": "kincontact",
          "type": "int256"
        },
        {
          "internalType": "bool",
          "name": "flag",
          "type": "bool"
        }
      ],
      "name": "registerDonor",
      "outputs": [
        {
          "internalType": "uint256",
          "name": "",
          "type": "uint256"
        }
      ],
      "stateMutability": "payable",
      "type": "function"
    },
    {
      "inputs": [
        {
          "internalType": "string",
          "name": "name",
          "type": "string"
        },
        {
          "internalType": "uint256",
          "name": "hospital_id",
          "type": "uint256"
        },
        {
          "internalType": "string",
          "name": "email",
          "type": "string"
        },
        {
          "internalType": "int256",
          "name": "longitude",
          "type": "int256"
        },
        {
          "internalType": "int256",
          "name": "latitude",
          "type": "int256"
        },
        {
          "internalType": "address",
          "name": "metamask_address",
          "type": "address"
        }
      ],
      "name": "registerHospital",
      "outputs": [],
      "stateMutability": "payable",
      "type": "function"
    },
    {
      "inputs": [
        {
          "internalType": "address",
          "name": "metamask_address",
          "type": "address"
        },
        {
          "internalType": "string",
          "name": "name",
          "type": "string"
        },
        {
          "internalType": "int256",
          "name": "weight",
          "type": "int256"
        },
        {
          "internalType": "int256",
          "name": "height",
          "type": "int256"
        },
        {
          "internalType": "string",
          "name": "link",
          "type": "string"
        },
        {
          "internalType": "string",
          "name": "hla",
          "type": "string"
        },
        {
          "internalType": "string",
          "name": "bloodgrp",
          "type": "string"
        },
        {
          "internalType": "string[]",
          "name": "organs",
          "type": "string[]"
        },
        {
          "internalType": "int256",
          "name": "contact",
          "type": "int256"
        },
        {
          "internalType": "int256",
          "name": "age",
          "type": "int256"
        },
        {
          "internalType": "bool",
          "name": "flag",
          "type": "bool"
        }
      ],
      "name": "registerReceive",
      "outputs": [
        {
          "internalType": "uint256",
          "name": "",
          "type": "uint256"
        }
      ],
      "stateMutability": "payable",
      "type": "function"
    }
  ],
  "bytecode": "0x6080604052600060075534801561001557600080fd5b50612863806100256000396000f3fe6080604052600436106100865760003560e01c8063a8cb694211610059578063a8cb69421461013f578063b73d51791461017c578063c23697a8146101b9578063c560efe4146101f6578063e7fd15301461022657610086565b80630a0e6d591461008b57806376607bae146100a7578063865c5172146100e4578063a06286fd1461010f575b600080fd5b6100a560048036038101906100a09190611a39565b610263565b005b3480156100b357600080fd5b506100ce60048036038101906100c99190611afe565b6103fe565b6040516100db9190611dc5565b60405180910390f35b3480156100f057600080fd5b506100f9610801565b6040516101069190611f5b565b60405180910390f35b6101296004803603810190610124919061208f565b6109c7565b604051610136919061221e565b60405180910390f35b34801561014b57600080fd5b5061016660048036038101906101619190611afe565b610d90565b6040516101739190612248565b60405180910390f35b34801561018857600080fd5b506101a3600480360381019061019e9190611afe565b610dbd565b6040516101b09190612383565b60405180910390f35b3480156101c557600080fd5b506101e060048036038101906101db91906123a5565b6111c0565b6040516101ed9190612248565b60405180910390f35b610210600480360381019061020b919061208f565b611218565b60405161021d919061221e565b60405180910390f35b34801561023257600080fd5b5061024d60048036038101906102489190611afe565b611618565b60405161025a9190612248565b60405180910390f35b60006040518060e00160405280888152602001878152602001868152602001858152602001848152602001428152602001600115158152509050806000808473ffffffffffffffffffffffffffffffffffffffff1673ffffffffffffffffffffffffffffffffffffffff16815260200190815260200160002060008201518160000190816102f191906125de565b5060208201518160010155604082015181600201908161031191906125de565b50606082015181600301556080820151816004015560a0820151816005015560c08201518160060160006101000a81548160ff0219169083151502179055509050506001819080600181540180825580915050600190039060005260206000209060070201600090919091909150600082015181600001908161039491906125de565b506020820151816001015560408201518160020190816103b491906125de565b50606082015181600301556080820151816004015560a0820151816005015560c08201518160060160006101000a81548160ff021916908315150217905550505050505050505050565b610406611645565b60056000838152602001908152602001600020604051806101800160405290816000820160009054906101000a900473ffffffffffffffffffffffffffffffffffffffff1673ffffffffffffffffffffffffffffffffffffffff1673ffffffffffffffffffffffffffffffffffffffff16815260200160018201805461048b90612401565b80601f01602080910402602001604051908101604052809291908181526020018280546104b790612401565b80156105045780601f106104d957610100808354040283529160200191610504565b820191906000526020600020905b8154815290600101906020018083116104e757829003601f168201915b50505050508152602001600282015481526020016003820154815260200160048201805461053190612401565b80601f016020809104026020016040519081016040528092919081815260200182805461055d90612401565b80156105aa5780601f1061057f576101008083540402835291602001916105aa565b820191906000526020600020905b81548152906001019060200180831161058d57829003601f168201915b505050505081526020016005820180546105c390612401565b80601f01602080910402602001604051908101604052809291908181526020018280546105ef90612401565b801561063c5780601f106106115761010080835404028352916020019161063c565b820191906000526020600020905b81548152906001019060200180831161061f57829003601f168201915b5050505050815260200160068201805461065590612401565b80601f016020809104026020016040519081016040528092919081815260200182805461068190612401565b80156106ce5780601f106106a3576101008083540402835291602001916106ce565b820191906000526020600020905b8154815290600101906020018083116106b157829003601f168201915b5050505050815260200160078201805480602002602001604051908101604052809291908181526020016000905b828210156107a857838290600052602060002001805461071b90612401565b80601f016020809104026020016040519081016040528092919081815260200182805461074790612401565b80156107945780601f1061076957610100808354040283529160200191610794565b820191906000526020600020905b81548152906001019060200180831161077757829003601f168201915b5050505050815260200190600101906106fc565b5050505081526020016008820154815260200160098201548152602001600a820160009054906101000a900460ff16151515158152602001600a820160019054906101000a900460ff1615151515815250509050919050565b60606001805480602002602001604051908101604052809291908181526020016000905b828210156109be57838290600052602060002090600702016040518060e001604052908160008201805461085890612401565b80601f016020809104026020016040519081016040528092919081815260200182805461088490612401565b80156108d15780601f106108a6576101008083540402835291602001916108d1565b820191906000526020600020905b8154815290600101906020018083116108b457829003601f168201915b50505050508152602001600182015481526020016002820180546108f490612401565b80601f016020809104026020016040519081016040528092919081815260200182805461092090612401565b801561096d5780601f106109425761010080835404028352916020019161096d565b820191906000526020600020905b81548152906001019060200180831161095057829003601f168201915b505050505081526020016003820154815260200160048201548152602001600582015481526020016006820160009054906101000a900460ff16151515158152505081526020019060010190610825565b50505050905090565b6000806040518061018001604052808e73ffffffffffffffffffffffffffffffffffffffff1681526020018d81526020018c81526020018b81526020018a8152602001898152602001888152602001878152602001868152602001858152602001841515815260200160011515815250905060076000815480929190610a4c906126df565b919050555060005b620f42404233600754604051602001610a6f93929190612790565b6040516020818303038152906040528051906020012060001c610a9291906127fc565b9050600115156004600083815260200190815260200160002060009054906101000a900460ff16151514610a545760016004600083815260200190815260200160002060006101000a81548160ff0219169083151502179055506001151584151503610c3c57816005600083815260200190815260200160002060008201518160000160006101000a81548173ffffffffffffffffffffffffffffffffffffffff021916908373ffffffffffffffffffffffffffffffffffffffff1602179055506020820151816001019081610b6891906125de565b5060408201518160020155606082015181600301556080820151816004019081610b9291906125de565b5060a0820151816005019081610ba891906125de565b5060c0820151816006019081610bbe91906125de565b5060e0820151816007019080519060200190610bdb9291906116c0565b506101008201518160080155610120820151816009015561014082015181600a0160006101000a81548160ff02191690831515021790555061016082015181600a0160016101000a81548160ff021916908315150217905550905050610d7c565b816006600083815260200190815260200160002060008201518160000160006101000a81548173ffffffffffffffffffffffffffffffffffffffff021916908373ffffffffffffffffffffffffffffffffffffffff1602179055506020820151816001019081610cac91906125de565b5060408201518160020155606082015181600301556080820151816004019081610cd691906125de565b5060a0820151816005019081610cec91906125de565b5060c0820151816006019081610d0291906125de565b5060e0820151816007019080519060200190610d1f9291906116c0565b506101008201518160080155610120820151816009015561014082015181600a0160006101000a81548160ff02191690831515021790555061016082015181600a0160016101000a81548160ff0219169083151502179055509050505b80925050509b9a5050505050505050505050565b600060056000838152602001908152602001600020600a0160019054906101000a900460ff169050919050565b610dc5611719565b60026000838152602001908152602001600020604051806101800160405290816000820160009054906101000a900473ffffffffffffffffffffffffffffffffffffffff1673ffffffffffffffffffffffffffffffffffffffff1673ffffffffffffffffffffffffffffffffffffffff168152602001600182018054610e4a90612401565b80601f0160208091040260200160405190810160405280929190818152602001828054610e7690612401565b8015610ec35780601f10610e9857610100808354040283529160200191610ec3565b820191906000526020600020905b815481529060010190602001808311610ea657829003601f168201915b505050505081526020016002820154815260200160038201548152602001600482018054610ef090612401565b80601f0160208091040260200160405190810160405280929190818152602001828054610f1c90612401565b8015610f695780601f10610f3e57610100808354040283529160200191610f69565b820191906000526020600020905b815481529060010190602001808311610f4c57829003601f168201915b50505050508152602001600582018054610f8290612401565b80601f0160208091040260200160405190810160405280929190818152602001828054610fae90612401565b8015610ffb5780601f10610fd057610100808354040283529160200191610ffb565b820191906000526020600020905b815481529060010190602001808311610fde57829003601f168201915b5050505050815260200160068201805461101490612401565b80601f016020809104026020016040519081016040528092919081815260200182805461104090612401565b801561108d5780601f106110625761010080835404028352916020019161108d565b820191906000526020600020905b81548152906001019060200180831161107057829003601f168201915b5050505050815260200160078201805480602002602001604051908101604052809291908181526020016000905b828210156111675783829060005260206000200180546110da90612401565b80601f016020809104026020016040519081016040528092919081815260200182805461110690612401565b80156111535780601f1061112857610100808354040283529160200191611153565b820191906000526020600020905b81548152906001019060200180831161113657829003601f168201915b5050505050815260200190600101906110bb565b5050505081526020016008820154815260200160098201548152602001600a820160009054906101000a900460ff16151515158152602001600a820160019054906101000a900460ff1615151515815250509050919050565b60008060008373ffffffffffffffffffffffffffffffffffffffff1673ffffffffffffffffffffffffffffffffffffffff16815260200190815260200160002060060160009054906101000a900460ff169050919050565b6000806040518061018001604052808e73ffffffffffffffffffffffffffffffffffffffff1681526020018d81526020018c81526020018b81526020018a815260200189815260200188815260200187815260200186815260200185815260200184151581526020016001151581525090506007600081548092919061129d906126df565b919050555060005b620f424042336007546040516020016112c093929190612790565b6040516020818303038152906040528051906020012060001c6112e391906127fc565b9050600115156004600083815260200190815260200160002060009054906101000a900460ff161515146112a55760016004600083815260200190815260200160002060006101000a81548160ff021916908315150217905550600115158415150361148d57816002600083815260200190815260200160002060008201518160000160006101000a81548173ffffffffffffffffffffffffffffffffffffffff021916908373ffffffffffffffffffffffffffffffffffffffff16021790555060208201518160010190816113b991906125de565b50604082015181600201556060820151816003015560808201518160040190816113e391906125de565b5060a08201518160050190816113f991906125de565b5060c082015181600601908161140f91906125de565b5060e082015181600701908051906020019061142c9291906116c0565b506101008201518160080155610120820151816009015561014082015181600a0160006101000a81548160ff02191690831515021790555061016082015181600a0160016101000a81548160ff0219169083151502179055509050506115cd565b816003600083815260200190815260200160002060008201518160000160006101000a81548173ffffffffffffffffffffffffffffffffffffffff021916908373ffffffffffffffffffffffffffffffffffffffff16021790555060208201518160010190816114fd91906125de565b506040820151816002015560608201518160030155608082015181600401908161152791906125de565b5060a082015181600501908161153d91906125de565b5060c082015181600601908161155391906125de565b5060e08201518160070190805190602001906115709291906116c0565b506101008201518160080155610120820151816009015561014082015181600a0160006101000a81548160ff02191690831515021790555061016082015181600a0160016101000a81548160ff0219169083151502179055509050505b7facb850f5e031c6d2b51aba4294ddf9d196fb9eb2aee2fcb805d889f7f5b0261e816040516115fc919061221e565b60405180910390a180925050509b9a5050505050505050505050565b600060026000838152602001908152602001600020600a0160019054906101000a900460ff169050919050565b604051806101800160405280600073ffffffffffffffffffffffffffffffffffffffff1681526020016060815260200160008152602001600081526020016060815260200160608152602001606081526020016060815260200160008152602001600081526020016000151581526020016000151581525090565b828054828255906000526020600020908101928215611708579160200282015b828111156117075782518290816116f791906125de565b50916020019190600101906116e0565b5b5090506117159190611794565b5090565b604051806101800160405280600073ffffffffffffffffffffffffffffffffffffffff1681526020016060815260200160008152602001600081526020016060815260200160608152602001606081526020016060815260200160008152602001600081526020016000151581526020016000151581525090565b5b808211156117b457600081816117ab91906117b8565b50600101611795565b5090565b5080546117c490612401565b6000825580601f106117d657506117f5565b601f0160209004906000526020600020908101906117f491906117f8565b5b50565b5b808211156118115760008160009055506001016117f9565b5090565b6000604051905090565b600080fd5b600080fd5b600080fd5b600080fd5b6000601f19601f8301169050919050565b7f4e487b7100000000000000000000000000000000000000000000000000000000600052604160045260246000fd5b61187c82611833565b810181811067ffffffffffffffff8211171561189b5761189a611844565b5b80604052505050565b60006118ae611815565b90506118ba8282611873565b919050565b600067ffffffffffffffff8211156118da576118d9611844565b5b6118e382611833565b9050602081019050919050565b82818337600083830152505050565b600061191261190d846118bf565b6118a4565b90508281526020810184848401111561192e5761192d61182e565b5b6119398482856118f0565b509392505050565b600082601f83011261195657611955611829565b5b81356119668482602086016118ff565b91505092915050565b6000819050919050565b6119828161196f565b811461198d57600080fd5b50565b60008135905061199f81611979565b92915050565b6000819050919050565b6119b8816119a5565b81146119c357600080fd5b50565b6000813590506119d5816119af565b92915050565b600073ffffffffffffffffffffffffffffffffffffffff82169050919050565b6000611a06826119db565b9050919050565b611a16816119fb565b8114611a2157600080fd5b50565b600081359050611a3381611a0d565b92915050565b60008060008060008060c08789031215611a5657611a5561181f565b5b600087013567ffffffffffffffff811115611a7457611a73611824565b5b611a8089828a01611941565b9650506020611a9189828a01611990565b955050604087013567ffffffffffffffff811115611ab257611ab1611824565b5b611abe89828a01611941565b9450506060611acf89828a016119c6565b9350506080611ae089828a016119c6565b92505060a0611af189828a01611a24565b9150509295509295509295565b600060208284031215611b1457611b1361181f565b5b6000611b2284828501611990565b91505092915050565b611b34816119fb565b82525050565b600081519050919050565b600082825260208201905092915050565b60005b83811015611b74578082015181840152602081019050611b59565b60008484015250505050565b6000611b8b82611b3a565b611b958185611b45565b9350611ba5818560208601611b56565b611bae81611833565b840191505092915050565b611bc2816119a5565b82525050565b600081519050919050565b600082825260208201905092915050565b6000819050602082019050919050565b6000611c008383611b80565b905092915050565b6000602082019050919050565b6000611c2082611bc8565b611c2a8185611bd3565b935083602082028501611c3c85611be4565b8060005b85811015611c785784840389528151611c598582611bf4565b9450611c6483611c08565b925060208a01995050600181019050611c40565b50829750879550505050505092915050565b60008115159050919050565b611c9f81611c8a565b82525050565b600061018083016000830151611cbe6000860182611b2b565b5060208301518482036020860152611cd68282611b80565b9150506040830151611ceb6040860182611bb9565b506060830151611cfe6060860182611bb9565b5060808301518482036080860152611d168282611b80565b91505060a083015184820360a0860152611d308282611b80565b91505060c083015184820360c0860152611d4a8282611b80565b91505060e083015184820360e0860152611d648282611c15565b915050610100830151611d7b610100860182611bb9565b50610120830151611d90610120860182611bb9565b50610140830151611da5610140860182611c96565b50610160830151611dba610160860182611c96565b508091505092915050565b60006020820190508181036000830152611ddf8184611ca5565b905092915050565b600081519050919050565b600082825260208201905092915050565b6000819050602082019050919050565b611e1c8161196f565b82525050565b600060e0830160008301518482036000860152611e3f8282611b80565b9150506020830151611e546020860182611e13565b5060408301518482036040860152611e6c8282611b80565b9150506060830151611e816060860182611bb9565b506080830151611e946080860182611bb9565b5060a0830151611ea760a0860182611e13565b5060c0830151611eba60c0860182611c96565b508091505092915050565b6000611ed18383611e22565b905092915050565b6000602082019050919050565b6000611ef182611de7565b611efb8185611df2565b935083602082028501611f0d85611e03565b8060005b85811015611f495784840389528151611f2a8582611ec5565b9450611f3583611ed9565b925060208a01995050600181019050611f11565b50829750879550505050505092915050565b60006020820190508181036000830152611f758184611ee6565b905092915050565b600067ffffffffffffffff821115611f9857611f97611844565b5b602082029050602081019050919050565b600080fd5b6000611fc1611fbc84611f7d565b6118a4565b90508083825260208201905060208402830185811115611fe457611fe3611fa9565b5b835b8181101561202b57803567ffffffffffffffff81111561200957612008611829565b5b8086016120168982611941565b85526020850194505050602081019050611fe6565b5050509392505050565b600082601f83011261204a57612049611829565b5b813561205a848260208601611fae565b91505092915050565b61206c81611c8a565b811461207757600080fd5b50565b60008135905061208981612063565b92915050565b60008060008060008060008060008060006101608c8e0312156120b5576120b461181f565b5b60006120c38e828f01611a24565b9b505060208c013567ffffffffffffffff8111156120e4576120e3611824565b5b6120f08e828f01611941565b9a505060406121018e828f016119c6565b99505060606121128e828f016119c6565b98505060808c013567ffffffffffffffff81111561213357612132611824565b5b61213f8e828f01611941565b97505060a08c013567ffffffffffffffff8111156121605761215f611824565b5b61216c8e828f01611941565b96505060c08c013567ffffffffffffffff81111561218d5761218c611824565b5b6121998e828f01611941565b95505060e08c013567ffffffffffffffff8111156121ba576121b9611824565b5b6121c68e828f01612035565b9450506101006121d88e828f016119c6565b9350506101206121ea8e828f016119c6565b9250506101406121fc8e828f0161207a565b9150509295989b509295989b9093969950565b6122188161196f565b82525050565b6000602082019050612233600083018461220f565b92915050565b61224281611c8a565b82525050565b600060208201905061225d6000830184612239565b92915050565b60006101808301600083015161227c6000860182611b2b565b50602083015184820360208601526122948282611b80565b91505060408301516122a96040860182611bb9565b5060608301516122bc6060860182611bb9565b50608083015184820360808601526122d48282611b80565b91505060a083015184820360a08601526122ee8282611b80565b91505060c083015184820360c08601526123088282611b80565b91505060e083015184820360e08601526123228282611c15565b915050610100830151612339610100860182611bb9565b5061012083015161234e610120860182611bb9565b50610140830151612363610140860182611c96565b50610160830151612378610160860182611c96565b508091505092915050565b6000602082019050818103600083015261239d8184612263565b905092915050565b6000602082840312156123bb576123ba61181f565b5b60006123c984828501611a24565b91505092915050565b7f4e487b7100000000000000000000000000000000000000000000000000000000600052602260045260246000fd5b6000600282049050600182168061241957607f821691505b60208210810361242c5761242b6123d2565b5b50919050565b60008190508160005260206000209050919050565b60006020601f8301049050919050565b600082821b905092915050565b6000600883026124947fffffffffffffffffffffffffffffffffffffffffffffffffffffffffffffffff82612457565b61249e8683612457565b95508019841693508086168417925050509392505050565b6000819050919050565b60006124db6124d66124d18461196f565b6124b6565b61196f565b9050919050565b6000819050919050565b6124f5836124c0565b612509612501826124e2565b848454612464565b825550505050565b600090565b61251e612511565b6125298184846124ec565b505050565b5b8181101561254d57612542600082612516565b60018101905061252f565b5050565b601f8211156125925761256381612432565b61256c84612447565b8101602085101561257b578190505b61258f61258785612447565b83018261252e565b50505b505050565b600082821c905092915050565b60006125b560001984600802612597565b1980831691505092915050565b60006125ce83836125a4565b9150826002028217905092915050565b6125e782611b3a565b67ffffffffffffffff811115612600576125ff611844565b5b61260a8254612401565b612615828285612551565b600060209050601f8311600181146126485760008415612636578287015190505b61264085826125c2565b8655506126a8565b601f19841661265686612432565b60005b8281101561267e57848901518255600182019150602085019450602081019050612659565b8683101561269b5784890151612697601f8916826125a4565b8355505b6001600288020188555050505b505050505050565b7f4e487b7100000000000000000000000000000000000000000000000000000000600052601160045260246000fd5b60006126ea8261196f565b91507fffffffffffffffffffffffffffffffffffffffffffffffffffffffffffffffff820361271c5761271b6126b0565b5b600182019050919050565b6000819050919050565b61274261273d8261196f565b612727565b82525050565b60008160601b9050919050565b600061276082612748565b9050919050565b600061277282612755565b9050919050565b61278a612785826119fb565b612767565b82525050565b600061279c8286612731565b6020820191506127ac8285612779565b6014820191506127bc8284612731565b602082019150819050949350505050565b7f4e487b7100000000000000000000000000000000000000000000000000000000600052601260045260246000fd5b60006128078261196f565b91506128128361196f565b925082612822576128216127cd565b5b82820690509291505056fea2646970667358221220bd4ee01017f426a641dada828e7062227c32e63d3a4ba56611200e0df390ee3764736f6c63430008110033",
  "linkReferences": {},
  "deployedLinkReferences": {}
}