{
  "_format": "hh-sol-artifact-1",
  "contractName": "enterDetails",
  "sourceName": "contracts/Signin.sol",
  "abi": [
    {
      "inputs": [
        {
          "internalType": "address",
          "name": "id",
          "type": "address"
        }
      ],
      "name": "check",
      "outputs": [
        {
          "internalType": "bool",
          "name": "",
          "type": "bool"
        }
      ],
      "stateMutability": "view",
      "type": "function"
    },
    {
      "inputs": [],
      "name": "getMemos",
      "outputs": [
        {
          "components": [
            {
              "internalType": "string",
              "name": "name",
              "type": "string"
            },
            {
              "internalType": "uint256",
              "name": "hospital_id",
              "type": "uint256"
            },
            {
              "internalType": "string",
              "name": "email",
              "type": "string"
            },
            {
              "internalType": "int256",
              "name": "longitude",
              "type": "int256"
            },
            {
              "internalType": "int256",
              "name": "latitude",
              "type": "int256"
            },
            {
              "internalType": "uint256",
              "name": "timestamp",
              "type": "uint256"
            },
            {
              "internalType": "bool",
              "name": "flag",
              "type": "bool"
            }
          ],
          "internalType": "struct enterDetails.Memo[]",
          "name": "",
          "type": "tuple[]"
        }
      ],
      "stateMutability": "view",
      "type": "function"
    },
    {
      "inputs": [
        {
          "internalType": "string",
          "name": "name",
          "type": "string"
        },
        {
          "internalType": "uint256",
          "name": "hospital_id",
          "type": "uint256"
        },
        {
          "internalType": "string",
          "name": "email",
          "type": "string"
        },
        {
          "internalType": "int256",
          "name": "longitude",
          "type": "int256"
        },
        {
          "internalType": "int256",
          "name": "latitude",
          "type": "int256"
        },
        {
          "internalType": "address",
          "name": "metamask_address",
          "type": "address"
        }
      ],
      "name": "registerHospital",
      "outputs": [],
      "stateMutability": "payable",
      "type": "function"
    }
  ],
  "bytecode": "0x608060405234801561001057600080fd5b50610d09806100206000396000f3fe6080604052600436106100345760003560e01c80630a0e6d5914610039578063865c517214610055578063c23697a814610080575b600080fd5b610053600480360381019061004e919061069a565b6100bd565b005b34801561006157600080fd5b5061006a610258565b604051610077919061097c565b60405180910390f35b34801561008c57600080fd5b506100a760048036038101906100a2919061099e565b61041e565b6040516100b491906109da565b60405180910390f35b60006040518060e00160405280888152602001878152602001868152602001858152602001848152602001428152602001600115158152509050806000808473ffffffffffffffffffffffffffffffffffffffff1673ffffffffffffffffffffffffffffffffffffffff168152602001908152602001600020600082015181600001908161014b9190610c01565b5060208201518160010155604082015181600201908161016b9190610c01565b50606082015181600301556080820151816004015560a0820151816005015560c08201518160060160006101000a81548160ff021916908315150217905550905050600181908060018154018082558091505060019003906000526020600020906007020160009091909190915060008201518160000190816101ee9190610c01565b5060208201518160010155604082015181600201908161020e9190610c01565b50606082015181600301556080820151816004015560a0820151816005015560c08201518160060160006101000a81548160ff021916908315150217905550505050505050505050565b60606001805480602002602001604051908101604052809291908181526020016000905b8282101561041557838290600052602060002090600702016040518060e00160405290816000820180546102af90610a24565b80601f01602080910402602001604051908101604052809291908181526020018280546102db90610a24565b80156103285780601f106102fd57610100808354040283529160200191610328565b820191906000526020600020905b81548152906001019060200180831161030b57829003601f168201915b505050505081526020016001820154815260200160028201805461034b90610a24565b80601f016020809104026020016040519081016040528092919081815260200182805461037790610a24565b80156103c45780601f10610399576101008083540402835291602001916103c4565b820191906000526020600020905b8154815290600101906020018083116103a757829003601f168201915b505050505081526020016003820154815260200160048201548152602001600582015481526020016006820160009054906101000a900460ff1615151515815250508152602001906001019061027c565b50505050905090565b60008060008373ffffffffffffffffffffffffffffffffffffffff1673ffffffffffffffffffffffffffffffffffffffff16815260200190815260200160002060060160009054906101000a900460ff169050919050565b6000604051905090565b600080fd5b600080fd5b600080fd5b600080fd5b6000601f19601f8301169050919050565b7f4e487b7100000000000000000000000000000000000000000000000000000000600052604160045260246000fd5b6104dd82610494565b810181811067ffffffffffffffff821117156104fc576104fb6104a5565b5b80604052505050565b600061050f610476565b905061051b82826104d4565b919050565b600067ffffffffffffffff82111561053b5761053a6104a5565b5b61054482610494565b9050602081019050919050565b82818337600083830152505050565b600061057361056e84610520565b610505565b90508281526020810184848401111561058f5761058e61048f565b5b61059a848285610551565b509392505050565b600082601f8301126105b7576105b661048a565b5b81356105c7848260208601610560565b91505092915050565b6000819050919050565b6105e3816105d0565b81146105ee57600080fd5b50565b600081359050610600816105da565b92915050565b6000819050919050565b61061981610606565b811461062457600080fd5b50565b60008135905061063681610610565b92915050565b600073ffffffffffffffffffffffffffffffffffffffff82169050919050565b60006106678261063c565b9050919050565b6106778161065c565b811461068257600080fd5b50565b6000813590506106948161066e565b92915050565b60008060008060008060c087890312156106b7576106b6610480565b5b600087013567ffffffffffffffff8111156106d5576106d4610485565b5b6106e189828a016105a2565b96505060206106f289828a016105f1565b955050604087013567ffffffffffffffff81111561071357610712610485565b5b61071f89828a016105a2565b945050606061073089828a01610627565b935050608061074189828a01610627565b92505060a061075289828a01610685565b9150509295509295509295565b600081519050919050565b600082825260208201905092915050565b6000819050602082019050919050565b600081519050919050565b600082825260208201905092915050565b60005b838110156107c55780820151818401526020810190506107aa565b60008484015250505050565b60006107dc8261078b565b6107e68185610796565b93506107f68185602086016107a7565b6107ff81610494565b840191505092915050565b610813816105d0565b82525050565b61082281610606565b82525050565b60008115159050919050565b61083d81610828565b82525050565b600060e083016000830151848203600086015261086082826107d1565b9150506020830151610875602086018261080a565b506040830151848203604086015261088d82826107d1565b91505060608301516108a26060860182610819565b5060808301516108b56080860182610819565b5060a08301516108c860a086018261080a565b5060c08301516108db60c0860182610834565b508091505092915050565b60006108f28383610843565b905092915050565b6000602082019050919050565b60006109128261075f565b61091c818561076a565b93508360208202850161092e8561077b565b8060005b8581101561096a578484038952815161094b85826108e6565b9450610956836108fa565b925060208a01995050600181019050610932565b50829750879550505050505092915050565b600060208201905081810360008301526109968184610907565b905092915050565b6000602082840312156109b4576109b3610480565b5b60006109c284828501610685565b91505092915050565b6109d481610828565b82525050565b60006020820190506109ef60008301846109cb565b92915050565b7f4e487b7100000000000000000000000000000000000000000000000000000000600052602260045260246000fd5b60006002820490506001821680610a3c57607f821691505b602082108103610a4f57610a4e6109f5565b5b50919050565b60008190508160005260206000209050919050565b60006020601f8301049050919050565b600082821b905092915050565b600060088302610ab77fffffffffffffffffffffffffffffffffffffffffffffffffffffffffffffffff82610a7a565b610ac18683610a7a565b95508019841693508086168417925050509392505050565b6000819050919050565b6000610afe610af9610af4846105d0565b610ad9565b6105d0565b9050919050565b6000819050919050565b610b1883610ae3565b610b2c610b2482610b05565b848454610a87565b825550505050565b600090565b610b41610b34565b610b4c818484610b0f565b505050565b5b81811015610b7057610b65600082610b39565b600181019050610b52565b5050565b601f821115610bb557610b8681610a55565b610b8f84610a6a565b81016020851015610b9e578190505b610bb2610baa85610a6a565b830182610b51565b50505b505050565b600082821c905092915050565b6000610bd860001984600802610bba565b1980831691505092915050565b6000610bf18383610bc7565b9150826002028217905092915050565b610c0a8261078b565b67ffffffffffffffff811115610c2357610c226104a5565b5b610c2d8254610a24565b610c38828285610b74565b600060209050601f831160018114610c6b5760008415610c59578287015190505b610c638582610be5565b865550610ccb565b601f198416610c7986610a55565b60005b82811015610ca157848901518255600182019150602085019450602081019050610c7c565b86831015610cbe5784890151610cba601f891682610bc7565b8355505b6001600288020188555050505b50505050505056fea264697066735822122052d7ac192db8f9cd4e2c3fc3ce19cb264087343e2da69fe5cc6a47ac421610bb64736f6c63430008110033",
  "linkReferences": {},
  "deployedLinkReferences": {}
}