{
  "_format": "hh-sol-artifact-1",
  "contractName": "LivingDonor",
  "sourceName": "contracts/Living.sol",
  "abi": [
    {
      "inputs": [
        {
          "internalType": "uint256",
          "name": "donor_id",
          "type": "uint256"
        },
        {
          "internalType": "uint256",
          "name": "reciever_id",
          "type": "uint256"
        },
        {
          "internalType": "string",
          "name": "organ",
          "type": "string"
        },
        {
          "internalType": "address",
          "name": "ContractA_Address",
          "type": "address"
        }
      ],
      "name": "LivingTransDetails",
      "outputs": [
        {
          "internalType": "uint256",
          "name": "",
          "type": "uint256"
        }
      ],
      "stateMutability": "nonpayable",
      "type": "function"
    },
    {
      "inputs": [
        {
          "internalType": "uint256",
          "name": "transplant_id",
          "type": "uint256"
        }
      ],
      "name": "end_living_donor__surgery",
      "outputs": [],
      "stateMutability": "nonpayable",
      "type": "function"
    },
    {
      "inputs": [
        {
          "internalType": "uint256",
          "name": "transplant_id",
          "type": "uint256"
        },
        {
          "internalType": "address",
          "name": "ContractA_Address",
          "type": "address"
        }
      ],
      "name": "end_living_receiver_surgery",
      "outputs": [],
      "stateMutability": "nonpayable",
      "type": "function"
    },
    {
      "inputs": [
        {
          "internalType": "uint256",
          "name": "transplant_id",
          "type": "uint256"
        },
        {
          "internalType": "string",
          "name": "link",
          "type": "string"
        }
      ],
      "name": "failedTrans",
      "outputs": [],
      "stateMutability": "nonpayable",
      "type": "function"
    },
    {
      "inputs": [],
      "name": "getAllLiving",
      "outputs": [
        {
          "components": [
            {
              "internalType": "uint256",
              "name": "transplant_id",
              "type": "uint256"
            },
            {
              "internalType": "uint256",
              "name": "donor_id",
              "type": "uint256"
            },
            {
              "internalType": "uint256",
              "name": "reciever_id",
              "type": "uint256"
            },
            {
              "internalType": "string",
              "name": "organ",
              "type": "string"
            },
            {
              "internalType": "int256",
              "name": "stage",
              "type": "int256"
            },
            {
              "internalType": "int256",
              "name": "status",
              "type": "int256"
            },
            {
              "internalType": "bool",
              "name": "flag",
              "type": "bool"
            }
          ],
          "internalType": "struct LivingDonor.LivingTransplantDetails[]",
          "name": "",
          "type": "tuple[]"
        }
      ],
      "stateMutability": "view",
      "type": "function"
    },
    {
      "inputs": [
        {
          "internalType": "uint256",
          "name": "trans_id",
          "type": "uint256"
        }
      ],
      "name": "getFailed",
      "outputs": [
        {
          "components": [
            {
              "internalType": "bool",
              "name": "flag",
              "type": "bool"
            },
            {
              "internalType": "string",
              "name": "report",
              "type": "string"
            }
          ],
          "internalType": "struct LivingDonor.Failed",
          "name": "",
          "type": "tuple"
        }
      ],
      "stateMutability": "view",
      "type": "function"
    },
    {
      "inputs": [],
      "name": "getLivingId",
      "outputs": [
        {
          "internalType": "uint256",
          "name": "",
          "type": "uint256"
        }
      ],
      "stateMutability": "view",
      "type": "function"
    },
    {
      "inputs": [
        {
          "internalType": "uint256",
          "name": "trans_id",
          "type": "uint256"
        }
      ],
      "name": "getlivingtransdetails",
      "outputs": [
        {
          "components": [
            {
              "internalType": "uint256",
              "name": "transplant_id",
              "type": "uint256"
            },
            {
              "internalType": "uint256",
              "name": "donor_id",
              "type": "uint256"
            },
            {
              "internalType": "uint256",
              "name": "reciever_id",
              "type": "uint256"
            },
            {
              "internalType": "string",
              "name": "organ",
              "type": "string"
            },
            {
              "internalType": "int256",
              "name": "stage",
              "type": "int256"
            },
            {
              "internalType": "int256",
              "name": "status",
              "type": "int256"
            },
            {
              "internalType": "bool",
              "name": "flag",
              "type": "bool"
            }
          ],
          "internalType": "struct LivingDonor.LivingTransplantDetails",
          "name": "",
          "type": "tuple"
        }
      ],
      "stateMutability": "view",
      "type": "function"
    },
    {
      "inputs": [
        {
          "internalType": "uint256",
          "name": "trans_id",
          "type": "uint256"
        }
      ],
      "name": "getlivingtranstimeline",
      "outputs": [
        {
          "internalType": "uint256[4]",
          "name": "",
          "type": "uint256[4]"
        }
      ],
      "stateMutability": "view",
      "type": "function"
    },
    {
      "inputs": [
        {
          "internalType": "uint256",
          "name": "transplant_id",
          "type": "uint256"
        }
      ],
      "name": "start_living_donor_surgery",
      "outputs": [],
      "stateMutability": "nonpayable",
      "type": "function"
    },
    {
      "inputs": [
        {
          "internalType": "uint256",
          "name": "transplant_id",
          "type": "uint256"
        }
      ],
      "name": "start_living_receiver_surgery",
      "outputs": [],
      "stateMutability": "nonpayable",
      "type": "function"
    }
  ],
  "bytecode": "0x6080604052600060045534801561001557600080fd5b506124d2806100256000396000f3fe608060405234801561001057600080fd5b50600436106100a95760003560e01c8063745bda5d11610071578063745bda5d146101505780637b49f10614610180578063a7f069301461019c578063b663205a146101b8578063bbd20624146101e8578063f699abf714610218576100a9565b80630b074c70146100ae5780631ac7c18b146100cc5780633aef125d146100e85780635cdc69991461010457806360f3592114610134575b600080fd5b6100b6610236565b6040516100c3919061139b565b60405180910390f35b6100e660048036038101906100e19190611454565b6102e7565b005b61010260048036038101906100fd9190611494565b61052b565b005b61011e60048036038101906101199190611607565b61068e565b60405161012b919061139b565b60405180910390f35b61014e6004803603810190610149919061168a565b610af4565b005b61016a60048036038101906101659190611494565b610b7d565b60405161017791906117bd565b60405180910390f35b61019a60048036038101906101959190611494565b610c57565b005b6101b660048036038101906101b19190611494565b610dba565b005b6101d260048036038101906101cd9190611494565b610f1d565b6040516101df91906118a3565b60405180910390f35b61020260048036038101906101fd9190611494565b611028565b60405161020f9190611961565b60405180910390f35b610220611086565b60405161022d9190611ada565b60405180910390f35b6000600260003373ffffffffffffffffffffffffffffffffffffffff1673ffffffffffffffffffffffffffffffffffffffff1681526020019081526020016000206001600260003373ffffffffffffffffffffffffffffffffffffffff1673ffffffffffffffffffffffffffffffffffffffff168152602001908152602001600020805490506102c69190611b2b565b815481106102d7576102d6611b5f565b5b9060005260206000200154905090565b600081905060036000808581526020019081526020016000206004015414610344576040517f08c379a000000000000000000000000000000000000000000000000000000000815260040161033b90611c11565b60405180910390fd5b6000806000858152602001908152602001600020600501541461039c576040517f08c379a000000000000000000000000000000000000000000000000000000000815260040161039390611ca3565b60405180910390fd5b6001151560008085815260200190815260200160002060060160009054906101000a900460ff16151514610405576040517f08c379a00000000000000000000000000000000000000000000000000000000081526004016103fc90611d35565b60405180910390fd5b426001600085815260200190815260200160002060036004811061042c5761042b611b5f565b5b01819055506004600080858152602001908152602001600020600401819055506001600080858152602001908152602001600020600501819055508073ffffffffffffffffffffffffffffffffffffffff1663ce294a5560008086815260200190815260200160002060010154600080878152602001908152602001600020600201546000808881526020019081526020016000206003016040518463ffffffff1660e01b81526004016104e293929190611e4e565b6020604051808303816000875af1158015610501573d6000803e3d6000fd5b505050506040513d601f19601f820116820180604052508101906105259190611eb8565b50505050565b60008060008381526020019081526020016000206004015414610583576040517f08c379a000000000000000000000000000000000000000000000000000000000815260040161057a90611c11565b60405180910390fd5b600080600083815260200190815260200160002060050154146105db576040517f08c379a00000000000000000000000000000000000000000000000000000000081526004016105d290611ca3565b60405180910390fd5b6001151560008083815260200190815260200160002060060160009054906101000a900460ff16151514610644576040517f08c379a000000000000000000000000000000000000000000000000000000000815260040161063b90611d35565b60405180910390fd5b426001600083815260200190815260200160002060006004811061066b5761066a611b5f565b5b018190555060016000808381526020019081526020016000206004018190555050565b600080829050600115158173ffffffffffffffffffffffffffffffffffffffff1663c23697a8336040518263ffffffff1660e01b81526004016106d19190611ef4565b602060405180830381865afa1580156106ee573d6000803e3d6000fd5b505050506040513d601f19601f820116820180604052508101906107129190611eb8565b151514610754576040517f08c379a000000000000000000000000000000000000000000000000000000000815260040161074b90611f81565b60405180910390fd5b600015156006600088815260200190815260200160002060009054906101000a900460ff161515146107bb576040517f08c379a00000000000000000000000000000000000000000000000000000000081526004016107b290612013565b60405180910390fd5b600115158173ffffffffffffffffffffffffffffffffffffffff1663e7fd1530886040518263ffffffff1660e01b81526004016107f8919061139b565b602060405180830381865afa158015610815573d6000803e3d6000fd5b505050506040513d601f19601f820116820180604052508101906108399190611eb8565b15151461087b576040517f08c379a0000000000000000000000000000000000000000000000000000000008152600401610872906120a5565b60405180910390fd5b600115158173ffffffffffffffffffffffffffffffffffffffff16634394f581876040518263ffffffff1660e01b81526004016108b8919061139b565b602060405180830381865afa1580156108d5573d6000803e3d6000fd5b505050506040513d601f19601f820116820180604052508101906108f99190611eb8565b15151461093b576040517f08c379a000000000000000000000000000000000000000000000000000000000815260040161093290612137565b60405180910390fd5b600060016006600089815260200190815260200160002060006101000a81548160ff0219169083151502179055505b620f42404260046000815461097e90612157565b91905081905561098e919061219f565b6109989190612202565b9050600115156005600083815260200190815260200160002060009054906101000a900460ff1615151461096a5760006040518060e001604052808381526020018981526020018881526020018781526020016000815260200160008152602001600115158152509050600260003373ffffffffffffffffffffffffffffffffffffffff1673ffffffffffffffffffffffffffffffffffffffff168152602001908152602001600020829080600181540180825580915050600190039060005260206000200160009091909190915055806000808481526020019081526020016000206000820151816000015560208201518160010155604082015181600201556060820151816003019081610aae91906123ca565b506080820151816004015560a0820151816005015560c08201518160060160006101000a81548160ff021916908315150217905550905050819350505050949350505050565b60006040518060400160405280600115158152602001838152509050806003600085815260200190815260200160002060008201518160000160006101000a81548160ff0219169083151502179055506020820151816001019081610b5991906123ca565b50905050600260008085815260200190815260200160002060050181905550505050565b610b85611305565b600360008381526020019081526020016000206040518060400160405290816000820160009054906101000a900460ff16151515158152602001600182018054610bce90611d84565b80601f0160208091040260200160405190810160405280929190818152602001828054610bfa90611d84565b8015610c475780601f10610c1c57610100808354040283529160200191610c47565b820191906000526020600020905b815481529060010190602001808311610c2a57829003601f168201915b5050505050815250509050919050565b60026000808381526020019081526020016000206004015414610caf576040517f08c379a0000000000000000000000000000000000000000000000000000000008152600401610ca690611c11565b60405180910390fd5b60008060008381526020019081526020016000206005015414610d07576040517f08c379a0000000000000000000000000000000000000000000000000000000008152600401610cfe90611ca3565b60405180910390fd5b6001151560008083815260200190815260200160002060060160009054906101000a900460ff16151514610d70576040517f08c379a0000000000000000000000000000000000000000000000000000000008152600401610d6790611d35565b60405180910390fd5b4260016000838152602001908152602001600020600260048110610d9757610d96611b5f565b5b018190555060036000808381526020019081526020016000206004018190555050565b60016000808381526020019081526020016000206004015414610e12576040517f08c379a0000000000000000000000000000000000000000000000000000000008152600401610e0990611c11565b60405180910390fd5b60008060008381526020019081526020016000206005015414610e6a576040517f08c379a0000000000000000000000000000000000000000000000000000000008152600401610e6190611ca3565b60405180910390fd5b6001151560008083815260200190815260200160002060060160009054906101000a900460ff16151514610ed3576040517f08c379a0000000000000000000000000000000000000000000000000000000008152600401610eca90611d35565b60405180910390fd5b4260016000838152602001908152602001600020600160048110610efa57610ef9611b5f565b5b018190555060026000808381526020019081526020016000206004018190555050565b610f25611321565b6000808381526020019081526020016000206040518060e0016040529081600082015481526020016001820154815260200160028201548152602001600382018054610f7090611d84565b80601f0160208091040260200160405190810160405280929190818152602001828054610f9c90611d84565b8015610fe95780601f10610fbe57610100808354040283529160200191610fe9565b820191906000526020600020905b815481529060010190602001808311610fcc57829003601f168201915b5050505050815260200160048201548152602001600582015481526020016006820160009054906101000a900460ff1615151515815250509050919050565b611030611360565b6001600083815260200190815260200160002060048060200260405190810160405280929190826004801561107a576020028201915b815481526020019060010190808311611066575b50505050509050919050565b60606000600260003373ffffffffffffffffffffffffffffffffffffffff1673ffffffffffffffffffffffffffffffffffffffff1681526020019081526020016000208054905067ffffffffffffffff8111156110e6576110e56114dc565b5b60405190808252806020026020018201604052801561111f57816020015b61110c611321565b8152602001906001900390816111045790505b50905060005b600260003373ffffffffffffffffffffffffffffffffffffffff1673ffffffffffffffffffffffffffffffffffffffff168152602001908152602001600020805490508110156112fd576000806000600260003373ffffffffffffffffffffffffffffffffffffffff1673ffffffffffffffffffffffffffffffffffffffff16815260200190815260200160002084815481106111c5576111c4611b5f565b5b906000526020600020015481526020019081526020016000206040518060e001604052908160008201548152602001600182015481526020016002820154815260200160038201805461121790611d84565b80601f016020809104026020016040519081016040528092919081815260200182805461124390611d84565b80156112905780601f1061126557610100808354040283529160200191611290565b820191906000526020600020905b81548152906001019060200180831161127357829003601f168201915b5050505050815260200160048201548152602001600582015481526020016006820160009054906101000a900460ff1615151515815250509050808383815181106112de576112dd611b5f565b5b60200260200101819052505080806112f590612157565b915050611125565b508091505090565b6040518060400160405280600015158152602001606081525090565b6040518060e001604052806000815260200160008152602001600081526020016060815260200160008152602001600081526020016000151581525090565b6040518060800160405280600490602082028036833780820191505090505090565b6000819050919050565b61139581611382565b82525050565b60006020820190506113b0600083018461138c565b92915050565b6000604051905090565b600080fd5b600080fd5b6113d381611382565b81146113de57600080fd5b50565b6000813590506113f0816113ca565b92915050565b600073ffffffffffffffffffffffffffffffffffffffff82169050919050565b6000611421826113f6565b9050919050565b61143181611416565b811461143c57600080fd5b50565b60008135905061144e81611428565b92915050565b6000806040838503121561146b5761146a6113c0565b5b6000611479858286016113e1565b925050602061148a8582860161143f565b9150509250929050565b6000602082840312156114aa576114a96113c0565b5b60006114b8848285016113e1565b91505092915050565b600080fd5b600080fd5b6000601f19601f8301169050919050565b7f4e487b7100000000000000000000000000000000000000000000000000000000600052604160045260246000fd5b611514826114cb565b810181811067ffffffffffffffff82111715611533576115326114dc565b5b80604052505050565b60006115466113b6565b9050611552828261150b565b919050565b600067ffffffffffffffff821115611572576115716114dc565b5b61157b826114cb565b9050602081019050919050565b82818337600083830152505050565b60006115aa6115a584611557565b61153c565b9050828152602081018484840111156115c6576115c56114c6565b5b6115d1848285611588565b509392505050565b600082601f8301126115ee576115ed6114c1565b5b81356115fe848260208601611597565b91505092915050565b60008060008060808587031215611621576116206113c0565b5b600061162f878288016113e1565b9450506020611640878288016113e1565b935050604085013567ffffffffffffffff811115611661576116606113c5565b5b61166d878288016115d9565b925050606061167e8782880161143f565b91505092959194509250565b600080604083850312156116a1576116a06113c0565b5b60006116af858286016113e1565b925050602083013567ffffffffffffffff8111156116d0576116cf6113c5565b5b6116dc858286016115d9565b9150509250929050565b60008115159050919050565b6116fb816116e6565b82525050565b600081519050919050565b600082825260208201905092915050565b60005b8381101561173b578082015181840152602081019050611720565b60008484015250505050565b600061175282611701565b61175c818561170c565b935061176c81856020860161171d565b611775816114cb565b840191505092915050565b600060408301600083015161179860008601826116f2565b50602083015184820360208601526117b08282611747565b9150508091505092915050565b600060208201905081810360008301526117d78184611780565b905092915050565b6117e881611382565b82525050565b6000819050919050565b611801816117ee565b82525050565b600060e08301600083015161181f60008601826117df565b50602083015161183260208601826117df565b50604083015161184560408601826117df565b506060830151848203606086015261185d8282611747565b915050608083015161187260808601826117f8565b5060a083015161188560a08601826117f8565b5060c083015161189860c08601826116f2565b508091505092915050565b600060208201905081810360008301526118bd8184611807565b905092915050565b600060049050919050565b600081905092915050565b6000819050919050565b60006118f183836117df565b60208301905092915050565b6000602082019050919050565b611913816118c5565b61191d81846118d0565b9250611928826118db565b8060005b8381101561195957815161194087826118e5565b965061194b836118fd565b92505060018101905061192c565b505050505050565b6000608082019050611976600083018461190a565b92915050565b600081519050919050565b600082825260208201905092915050565b6000819050602082019050919050565b600060e0830160008301516119c060008601826117df565b5060208301516119d360208601826117df565b5060408301516119e660408601826117df565b50606083015184820360608601526119fe8282611747565b9150506080830151611a1360808601826117f8565b5060a0830151611a2660a08601826117f8565b5060c0830151611a3960c08601826116f2565b508091505092915050565b6000611a5083836119a8565b905092915050565b6000602082019050919050565b6000611a708261197c565b611a7a8185611987565b935083602082028501611a8c85611998565b8060005b85811015611ac85784840389528151611aa98582611a44565b9450611ab483611a58565b925060208a01995050600181019050611a90565b50829750879550505050505092915050565b60006020820190508181036000830152611af48184611a65565b905092915050565b7f4e487b7100000000000000000000000000000000000000000000000000000000600052601160045260246000fd5b6000611b3682611382565b9150611b4183611382565b9250828203905081811115611b5957611b58611afc565b5b92915050565b7f4e487b7100000000000000000000000000000000000000000000000000000000600052603260045260246000fd5b600082825260208201905092915050565b7f536f72727920636f6d706c657465207468652070726576696f7573207374657060008201527f2066697273740000000000000000000000000000000000000000000000000000602082015250565b6000611bfb602683611b8e565b9150611c0682611b9f565b604082019050919050565b60006020820190508181036000830152611c2a81611bee565b9050919050565b7f536f72727920746865207472616e7361706c616e7420686173206265656e207560008201527f6e7375636365737366756c000000000000000000000000000000000000000000602082015250565b6000611c8d602b83611b8e565b9150611c9882611c31565b604082019050919050565b60006020820190508181036000830152611cbc81611c80565b9050919050565b7f4e6f2053756368205472616e7361706c616e742050726f63657373204578697360008201527f7473000000000000000000000000000000000000000000000000000000000000602082015250565b6000611d1f602283611b8e565b9150611d2a82611cc3565b604082019050919050565b60006020820190508181036000830152611d4e81611d12565b9050919050565b7f4e487b7100000000000000000000000000000000000000000000000000000000600052602260045260246000fd5b60006002820490506001821680611d9c57607f821691505b602082108103611daf57611dae611d55565b5b50919050565b60008190508160005260206000209050919050565b60008154611dd781611d84565b611de18186611b8e565b94506001821660008114611dfc5760018114611e1257611e45565b60ff198316865281151560200286019350611e45565b611e1b85611db5565b60005b83811015611e3d57815481890152600182019150602081019050611e1e565b808801955050505b50505092915050565b6000606082019050611e63600083018661138c565b611e70602083018561138c565b8181036040830152611e828184611dca565b9050949350505050565b611e95816116e6565b8114611ea057600080fd5b50565b600081519050611eb281611e8c565b92915050565b600060208284031215611ece57611ecd6113c0565b5b6000611edc84828501611ea3565b91505092915050565b611eee81611416565b82525050565b6000602082019050611f096000830184611ee5565b92915050565b7f4e6f2073756368204d6574614d61736b20416464726573732e2e506c6561736560008201527f20436865636b2e2e212100000000000000000000000000000000000000000000602082015250565b6000611f6b602a83611b8e565b9150611f7682611f0f565b604082019050919050565b60006020820190508181036000830152611f9a81611f5e565b9050919050565b7f54686520446f6e6f7220697320616c726561647920726567697374657265642060008201527f666f72204c6976696e6720446f6e6174696f6e00000000000000000000000000602082015250565b6000611ffd603383611b8e565b915061200882611fa1565b604082019050919050565b6000602082019050818103600083015261202c81611ff0565b9050919050565b7f506c6561736520636865636b20616e642076657269667920796f757220446f6e60008201527f6f72204964212100000000000000000000000000000000000000000000000000602082015250565b600061208f602783611b8e565b915061209a82612033565b604082019050919050565b600060208201905081810360008301526120be81612082565b9050919050565b7f506c6561736520636865636b20616e642076657269667920796f75722052656360008201527f6965766572204964212100000000000000000000000000000000000000000000602082015250565b6000612121602a83611b8e565b915061212c826120c5565b604082019050919050565b6000602082019050818103600083015261215081612114565b9050919050565b600061216282611382565b91507fffffffffffffffffffffffffffffffffffffffffffffffffffffffffffffffff820361219457612193611afc565b5b600182019050919050565b60006121aa82611382565b91506121b583611382565b92508282019050808211156121cd576121cc611afc565b5b92915050565b7f4e487b7100000000000000000000000000000000000000000000000000000000600052601260045260246000fd5b600061220d82611382565b915061221883611382565b925082612228576122276121d3565b5b828206905092915050565b60006020601f8301049050919050565b600082821b905092915050565b6000600883026122807fffffffffffffffffffffffffffffffffffffffffffffffffffffffffffffffff82612243565b61228a8683612243565b95508019841693508086168417925050509392505050565b6000819050919050565b60006122c76122c26122bd84611382565b6122a2565b611382565b9050919050565b6000819050919050565b6122e1836122ac565b6122f56122ed826122ce565b848454612250565b825550505050565b600090565b61230a6122fd565b6123158184846122d8565b505050565b5b818110156123395761232e600082612302565b60018101905061231b565b5050565b601f82111561237e5761234f81611db5565b61235884612233565b81016020851015612367578190505b61237b61237385612233565b83018261231a565b50505b505050565b600082821c905092915050565b60006123a160001984600802612383565b1980831691505092915050565b60006123ba8383612390565b9150826002028217905092915050565b6123d382611701565b67ffffffffffffffff8111156123ec576123eb6114dc565b5b6123f68254611d84565b61240182828561233d565b600060209050601f8311600181146124345760008415612422578287015190505b61242c85826123ae565b865550612494565b601f19841661244286611db5565b60005b8281101561246a57848901518255600182019150602085019450602081019050612445565b868310156124875784890151612483601f891682612390565b8355505b6001600288020188555050505b50505050505056fea2646970667358221220077a4287ce8395b74fb9198f89709c96b1a590fcbef01129487d7ba690622e3964736f6c63430008140033",
  "linkReferences": {},
  "deployedLinkReferences": {}
}