{
  "_format": "hh-sol-artifact-1",
  "contractName": "LivingDonor",
  "sourceName": "contracts/Living.sol",
  "abi": [
    {
      "inputs": [
        {
          "internalType": "uint256",
          "name": "donor_id",
          "type": "uint256"
        },
        {
          "internalType": "uint256",
          "name": "reciever_id",
          "type": "uint256"
        },
        {
          "internalType": "string",
          "name": "organ",
          "type": "string"
        },
        {
          "internalType": "address",
          "name": "ContractA_Address",
          "type": "address"
        }
      ],
      "name": "LivingTransDetails",
      "outputs": [
        {
          "internalType": "uint256",
          "name": "",
          "type": "uint256"
        }
      ],
      "stateMutability": "nonpayable",
      "type": "function"
    },
    {
      "inputs": [
        {
          "internalType": "uint256",
          "name": "trans_id",
          "type": "uint256"
        }
      ],
      "name": "TransNFT",
      "outputs": [],
      "stateMutability": "nonpayable",
      "type": "function"
    },
    {
      "inputs": [
        {
          "internalType": "uint256",
          "name": "transplant_id",
          "type": "uint256"
        }
      ],
      "name": "end_living_donor__surgery",
      "outputs": [],
      "stateMutability": "nonpayable",
      "type": "function"
    },
    {
      "inputs": [
        {
          "internalType": "uint256",
          "name": "transplant_id",
          "type": "uint256"
        },
        {
          "internalType": "address",
          "name": "ContractA_Address",
          "type": "address"
        }
      ],
      "name": "end_living_receiver_surgery",
      "outputs": [],
      "stateMutability": "nonpayable",
      "type": "function"
    },
    {
      "inputs": [
        {
          "internalType": "uint256",
          "name": "transplant_id",
          "type": "uint256"
        },
        {
          "internalType": "string",
          "name": "link",
          "type": "string"
        },
        {
          "internalType": "address",
          "name": "ContractA_Address",
          "type": "address"
        }
      ],
      "name": "failedTrans",
      "outputs": [],
      "stateMutability": "nonpayable",
      "type": "function"
    },
    {
      "inputs": [],
      "name": "getAllLiving",
      "outputs": [
        {
          "components": [
            {
              "internalType": "uint256",
              "name": "transplant_id",
              "type": "uint256"
            },
            {
              "internalType": "uint256",
              "name": "donor_id",
              "type": "uint256"
            },
            {
              "internalType": "uint256",
              "name": "reciever_id",
              "type": "uint256"
            },
            {
              "internalType": "string",
              "name": "organ",
              "type": "string"
            },
            {
              "internalType": "int256",
              "name": "stage",
              "type": "int256"
            },
            {
              "internalType": "int256",
              "name": "status",
              "type": "int256"
            },
            {
              "internalType": "bool",
              "name": "flag",
              "type": "bool"
            }
          ],
          "internalType": "struct LivingDonor.LivingTransplantDetails[]",
          "name": "",
          "type": "tuple[]"
        }
      ],
      "stateMutability": "view",
      "type": "function"
    },
    {
      "inputs": [
        {
          "internalType": "uint256",
          "name": "trans_id",
          "type": "uint256"
        }
      ],
      "name": "getFailed",
      "outputs": [
        {
          "components": [
            {
              "internalType": "bool",
              "name": "flag",
              "type": "bool"
            },
            {
              "internalType": "string",
              "name": "report",
              "type": "string"
            }
          ],
          "internalType": "struct LivingDonor.Failed",
          "name": "",
          "type": "tuple"
        }
      ],
      "stateMutability": "view",
      "type": "function"
    },
    {
      "inputs": [],
      "name": "getLivingId",
      "outputs": [
        {
          "internalType": "uint256",
          "name": "",
          "type": "uint256"
        }
      ],
      "stateMutability": "view",
      "type": "function"
    },
    {
      "inputs": [
        {
          "internalType": "uint256",
          "name": "trans_id",
          "type": "uint256"
        }
      ],
      "name": "getlivingtransdetails",
      "outputs": [
        {
          "components": [
            {
              "internalType": "uint256",
              "name": "transplant_id",
              "type": "uint256"
            },
            {
              "internalType": "uint256",
              "name": "donor_id",
              "type": "uint256"
            },
            {
              "internalType": "uint256",
              "name": "reciever_id",
              "type": "uint256"
            },
            {
              "internalType": "string",
              "name": "organ",
              "type": "string"
            },
            {
              "internalType": "int256",
              "name": "stage",
              "type": "int256"
            },
            {
              "internalType": "int256",
              "name": "status",
              "type": "int256"
            },
            {
              "internalType": "bool",
              "name": "flag",
              "type": "bool"
            }
          ],
          "internalType": "struct LivingDonor.LivingTransplantDetails",
          "name": "",
          "type": "tuple"
        }
      ],
      "stateMutability": "view",
      "type": "function"
    },
    {
      "inputs": [
        {
          "internalType": "uint256",
          "name": "trans_id",
          "type": "uint256"
        }
      ],
      "name": "getlivingtranstimeline",
      "outputs": [
        {
          "internalType": "uint256[4]",
          "name": "",
          "type": "uint256[4]"
        }
      ],
      "stateMutability": "view",
      "type": "function"
    },
    {
      "inputs": [
        {
          "internalType": "uint256",
          "name": "transplant_id",
          "type": "uint256"
        }
      ],
      "name": "start_living_donor_surgery",
      "outputs": [],
      "stateMutability": "nonpayable",
      "type": "function"
    },
    {
      "inputs": [
        {
          "internalType": "uint256",
          "name": "transplant_id",
          "type": "uint256"
        }
      ],
      "name": "start_living_receiver_surgery",
      "outputs": [],
      "stateMutability": "nonpayable",
      "type": "function"
    }
  ],
  "bytecode": "0x6080604052600060045534801561001557600080fd5b50612673806100256000396000f3fe608060405234801561001057600080fd5b50600436106100b45760003560e01c8063a5773fcd11610071578063a5773fcd1461018b578063a7f06930146101a7578063b663205a146101c3578063bbd20624146101f3578063e62145fa14610223578063f699abf71461023f576100b4565b80630b074c70146100b95780631ac7c18b146100d75780633aef125d146100f35780635cdc69991461010f578063745bda5d1461013f5780637b49f1061461016f575b600080fd5b6100c161025d565b6040516100ce91906114ce565b60405180910390f35b6100f160048036038101906100ec9190611587565b61030e565b005b61010d600480360381019061010891906115c7565b610478565b005b6101296004803603810190610124919061173a565b6105db565b60405161013691906114ce565b60405180910390f35b610159600480360381019061015491906115c7565b610b3f565b6040516101669190611894565b60405180910390f35b610189600480360381019061018491906115c7565b610c19565b005b6101a560048036038101906101a091906118b6565b610d7c565b005b6101c160048036038101906101bc91906115c7565b610eb4565b005b6101dd60048036038101906101d891906115c7565b611017565b6040516101ea91906119e9565b60405180910390f35b61020d600480360381019061020891906115c7565b611122565b60405161021a9190611aa7565b60405180910390f35b61023d600480360381019061023891906115c7565b611180565b005b6102476111b9565b6040516102549190611c20565b60405180910390f35b6000600260003373ffffffffffffffffffffffffffffffffffffffff1673ffffffffffffffffffffffffffffffffffffffff1681526020019081526020016000206001600260003373ffffffffffffffffffffffffffffffffffffffff1673ffffffffffffffffffffffffffffffffffffffff168152602001908152602001600020805490506102ed9190611c71565b815481106102fe576102fd611ca5565b5b9060005260206000200154905090565b60008190506003600080858152602001908152602001600020600401541461036b576040517f08c379a000000000000000000000000000000000000000000000000000000000815260040161036290611d57565b60405180910390fd5b600080600085815260200190815260200160002060050154146103c3576040517f08c379a00000000000000000000000000000000000000000000000000000000081526004016103ba90611de9565b60405180910390fd5b6001151560008085815260200190815260200160002060060160009054906101000a900460ff1615151461042c576040517f08c379a000000000000000000000000000000000000000000000000000000000815260040161042390611e7b565b60405180910390fd5b426001600085815260200190815260200160002060036004811061045357610452611ca5565b5b0181905550600460008085815260200190815260200160002060040181905550505050565b600080600083815260200190815260200160002060040154146104d0576040517f08c379a00000000000000000000000000000000000000000000000000000000081526004016104c790611d57565b60405180910390fd5b60008060008381526020019081526020016000206005015414610528576040517f08c379a000000000000000000000000000000000000000000000000000000000815260040161051f90611de9565b60405180910390fd5b6001151560008083815260200190815260200160002060060160009054906101000a900460ff16151514610591576040517f08c379a000000000000000000000000000000000000000000000000000000000815260040161058890611e7b565b60405180910390fd5b42600160008381526020019081526020016000206000600481106105b8576105b7611ca5565b5b018190555060016000808381526020019081526020016000206004018190555050565b600080829050600115158173ffffffffffffffffffffffffffffffffffffffff1663c23697a8336040518263ffffffff1660e01b815260040161061e9190611eaa565b602060405180830381865afa15801561063b573d6000803e3d6000fd5b505050506040513d601f19601f8201168201806040525081019061065f9190611ef1565b1515146106a1576040517f08c379a000000000000000000000000000000000000000000000000000000000815260040161069890611f90565b60405180910390fd5b600015156006600088815260200190815260200160002060009054906101000a900460ff16151514610708576040517f08c379a00000000000000000000000000000000000000000000000000000000081526004016106ff90612022565b60405180910390fd5b600115158173ffffffffffffffffffffffffffffffffffffffff1663e7fd1530886040518263ffffffff1660e01b815260040161074591906114ce565b602060405180830381865afa158015610762573d6000803e3d6000fd5b505050506040513d601f19601f820116820180604052508101906107869190611ef1565b1515146107c8576040517f08c379a00000000000000000000000000000000000000000000000000000000081526004016107bf906120b4565b60405180910390fd5b600115158173ffffffffffffffffffffffffffffffffffffffff16634394f581876040518263ffffffff1660e01b815260040161080591906114ce565b602060405180830381865afa158015610822573d6000803e3d6000fd5b505050506040513d601f19601f820116820180604052508101906108469190611ef1565b151514610888576040517f08c379a000000000000000000000000000000000000000000000000000000000815260040161087f90612146565b60405180910390fd5b600060016006600089815260200190815260200160002060006101000a81548160ff0219169083151502179055505b620f4240426004600081546108cb90612166565b9190508190556108db91906121ae565b6108e59190612211565b9050600115156005600083815260200190815260200160002060009054906101000a900460ff161515146108b75760006040518060e001604052808381526020018981526020018881526020018781526020016000815260200160008152602001600115158152509050600260003373ffffffffffffffffffffffffffffffffffffffff1673ffffffffffffffffffffffffffffffffffffffff1681526020019081526020016000208290806001815401808255809150506001900390600052602060002001600090919091909150558060008084815260200190815260200160002060008201518160000155602082015181600101556040820151816002015560608201518160030190816109fb919061244e565b506080820151816004015560a0820151816005015560c08201518160060160006101000a81548160ff0219169083151502179055509050508273ffffffffffffffffffffffffffffffffffffffff1663ea3facbf88886040518363ffffffff1660e01b8152600401610a6e929190612559565b6020604051808303816000875af1158015610a8d573d6000803e3d6000fd5b505050506040513d601f19601f82011682018060405250810190610ab19190611ef1565b508273ffffffffffffffffffffffffffffffffffffffff1663e57a5c4f89886040518363ffffffff1660e01b8152600401610aed929190612559565b6020604051808303816000875af1158015610b0c573d6000803e3d6000fd5b505050506040513d601f19601f82011682018060405250810190610b309190611ef1565b50819350505050949350505050565b610b47611438565b600360008381526020019081526020016000206040518060400160405290816000820160009054906101000a900460ff16151515158152602001600182018054610b9090612271565b80601f0160208091040260200160405190810160405280929190818152602001828054610bbc90612271565b8015610c095780601f10610bde57610100808354040283529160200191610c09565b820191906000526020600020905b815481529060010190602001808311610bec57829003601f168201915b5050505050815250509050919050565b60026000808381526020019081526020016000206004015414610c71576040517f08c379a0000000000000000000000000000000000000000000000000000000008152600401610c6890611d57565b60405180910390fd5b60008060008381526020019081526020016000206005015414610cc9576040517f08c379a0000000000000000000000000000000000000000000000000000000008152600401610cc090611de9565b60405180910390fd5b6001151560008083815260200190815260200160002060060160009054906101000a900460ff16151514610d32576040517f08c379a0000000000000000000000000000000000000000000000000000000008152600401610d2990611e7b565b60405180910390fd5b4260016000838152602001908152602001600020600260048110610d5957610d58611ca5565b5b018190555060036000808381526020019081526020016000206004018190555050565b600081905060006040518060400160405280600115158152602001858152509050806003600087815260200190815260200160002060008201518160000160006101000a81548160ff0219169083151502179055506020820151816001019081610de6919061244e565b509050506002600080878152602001908152602001600020600501819055508173ffffffffffffffffffffffffffffffffffffffff1663c24be05b600080888152602001908152602001600020600201546000808981526020019081526020016000206003016040518363ffffffff1660e01b8152600401610e6992919061260d565b6020604051808303816000875af1158015610e88573d6000803e3d6000fd5b505050506040513d601f19601f82011682018060405250810190610eac9190611ef1565b505050505050565b60016000808381526020019081526020016000206004015414610f0c576040517f08c379a0000000000000000000000000000000000000000000000000000000008152600401610f0390611d57565b60405180910390fd5b60008060008381526020019081526020016000206005015414610f64576040517f08c379a0000000000000000000000000000000000000000000000000000000008152600401610f5b90611de9565b60405180910390fd5b6001151560008083815260200190815260200160002060060160009054906101000a900460ff16151514610fcd576040517f08c379a0000000000000000000000000000000000000000000000000000000008152600401610fc490611e7b565b60405180910390fd5b4260016000838152602001908152602001600020600160048110610ff457610ff3611ca5565b5b018190555060026000808381526020019081526020016000206004018190555050565b61101f611454565b6000808381526020019081526020016000206040518060e001604052908160008201548152602001600182015481526020016002820154815260200160038201805461106a90612271565b80601f016020809104026020016040519081016040528092919081815260200182805461109690612271565b80156110e35780601f106110b8576101008083540402835291602001916110e3565b820191906000526020600020905b8154815290600101906020018083116110c657829003601f168201915b5050505050815260200160048201548152602001600582015481526020016006820160009054906101000a900460ff1615151515815250509050919050565b61112a611493565b60016000838152602001908152602001600020600480602002604051908101604052809291908260048015611174576020028201915b815481526020019060010190808311611160575b50505050509050919050565b60056000808381526020019081526020016000206004018190555060016000808381526020019081526020016000206005018190555050565b60606000600260003373ffffffffffffffffffffffffffffffffffffffff1673ffffffffffffffffffffffffffffffffffffffff1681526020019081526020016000208054905067ffffffffffffffff8111156112195761121861160f565b5b60405190808252806020026020018201604052801561125257816020015b61123f611454565b8152602001906001900390816112375790505b50905060005b600260003373ffffffffffffffffffffffffffffffffffffffff1673ffffffffffffffffffffffffffffffffffffffff16815260200190815260200160002080549050811015611430576000806000600260003373ffffffffffffffffffffffffffffffffffffffff1673ffffffffffffffffffffffffffffffffffffffff16815260200190815260200160002084815481106112f8576112f7611ca5565b5b906000526020600020015481526020019081526020016000206040518060e001604052908160008201548152602001600182015481526020016002820154815260200160038201805461134a90612271565b80601f016020809104026020016040519081016040528092919081815260200182805461137690612271565b80156113c35780601f10611398576101008083540402835291602001916113c3565b820191906000526020600020905b8154815290600101906020018083116113a657829003601f168201915b5050505050815260200160048201548152602001600582015481526020016006820160009054906101000a900460ff16151515158152505090508083838151811061141157611410611ca5565b5b602002602001018190525050808061142890612166565b915050611258565b508091505090565b6040518060400160405280600015158152602001606081525090565b6040518060e001604052806000815260200160008152602001600081526020016060815260200160008152602001600081526020016000151581525090565b6040518060800160405280600490602082028036833780820191505090505090565b6000819050919050565b6114c8816114b5565b82525050565b60006020820190506114e360008301846114bf565b92915050565b6000604051905090565b600080fd5b600080fd5b611506816114b5565b811461151157600080fd5b50565b600081359050611523816114fd565b92915050565b600073ffffffffffffffffffffffffffffffffffffffff82169050919050565b600061155482611529565b9050919050565b61156481611549565b811461156f57600080fd5b50565b6000813590506115818161155b565b92915050565b6000806040838503121561159e5761159d6114f3565b5b60006115ac85828601611514565b92505060206115bd85828601611572565b9150509250929050565b6000602082840312156115dd576115dc6114f3565b5b60006115eb84828501611514565b91505092915050565b600080fd5b600080fd5b6000601f19601f8301169050919050565b7f4e487b7100000000000000000000000000000000000000000000000000000000600052604160045260246000fd5b611647826115fe565b810181811067ffffffffffffffff821117156116665761166561160f565b5b80604052505050565b60006116796114e9565b9050611685828261163e565b919050565b600067ffffffffffffffff8211156116a5576116a461160f565b5b6116ae826115fe565b9050602081019050919050565b82818337600083830152505050565b60006116dd6116d88461168a565b61166f565b9050828152602081018484840111156116f9576116f86115f9565b5b6117048482856116bb565b509392505050565b600082601f830112611721576117206115f4565b5b81356117318482602086016116ca565b91505092915050565b60008060008060808587031215611754576117536114f3565b5b600061176287828801611514565b945050602061177387828801611514565b935050604085013567ffffffffffffffff811115611794576117936114f8565b5b6117a08782880161170c565b92505060606117b187828801611572565b91505092959194509250565b60008115159050919050565b6117d2816117bd565b82525050565b600081519050919050565b600082825260208201905092915050565b60005b838110156118125780820151818401526020810190506117f7565b60008484015250505050565b6000611829826117d8565b61183381856117e3565b93506118438185602086016117f4565b61184c816115fe565b840191505092915050565b600060408301600083015161186f60008601826117c9565b5060208301518482036020860152611887828261181e565b9150508091505092915050565b600060208201905081810360008301526118ae8184611857565b905092915050565b6000806000606084860312156118cf576118ce6114f3565b5b60006118dd86828701611514565b935050602084013567ffffffffffffffff8111156118fe576118fd6114f8565b5b61190a8682870161170c565b925050604061191b86828701611572565b9150509250925092565b61192e816114b5565b82525050565b6000819050919050565b61194781611934565b82525050565b600060e0830160008301516119656000860182611925565b5060208301516119786020860182611925565b50604083015161198b6040860182611925565b50606083015184820360608601526119a3828261181e565b91505060808301516119b8608086018261193e565b5060a08301516119cb60a086018261193e565b5060c08301516119de60c08601826117c9565b508091505092915050565b60006020820190508181036000830152611a03818461194d565b905092915050565b600060049050919050565b600081905092915050565b6000819050919050565b6000611a378383611925565b60208301905092915050565b6000602082019050919050565b611a5981611a0b565b611a638184611a16565b9250611a6e82611a21565b8060005b83811015611a9f578151611a868782611a2b565b9650611a9183611a43565b925050600181019050611a72565b505050505050565b6000608082019050611abc6000830184611a50565b92915050565b600081519050919050565b600082825260208201905092915050565b6000819050602082019050919050565b600060e083016000830151611b066000860182611925565b506020830151611b196020860182611925565b506040830151611b2c6040860182611925565b5060608301518482036060860152611b44828261181e565b9150506080830151611b59608086018261193e565b5060a0830151611b6c60a086018261193e565b5060c0830151611b7f60c08601826117c9565b508091505092915050565b6000611b968383611aee565b905092915050565b6000602082019050919050565b6000611bb682611ac2565b611bc08185611acd565b935083602082028501611bd285611ade565b8060005b85811015611c0e5784840389528151611bef8582611b8a565b9450611bfa83611b9e565b925060208a01995050600181019050611bd6565b50829750879550505050505092915050565b60006020820190508181036000830152611c3a8184611bab565b905092915050565b7f4e487b7100000000000000000000000000000000000000000000000000000000600052601160045260246000fd5b6000611c7c826114b5565b9150611c87836114b5565b9250828203905081811115611c9f57611c9e611c42565b5b92915050565b7f4e487b7100000000000000000000000000000000000000000000000000000000600052603260045260246000fd5b600082825260208201905092915050565b7f536f72727920636f6d706c657465207468652070726576696f7573207374657060008201527f2066697273740000000000000000000000000000000000000000000000000000602082015250565b6000611d41602683611cd4565b9150611d4c82611ce5565b604082019050919050565b60006020820190508181036000830152611d7081611d34565b9050919050565b7f536f72727920746865207472616e7361706c616e7420686173206265656e207560008201527f6e7375636365737366756c000000000000000000000000000000000000000000602082015250565b6000611dd3602b83611cd4565b9150611dde82611d77565b604082019050919050565b60006020820190508181036000830152611e0281611dc6565b9050919050565b7f4e6f2053756368205472616e7361706c616e742050726f63657373204578697360008201527f7473000000000000000000000000000000000000000000000000000000000000602082015250565b6000611e65602283611cd4565b9150611e7082611e09565b604082019050919050565b60006020820190508181036000830152611e9481611e58565b9050919050565b611ea481611549565b82525050565b6000602082019050611ebf6000830184611e9b565b92915050565b611ece816117bd565b8114611ed957600080fd5b50565b600081519050611eeb81611ec5565b92915050565b600060208284031215611f0757611f066114f3565b5b6000611f1584828501611edc565b91505092915050565b7f4e6f2073756368204d6574614d61736b20416464726573732e2e506c6561736560008201527f20436865636b2e2e212100000000000000000000000000000000000000000000602082015250565b6000611f7a602a83611cd4565b9150611f8582611f1e565b604082019050919050565b60006020820190508181036000830152611fa981611f6d565b9050919050565b7f54686520446f6e6f7220697320616c726561647920726567697374657265642060008201527f666f72204c6976696e6720446f6e6174696f6e00000000000000000000000000602082015250565b600061200c603383611cd4565b915061201782611fb0565b604082019050919050565b6000602082019050818103600083015261203b81611fff565b9050919050565b7f506c6561736520636865636b20616e642076657269667920796f757220446f6e60008201527f6f72204964212100000000000000000000000000000000000000000000000000602082015250565b600061209e602783611cd4565b91506120a982612042565b604082019050919050565b600060208201905081810360008301526120cd81612091565b9050919050565b7f506c6561736520636865636b20616e642076657269667920796f75722052656360008201527f6965766572204964212100000000000000000000000000000000000000000000602082015250565b6000612130602a83611cd4565b915061213b826120d4565b604082019050919050565b6000602082019050818103600083015261215f81612123565b9050919050565b6000612171826114b5565b91507fffffffffffffffffffffffffffffffffffffffffffffffffffffffffffffffff82036121a3576121a2611c42565b5b600182019050919050565b60006121b9826114b5565b91506121c4836114b5565b92508282019050808211156121dc576121db611c42565b5b92915050565b7f4e487b7100000000000000000000000000000000000000000000000000000000600052601260045260246000fd5b600061221c826114b5565b9150612227836114b5565b925082612237576122366121e2565b5b828206905092915050565b7f4e487b7100000000000000000000000000000000000000000000000000000000600052602260045260246000fd5b6000600282049050600182168061228957607f821691505b60208210810361229c5761229b612242565b5b50919050565b60008190508160005260206000209050919050565b60006020601f8301049050919050565b600082821b905092915050565b6000600883026123047fffffffffffffffffffffffffffffffffffffffffffffffffffffffffffffffff826122c7565b61230e86836122c7565b95508019841693508086168417925050509392505050565b6000819050919050565b600061234b612346612341846114b5565b612326565b6114b5565b9050919050565b6000819050919050565b61236583612330565b61237961237182612352565b8484546122d4565b825550505050565b600090565b61238e612381565b61239981848461235c565b505050565b5b818110156123bd576123b2600082612386565b60018101905061239f565b5050565b601f821115612402576123d3816122a2565b6123dc846122b7565b810160208510156123eb578190505b6123ff6123f7856122b7565b83018261239e565b50505b505050565b600082821c905092915050565b600061242560001984600802612407565b1980831691505092915050565b600061243e8383612414565b9150826002028217905092915050565b612457826117d8565b67ffffffffffffffff8111156124705761246f61160f565b5b61247a8254612271565b6124858282856123c1565b600060209050601f8311600181146124b857600084156124a6578287015190505b6124b08582612432565b865550612518565b601f1984166124c6866122a2565b60005b828110156124ee578489015182556001820191506020850194506020810190506124c9565b8683101561250b5784890151612507601f891682612414565b8355505b6001600288020188555050505b505050505050565b600061252b826117d8565b6125358185611cd4565b93506125458185602086016117f4565b61254e816115fe565b840191505092915050565b600060408201905061256e60008301856114bf565b81810360208301526125808184612520565b90509392505050565b6000815461259681612271565b6125a08186611cd4565b945060018216600081146125bb57600181146125d157612604565b60ff198316865281151560200286019350612604565b6125da856122a2565b60005b838110156125fc578154818901526001820191506020810190506125dd565b808801955050505b50505092915050565b600060408201905061262260008301856114bf565b81810360208301526126348184612589565b9050939250505056fea26469706673582212206e942eca46ba34253c643748a3d8c3d952fb38b4909c49cbadd44947010d47a664736f6c63430008140033",
  "linkReferences": {},
  "deployedLinkReferences": {}
}