{
  "_format": "hh-sol-artifact-1",
  "contractName": "LivingDonor",
  "sourceName": "contracts/Living.sol",
  "abi": [
    {
      "inputs": [
        {
          "internalType": "uint256",
          "name": "donor_id",
          "type": "uint256"
        },
        {
          "internalType": "uint256",
          "name": "reciever_id",
          "type": "uint256"
        },
        {
          "internalType": "string",
          "name": "organ",
          "type": "string"
        },
        {
          "internalType": "address",
          "name": "ContractA_Address",
          "type": "address"
        }
      ],
      "name": "LivingTransDetails",
      "outputs": [
        {
          "internalType": "uint256",
          "name": "",
          "type": "uint256"
        }
      ],
      "stateMutability": "nonpayable",
      "type": "function"
    },
    {
      "inputs": [
        {
          "internalType": "uint256",
          "name": "trans_id",
          "type": "uint256"
        }
      ],
      "name": "TransNFT",
      "outputs": [],
      "stateMutability": "nonpayable",
      "type": "function"
    },
    {
      "inputs": [
        {
          "internalType": "uint256",
          "name": "transplant_id",
          "type": "uint256"
        }
      ],
      "name": "end_living_donor__surgery",
      "outputs": [],
      "stateMutability": "nonpayable",
      "type": "function"
    },
    {
      "inputs": [
        {
          "internalType": "uint256",
          "name": "transplant_id",
          "type": "uint256"
        },
        {
          "internalType": "address",
          "name": "ContractA_Address",
          "type": "address"
        }
      ],
      "name": "end_living_receiver_surgery",
      "outputs": [],
      "stateMutability": "nonpayable",
      "type": "function"
    },
    {
      "inputs": [
        {
          "internalType": "uint256",
          "name": "transplant_id",
          "type": "uint256"
        },
        {
          "internalType": "string",
          "name": "link",
          "type": "string"
        }
      ],
      "name": "failedTrans",
      "outputs": [],
      "stateMutability": "nonpayable",
      "type": "function"
    },
    {
      "inputs": [],
      "name": "getAllLiving",
      "outputs": [
        {
          "components": [
            {
              "internalType": "uint256",
              "name": "transplant_id",
              "type": "uint256"
            },
            {
              "internalType": "uint256",
              "name": "donor_id",
              "type": "uint256"
            },
            {
              "internalType": "uint256",
              "name": "reciever_id",
              "type": "uint256"
            },
            {
              "internalType": "string",
              "name": "organ",
              "type": "string"
            },
            {
              "internalType": "int256",
              "name": "stage",
              "type": "int256"
            },
            {
              "internalType": "int256",
              "name": "status",
              "type": "int256"
            },
            {
              "internalType": "bool",
              "name": "flag",
              "type": "bool"
            }
          ],
          "internalType": "struct LivingDonor.LivingTransplantDetails[]",
          "name": "",
          "type": "tuple[]"
        }
      ],
      "stateMutability": "view",
      "type": "function"
    },
    {
      "inputs": [
        {
          "internalType": "uint256",
          "name": "trans_id",
          "type": "uint256"
        }
      ],
      "name": "getFailed",
      "outputs": [
        {
          "components": [
            {
              "internalType": "bool",
              "name": "flag",
              "type": "bool"
            },
            {
              "internalType": "string",
              "name": "report",
              "type": "string"
            }
          ],
          "internalType": "struct LivingDonor.Failed",
          "name": "",
          "type": "tuple"
        }
      ],
      "stateMutability": "view",
      "type": "function"
    },
    {
      "inputs": [],
      "name": "getLivingId",
      "outputs": [
        {
          "internalType": "uint256",
          "name": "",
          "type": "uint256"
        }
      ],
      "stateMutability": "view",
      "type": "function"
    },
    {
      "inputs": [
        {
          "internalType": "uint256",
          "name": "trans_id",
          "type": "uint256"
        }
      ],
      "name": "getlivingtransdetails",
      "outputs": [
        {
          "components": [
            {
              "internalType": "uint256",
              "name": "transplant_id",
              "type": "uint256"
            },
            {
              "internalType": "uint256",
              "name": "donor_id",
              "type": "uint256"
            },
            {
              "internalType": "uint256",
              "name": "reciever_id",
              "type": "uint256"
            },
            {
              "internalType": "string",
              "name": "organ",
              "type": "string"
            },
            {
              "internalType": "int256",
              "name": "stage",
              "type": "int256"
            },
            {
              "internalType": "int256",
              "name": "status",
              "type": "int256"
            },
            {
              "internalType": "bool",
              "name": "flag",
              "type": "bool"
            }
          ],
          "internalType": "struct LivingDonor.LivingTransplantDetails",
          "name": "",
          "type": "tuple"
        }
      ],
      "stateMutability": "view",
      "type": "function"
    },
    {
      "inputs": [
        {
          "internalType": "uint256",
          "name": "trans_id",
          "type": "uint256"
        }
      ],
      "name": "getlivingtranstimeline",
      "outputs": [
        {
          "internalType": "uint256[4]",
          "name": "",
          "type": "uint256[4]"
        }
      ],
      "stateMutability": "view",
      "type": "function"
    },
    {
      "inputs": [
        {
          "internalType": "uint256",
          "name": "transplant_id",
          "type": "uint256"
        }
      ],
      "name": "start_living_donor_surgery",
      "outputs": [],
      "stateMutability": "nonpayable",
      "type": "function"
    },
    {
      "inputs": [
        {
          "internalType": "uint256",
          "name": "transplant_id",
          "type": "uint256"
        }
      ],
      "name": "start_living_receiver_surgery",
      "outputs": [],
      "stateMutability": "nonpayable",
      "type": "function"
    }
  ],
  "bytecode": "0x6080604052600060045534801561001557600080fd5b5061259a806100256000396000f3fe608060405234801561001057600080fd5b50600436106100b45760003560e01c80637b49f106116100715780637b49f1061461018b578063a7f06930146101a7578063b663205a146101c3578063bbd20624146101f3578063e62145fa14610223578063f699abf71461023f576100b4565b80630b074c70146100b95780631ac7c18b146100d75780633aef125d146100f35780635cdc69991461010f57806360f359211461013f578063745bda5d1461015b575b600080fd5b6100c161025d565b6040516100ce9190611471565b60405180910390f35b6100f160048036038101906100ec919061152a565b61030e565b005b61010d6004803603810190610108919061156a565b6105c8565b005b610129600480360381019061012491906116dd565b61072b565b6040516101369190611471565b60405180910390f35b61015960048036038101906101549190611760565b610b91565b005b6101756004803603810190610170919061156a565b610c1a565b6040516101829190611893565b60405180910390f35b6101a560048036038101906101a0919061156a565b610cf4565b005b6101c160048036038101906101bc919061156a565b610e57565b005b6101dd60048036038101906101d8919061156a565b610fba565b6040516101ea9190611979565b60405180910390f35b61020d6004803603810190610208919061156a565b6110c5565b60405161021a9190611a37565b60405180910390f35b61023d6004803603810190610238919061156a565b611123565b005b61024761115c565b6040516102549190611bb0565b60405180910390f35b6000600260003373ffffffffffffffffffffffffffffffffffffffff1673ffffffffffffffffffffffffffffffffffffffff1681526020019081526020016000206001600260003373ffffffffffffffffffffffffffffffffffffffff1673ffffffffffffffffffffffffffffffffffffffff168152602001908152602001600020805490506102ed9190611c01565b815481106102fe576102fd611c35565b5b9060005260206000200154905090565b60008190506003600080858152602001908152602001600020600401541461036b576040517f08c379a000000000000000000000000000000000000000000000000000000000815260040161036290611ce7565b60405180910390fd5b600080600085815260200190815260200160002060050154146103c3576040517f08c379a00000000000000000000000000000000000000000000000000000000081526004016103ba90611d79565b60405180910390fd5b6001151560008085815260200190815260200160002060060160009054906101000a900460ff1615151461042c576040517f08c379a000000000000000000000000000000000000000000000000000000000815260040161042390611e0b565b60405180910390fd5b426001600085815260200190815260200160002060036004811061045357610452611c35565b5b01819055506004600080858152602001908152602001600020600401819055508073ffffffffffffffffffffffffffffffffffffffff1663e57a5c4f600080868152602001908152602001600020600101546000808781526020019081526020016000206003016040518363ffffffff1660e01b81526004016104d7929190611f24565b6020604051808303816000875af11580156104f6573d6000803e3d6000fd5b505050506040513d601f19601f8201168201806040525081019061051a9190611f80565b508073ffffffffffffffffffffffffffffffffffffffff1663ea3facbf600080868152602001908152602001600020600201546000808781526020019081526020016000206003016040518363ffffffff1660e01b815260040161057f929190611f24565b6020604051808303816000875af115801561059e573d6000803e3d6000fd5b505050506040513d601f19601f820116820180604052508101906105c29190611f80565b50505050565b60008060008381526020019081526020016000206004015414610620576040517f08c379a000000000000000000000000000000000000000000000000000000000815260040161061790611ce7565b60405180910390fd5b60008060008381526020019081526020016000206005015414610678576040517f08c379a000000000000000000000000000000000000000000000000000000000815260040161066f90611d79565b60405180910390fd5b6001151560008083815260200190815260200160002060060160009054906101000a900460ff161515146106e1576040517f08c379a00000000000000000000000000000000000000000000000000000000081526004016106d890611e0b565b60405180910390fd5b426001600083815260200190815260200160002060006004811061070857610707611c35565b5b018190555060016000808381526020019081526020016000206004018190555050565b600080829050600115158173ffffffffffffffffffffffffffffffffffffffff1663c23697a8336040518263ffffffff1660e01b815260040161076e9190611fbc565b602060405180830381865afa15801561078b573d6000803e3d6000fd5b505050506040513d601f19601f820116820180604052508101906107af9190611f80565b1515146107f1576040517f08c379a00000000000000000000000000000000000000000000000000000000081526004016107e890612049565b60405180910390fd5b600015156006600088815260200190815260200160002060009054906101000a900460ff16151514610858576040517f08c379a000000000000000000000000000000000000000000000000000000000815260040161084f906120db565b60405180910390fd5b600115158173ffffffffffffffffffffffffffffffffffffffff1663e7fd1530886040518263ffffffff1660e01b81526004016108959190611471565b602060405180830381865afa1580156108b2573d6000803e3d6000fd5b505050506040513d601f19601f820116820180604052508101906108d69190611f80565b151514610918576040517f08c379a000000000000000000000000000000000000000000000000000000000815260040161090f9061216d565b60405180910390fd5b600115158173ffffffffffffffffffffffffffffffffffffffff16634394f581876040518263ffffffff1660e01b81526004016109559190611471565b602060405180830381865afa158015610972573d6000803e3d6000fd5b505050506040513d601f19601f820116820180604052508101906109969190611f80565b1515146109d8576040517f08c379a00000000000000000000000000000000000000000000000000000000081526004016109cf906121ff565b60405180910390fd5b600060016006600089815260200190815260200160002060006101000a81548160ff0219169083151502179055505b620f424042600460008154610a1b9061221f565b919050819055610a2b9190612267565b610a3591906122ca565b9050600115156005600083815260200190815260200160002060009054906101000a900460ff16151514610a075760006040518060e001604052808381526020018981526020018881526020018781526020016000815260200160008152602001600115158152509050600260003373ffffffffffffffffffffffffffffffffffffffff1673ffffffffffffffffffffffffffffffffffffffff168152602001908152602001600020829080600181540180825580915050600190039060005260206000200160009091909190915055806000808481526020019081526020016000206000820151816000015560208201518160010155604082015181600201556060820151816003019081610b4b9190612492565b506080820151816004015560a0820151816005015560c08201518160060160006101000a81548160ff021916908315150217905550905050819350505050949350505050565b60006040518060400160405280600115158152602001838152509050806003600085815260200190815260200160002060008201518160000160006101000a81548160ff0219169083151502179055506020820151816001019081610bf69190612492565b50905050600260008085815260200190815260200160002060050181905550505050565b610c226113db565b600360008381526020019081526020016000206040518060400160405290816000820160009054906101000a900460ff16151515158152602001600182018054610c6b90611e5a565b80601f0160208091040260200160405190810160405280929190818152602001828054610c9790611e5a565b8015610ce45780601f10610cb957610100808354040283529160200191610ce4565b820191906000526020600020905b815481529060010190602001808311610cc757829003601f168201915b5050505050815250509050919050565b60026000808381526020019081526020016000206004015414610d4c576040517f08c379a0000000000000000000000000000000000000000000000000000000008152600401610d4390611ce7565b60405180910390fd5b60008060008381526020019081526020016000206005015414610da4576040517f08c379a0000000000000000000000000000000000000000000000000000000008152600401610d9b90611d79565b60405180910390fd5b6001151560008083815260200190815260200160002060060160009054906101000a900460ff16151514610e0d576040517f08c379a0000000000000000000000000000000000000000000000000000000008152600401610e0490611e0b565b60405180910390fd5b4260016000838152602001908152602001600020600260048110610e3457610e33611c35565b5b018190555060036000808381526020019081526020016000206004018190555050565b60016000808381526020019081526020016000206004015414610eaf576040517f08c379a0000000000000000000000000000000000000000000000000000000008152600401610ea690611ce7565b60405180910390fd5b60008060008381526020019081526020016000206005015414610f07576040517f08c379a0000000000000000000000000000000000000000000000000000000008152600401610efe90611d79565b60405180910390fd5b6001151560008083815260200190815260200160002060060160009054906101000a900460ff16151514610f70576040517f08c379a0000000000000000000000000000000000000000000000000000000008152600401610f6790611e0b565b60405180910390fd5b4260016000838152602001908152602001600020600160048110610f9757610f96611c35565b5b018190555060026000808381526020019081526020016000206004018190555050565b610fc26113f7565b6000808381526020019081526020016000206040518060e001604052908160008201548152602001600182015481526020016002820154815260200160038201805461100d90611e5a565b80601f016020809104026020016040519081016040528092919081815260200182805461103990611e5a565b80156110865780601f1061105b57610100808354040283529160200191611086565b820191906000526020600020905b81548152906001019060200180831161106957829003601f168201915b5050505050815260200160048201548152602001600582015481526020016006820160009054906101000a900460ff1615151515815250509050919050565b6110cd611436565b60016000838152602001908152602001600020600480602002604051908101604052809291908260048015611117576020028201915b815481526020019060010190808311611103575b50505050509050919050565b60056000808381526020019081526020016000206004018190555060016000808381526020019081526020016000206005018190555050565b60606000600260003373ffffffffffffffffffffffffffffffffffffffff1673ffffffffffffffffffffffffffffffffffffffff1681526020019081526020016000208054905067ffffffffffffffff8111156111bc576111bb6115b2565b5b6040519080825280602002602001820160405280156111f557816020015b6111e26113f7565b8152602001906001900390816111da5790505b50905060005b600260003373ffffffffffffffffffffffffffffffffffffffff1673ffffffffffffffffffffffffffffffffffffffff168152602001908152602001600020805490508110156113d3576000806000600260003373ffffffffffffffffffffffffffffffffffffffff1673ffffffffffffffffffffffffffffffffffffffff168152602001908152602001600020848154811061129b5761129a611c35565b5b906000526020600020015481526020019081526020016000206040518060e00160405290816000820154815260200160018201548152602001600282015481526020016003820180546112ed90611e5a565b80601f016020809104026020016040519081016040528092919081815260200182805461131990611e5a565b80156113665780601f1061133b57610100808354040283529160200191611366565b820191906000526020600020905b81548152906001019060200180831161134957829003601f168201915b5050505050815260200160048201548152602001600582015481526020016006820160009054906101000a900460ff1615151515815250509050808383815181106113b4576113b3611c35565b5b60200260200101819052505080806113cb9061221f565b9150506111fb565b508091505090565b6040518060400160405280600015158152602001606081525090565b6040518060e001604052806000815260200160008152602001600081526020016060815260200160008152602001600081526020016000151581525090565b6040518060800160405280600490602082028036833780820191505090505090565b6000819050919050565b61146b81611458565b82525050565b60006020820190506114866000830184611462565b92915050565b6000604051905090565b600080fd5b600080fd5b6114a981611458565b81146114b457600080fd5b50565b6000813590506114c6816114a0565b92915050565b600073ffffffffffffffffffffffffffffffffffffffff82169050919050565b60006114f7826114cc565b9050919050565b611507816114ec565b811461151257600080fd5b50565b600081359050611524816114fe565b92915050565b6000806040838503121561154157611540611496565b5b600061154f858286016114b7565b925050602061156085828601611515565b9150509250929050565b6000602082840312156115805761157f611496565b5b600061158e848285016114b7565b91505092915050565b600080fd5b600080fd5b6000601f19601f8301169050919050565b7f4e487b7100000000000000000000000000000000000000000000000000000000600052604160045260246000fd5b6115ea826115a1565b810181811067ffffffffffffffff82111715611609576116086115b2565b5b80604052505050565b600061161c61148c565b905061162882826115e1565b919050565b600067ffffffffffffffff821115611648576116476115b2565b5b611651826115a1565b9050602081019050919050565b82818337600083830152505050565b600061168061167b8461162d565b611612565b90508281526020810184848401111561169c5761169b61159c565b5b6116a784828561165e565b509392505050565b600082601f8301126116c4576116c3611597565b5b81356116d484826020860161166d565b91505092915050565b600080600080608085870312156116f7576116f6611496565b5b6000611705878288016114b7565b9450506020611716878288016114b7565b935050604085013567ffffffffffffffff8111156117375761173661149b565b5b611743878288016116af565b925050606061175487828801611515565b91505092959194509250565b6000806040838503121561177757611776611496565b5b6000611785858286016114b7565b925050602083013567ffffffffffffffff8111156117a6576117a561149b565b5b6117b2858286016116af565b9150509250929050565b60008115159050919050565b6117d1816117bc565b82525050565b600081519050919050565b600082825260208201905092915050565b60005b838110156118115780820151818401526020810190506117f6565b60008484015250505050565b6000611828826117d7565b61183281856117e2565b93506118428185602086016117f3565b61184b816115a1565b840191505092915050565b600060408301600083015161186e60008601826117c8565b5060208301518482036020860152611886828261181d565b9150508091505092915050565b600060208201905081810360008301526118ad8184611856565b905092915050565b6118be81611458565b82525050565b6000819050919050565b6118d7816118c4565b82525050565b600060e0830160008301516118f560008601826118b5565b50602083015161190860208601826118b5565b50604083015161191b60408601826118b5565b5060608301518482036060860152611933828261181d565b915050608083015161194860808601826118ce565b5060a083015161195b60a08601826118ce565b5060c083015161196e60c08601826117c8565b508091505092915050565b6000602082019050818103600083015261199381846118dd565b905092915050565b600060049050919050565b600081905092915050565b6000819050919050565b60006119c783836118b5565b60208301905092915050565b6000602082019050919050565b6119e98161199b565b6119f381846119a6565b92506119fe826119b1565b8060005b83811015611a2f578151611a1687826119bb565b9650611a21836119d3565b925050600181019050611a02565b505050505050565b6000608082019050611a4c60008301846119e0565b92915050565b600081519050919050565b600082825260208201905092915050565b6000819050602082019050919050565b600060e083016000830151611a9660008601826118b5565b506020830151611aa960208601826118b5565b506040830151611abc60408601826118b5565b5060608301518482036060860152611ad4828261181d565b9150506080830151611ae960808601826118ce565b5060a0830151611afc60a08601826118ce565b5060c0830151611b0f60c08601826117c8565b508091505092915050565b6000611b268383611a7e565b905092915050565b6000602082019050919050565b6000611b4682611a52565b611b508185611a5d565b935083602082028501611b6285611a6e565b8060005b85811015611b9e5784840389528151611b7f8582611b1a565b9450611b8a83611b2e565b925060208a01995050600181019050611b66565b50829750879550505050505092915050565b60006020820190508181036000830152611bca8184611b3b565b905092915050565b7f4e487b7100000000000000000000000000000000000000000000000000000000600052601160045260246000fd5b6000611c0c82611458565b9150611c1783611458565b9250828203905081811115611c2f57611c2e611bd2565b5b92915050565b7f4e487b7100000000000000000000000000000000000000000000000000000000600052603260045260246000fd5b600082825260208201905092915050565b7f536f72727920636f6d706c657465207468652070726576696f7573207374657060008201527f2066697273740000000000000000000000000000000000000000000000000000602082015250565b6000611cd1602683611c64565b9150611cdc82611c75565b604082019050919050565b60006020820190508181036000830152611d0081611cc4565b9050919050565b7f536f72727920746865207472616e7361706c616e7420686173206265656e207560008201527f6e7375636365737366756c000000000000000000000000000000000000000000602082015250565b6000611d63602b83611c64565b9150611d6e82611d07565b604082019050919050565b60006020820190508181036000830152611d9281611d56565b9050919050565b7f4e6f2053756368205472616e7361706c616e742050726f63657373204578697360008201527f7473000000000000000000000000000000000000000000000000000000000000602082015250565b6000611df5602283611c64565b9150611e0082611d99565b604082019050919050565b60006020820190508181036000830152611e2481611de8565b9050919050565b7f4e487b7100000000000000000000000000000000000000000000000000000000600052602260045260246000fd5b60006002820490506001821680611e7257607f821691505b602082108103611e8557611e84611e2b565b5b50919050565b60008190508160005260206000209050919050565b60008154611ead81611e5a565b611eb78186611c64565b94506001821660008114611ed25760018114611ee857611f1b565b60ff198316865281151560200286019350611f1b565b611ef185611e8b565b60005b83811015611f1357815481890152600182019150602081019050611ef4565b808801955050505b50505092915050565b6000604082019050611f396000830185611462565b8181036020830152611f4b8184611ea0565b90509392505050565b611f5d816117bc565b8114611f6857600080fd5b50565b600081519050611f7a81611f54565b92915050565b600060208284031215611f9657611f95611496565b5b6000611fa484828501611f6b565b91505092915050565b611fb6816114ec565b82525050565b6000602082019050611fd16000830184611fad565b92915050565b7f4e6f2073756368204d6574614d61736b20416464726573732e2e506c6561736560008201527f20436865636b2e2e212100000000000000000000000000000000000000000000602082015250565b6000612033602a83611c64565b915061203e82611fd7565b604082019050919050565b6000602082019050818103600083015261206281612026565b9050919050565b7f54686520446f6e6f7220697320616c726561647920726567697374657265642060008201527f666f72204c6976696e6720446f6e6174696f6e00000000000000000000000000602082015250565b60006120c5603383611c64565b91506120d082612069565b604082019050919050565b600060208201905081810360008301526120f4816120b8565b9050919050565b7f506c6561736520636865636b20616e642076657269667920796f757220446f6e60008201527f6f72204964212100000000000000000000000000000000000000000000000000602082015250565b6000612157602783611c64565b9150612162826120fb565b604082019050919050565b600060208201905081810360008301526121868161214a565b9050919050565b7f506c6561736520636865636b20616e642076657269667920796f75722052656360008201527f6965766572204964212100000000000000000000000000000000000000000000602082015250565b60006121e9602a83611c64565b91506121f48261218d565b604082019050919050565b60006020820190508181036000830152612218816121dc565b9050919050565b600061222a82611458565b91507fffffffffffffffffffffffffffffffffffffffffffffffffffffffffffffffff820361225c5761225b611bd2565b5b600182019050919050565b600061227282611458565b915061227d83611458565b925082820190508082111561229557612294611bd2565b5b92915050565b7f4e487b7100000000000000000000000000000000000000000000000000000000600052601260045260246000fd5b60006122d582611458565b91506122e083611458565b9250826122f0576122ef61229b565b5b828206905092915050565b60006020601f8301049050919050565b600082821b905092915050565b6000600883026123487fffffffffffffffffffffffffffffffffffffffffffffffffffffffffffffffff8261230b565b612352868361230b565b95508019841693508086168417925050509392505050565b6000819050919050565b600061238f61238a61238584611458565b61236a565b611458565b9050919050565b6000819050919050565b6123a983612374565b6123bd6123b582612396565b848454612318565b825550505050565b600090565b6123d26123c5565b6123dd8184846123a0565b505050565b5b81811015612401576123f66000826123ca565b6001810190506123e3565b5050565b601f8211156124465761241781611e8b565b612420846122fb565b8101602085101561242f578190505b61244361243b856122fb565b8301826123e2565b50505b505050565b600082821c905092915050565b60006124696000198460080261244b565b1980831691505092915050565b60006124828383612458565b9150826002028217905092915050565b61249b826117d7565b67ffffffffffffffff8111156124b4576124b36115b2565b5b6124be8254611e5a565b6124c9828285612405565b600060209050601f8311600181146124fc57600084156124ea578287015190505b6124f48582612476565b86555061255c565b601f19841661250a86611e8b565b60005b828110156125325784890151825560018201915060208501945060208101905061250d565b8683101561254f578489015161254b601f891682612458565b8355505b6001600288020188555050505b50505050505056fea26469706673582212209b5cb16c1b4f6e596cc1fb522ee47bedbcf953d51384e763f272e0854157002264736f6c63430008140033",
  "linkReferences": {},
  "deployedLinkReferences": {}
}