{
  "_format": "hh-sol-artifact-1",
  "contractName": "NFT",
  "sourceName": "contracts/Contract_2.sol",
  "abi": [
    {
      "inputs": [],
      "stateMutability": "nonpayable",
      "type": "constructor"
    },
    {
      "inputs": [
        {
          "internalType": "address",
          "name": "sender",
          "type": "address"
        },
        {
          "internalType": "uint256",
          "name": "tokenId",
          "type": "uint256"
        },
        {
          "internalType": "address",
          "name": "owner",
          "type": "address"
        }
      ],
      "name": "ERC721IncorrectOwner",
      "type": "error"
    },
    {
      "inputs": [
        {
          "internalType": "address",
          "name": "operator",
          "type": "address"
        },
        {
          "internalType": "uint256",
          "name": "tokenId",
          "type": "uint256"
        }
      ],
      "name": "ERC721InsufficientApproval",
      "type": "error"
    },
    {
      "inputs": [
        {
          "internalType": "address",
          "name": "approver",
          "type": "address"
        }
      ],
      "name": "ERC721InvalidApprover",
      "type": "error"
    },
    {
      "inputs": [
        {
          "internalType": "address",
          "name": "operator",
          "type": "address"
        }
      ],
      "name": "ERC721InvalidOperator",
      "type": "error"
    },
    {
      "inputs": [
        {
          "internalType": "address",
          "name": "owner",
          "type": "address"
        }
      ],
      "name": "ERC721InvalidOwner",
      "type": "error"
    },
    {
      "inputs": [
        {
          "internalType": "address",
          "name": "receiver",
          "type": "address"
        }
      ],
      "name": "ERC721InvalidReceiver",
      "type": "error"
    },
    {
      "inputs": [
        {
          "internalType": "address",
          "name": "sender",
          "type": "address"
        }
      ],
      "name": "ERC721InvalidSender",
      "type": "error"
    },
    {
      "inputs": [
        {
          "internalType": "uint256",
          "name": "tokenId",
          "type": "uint256"
        }
      ],
      "name": "ERC721NonexistentToken",
      "type": "error"
    },
    {
      "anonymous": false,
      "inputs": [
        {
          "indexed": true,
          "internalType": "address",
          "name": "owner",
          "type": "address"
        },
        {
          "indexed": true,
          "internalType": "address",
          "name": "approved",
          "type": "address"
        },
        {
          "indexed": true,
          "internalType": "uint256",
          "name": "tokenId",
          "type": "uint256"
        }
      ],
      "name": "Approval",
      "type": "event"
    },
    {
      "anonymous": false,
      "inputs": [
        {
          "indexed": true,
          "internalType": "address",
          "name": "owner",
          "type": "address"
        },
        {
          "indexed": true,
          "internalType": "address",
          "name": "operator",
          "type": "address"
        },
        {
          "indexed": false,
          "internalType": "bool",
          "name": "approved",
          "type": "bool"
        }
      ],
      "name": "ApprovalForAll",
      "type": "event"
    },
    {
      "anonymous": false,
      "inputs": [
        {
          "indexed": false,
          "internalType": "uint256",
          "name": "_fromTokenId",
          "type": "uint256"
        },
        {
          "indexed": false,
          "internalType": "uint256",
          "name": "_toTokenId",
          "type": "uint256"
        }
      ],
      "name": "BatchMetadataUpdate",
      "type": "event"
    },
    {
      "anonymous": false,
      "inputs": [
        {
          "indexed": false,
          "internalType": "uint256",
          "name": "_tokenId",
          "type": "uint256"
        }
      ],
      "name": "MetadataUpdate",
      "type": "event"
    },
    {
      "anonymous": false,
      "inputs": [
        {
          "indexed": true,
          "internalType": "address",
          "name": "from",
          "type": "address"
        },
        {
          "indexed": true,
          "internalType": "address",
          "name": "to",
          "type": "address"
        },
        {
          "indexed": true,
          "internalType": "uint256",
          "name": "tokenId",
          "type": "uint256"
        }
      ],
      "name": "Transfer",
      "type": "event"
    },
    {
      "inputs": [
        {
          "internalType": "int256",
          "name": "donor_id",
          "type": "int256"
        },
        {
          "internalType": "int256",
          "name": "reciever_id",
          "type": "int256"
        },
        {
          "internalType": "address",
          "name": "donor_hosp",
          "type": "address"
        },
        {
          "internalType": "address",
          "name": "reciever_hosp",
          "type": "address"
        },
        {
          "internalType": "int256",
          "name": "transplant_id",
          "type": "int256"
        }
      ],
      "name": "TransDetails",
      "outputs": [
        {
          "internalType": "bool",
          "name": "",
          "type": "bool"
        }
      ],
      "stateMutability": "nonpayable",
      "type": "function"
    },
    {
      "inputs": [
        {
          "internalType": "address",
          "name": "to",
          "type": "address"
        },
        {
          "internalType": "uint256",
          "name": "tokenId",
          "type": "uint256"
        }
      ],
      "name": "approve",
      "outputs": [],
      "stateMutability": "nonpayable",
      "type": "function"
    },
    {
      "inputs": [
        {
          "internalType": "address",
          "name": "to",
          "type": "address"
        },
        {
          "internalType": "uint256",
          "name": "tokenId",
          "type": "uint256"
        }
      ],
      "name": "approveTransfer",
      "outputs": [],
      "stateMutability": "nonpayable",
      "type": "function"
    },
    {
      "inputs": [
        {
          "internalType": "address",
          "name": "player",
          "type": "address"
        },
        {
          "internalType": "string",
          "name": "tokenURI",
          "type": "string"
        }
      ],
      "name": "awardItem",
      "outputs": [
        {
          "internalType": "uint256",
          "name": "",
          "type": "uint256"
        }
      ],
      "stateMutability": "nonpayable",
      "type": "function"
    },
    {
      "inputs": [
        {
          "internalType": "address",
          "name": "owner",
          "type": "address"
        }
      ],
      "name": "balanceOf",
      "outputs": [
        {
          "internalType": "uint256",
          "name": "",
          "type": "uint256"
        }
      ],
      "stateMutability": "view",
      "type": "function"
    },
    {
      "inputs": [
        {
          "internalType": "uint256",
          "name": "donor_id",
          "type": "uint256"
        }
      ],
      "name": "brain_Dead",
      "outputs": [
        {
          "internalType": "bool",
          "name": "",
          "type": "bool"
        }
      ],
      "stateMutability": "nonpayable",
      "type": "function"
    },
    {
      "inputs": [
        {
          "internalType": "int256",
          "name": "transplant_id",
          "type": "int256"
        }
      ],
      "name": "end_surgery",
      "outputs": [
        {
          "internalType": "bool",
          "name": "",
          "type": "bool"
        }
      ],
      "stateMutability": "nonpayable",
      "type": "function"
    },
    {
      "inputs": [
        {
          "internalType": "int256",
          "name": "transplant_id",
          "type": "int256"
        }
      ],
      "name": "end_transport",
      "outputs": [
        {
          "internalType": "bool",
          "name": "",
          "type": "bool"
        }
      ],
      "stateMutability": "nonpayable",
      "type": "function"
    },
    {
      "inputs": [
        {
          "internalType": "uint256",
          "name": "tokenId",
          "type": "uint256"
        }
      ],
      "name": "getApproved",
      "outputs": [
        {
          "internalType": "address",
          "name": "",
          "type": "address"
        }
      ],
      "stateMutability": "view",
      "type": "function"
    },
    {
      "inputs": [],
      "name": "getbrainDead",
      "outputs": [
        {
          "internalType": "uint256[]",
          "name": "",
          "type": "uint256[]"
        }
      ],
      "stateMutability": "view",
      "type": "function"
    },
    {
      "inputs": [
        {
          "internalType": "address",
          "name": "owner",
          "type": "address"
        },
        {
          "internalType": "address",
          "name": "operator",
          "type": "address"
        }
      ],
      "name": "isApprovedForAll",
      "outputs": [
        {
          "internalType": "bool",
          "name": "",
          "type": "bool"
        }
      ],
      "stateMutability": "view",
      "type": "function"
    },
    {
      "inputs": [],
      "name": "name",
      "outputs": [
        {
          "internalType": "string",
          "name": "",
          "type": "string"
        }
      ],
      "stateMutability": "view",
      "type": "function"
    },
    {
      "inputs": [
        {
          "internalType": "uint256",
          "name": "tokenId",
          "type": "uint256"
        }
      ],
      "name": "ownerOf",
      "outputs": [
        {
          "internalType": "address",
          "name": "",
          "type": "address"
        }
      ],
      "stateMutability": "view",
      "type": "function"
    },
    {
      "inputs": [
        {
          "internalType": "address",
          "name": "from",
          "type": "address"
        },
        {
          "internalType": "address",
          "name": "to",
          "type": "address"
        },
        {
          "internalType": "uint256",
          "name": "tokenId",
          "type": "uint256"
        }
      ],
      "name": "safeTransferFrom",
      "outputs": [],
      "stateMutability": "nonpayable",
      "type": "function"
    },
    {
      "inputs": [
        {
          "internalType": "address",
          "name": "from",
          "type": "address"
        },
        {
          "internalType": "address",
          "name": "to",
          "type": "address"
        },
        {
          "internalType": "uint256",
          "name": "tokenId",
          "type": "uint256"
        },
        {
          "internalType": "bytes",
          "name": "data",
          "type": "bytes"
        }
      ],
      "name": "safeTransferFrom",
      "outputs": [],
      "stateMutability": "nonpayable",
      "type": "function"
    },
    {
      "inputs": [
        {
          "internalType": "address",
          "name": "operator",
          "type": "address"
        },
        {
          "internalType": "bool",
          "name": "approved",
          "type": "bool"
        }
      ],
      "name": "setApprovalForAll",
      "outputs": [],
      "stateMutability": "nonpayable",
      "type": "function"
    },
    {
      "inputs": [
        {
          "internalType": "int256",
          "name": "transplant_id",
          "type": "int256"
        }
      ],
      "name": "start_surgery",
      "outputs": [
        {
          "internalType": "bool",
          "name": "",
          "type": "bool"
        }
      ],
      "stateMutability": "nonpayable",
      "type": "function"
    },
    {
      "inputs": [
        {
          "internalType": "int256",
          "name": "transplant_id",
          "type": "int256"
        },
        {
          "internalType": "int256",
          "name": "contact",
          "type": "int256"
        },
        {
          "internalType": "string",
          "name": "name",
          "type": "string"
        },
        {
          "internalType": "string",
          "name": "plate_num",
          "type": "string"
        }
      ],
      "name": "start_transport",
      "outputs": [
        {
          "internalType": "bool",
          "name": "",
          "type": "bool"
        }
      ],
      "stateMutability": "nonpayable",
      "type": "function"
    },
    {
      "inputs": [
        {
          "internalType": "bytes4",
          "name": "interfaceId",
          "type": "bytes4"
        }
      ],
      "name": "supportsInterface",
      "outputs": [
        {
          "internalType": "bool",
          "name": "",
          "type": "bool"
        }
      ],
      "stateMutability": "view",
      "type": "function"
    },
    {
      "inputs": [],
      "name": "symbol",
      "outputs": [
        {
          "internalType": "string",
          "name": "",
          "type": "string"
        }
      ],
      "stateMutability": "view",
      "type": "function"
    },
    {
      "inputs": [
        {
          "internalType": "uint256",
          "name": "tokenId",
          "type": "uint256"
        }
      ],
      "name": "tokenURI",
      "outputs": [
        {
          "internalType": "string",
          "name": "",
          "type": "string"
        }
      ],
      "stateMutability": "view",
      "type": "function"
    },
    {
      "inputs": [
        {
          "internalType": "address",
          "name": "from",
          "type": "address"
        },
        {
          "internalType": "address",
          "name": "to",
          "type": "address"
        },
        {
          "internalType": "uint256",
          "name": "tokenId",
          "type": "uint256"
        }
      ],
      "name": "transferFrom",
      "outputs": [],
      "stateMutability": "nonpayable",
      "type": "function"
    },
    {
      "inputs": [
        {
          "internalType": "address",
          "name": "from",
          "type": "address"
        },
        {
          "internalType": "address",
          "name": "to",
          "type": "address"
        },
        {
          "internalType": "uint256",
          "name": "tokenId",
          "type": "uint256"
        }
      ],
      "name": "transferNFT",
      "outputs": [],
      "stateMutability": "nonpayable",
      "type": "function"
    }
  ],
  "bytecode": "0x60806040523480156200001157600080fd5b506040518060400160405280600f81526020017f4f726167616e20446f6e6174696f6e00000000000000000000000000000000008152506040518060400160405280600281526020017f4f4400000000000000000000000000000000000000000000000000000000000081525081600090816200008f919062000324565b508060019081620000a1919062000324565b5050506200040b565b600081519050919050565b7f4e487b7100000000000000000000000000000000000000000000000000000000600052604160045260246000fd5b7f4e487b7100000000000000000000000000000000000000000000000000000000600052602260045260246000fd5b600060028204905060018216806200012c57607f821691505b602082108103620001425762000141620000e4565b5b50919050565b60008190508160005260206000209050919050565b60006020601f8301049050919050565b600082821b905092915050565b600060088302620001ac7fffffffffffffffffffffffffffffffffffffffffffffffffffffffffffffffff826200016d565b620001b886836200016d565b95508019841693508086168417925050509392505050565b6000819050919050565b6000819050919050565b600062000205620001ff620001f984620001d0565b620001da565b620001d0565b9050919050565b6000819050919050565b6200022183620001e4565b6200023962000230826200020c565b8484546200017a565b825550505050565b600090565b6200025062000241565b6200025d81848462000216565b505050565b5b8181101562000285576200027960008262000246565b60018101905062000263565b5050565b601f821115620002d4576200029e8162000148565b620002a9846200015d565b81016020851015620002b9578190505b620002d1620002c8856200015d565b83018262000262565b50505b505050565b600082821c905092915050565b6000620002f960001984600802620002d9565b1980831691505092915050565b6000620003148383620002e6565b9150826002028217905092915050565b6200032f82620000aa565b67ffffffffffffffff8111156200034b576200034a620000b5565b5b62000357825462000113565b6200036482828562000289565b600060209050601f8311600181146200039c576000841562000387578287015190505b62000393858262000306565b86555062000403565b601f198416620003ac8662000148565b60005b82811015620003d657848901518255600182019150602085019450602081019050620003af565b86831015620003f65784890151620003f2601f891682620002e6565b8355505b6001600288020188555050505b505050505050565b612e60806200041b6000396000f3fe608060405234801561001057600080fd5b506004361061014d5760003560e01c806370a08231116100c3578063b88d4fde1161007c578063b88d4fde146103fa578063c87b56dd14610416578063cf37834314610446578063d7d6d2cf14610476578063e985e9c514610494578063fa02c4b7146104c45761014d565b806370a0823114610300578063795197cc146103305780638cbb929d14610360578063932e22141461039057806395d89b41146103c0578063a22cb465146103de5761014d565b806323b872dd1161011557806323b872dd1461021c5780633fd832b61461023857806342842e0e146102685780636352211e146102845780636606cac1146102b457806369e9cae1146102e45761014d565b806301ffc9a71461015257806306fdde0314610182578063081812fc146101a0578063095ea7b3146101d05780630ab20b25146101ec575b600080fd5b61016c60048036038101906101679190611fae565b6104e0565b6040516101799190611ff6565b60405180910390f35b61018a610541565b60405161019791906120a1565b60405180910390f35b6101ba60048036038101906101b591906120f9565b6105d3565b6040516101c79190612167565b60405180910390f35b6101ea60048036038101906101e591906121ae565b6105ef565b005b61020660048036038101906102019190612224565b610605565b6040516102139190611ff6565b60405180910390f35b61023660048036038101906102319190612251565b6106a0565b005b610252600480360381019061024d91906120f9565b6107a2565b60405161025f9190611ff6565b60405180910390f35b610282600480360381019061027d9190612251565b6107d6565b005b61029e600480360381019061029991906120f9565b6107f6565b6040516102ab9190612167565b60405180910390f35b6102ce60048036038101906102c991906123d9565b610808565b6040516102db9190611ff6565b60405180910390f35b6102fe60048036038101906102f99190612251565b6108ba565b005b61031a60048036038101906103159190612478565b6108ca565b60405161032791906124b4565b60405180910390f35b61034a60048036038101906103459190612224565b610984565b6040516103579190611ff6565b60405180910390f35b61037a60048036038101906103759190612224565b610a1f565b6040516103879190611ff6565b60405180910390f35b6103aa60048036038101906103a591906124cf565b610ae9565b6040516103b79190611ff6565b60405180910390f35b6103c8610cb7565b6040516103d591906120a1565b60405180910390f35b6103f860048036038101906103f39190612576565b610d49565b005b610414600480360381019061040f9190612657565b610d5f565b005b610430600480360381019061042b91906120f9565b610d7c565b60405161043d91906120a1565b60405180910390f35b610460600480360381019061045b91906126da565b610e8f565b60405161046d91906124b4565b60405180910390f35b61047e610ec6565b60405161048b91906127f4565b60405180910390f35b6104ae60048036038101906104a99190612816565b610f1e565b6040516104bb9190611ff6565b60405180910390f35b6104de60048036038101906104d991906121ae565b610fb2565b005b6000634906490660e01b7bffffffffffffffffffffffffffffffffffffffffffffffffffffffff1916827bffffffffffffffffffffffffffffffffffffffffffffffffffffffff1916148061053a575061053982611036565b5b9050919050565b60606000805461055090612885565b80601f016020809104026020016040519081016040528092919081815260200182805461057c90612885565b80156105c95780601f1061059e576101008083540402835291602001916105c9565b820191906000526020600020905b8154815290600101906020018083116105ac57829003601f168201915b5050505050905090565b60006105de82611118565b506105e8826111a0565b9050919050565b61060182826105fc6111dd565b6111e5565b5050565b60006002600a60008481526020019081526020016000206004015414610660576040517f08c379a000000000000000000000000000000000000000000000000000000000815260040161065790612928565b60405180910390fd5b4260096000848152602001908152602001600020600201819055506003600a60008481526020019081526020016000206004018190555060019050919050565b600073ffffffffffffffffffffffffffffffffffffffff168273ffffffffffffffffffffffffffffffffffffffff16036107125760006040517f64a0ae920000000000000000000000000000000000000000000000000000000081526004016107099190612167565b60405180910390fd5b600061072683836107216111dd565b6111f7565b90508373ffffffffffffffffffffffffffffffffffffffff168173ffffffffffffffffffffffffffffffffffffffff161461079c578382826040517f64283d7b00000000000000000000000000000000000000000000000000000000815260040161079393929190612948565b60405180910390fd5b50505050565b6000600882908060018154018082558091505060019003906000526020600020016000909190919091505560019050919050565b6107f183838360405180602001604052806000815250610d5f565b505050565b600061080182611118565b9050919050565b6000426009600087815260200190815260200160002060010181905550600060405180606001604052808581526020018481526020018681525090506002600a60008881526020019081526020016000206004018190555080600b600088815260200190815260200160002060008201518160000190816108899190612b2b565b50602082015181600101908161089f9190612b2b565b50604082015181600201559050506001915050949350505050565b6108c58383836107d6565b505050565b60008073ffffffffffffffffffffffffffffffffffffffff168273ffffffffffffffffffffffffffffffffffffffff160361093d5760006040517f89c62b640000000000000000000000000000000000000000000000000000000081526004016109349190612167565b60405180910390fd5b600360008373ffffffffffffffffffffffffffffffffffffffff1673ffffffffffffffffffffffffffffffffffffffff168152602001908152602001600020549050919050565b60006003600a600084815260200190815260200160002060040154146109df576040517f08c379a00000000000000000000000000000000000000000000000000000000081526004016109d690612928565b60405180910390fd5b4260096000848152602001908152602001600020600301819055506004600a60008481526020019081526020016000206004018190555060019050919050565b60006004600a60008481526020019081526020016000206004015414610a7a576040517f08c379a0000000000000000000000000000000000000000000000000000000008152600401610a7190612928565b60405180910390fd5b4260096000848152602001908152602001600020600401819055506005600a6000848152602001908152602001600020600401819055506001600a600084815260200190815260200160002060050160006101000a81548160ff02191690831515021790555060019050919050565b6000806040518060c001604052808881526020018781526020018673ffffffffffffffffffffffffffffffffffffffff1681526020018573ffffffffffffffffffffffffffffffffffffffff1681526020016001815260200160001515815250905080600a6000858152602001908152602001600020600082015181600001556020820151816001015560408201518160020160006101000a81548173ffffffffffffffffffffffffffffffffffffffff021916908373ffffffffffffffffffffffffffffffffffffffff16021790555060608201518160030160006101000a81548173ffffffffffffffffffffffffffffffffffffffff021916908373ffffffffffffffffffffffffffffffffffffffff1602179055506080820151816004015560a08201518160050160006101000a81548160ff021916908315150217905550905050600042905060006040518060a00160405280838152602001428152602001428152602001428152602001428152509050806009600087815260200190815260200160002060008201518160000155602082015181600101556040820151816002015560608201518160030155608082015181600401559050506001935050505095945050505050565b606060018054610cc690612885565b80601f0160208091040260200160405190810160405280929190818152602001828054610cf290612885565b8015610d3f5780601f10610d1457610100808354040283529160200191610d3f565b820191906000526020600020905b815481529060010190602001808311610d2257829003601f168201915b5050505050905090565b610d5b610d546111dd565b8383611411565b5050565b610d6a8484846106a0565b610d7684848484611580565b50505050565b6060610d8782611118565b506000600660008481526020019081526020016000208054610da890612885565b80601f0160208091040260200160405190810160405280929190818152602001828054610dd490612885565b8015610e215780601f10610df657610100808354040283529160200191610e21565b820191906000526020600020905b815481529060010190602001808311610e0457829003601f168201915b505050505090506000610e32611737565b90506000815103610e47578192505050610e8a565b600082511115610e7c578082604051602001610e64929190612c39565b60405160208183030381529060405292505050610e8a565b610e858461174e565b925050505b919050565b600080610e9c60076117b7565b9050610ea884826117c5565b610eb281846118be565b610ebc600761191a565b8091505092915050565b60606008805480602002602001604051908101604052809291908181526020018280548015610f1457602002820191906000526020600020905b815481526020019060010190808311610f00575b5050505050905090565b6000600560008473ffffffffffffffffffffffffffffffffffffffff1673ffffffffffffffffffffffffffffffffffffffff16815260200190815260200160002060008373ffffffffffffffffffffffffffffffffffffffff1673ffffffffffffffffffffffffffffffffffffffff16815260200190815260200160002060009054906101000a900460ff16905092915050565b3373ffffffffffffffffffffffffffffffffffffffff16610fd2826107f6565b73ffffffffffffffffffffffffffffffffffffffff1614611028576040517f08c379a000000000000000000000000000000000000000000000000000000000815260040161101f90612ccf565b60405180910390fd5b61103282826105ef565b5050565b60007f80ac58cd000000000000000000000000000000000000000000000000000000007bffffffffffffffffffffffffffffffffffffffffffffffffffffffff1916827bffffffffffffffffffffffffffffffffffffffffffffffffffffffff1916148061110157507f5b5e139f000000000000000000000000000000000000000000000000000000007bffffffffffffffffffffffffffffffffffffffffffffffffffffffff1916827bffffffffffffffffffffffffffffffffffffffffffffffffffffffff1916145b80611111575061111082611930565b5b9050919050565b6000806111248361199a565b9050600073ffffffffffffffffffffffffffffffffffffffff168173ffffffffffffffffffffffffffffffffffffffff160361119757826040517f7e27328900000000000000000000000000000000000000000000000000000000815260040161118e91906124b4565b60405180910390fd5b80915050919050565b60006004600083815260200190815260200160002060009054906101000a900473ffffffffffffffffffffffffffffffffffffffff169050919050565b600033905090565b6111f283838360016119d7565b505050565b6000806112038461199a565b9050600073ffffffffffffffffffffffffffffffffffffffff168373ffffffffffffffffffffffffffffffffffffffff161461124557611244818486611b9c565b5b600073ffffffffffffffffffffffffffffffffffffffff168173ffffffffffffffffffffffffffffffffffffffff16146112d6576112876000856000806119d7565b6001600360008373ffffffffffffffffffffffffffffffffffffffff1673ffffffffffffffffffffffffffffffffffffffff168152602001908152602001600020600082825403925050819055505b600073ffffffffffffffffffffffffffffffffffffffff168573ffffffffffffffffffffffffffffffffffffffff1614611359576001600360008773ffffffffffffffffffffffffffffffffffffffff1673ffffffffffffffffffffffffffffffffffffffff168152602001908152602001600020600082825401925050819055505b846002600086815260200190815260200160002060006101000a81548173ffffffffffffffffffffffffffffffffffffffff021916908373ffffffffffffffffffffffffffffffffffffffff160217905550838573ffffffffffffffffffffffffffffffffffffffff168273ffffffffffffffffffffffffffffffffffffffff167fddf252ad1be2c89b69c2b068fc378daa952ba7f163c4a11628f55a4df523b3ef60405160405180910390a4809150509392505050565b600073ffffffffffffffffffffffffffffffffffffffff168273ffffffffffffffffffffffffffffffffffffffff160361148257816040517f5b08ba180000000000000000000000000000000000000000000000000000000081526004016114799190612167565b60405180910390fd5b80600560008573ffffffffffffffffffffffffffffffffffffffff1673ffffffffffffffffffffffffffffffffffffffff16815260200190815260200160002060008473ffffffffffffffffffffffffffffffffffffffff1673ffffffffffffffffffffffffffffffffffffffff16815260200190815260200160002060006101000a81548160ff0219169083151502179055508173ffffffffffffffffffffffffffffffffffffffff168373ffffffffffffffffffffffffffffffffffffffff167f17307eab39ab6107e8899845ad3d59bd9653f200f220920489ca2b5937696c31836040516115739190611ff6565b60405180910390a3505050565b60008373ffffffffffffffffffffffffffffffffffffffff163b1115611731578273ffffffffffffffffffffffffffffffffffffffff1663150b7a026115c46111dd565b8685856040518563ffffffff1660e01b81526004016115e69493929190612d44565b6020604051808303816000875af192505050801561162257506040513d601f19601f8201168201806040525081019061161f9190612da5565b60015b6116a6573d8060008114611652576040519150601f19603f3d011682016040523d82523d6000602084013e611657565b606091505b50600081510361169e57836040517f64a0ae920000000000000000000000000000000000000000000000000000000081526004016116959190612167565b60405180910390fd5b805181602001fd5b63150b7a0260e01b7bffffffffffffffffffffffffffffffffffffffffffffffffffffffff1916817bffffffffffffffffffffffffffffffffffffffffffffffffffffffff19161461172f57836040517f64a0ae920000000000000000000000000000000000000000000000000000000081526004016117269190612167565b60405180910390fd5b505b50505050565b606060405180602001604052806000815250905090565b606061175982611118565b506000611764611737565b9050600081511161178457604051806020016040528060008152506117af565b8061178e84611c60565b60405160200161179f929190612c39565b6040516020818303038152906040525b915050919050565b600081600001549050919050565b600073ffffffffffffffffffffffffffffffffffffffff168273ffffffffffffffffffffffffffffffffffffffff16036118375760006040517f64a0ae9200000000000000000000000000000000000000000000000000000000815260040161182e9190612167565b60405180910390fd5b6000611845838360006111f7565b9050600073ffffffffffffffffffffffffffffffffffffffff168173ffffffffffffffffffffffffffffffffffffffff16146118b95760006040517f73c6ac6e0000000000000000000000000000000000000000000000000000000081526004016118b09190612167565b60405180910390fd5b505050565b806006600084815260200190815260200160002090816118de9190612b2b565b507ff8e1a15aba9398e019f0b49df1a4fde98ee17ae345cb5f6b5e2c27f5033e8ce78260405161190e91906124b4565b60405180910390a15050565b6001816000016000828254019250508190555050565b60007f01ffc9a7000000000000000000000000000000000000000000000000000000007bffffffffffffffffffffffffffffffffffffffffffffffffffffffff1916827bffffffffffffffffffffffffffffffffffffffffffffffffffffffff1916149050919050565b60006002600083815260200190815260200160002060009054906101000a900473ffffffffffffffffffffffffffffffffffffffff169050919050565b8080611a105750600073ffffffffffffffffffffffffffffffffffffffff168273ffffffffffffffffffffffffffffffffffffffff1614155b15611b44576000611a2084611118565b9050600073ffffffffffffffffffffffffffffffffffffffff168373ffffffffffffffffffffffffffffffffffffffff1614158015611a8b57508273ffffffffffffffffffffffffffffffffffffffff168173ffffffffffffffffffffffffffffffffffffffff1614155b8015611a9e5750611a9c8184610f1e565b155b15611ae057826040517fa9fbf51f000000000000000000000000000000000000000000000000000000008152600401611ad79190612167565b60405180910390fd5b8115611b4257838573ffffffffffffffffffffffffffffffffffffffff168273ffffffffffffffffffffffffffffffffffffffff167f8c5be1e5ebec7d5bd14f71427d1e84f3dd0314c0f7b2291e5b200ac8c7c3b92560405160405180910390a45b505b836004600085815260200190815260200160002060006101000a81548173ffffffffffffffffffffffffffffffffffffffff021916908373ffffffffffffffffffffffffffffffffffffffff16021790555050505050565b611ba7838383611d2e565b611c5b57600073ffffffffffffffffffffffffffffffffffffffff168373ffffffffffffffffffffffffffffffffffffffff1603611c1c57806040517f7e273289000000000000000000000000000000000000000000000000000000008152600401611c1391906124b4565b60405180910390fd5b81816040517f177e802f000000000000000000000000000000000000000000000000000000008152600401611c52929190612dd2565b60405180910390fd5b505050565b606060006001611c6f84611def565b01905060008167ffffffffffffffff811115611c8e57611c8d6122ae565b5b6040519080825280601f01601f191660200182016040528015611cc05781602001600182028036833780820191505090505b509050600082602001820190505b600115611d23578080600190039150507f3031323334353637383961626364656600000000000000000000000000000000600a86061a8153600a8581611d1757611d16612dfb565b5b04945060008503611cce575b819350505050919050565b60008073ffffffffffffffffffffffffffffffffffffffff168373ffffffffffffffffffffffffffffffffffffffff1614158015611de657508273ffffffffffffffffffffffffffffffffffffffff168473ffffffffffffffffffffffffffffffffffffffff161480611da75750611da68484610f1e565b5b80611de557508273ffffffffffffffffffffffffffffffffffffffff16611dcd836111a0565b73ffffffffffffffffffffffffffffffffffffffff16145b5b90509392505050565b600080600090507a184f03e93ff9f4daa797ed6e38ed64bf6a1f0100000000000000008310611e4d577a184f03e93ff9f4daa797ed6e38ed64bf6a1f0100000000000000008381611e4357611e42612dfb565b5b0492506040810190505b6d04ee2d6d415b85acef81000000008310611e8a576d04ee2d6d415b85acef81000000008381611e8057611e7f612dfb565b5b0492506020810190505b662386f26fc100008310611eb957662386f26fc100008381611eaf57611eae612dfb565b5b0492506010810190505b6305f5e1008310611ee2576305f5e1008381611ed857611ed7612dfb565b5b0492506008810190505b6127108310611f07576127108381611efd57611efc612dfb565b5b0492506004810190505b60648310611f2a5760648381611f2057611f1f612dfb565b5b0492506002810190505b600a8310611f39576001810190505b80915050919050565b6000604051905090565b600080fd5b600080fd5b60007fffffffff0000000000000000000000000000000000000000000000000000000082169050919050565b611f8b81611f56565b8114611f9657600080fd5b50565b600081359050611fa881611f82565b92915050565b600060208284031215611fc457611fc3611f4c565b5b6000611fd284828501611f99565b91505092915050565b60008115159050919050565b611ff081611fdb565b82525050565b600060208201905061200b6000830184611fe7565b92915050565b600081519050919050565b600082825260208201905092915050565b60005b8381101561204b578082015181840152602081019050612030565b60008484015250505050565b6000601f19601f8301169050919050565b600061207382612011565b61207d818561201c565b935061208d81856020860161202d565b61209681612057565b840191505092915050565b600060208201905081810360008301526120bb8184612068565b905092915050565b6000819050919050565b6120d6816120c3565b81146120e157600080fd5b50565b6000813590506120f3816120cd565b92915050565b60006020828403121561210f5761210e611f4c565b5b600061211d848285016120e4565b91505092915050565b600073ffffffffffffffffffffffffffffffffffffffff82169050919050565b600061215182612126565b9050919050565b61216181612146565b82525050565b600060208201905061217c6000830184612158565b92915050565b61218b81612146565b811461219657600080fd5b50565b6000813590506121a881612182565b92915050565b600080604083850312156121c5576121c4611f4c565b5b60006121d385828601612199565b92505060206121e4858286016120e4565b9150509250929050565b6000819050919050565b612201816121ee565b811461220c57600080fd5b50565b60008135905061221e816121f8565b92915050565b60006020828403121561223a57612239611f4c565b5b60006122488482850161220f565b91505092915050565b60008060006060848603121561226a57612269611f4c565b5b600061227886828701612199565b935050602061228986828701612199565b925050604061229a868287016120e4565b9150509250925092565b600080fd5b600080fd5b7f4e487b7100000000000000000000000000000000000000000000000000000000600052604160045260246000fd5b6122e682612057565b810181811067ffffffffffffffff82111715612305576123046122ae565b5b80604052505050565b6000612318611f42565b905061232482826122dd565b919050565b600067ffffffffffffffff821115612344576123436122ae565b5b61234d82612057565b9050602081019050919050565b82818337600083830152505050565b600061237c61237784612329565b61230e565b905082815260208101848484011115612398576123976122a9565b5b6123a384828561235a565b509392505050565b600082601f8301126123c0576123bf6122a4565b5b81356123d0848260208601612369565b91505092915050565b600080600080608085870312156123f3576123f2611f4c565b5b60006124018782880161220f565b94505060206124128782880161220f565b935050604085013567ffffffffffffffff81111561243357612432611f51565b5b61243f878288016123ab565b925050606085013567ffffffffffffffff8111156124605761245f611f51565b5b61246c878288016123ab565b91505092959194509250565b60006020828403121561248e5761248d611f4c565b5b600061249c84828501612199565b91505092915050565b6124ae816120c3565b82525050565b60006020820190506124c960008301846124a5565b92915050565b600080600080600060a086880312156124eb576124ea611f4c565b5b60006124f98882890161220f565b955050602061250a8882890161220f565b945050604061251b88828901612199565b935050606061252c88828901612199565b925050608061253d8882890161220f565b9150509295509295909350565b61255381611fdb565b811461255e57600080fd5b50565b6000813590506125708161254a565b92915050565b6000806040838503121561258d5761258c611f4c565b5b600061259b85828601612199565b92505060206125ac85828601612561565b9150509250929050565b600067ffffffffffffffff8211156125d1576125d06122ae565b5b6125da82612057565b9050602081019050919050565b60006125fa6125f5846125b6565b61230e565b905082815260208101848484011115612616576126156122a9565b5b61262184828561235a565b509392505050565b600082601f83011261263e5761263d6122a4565b5b813561264e8482602086016125e7565b91505092915050565b6000806000806080858703121561267157612670611f4c565b5b600061267f87828801612199565b945050602061269087828801612199565b93505060406126a1878288016120e4565b925050606085013567ffffffffffffffff8111156126c2576126c1611f51565b5b6126ce87828801612629565b91505092959194509250565b600080604083850312156126f1576126f0611f4c565b5b60006126ff85828601612199565b925050602083013567ffffffffffffffff8111156127205761271f611f51565b5b61272c858286016123ab565b9150509250929050565b600081519050919050565b600082825260208201905092915050565b6000819050602082019050919050565b61276b816120c3565b82525050565b600061277d8383612762565b60208301905092915050565b6000602082019050919050565b60006127a182612736565b6127ab8185612741565b93506127b683612752565b8060005b838110156127e75781516127ce8882612771565b97506127d983612789565b9250506001810190506127ba565b5085935050505092915050565b6000602082019050818103600083015261280e8184612796565b905092915050565b6000806040838503121561282d5761282c611f4c565b5b600061283b85828601612199565b925050602061284c85828601612199565b9150509250929050565b7f4e487b7100000000000000000000000000000000000000000000000000000000600052602260045260246000fd5b6000600282049050600182168061289d57607f821691505b6020821081036128b0576128af612856565b5b50919050565b7f536f72727920636f6d706c657465207468652070726576696f7573207374657060008201527f2066697273740000000000000000000000000000000000000000000000000000602082015250565b600061291260268361201c565b915061291d826128b6565b604082019050919050565b6000602082019050818103600083015261294181612905565b9050919050565b600060608201905061295d6000830186612158565b61296a60208301856124a5565b6129776040830184612158565b949350505050565b60008190508160005260206000209050919050565b60006020601f8301049050919050565b600082821b905092915050565b6000600883026129e17fffffffffffffffffffffffffffffffffffffffffffffffffffffffffffffffff826129a4565b6129eb86836129a4565b95508019841693508086168417925050509392505050565b6000819050919050565b6000612a28612a23612a1e846120c3565b612a03565b6120c3565b9050919050565b6000819050919050565b612a4283612a0d565b612a56612a4e82612a2f565b8484546129b1565b825550505050565b600090565b612a6b612a5e565b612a76818484612a39565b505050565b5b81811015612a9a57612a8f600082612a63565b600181019050612a7c565b5050565b601f821115612adf57612ab08161297f565b612ab984612994565b81016020851015612ac8578190505b612adc612ad485612994565b830182612a7b565b50505b505050565b600082821c905092915050565b6000612b0260001984600802612ae4565b1980831691505092915050565b6000612b1b8383612af1565b9150826002028217905092915050565b612b3482612011565b67ffffffffffffffff811115612b4d57612b4c6122ae565b5b612b578254612885565b612b62828285612a9e565b600060209050601f831160018114612b955760008415612b83578287015190505b612b8d8582612b0f565b865550612bf5565b601f198416612ba38661297f565b60005b82811015612bcb57848901518255600182019150602085019450602081019050612ba6565b86831015612be85784890151612be4601f891682612af1565b8355505b6001600288020188555050505b505050505050565b600081905092915050565b6000612c1382612011565b612c1d8185612bfd565b9350612c2d81856020860161202d565b80840191505092915050565b6000612c458285612c08565b9150612c518284612c08565b91508190509392505050565b7f596f7520617265206e6f7420746865206f776e6572206f66207468697320746f60008201527f6b656e0000000000000000000000000000000000000000000000000000000000602082015250565b6000612cb960238361201c565b9150612cc482612c5d565b604082019050919050565b60006020820190508181036000830152612ce881612cac565b9050919050565b600081519050919050565b600082825260208201905092915050565b6000612d1682612cef565b612d208185612cfa565b9350612d3081856020860161202d565b612d3981612057565b840191505092915050565b6000608082019050612d596000830187612158565b612d666020830186612158565b612d7360408301856124a5565b8181036060830152612d858184612d0b565b905095945050505050565b600081519050612d9f81611f82565b92915050565b600060208284031215612dbb57612dba611f4c565b5b6000612dc984828501612d90565b91505092915050565b6000604082019050612de76000830185612158565b612df460208301846124a5565b9392505050565b7f4e487b7100000000000000000000000000000000000000000000000000000000600052601260045260246000fdfea2646970667358221220ea75bcb0be9d34188921000ab600581b9557b8f0000ae861193dd266101f0fed64736f6c63430008140033",
  "linkReferences": {},
  "deployedLinkReferences": {}
}