{
  "_format": "hh-sol-artifact-1",
  "contractName": "NFT",
  "sourceName": "contracts/Contract_2.sol",
  "abi": [
    {
      "inputs": [],
      "stateMutability": "nonpayable",
      "type": "constructor"
    },
    {
      "inputs": [
        {
          "internalType": "address",
          "name": "sender",
          "type": "address"
        },
        {
          "internalType": "uint256",
          "name": "tokenId",
          "type": "uint256"
        },
        {
          "internalType": "address",
          "name": "owner",
          "type": "address"
        }
      ],
      "name": "ERC721IncorrectOwner",
      "type": "error"
    },
    {
      "inputs": [
        {
          "internalType": "address",
          "name": "operator",
          "type": "address"
        },
        {
          "internalType": "uint256",
          "name": "tokenId",
          "type": "uint256"
        }
      ],
      "name": "ERC721InsufficientApproval",
      "type": "error"
    },
    {
      "inputs": [
        {
          "internalType": "address",
          "name": "approver",
          "type": "address"
        }
      ],
      "name": "ERC721InvalidApprover",
      "type": "error"
    },
    {
      "inputs": [
        {
          "internalType": "address",
          "name": "operator",
          "type": "address"
        }
      ],
      "name": "ERC721InvalidOperator",
      "type": "error"
    },
    {
      "inputs": [
        {
          "internalType": "address",
          "name": "owner",
          "type": "address"
        }
      ],
      "name": "ERC721InvalidOwner",
      "type": "error"
    },
    {
      "inputs": [
        {
          "internalType": "address",
          "name": "receiver",
          "type": "address"
        }
      ],
      "name": "ERC721InvalidReceiver",
      "type": "error"
    },
    {
      "inputs": [
        {
          "internalType": "address",
          "name": "sender",
          "type": "address"
        }
      ],
      "name": "ERC721InvalidSender",
      "type": "error"
    },
    {
      "inputs": [
        {
          "internalType": "uint256",
          "name": "tokenId",
          "type": "uint256"
        }
      ],
      "name": "ERC721NonexistentToken",
      "type": "error"
    },
    {
      "anonymous": false,
      "inputs": [
        {
          "indexed": true,
          "internalType": "address",
          "name": "owner",
          "type": "address"
        },
        {
          "indexed": true,
          "internalType": "address",
          "name": "approved",
          "type": "address"
        },
        {
          "indexed": true,
          "internalType": "uint256",
          "name": "tokenId",
          "type": "uint256"
        }
      ],
      "name": "Approval",
      "type": "event"
    },
    {
      "anonymous": false,
      "inputs": [
        {
          "indexed": true,
          "internalType": "address",
          "name": "owner",
          "type": "address"
        },
        {
          "indexed": true,
          "internalType": "address",
          "name": "operator",
          "type": "address"
        },
        {
          "indexed": false,
          "internalType": "bool",
          "name": "approved",
          "type": "bool"
        }
      ],
      "name": "ApprovalForAll",
      "type": "event"
    },
    {
      "anonymous": false,
      "inputs": [
        {
          "indexed": false,
          "internalType": "uint256",
          "name": "_fromTokenId",
          "type": "uint256"
        },
        {
          "indexed": false,
          "internalType": "uint256",
          "name": "_toTokenId",
          "type": "uint256"
        }
      ],
      "name": "BatchMetadataUpdate",
      "type": "event"
    },
    {
      "anonymous": false,
      "inputs": [
        {
          "indexed": false,
          "internalType": "uint256",
          "name": "_tokenId",
          "type": "uint256"
        }
      ],
      "name": "MetadataUpdate",
      "type": "event"
    },
    {
      "anonymous": false,
      "inputs": [
        {
          "indexed": true,
          "internalType": "address",
          "name": "from",
          "type": "address"
        },
        {
          "indexed": true,
          "internalType": "address",
          "name": "to",
          "type": "address"
        },
        {
          "indexed": true,
          "internalType": "uint256",
          "name": "tokenId",
          "type": "uint256"
        }
      ],
      "name": "Transfer",
      "type": "event"
    },
    {
      "inputs": [
        {
          "internalType": "uint256",
          "name": "",
          "type": "uint256"
        }
      ],
      "name": "BDmapping",
      "outputs": [
        {
          "internalType": "uint256",
          "name": "id",
          "type": "uint256"
        },
        {
          "internalType": "address",
          "name": "donor_hosp",
          "type": "address"
        },
        {
          "internalType": "address",
          "name": "doc_1",
          "type": "address"
        },
        {
          "internalType": "address",
          "name": "doc_2",
          "type": "address"
        },
        {
          "internalType": "uint256",
          "name": "id1",
          "type": "uint256"
        },
        {
          "internalType": "uint256",
          "name": "id2",
          "type": "uint256"
        },
        {
          "internalType": "uint256",
          "name": "sign1",
          "type": "uint256"
        },
        {
          "internalType": "uint256",
          "name": "sign2",
          "type": "uint256"
        },
        {
          "internalType": "bool",
          "name": "status",
          "type": "bool"
        },
        {
          "internalType": "bool",
          "name": "flag",
          "type": "bool"
        },
        {
          "internalType": "uint256",
          "name": "timestamp",
          "type": "uint256"
        }
      ],
      "stateMutability": "view",
      "type": "function"
    },
    {
      "inputs": [
        {
          "internalType": "uint256",
          "name": "id",
          "type": "uint256"
        }
      ],
      "name": "DocPat",
      "outputs": [
        {
          "components": [
            {
              "internalType": "uint256",
              "name": "id",
              "type": "uint256"
            },
            {
              "internalType": "address",
              "name": "donor_hosp",
              "type": "address"
            },
            {
              "internalType": "address",
              "name": "doc_1",
              "type": "address"
            },
            {
              "internalType": "address",
              "name": "doc_2",
              "type": "address"
            },
            {
              "internalType": "uint256",
              "name": "id1",
              "type": "uint256"
            },
            {
              "internalType": "uint256",
              "name": "id2",
              "type": "uint256"
            },
            {
              "internalType": "uint256",
              "name": "sign1",
              "type": "uint256"
            },
            {
              "internalType": "uint256",
              "name": "sign2",
              "type": "uint256"
            },
            {
              "internalType": "bool",
              "name": "status",
              "type": "bool"
            },
            {
              "internalType": "bool",
              "name": "flag",
              "type": "bool"
            },
            {
              "internalType": "uint256",
              "name": "timestamp",
              "type": "uint256"
            }
          ],
          "internalType": "struct NFT.BD[]",
          "name": "",
          "type": "tuple[]"
        }
      ],
      "stateMutability": "view",
      "type": "function"
    },
    {
      "inputs": [
        {
          "internalType": "int256",
          "name": "donor_id",
          "type": "int256"
        },
        {
          "internalType": "int256",
          "name": "reciever_id",
          "type": "int256"
        },
        {
          "internalType": "address",
          "name": "donor_hosp",
          "type": "address"
        },
        {
          "internalType": "address",
          "name": "reciever_hosp",
          "type": "address"
        },
        {
          "internalType": "int256",
          "name": "transplant_id",
          "type": "int256"
        }
      ],
      "name": "TransDetails",
      "outputs": [
        {
          "internalType": "bool",
          "name": "",
          "type": "bool"
        }
      ],
      "stateMutability": "nonpayable",
      "type": "function"
    },
    {
      "inputs": [
        {
          "internalType": "address",
          "name": "to",
          "type": "address"
        },
        {
          "internalType": "uint256",
          "name": "tokenId",
          "type": "uint256"
        }
      ],
      "name": "approve",
      "outputs": [],
      "stateMutability": "nonpayable",
      "type": "function"
    },
    {
      "inputs": [
        {
          "internalType": "address",
          "name": "to",
          "type": "address"
        },
        {
          "internalType": "uint256",
          "name": "tokenId",
          "type": "uint256"
        }
      ],
      "name": "approveTransfer",
      "outputs": [],
      "stateMutability": "nonpayable",
      "type": "function"
    },
    {
      "inputs": [
        {
          "internalType": "address",
          "name": "player",
          "type": "address"
        },
        {
          "internalType": "string",
          "name": "tokenURI",
          "type": "string"
        }
      ],
      "name": "awardItem",
      "outputs": [
        {
          "internalType": "uint256",
          "name": "",
          "type": "uint256"
        }
      ],
      "stateMutability": "nonpayable",
      "type": "function"
    },
    {
      "inputs": [
        {
          "internalType": "address",
          "name": "owner",
          "type": "address"
        }
      ],
      "name": "balanceOf",
      "outputs": [
        {
          "internalType": "uint256",
          "name": "",
          "type": "uint256"
        }
      ],
      "stateMutability": "view",
      "type": "function"
    },
    {
      "inputs": [
        {
          "internalType": "uint256",
          "name": "donor_id",
          "type": "uint256"
        },
        {
          "internalType": "address",
          "name": "donor_hosp",
          "type": "address"
        },
        {
          "internalType": "address",
          "name": "ContractA_Address",
          "type": "address"
        }
      ],
      "name": "brain_Dead",
      "outputs": [
        {
          "internalType": "bool",
          "name": "",
          "type": "bool"
        }
      ],
      "stateMutability": "nonpayable",
      "type": "function"
    },
    {
      "inputs": [
        {
          "internalType": "int256",
          "name": "transplant_id",
          "type": "int256"
        }
      ],
      "name": "end_surgery",
      "outputs": [
        {
          "internalType": "bool",
          "name": "",
          "type": "bool"
        }
      ],
      "stateMutability": "nonpayable",
      "type": "function"
    },
    {
      "inputs": [
        {
          "internalType": "int256",
          "name": "transplant_id",
          "type": "int256"
        }
      ],
      "name": "end_transport",
      "outputs": [
        {
          "internalType": "bool",
          "name": "",
          "type": "bool"
        }
      ],
      "stateMutability": "nonpayable",
      "type": "function"
    },
    {
      "inputs": [],
      "name": "getAllBDs",
      "outputs": [
        {
          "components": [
            {
              "internalType": "uint256",
              "name": "id",
              "type": "uint256"
            },
            {
              "internalType": "address",
              "name": "donor_hosp",
              "type": "address"
            },
            {
              "internalType": "address",
              "name": "doc_1",
              "type": "address"
            },
            {
              "internalType": "address",
              "name": "doc_2",
              "type": "address"
            },
            {
              "internalType": "uint256",
              "name": "id1",
              "type": "uint256"
            },
            {
              "internalType": "uint256",
              "name": "id2",
              "type": "uint256"
            },
            {
              "internalType": "uint256",
              "name": "sign1",
              "type": "uint256"
            },
            {
              "internalType": "uint256",
              "name": "sign2",
              "type": "uint256"
            },
            {
              "internalType": "bool",
              "name": "status",
              "type": "bool"
            },
            {
              "internalType": "bool",
              "name": "flag",
              "type": "bool"
            },
            {
              "internalType": "uint256",
              "name": "timestamp",
              "type": "uint256"
            }
          ],
          "internalType": "struct NFT.BD[]",
          "name": "",
          "type": "tuple[]"
        }
      ],
      "stateMutability": "view",
      "type": "function"
    },
    {
      "inputs": [
        {
          "internalType": "uint256",
          "name": "tokenId",
          "type": "uint256"
        }
      ],
      "name": "getApproved",
      "outputs": [
        {
          "internalType": "address",
          "name": "",
          "type": "address"
        }
      ],
      "stateMutability": "view",
      "type": "function"
    },
    {
      "inputs": [
        {
          "internalType": "uint256[]",
          "name": "list",
          "type": "uint256[]"
        }
      ],
      "name": "getBrainDeadDetails",
      "outputs": [
        {
          "components": [
            {
              "internalType": "uint256",
              "name": "id",
              "type": "uint256"
            },
            {
              "internalType": "address",
              "name": "donor_hosp",
              "type": "address"
            },
            {
              "internalType": "address",
              "name": "doc_1",
              "type": "address"
            },
            {
              "internalType": "address",
              "name": "doc_2",
              "type": "address"
            },
            {
              "internalType": "uint256",
              "name": "id1",
              "type": "uint256"
            },
            {
              "internalType": "uint256",
              "name": "id2",
              "type": "uint256"
            },
            {
              "internalType": "uint256",
              "name": "sign1",
              "type": "uint256"
            },
            {
              "internalType": "uint256",
              "name": "sign2",
              "type": "uint256"
            },
            {
              "internalType": "bool",
              "name": "status",
              "type": "bool"
            },
            {
              "internalType": "bool",
              "name": "flag",
              "type": "bool"
            },
            {
              "internalType": "uint256",
              "name": "timestamp",
              "type": "uint256"
            }
          ],
          "internalType": "struct NFT.BD[]",
          "name": "",
          "type": "tuple[]"
        }
      ],
      "stateMutability": "view",
      "type": "function"
    },
    {
      "inputs": [
        {
          "internalType": "address",
          "name": "donor_hosp",
          "type": "address"
        },
        {
          "internalType": "address",
          "name": "ContractA_Address",
          "type": "address"
        }
      ],
      "name": "getbrainDead",
      "outputs": [
        {
          "internalType": "uint256[]",
          "name": "",
          "type": "uint256[]"
        }
      ],
      "stateMutability": "view",
      "type": "function"
    },
    {
      "inputs": [
        {
          "internalType": "address",
          "name": "contractAAddress",
          "type": "address"
        },
        {
          "internalType": "uint256",
          "name": "id",
          "type": "uint256"
        }
      ],
      "name": "interactWithContractB",
      "outputs": [
        {
          "components": [
            {
              "internalType": "address",
              "name": "metamask_address",
              "type": "address"
            },
            {
              "internalType": "string",
              "name": "hla",
              "type": "string"
            },
            {
              "internalType": "string",
              "name": "bloodgrp",
              "type": "string"
            },
            {
              "internalType": "string[]",
              "name": "organs",
              "type": "string[]"
            },
            {
              "internalType": "bool",
              "name": "flag",
              "type": "bool"
            },
            {
              "internalType": "bool",
              "name": "status",
              "type": "bool"
            },
            {
              "internalType": "bool",
              "name": "braindead",
              "type": "bool"
            }
          ],
          "internalType": "struct register.RegDonor",
          "name": "",
          "type": "tuple"
        }
      ],
      "stateMutability": "nonpayable",
      "type": "function"
    },
    {
      "inputs": [
        {
          "internalType": "address",
          "name": "owner",
          "type": "address"
        },
        {
          "internalType": "address",
          "name": "operator",
          "type": "address"
        }
      ],
      "name": "isApprovedForAll",
      "outputs": [
        {
          "internalType": "bool",
          "name": "",
          "type": "bool"
        }
      ],
      "stateMutability": "view",
      "type": "function"
    },
    {
      "inputs": [],
      "name": "name",
      "outputs": [
        {
          "internalType": "string",
          "name": "",
          "type": "string"
        }
      ],
      "stateMutability": "view",
      "type": "function"
    },
    {
      "inputs": [
        {
          "internalType": "uint256",
          "name": "tokenId",
          "type": "uint256"
        }
      ],
      "name": "ownerOf",
      "outputs": [
        {
          "internalType": "address",
          "name": "",
          "type": "address"
        }
      ],
      "stateMutability": "view",
      "type": "function"
    },
    {
      "inputs": [
        {
          "internalType": "uint256",
          "name": "id",
          "type": "uint256"
        },
        {
          "internalType": "address",
          "name": "doc_1",
          "type": "address"
        },
        {
          "internalType": "address",
          "name": "doc_2",
          "type": "address"
        },
        {
          "internalType": "uint256",
          "name": "id1",
          "type": "uint256"
        },
        {
          "internalType": "uint256",
          "name": "id2",
          "type": "uint256"
        },
        {
          "internalType": "address",
          "name": "donor_hosp",
          "type": "address"
        }
      ],
      "name": "reg_braindead",
      "outputs": [],
      "stateMutability": "nonpayable",
      "type": "function"
    },
    {
      "inputs": [
        {
          "internalType": "address",
          "name": "from",
          "type": "address"
        },
        {
          "internalType": "address",
          "name": "to",
          "type": "address"
        },
        {
          "internalType": "uint256",
          "name": "tokenId",
          "type": "uint256"
        }
      ],
      "name": "safeTransferFrom",
      "outputs": [],
      "stateMutability": "nonpayable",
      "type": "function"
    },
    {
      "inputs": [
        {
          "internalType": "address",
          "name": "from",
          "type": "address"
        },
        {
          "internalType": "address",
          "name": "to",
          "type": "address"
        },
        {
          "internalType": "uint256",
          "name": "tokenId",
          "type": "uint256"
        },
        {
          "internalType": "bytes",
          "name": "data",
          "type": "bytes"
        }
      ],
      "name": "safeTransferFrom",
      "outputs": [],
      "stateMutability": "nonpayable",
      "type": "function"
    },
    {
      "inputs": [
        {
          "internalType": "address",
          "name": "operator",
          "type": "address"
        },
        {
          "internalType": "bool",
          "name": "approved",
          "type": "bool"
        }
      ],
      "name": "setApprovalForAll",
      "outputs": [],
      "stateMutability": "nonpayable",
      "type": "function"
    },
    {
      "inputs": [
        {
          "internalType": "uint256",
          "name": "id",
          "type": "uint256"
        },
        {
          "internalType": "uint256",
          "name": "val",
          "type": "uint256"
        }
      ],
      "name": "signApproval",
      "outputs": [],
      "stateMutability": "nonpayable",
      "type": "function"
    },
    {
      "inputs": [
        {
          "internalType": "int256",
          "name": "transplant_id",
          "type": "int256"
        }
      ],
      "name": "start_surgery",
      "outputs": [
        {
          "internalType": "bool",
          "name": "",
          "type": "bool"
        }
      ],
      "stateMutability": "nonpayable",
      "type": "function"
    },
    {
      "inputs": [
        {
          "internalType": "int256",
          "name": "transplant_id",
          "type": "int256"
        },
        {
          "internalType": "int256",
          "name": "contact",
          "type": "int256"
        },
        {
          "internalType": "string",
          "name": "name",
          "type": "string"
        },
        {
          "internalType": "string",
          "name": "plate_num",
          "type": "string"
        }
      ],
      "name": "start_transport",
      "outputs": [
        {
          "internalType": "bool",
          "name": "",
          "type": "bool"
        }
      ],
      "stateMutability": "nonpayable",
      "type": "function"
    },
    {
      "inputs": [
        {
          "internalType": "bytes4",
          "name": "interfaceId",
          "type": "bytes4"
        }
      ],
      "name": "supportsInterface",
      "outputs": [
        {
          "internalType": "bool",
          "name": "",
          "type": "bool"
        }
      ],
      "stateMutability": "view",
      "type": "function"
    },
    {
      "inputs": [],
      "name": "symbol",
      "outputs": [
        {
          "internalType": "string",
          "name": "",
          "type": "string"
        }
      ],
      "stateMutability": "view",
      "type": "function"
    },
    {
      "inputs": [
        {
          "internalType": "uint256",
          "name": "tokenId",
          "type": "uint256"
        }
      ],
      "name": "tokenURI",
      "outputs": [
        {
          "internalType": "string",
          "name": "",
          "type": "string"
        }
      ],
      "stateMutability": "view",
      "type": "function"
    },
    {
      "inputs": [
        {
          "internalType": "address",
          "name": "from",
          "type": "address"
        },
        {
          "internalType": "address",
          "name": "to",
          "type": "address"
        },
        {
          "internalType": "uint256",
          "name": "tokenId",
          "type": "uint256"
        }
      ],
      "name": "transferFrom",
      "outputs": [],
      "stateMutability": "nonpayable",
      "type": "function"
    },
    {
      "inputs": [
        {
          "internalType": "address",
          "name": "from",
          "type": "address"
        },
        {
          "internalType": "address",
          "name": "to",
          "type": "address"
        },
        {
          "internalType": "uint256",
          "name": "tokenId",
          "type": "uint256"
        }
      ],
      "name": "transferNFT",
      "outputs": [],
      "stateMutability": "nonpayable",
      "type": "function"
    }
  ],
  "bytecode": "0x60806040523480156200001157600080fd5b506040518060400160405280600f81526020017f4f726167616e20446f6e6174696f6e00000000000000000000000000000000008152506040518060400160405280600281526020017f4f4400000000000000000000000000000000000000000000000000000000000081525081600090816200008f919062000324565b508060019081620000a1919062000324565b5050506200040b565b600081519050919050565b7f4e487b7100000000000000000000000000000000000000000000000000000000600052604160045260246000fd5b7f4e487b7100000000000000000000000000000000000000000000000000000000600052602260045260246000fd5b600060028204905060018216806200012c57607f821691505b602082108103620001425762000141620000e4565b5b50919050565b60008190508160005260206000209050919050565b60006020601f8301049050919050565b600082821b905092915050565b600060088302620001ac7fffffffffffffffffffffffffffffffffffffffffffffffffffffffffffffffff826200016d565b620001b886836200016d565b95508019841693508086168417925050509392505050565b6000819050919050565b6000819050919050565b600062000205620001ff620001f984620001d0565b620001da565b620001d0565b9050919050565b6000819050919050565b6200022183620001e4565b6200023962000230826200020c565b8484546200017a565b825550505050565b600090565b6200025062000241565b6200025d81848462000216565b505050565b5b8181101562000285576200027960008262000246565b60018101905062000263565b5050565b601f821115620002d4576200029e8162000148565b620002a9846200015d565b81016020851015620002b9578190505b620002d1620002c8856200015d565b83018262000262565b50505b505050565b600082821c905092915050565b6000620002f960001984600802620002d9565b1980831691505092915050565b6000620003148383620002e6565b9150826002028217905092915050565b6200032f82620000aa565b67ffffffffffffffff8111156200034b576200034a620000b5565b5b62000357825462000113565b6200036482828562000289565b600060209050601f8311600181146200039c576000841562000387578287015190505b62000393858262000306565b86555062000403565b601f198416620003ac8662000148565b60005b82811015620003d657848901518255600182019150602085019450602081019050620003af565b86831015620003f65784890151620003f2601f891682620002e6565b8355505b6001600288020188555050505b505050505050565b6150d5806200041b6000396000f3fe608060405234801561001057600080fd5b50600436106101da5760003560e01c806369e9cae111610104578063a22cb465116100a2578063cf37834311610071578063cf378343146105f3578063de326da014610623578063e985e9c514610653578063fa02c4b714610683576101da565b8063a22cb4651461055b578063a30e81fe14610577578063b88d4fde146105a7578063c87b56dd146105c3576101da565b80637ea8387a116100de5780637ea8387a146104ad5780638cbb929d146104dd578063932e22141461050d57806395d89b411461053d576101da565b806369e9cae11461043157806370a082311461044d578063795197cc1461047d576101da565b80630c8abc921161017c57806323b872dd1161014b57806323b872dd1461039957806342842e0e146103b55780636352211e146103d15780636606cac114610401576101da565b80630c8abc92146102f75780630decb3311461031357806317ff262f1461034d5780631c62ac171461037d576101da565b806306fdde03116101b857806306fdde031461025d578063081812fc1461027b578063095ea7b3146102ab5780630ab20b25146102c7576101da565b8063018ba128146101df57806301ffc9a7146101fd578063047dd3011461022d575b600080fd5b6101e761069f565b6040516101f491906136db565b60405180910390f35b61021760048036038101906102129190613769565b6108fe565b60405161022491906137a5565b60405180910390f35b610247600480360381019061024291906137ec565b61095f565b60405161025491906138db565b60405180910390f35b610265610abd565b604051610272919061398d565b60405180910390f35b610295600480360381019061029091906139db565b610b4f565b6040516102a29190613a17565b60405180910390f35b6102c560048036038101906102c09190613a32565b610b6b565b005b6102e160048036038101906102dc9190613aa8565b610b81565b6040516102ee91906137a5565b60405180910390f35b610311600480360381019061030c9190613ad5565b610c1c565b005b61032d600480360381019061032891906139db565b610de2565b6040516103449b9a99989796959493929190613b71565b60405180910390f35b610367600480360381019061036291906139db565b610eb6565b60405161037491906136db565b60405180910390f35b61039760048036038101906103929190613c1c565b61114a565b005b6103b360048036038101906103ae9190613c5c565b611507565b005b6103cf60048036038101906103ca9190613c5c565b611609565b005b6103eb60048036038101906103e691906139db565b611629565b6040516103f89190613a17565b60405180910390f35b61041b60048036038101906104169190613de4565b61163b565b60405161042891906137a5565b60405180910390f35b61044b60048036038101906104469190613c5c565b6116ed565b005b61046760048036038101906104629190613e83565b6116fd565b6040516104749190613eb0565b60405180910390f35b61049760048036038101906104929190613aa8565b6117b7565b6040516104a491906137a5565b60405180910390f35b6104c760048036038101906104c29190613a32565b611852565b6040516104d49190614081565b60405180910390f35b6104f760048036038101906104f29190613aa8565b6118e7565b60405161050491906137a5565b60405180910390f35b610527600480360381019061052291906140a3565b6119b1565b60405161053491906137a5565b60405180910390f35b610545611b7f565b604051610552919061398d565b60405180910390f35b6105756004803603810190610570919061414a565b611c11565b005b610591600480360381019061058c919061418a565b611c27565b60405161059e91906137a5565b60405180910390f35b6105c160048036038101906105bc919061427e565b611ffc565b005b6105dd60048036038101906105d891906139db565b612019565b6040516105ea919061398d565b60405180910390f35b61060d60048036038101906106089190614301565b61212c565b60405161061a9190613eb0565b60405180910390f35b61063d60048036038101906106389190614425565b612163565b60405161064a91906136db565b60405180910390f35b61066d600480360381019061066891906137ec565b6123b8565b60405161067a91906137a5565b60405180910390f35b61069d60048036038101906106989190613a32565b61244c565b005b6060600060098054905067ffffffffffffffff8111156106c2576106c1613cb9565b5b6040519080825280602002602001820160405280156106fb57816020015b6106e86133dc565b8152602001906001900390816106e05790505b50905060005b6009805490508110156108f6576000600a6000600984815481106107285761072761446e565b5b9060005260206000200154815260200190815260200160002060405180610160016040529081600082015481526020016001820160009054906101000a900473ffffffffffffffffffffffffffffffffffffffff1673ffffffffffffffffffffffffffffffffffffffff1673ffffffffffffffffffffffffffffffffffffffff1681526020016002820160009054906101000a900473ffffffffffffffffffffffffffffffffffffffff1673ffffffffffffffffffffffffffffffffffffffff1673ffffffffffffffffffffffffffffffffffffffff1681526020016003820160009054906101000a900473ffffffffffffffffffffffffffffffffffffffff1673ffffffffffffffffffffffffffffffffffffffff1673ffffffffffffffffffffffffffffffffffffffff168152602001600482015481526020016005820154815260200160068201548152602001600782015481526020016008820160009054906101000a900460ff161515151581526020016008820160019054906101000a900460ff161515151581526020016009820154815250509050808383815181106108d7576108d661446e565b5b60200260200101819052505080806108ee906144cc565b915050610701565b508091505090565b6000634906490660e01b7bffffffffffffffffffffffffffffffffffffffffffffffffffffffff1916827bffffffffffffffffffffffffffffffffffffffffffffffffffffffff191614806109585750610957826124d0565b5b9050919050565b60606000829050600115158173ffffffffffffffffffffffffffffffffffffffff1663c23697a8866040518263ffffffff1660e01b81526004016109a39190613a17565b602060405180830381865afa1580156109c0573d6000803e3d6000fd5b505050506040513d601f19601f820116820180604052508101906109e49190614529565b151514610a26576040517f08c379a0000000000000000000000000000000000000000000000000000000008152600401610a1d906145c8565b60405180910390fd5b600b60008573ffffffffffffffffffffffffffffffffffffffff1673ffffffffffffffffffffffffffffffffffffffff168152602001908152602001600020805480602002602001604051908101604052809291908181526020018280548015610aaf57602002820191906000526020600020905b815481526020019060010190808311610a9b575b505050505091505092915050565b606060008054610acc90614617565b80601f0160208091040260200160405190810160405280929190818152602001828054610af890614617565b8015610b455780601f10610b1a57610100808354040283529160200191610b45565b820191906000526020600020905b815481529060010190602001808311610b2857829003601f168201915b5050505050905090565b6000610b5a826125b2565b50610b648261263a565b9050919050565b610b7d8282610b78612677565b61267f565b5050565b60006002600e60008481526020019081526020016000206004015414610bdc576040517f08c379a0000000000000000000000000000000000000000000000000000000008152600401610bd3906146ba565b60405180910390fd5b42600d6000848152602001908152602001600020600201819055506003600e60008481526020019081526020016000206004018190555060019050919050565b60011515600a600088815260200190815260200160002060080160019054906101000a900460ff16151514610c86576040517f08c379a0000000000000000000000000000000000000000000000000000000008152600401610c7d9061474c565b60405180910390fd5b84600a600088815260200190815260200160002060020160006101000a81548173ffffffffffffffffffffffffffffffffffffffff021916908373ffffffffffffffffffffffffffffffffffffffff16021790555083600a600088815260200190815260200160002060030160006101000a81548173ffffffffffffffffffffffffffffffffffffffff021916908373ffffffffffffffffffffffffffffffffffffffff16021790555082600a600088815260200190815260200160002060040181905550600c600084815260200190815260200160002086908060018154018082558091505060019003906000526020600020016000909190919091505581600a600088815260200190815260200160002060050181905550600c6000838152602001908152602001600020869080600181540180825580915050600190039060005260206000200160009091909190915055505050505050565b600a6020528060005260406000206000915090508060000154908060010160009054906101000a900473ffffffffffffffffffffffffffffffffffffffff16908060020160009054906101000a900473ffffffffffffffffffffffffffffffffffffffff16908060030160009054906101000a900473ffffffffffffffffffffffffffffffffffffffff16908060040154908060050154908060060154908060070154908060080160009054906101000a900460ff16908060080160019054906101000a900460ff1690806009015490508b565b60606000600c60008481526020019081526020016000208054905067ffffffffffffffff811115610eea57610ee9613cb9565b5b604051908082528060200260200182016040528015610f2357816020015b610f106133dc565b815260200190600190039081610f085790505b50905060005b600c600085815260200190815260200160002080549050811015611140576000600a6000600c60008881526020019081526020016000208481548110610f7257610f7161446e565b5b9060005260206000200154815260200190815260200160002060405180610160016040529081600082015481526020016001820160009054906101000a900473ffffffffffffffffffffffffffffffffffffffff1673ffffffffffffffffffffffffffffffffffffffff1673ffffffffffffffffffffffffffffffffffffffff1681526020016002820160009054906101000a900473ffffffffffffffffffffffffffffffffffffffff1673ffffffffffffffffffffffffffffffffffffffff1673ffffffffffffffffffffffffffffffffffffffff1681526020016003820160009054906101000a900473ffffffffffffffffffffffffffffffffffffffff1673ffffffffffffffffffffffffffffffffffffffff1673ffffffffffffffffffffffffffffffffffffffff168152602001600482015481526020016005820154815260200160068201548152602001600782015481526020016008820160009054906101000a900460ff161515151581526020016008820160019054906101000a900460ff161515151581526020016009820154815250509050808383815181106111215761112061446e565b5b6020026020010181905250508080611138906144cc565b915050610f29565b5080915050919050565b60011515600a600084815260200190815260200160002060080160019054906101000a900460ff161515146111b4576040517f08c379a00000000000000000000000000000000000000000000000000000000081526004016111ab9061474c565b60405180910390fd5b600a600083815260200190815260200160002060020160009054906101000a900473ffffffffffffffffffffffffffffffffffffffff1673ffffffffffffffffffffffffffffffffffffffff163373ffffffffffffffffffffffffffffffffffffffff1614806112855750600a600083815260200190815260200160002060030160009054906101000a900473ffffffffffffffffffffffffffffffffffffffff1673ffffffffffffffffffffffffffffffffffffffff163373ffffffffffffffffffffffffffffffffffffffff16145b6112c4576040517f08c379a00000000000000000000000000000000000000000000000000000000081526004016112bb906147de565b60405180910390fd5b600a600083815260200190815260200160002060020160009054906101000a900473ffffffffffffffffffffffffffffffffffffffff1673ffffffffffffffffffffffffffffffffffffffff163373ffffffffffffffffffffffffffffffffffffffff16036113a6576000600a60008481526020019081526020016000206006015414611386576040517f08c379a000000000000000000000000000000000000000000000000000000000815260040161137d9061484a565b60405180910390fd5b80600a60008481526020019081526020016000206006018190555061141b565b6000600a600084815260200190815260200160002060070154146113ff576040517f08c379a00000000000000000000000000000000000000000000000000000000081526004016113f69061484a565b60405180910390fd5b80600a6000848152602001908152602001600020600701819055505b6000600a6000848152602001908152602001600020600601541415801561145957506000600a60008481526020019081526020016000206007015414155b15611503576002600a600084815260200190815260200160002060060154148061149957506000600a600084815260200190815260200160002060070154145b156114d2576000600a600084815260200190815260200160002060080160006101000a81548160ff021916908315150217905550611502565b6001600a600084815260200190815260200160002060080160006101000a81548160ff0219169083151502179055505b5b5050565b600073ffffffffffffffffffffffffffffffffffffffff168273ffffffffffffffffffffffffffffffffffffffff16036115795760006040517f64a0ae920000000000000000000000000000000000000000000000000000000081526004016115709190613a17565b60405180910390fd5b600061158d8383611588612677565b612691565b90508373ffffffffffffffffffffffffffffffffffffffff168173ffffffffffffffffffffffffffffffffffffffff1614611603578382826040517f64283d7b0000000000000000000000000000000000000000000000000000000081526004016115fa9392919061486a565b60405180910390fd5b50505050565b61162483838360405180602001604052806000815250611ffc565b505050565b6000611634826125b2565b9050919050565b600042600d600087815260200190815260200160002060010181905550600060405180606001604052808581526020018481526020018681525090506002600e60008881526020019081526020016000206004018190555080600f600088815260200190815260200160002060008201518160000190816116bc9190614a4d565b5060208201518160010190816116d29190614a4d565b50604082015181600201559050506001915050949350505050565b6116f8838383611609565b505050565b60008073ffffffffffffffffffffffffffffffffffffffff168273ffffffffffffffffffffffffffffffffffffffff16036117705760006040517f89c62b640000000000000000000000000000000000000000000000000000000081526004016117679190613a17565b60405180910390fd5b600360008373ffffffffffffffffffffffffffffffffffffffff1673ffffffffffffffffffffffffffffffffffffffff168152602001908152602001600020549050919050565b60006003600e60008481526020019081526020016000206004015414611812576040517f08c379a0000000000000000000000000000000000000000000000000000000008152600401611809906146ba565b60405180910390fd5b42600d6000848152602001908152602001600020600301819055506004600e60008481526020019081526020016000206004018190555060019050919050565b61185a61347c565b60008390508073ffffffffffffffffffffffffffffffffffffffff1663b73d5179846040518263ffffffff1660e01b81526004016118989190613eb0565b600060405180830381865afa1580156118b5573d6000803e3d6000fd5b505050506040513d6000823e3d601f19601f820116820180604052508101906118de9190614d97565b91505092915050565b60006004600e60008481526020019081526020016000206004015414611942576040517f08c379a0000000000000000000000000000000000000000000000000000000008152600401611939906146ba565b60405180910390fd5b42600d6000848152602001908152602001600020600401819055506005600e6000848152602001908152602001600020600401819055506001600e600084815260200190815260200160002060050160006101000a81548160ff02191690831515021790555060019050919050565b6000806040518060c001604052808881526020018781526020018673ffffffffffffffffffffffffffffffffffffffff1681526020018573ffffffffffffffffffffffffffffffffffffffff1681526020016001815260200160001515815250905080600e6000858152602001908152602001600020600082015181600001556020820151816001015560408201518160020160006101000a81548173ffffffffffffffffffffffffffffffffffffffff021916908373ffffffffffffffffffffffffffffffffffffffff16021790555060608201518160030160006101000a81548173ffffffffffffffffffffffffffffffffffffffff021916908373ffffffffffffffffffffffffffffffffffffffff1602179055506080820151816004015560a08201518160050160006101000a81548160ff021916908315150217905550905050600042905060006040518060a0016040528083815260200142815260200142815260200142815260200142815250905080600d600087815260200190815260200160002060008201518160000155602082015181600101556040820151816002015560608201518160030155608082015181600401559050506001935050505095945050505050565b606060018054611b8e90614617565b80601f0160208091040260200160405190810160405280929190818152602001828054611bba90614617565b8015611c075780601f10611bdc57610100808354040283529160200191611c07565b820191906000526020600020905b815481529060010190602001808311611bea57829003601f168201915b5050505050905090565b611c23611c1c612677565b83836128ab565b5050565b6000801515600a600086815260200190815260200160002060080160019054906101000a900460ff16151514611c92576040517f08c379a0000000000000000000000000000000000000000000000000000000008152600401611c8990614e52565b60405180910390fd5b6000829050600115158173ffffffffffffffffffffffffffffffffffffffff1663c23697a8866040518263ffffffff1660e01b8152600401611cd49190613a17565b602060405180830381865afa158015611cf1573d6000803e3d6000fd5b505050506040513d601f19601f82011682018060405250810190611d159190614529565b151514611d57576040517f08c379a0000000000000000000000000000000000000000000000000000000008152600401611d4e906145c8565b60405180910390fd5b600b60008573ffffffffffffffffffffffffffffffffffffffff1673ffffffffffffffffffffffffffffffffffffffff16815260200190815260200160002085908060018154018082558091505060019003906000526020600020016000909190919091505560006040518061016001604052808781526020018673ffffffffffffffffffffffffffffffffffffffff168152602001600073ffffffffffffffffffffffffffffffffffffffff168152602001600073ffffffffffffffffffffffffffffffffffffffff1681526020016000815260200160008152602001600081526020016000815260200160001515815260200160011515815260200142815250905080600a60008881526020019081526020016000206000820151816000015560208201518160010160006101000a81548173ffffffffffffffffffffffffffffffffffffffff021916908373ffffffffffffffffffffffffffffffffffffffff16021790555060408201518160020160006101000a81548173ffffffffffffffffffffffffffffffffffffffff021916908373ffffffffffffffffffffffffffffffffffffffff16021790555060608201518160030160006101000a81548173ffffffffffffffffffffffffffffffffffffffff021916908373ffffffffffffffffffffffffffffffffffffffff1602179055506080820151816004015560a0820151816005015560c0820151816006015560e082015181600701556101008201518160080160006101000a81548160ff0219169083151502179055506101208201518160080160016101000a81548160ff021916908315150217905550610140820151816009015590505060098690806001815401808255809150506001900390600052602060002001600090919091909150556001925050509392505050565b612007848484611507565b61201384848484612a1a565b50505050565b6060612024826125b2565b50600060066000848152602001908152602001600020805461204590614617565b80601f016020809104026020016040519081016040528092919081815260200182805461207190614617565b80156120be5780601f10612093576101008083540402835291602001916120be565b820191906000526020600020905b8154815290600101906020018083116120a157829003601f168201915b5050505050905060006120cf612bd1565b905060008151036120e4578192505050612127565b600082511115612119578082604051602001612101929190614eae565b60405160208183030381529060405292505050612127565b61212284612be8565b925050505b919050565b6000806121396007612c51565b90506121458482612c5f565b61214f8184612d58565b6121596007612db4565b8091505092915050565b60606000825167ffffffffffffffff81111561218257612181613cb9565b5b6040519080825280602002602001820160405280156121bb57816020015b6121a86133dc565b8152602001906001900390816121a05790505b50905060005b83518110156123ae576000600a60008684815181106121e3576121e261446e565b5b6020026020010151815260200190815260200160002060405180610160016040529081600082015481526020016001820160009054906101000a900473ffffffffffffffffffffffffffffffffffffffff1673ffffffffffffffffffffffffffffffffffffffff1673ffffffffffffffffffffffffffffffffffffffff1681526020016002820160009054906101000a900473ffffffffffffffffffffffffffffffffffffffff1673ffffffffffffffffffffffffffffffffffffffff1673ffffffffffffffffffffffffffffffffffffffff1681526020016003820160009054906101000a900473ffffffffffffffffffffffffffffffffffffffff1673ffffffffffffffffffffffffffffffffffffffff1673ffffffffffffffffffffffffffffffffffffffff168152602001600482015481526020016005820154815260200160068201548152602001600782015481526020016008820160009054906101000a900460ff161515151581526020016008820160019054906101000a900460ff1615151515815260200160098201548152505090508083838151811061238f5761238e61446e565b5b60200260200101819052505080806123a6906144cc565b9150506121c1565b5080915050919050565b6000600560008473ffffffffffffffffffffffffffffffffffffffff1673ffffffffffffffffffffffffffffffffffffffff16815260200190815260200160002060008373ffffffffffffffffffffffffffffffffffffffff1673ffffffffffffffffffffffffffffffffffffffff16815260200190815260200160002060009054906101000a900460ff16905092915050565b3373ffffffffffffffffffffffffffffffffffffffff1661246c82611629565b73ffffffffffffffffffffffffffffffffffffffff16146124c2576040517f08c379a00000000000000000000000000000000000000000000000000000000081526004016124b990614f44565b60405180910390fd5b6124cc8282610b6b565b5050565b60007f80ac58cd000000000000000000000000000000000000000000000000000000007bffffffffffffffffffffffffffffffffffffffffffffffffffffffff1916827bffffffffffffffffffffffffffffffffffffffffffffffffffffffff1916148061259b57507f5b5e139f000000000000000000000000000000000000000000000000000000007bffffffffffffffffffffffffffffffffffffffffffffffffffffffff1916827bffffffffffffffffffffffffffffffffffffffffffffffffffffffff1916145b806125ab57506125aa82612dca565b5b9050919050565b6000806125be83612e34565b9050600073ffffffffffffffffffffffffffffffffffffffff168173ffffffffffffffffffffffffffffffffffffffff160361263157826040517f7e2732890000000000000000000000000000000000000000000000000000000081526004016126289190613eb0565b60405180910390fd5b80915050919050565b60006004600083815260200190815260200160002060009054906101000a900473ffffffffffffffffffffffffffffffffffffffff169050919050565b600033905090565b61268c8383836001612e71565b505050565b60008061269d84612e34565b9050600073ffffffffffffffffffffffffffffffffffffffff168373ffffffffffffffffffffffffffffffffffffffff16146126df576126de818486613036565b5b600073ffffffffffffffffffffffffffffffffffffffff168173ffffffffffffffffffffffffffffffffffffffff161461277057612721600085600080612e71565b6001600360008373ffffffffffffffffffffffffffffffffffffffff1673ffffffffffffffffffffffffffffffffffffffff168152602001908152602001600020600082825403925050819055505b600073ffffffffffffffffffffffffffffffffffffffff168573ffffffffffffffffffffffffffffffffffffffff16146127f3576001600360008773ffffffffffffffffffffffffffffffffffffffff1673ffffffffffffffffffffffffffffffffffffffff168152602001908152602001600020600082825401925050819055505b846002600086815260200190815260200160002060006101000a81548173ffffffffffffffffffffffffffffffffffffffff021916908373ffffffffffffffffffffffffffffffffffffffff160217905550838573ffffffffffffffffffffffffffffffffffffffff168273ffffffffffffffffffffffffffffffffffffffff167fddf252ad1be2c89b69c2b068fc378daa952ba7f163c4a11628f55a4df523b3ef60405160405180910390a4809150509392505050565b600073ffffffffffffffffffffffffffffffffffffffff168273ffffffffffffffffffffffffffffffffffffffff160361291c57816040517f5b08ba180000000000000000000000000000000000000000000000000000000081526004016129139190613a17565b60405180910390fd5b80600560008573ffffffffffffffffffffffffffffffffffffffff1673ffffffffffffffffffffffffffffffffffffffff16815260200190815260200160002060008473ffffffffffffffffffffffffffffffffffffffff1673ffffffffffffffffffffffffffffffffffffffff16815260200190815260200160002060006101000a81548160ff0219169083151502179055508173ffffffffffffffffffffffffffffffffffffffff168373ffffffffffffffffffffffffffffffffffffffff167f17307eab39ab6107e8899845ad3d59bd9653f200f220920489ca2b5937696c3183604051612a0d91906137a5565b60405180910390a3505050565b60008373ffffffffffffffffffffffffffffffffffffffff163b1115612bcb578273ffffffffffffffffffffffffffffffffffffffff1663150b7a02612a5e612677565b8685856040518563ffffffff1660e01b8152600401612a809493929190614fb9565b6020604051808303816000875af1925050508015612abc57506040513d601f19601f82011682018060405250810190612ab9919061501a565b60015b612b40573d8060008114612aec576040519150601f19603f3d011682016040523d82523d6000602084013e612af1565b606091505b506000815103612b3857836040517f64a0ae92000000000000000000000000000000000000000000000000000000008152600401612b2f9190613a17565b60405180910390fd5b805181602001fd5b63150b7a0260e01b7bffffffffffffffffffffffffffffffffffffffffffffffffffffffff1916817bffffffffffffffffffffffffffffffffffffffffffffffffffffffff191614612bc957836040517f64a0ae92000000000000000000000000000000000000000000000000000000008152600401612bc09190613a17565b60405180910390fd5b505b50505050565b606060405180602001604052806000815250905090565b6060612bf3826125b2565b506000612bfe612bd1565b90506000815111612c1e5760405180602001604052806000815250612c49565b80612c28846130fa565b604051602001612c39929190614eae565b6040516020818303038152906040525b915050919050565b600081600001549050919050565b600073ffffffffffffffffffffffffffffffffffffffff168273ffffffffffffffffffffffffffffffffffffffff1603612cd15760006040517f64a0ae92000000000000000000000000000000000000000000000000000000008152600401612cc89190613a17565b60405180910390fd5b6000612cdf83836000612691565b9050600073ffffffffffffffffffffffffffffffffffffffff168173ffffffffffffffffffffffffffffffffffffffff1614612d535760006040517f73c6ac6e000000000000000000000000000000000000000000000000000000008152600401612d4a9190613a17565b60405180910390fd5b505050565b80600660008481526020019081526020016000209081612d789190614a4d565b507ff8e1a15aba9398e019f0b49df1a4fde98ee17ae345cb5f6b5e2c27f5033e8ce782604051612da89190613eb0565b60405180910390a15050565b6001816000016000828254019250508190555050565b60007f01ffc9a7000000000000000000000000000000000000000000000000000000007bffffffffffffffffffffffffffffffffffffffffffffffffffffffff1916827bffffffffffffffffffffffffffffffffffffffffffffffffffffffff1916149050919050565b60006002600083815260200190815260200160002060009054906101000a900473ffffffffffffffffffffffffffffffffffffffff169050919050565b8080612eaa5750600073ffffffffffffffffffffffffffffffffffffffff168273ffffffffffffffffffffffffffffffffffffffff1614155b15612fde576000612eba846125b2565b9050600073ffffffffffffffffffffffffffffffffffffffff168373ffffffffffffffffffffffffffffffffffffffff1614158015612f2557508273ffffffffffffffffffffffffffffffffffffffff168173ffffffffffffffffffffffffffffffffffffffff1614155b8015612f385750612f3681846123b8565b155b15612f7a57826040517fa9fbf51f000000000000000000000000000000000000000000000000000000008152600401612f719190613a17565b60405180910390fd5b8115612fdc57838573ffffffffffffffffffffffffffffffffffffffff168273ffffffffffffffffffffffffffffffffffffffff167f8c5be1e5ebec7d5bd14f71427d1e84f3dd0314c0f7b2291e5b200ac8c7c3b92560405160405180910390a45b505b836004600085815260200190815260200160002060006101000a81548173ffffffffffffffffffffffffffffffffffffffff021916908373ffffffffffffffffffffffffffffffffffffffff16021790555050505050565b6130418383836131c8565b6130f557600073ffffffffffffffffffffffffffffffffffffffff168373ffffffffffffffffffffffffffffffffffffffff16036130b657806040517f7e2732890000000000000000000000000000000000000000000000000000000081526004016130ad9190613eb0565b60405180910390fd5b81816040517f177e802f0000000000000000000000000000000000000000000000000000000081526004016130ec929190615047565b60405180910390fd5b505050565b60606000600161310984613289565b01905060008167ffffffffffffffff81111561312857613127613cb9565b5b6040519080825280601f01601f19166020018201604052801561315a5781602001600182028036833780820191505090505b509050600082602001820190505b6001156131bd578080600190039150507f3031323334353637383961626364656600000000000000000000000000000000600a86061a8153600a85816131b1576131b0615070565b5b04945060008503613168575b819350505050919050565b60008073ffffffffffffffffffffffffffffffffffffffff168373ffffffffffffffffffffffffffffffffffffffff161415801561328057508273ffffffffffffffffffffffffffffffffffffffff168473ffffffffffffffffffffffffffffffffffffffff161480613241575061324084846123b8565b5b8061327f57508273ffffffffffffffffffffffffffffffffffffffff166132678361263a565b73ffffffffffffffffffffffffffffffffffffffff16145b5b90509392505050565b600080600090507a184f03e93ff9f4daa797ed6e38ed64bf6a1f01000000000000000083106132e7577a184f03e93ff9f4daa797ed6e38ed64bf6a1f01000000000000000083816132dd576132dc615070565b5b0492506040810190505b6d04ee2d6d415b85acef81000000008310613324576d04ee2d6d415b85acef8100000000838161331a57613319615070565b5b0492506020810190505b662386f26fc10000831061335357662386f26fc10000838161334957613348615070565b5b0492506010810190505b6305f5e100831061337c576305f5e100838161337257613371615070565b5b0492506008810190505b61271083106133a157612710838161339757613396615070565b5b0492506004810190505b606483106133c457606483816133ba576133b9615070565b5b0492506002810190505b600a83106133d3576001810190505b80915050919050565b60405180610160016040528060008152602001600073ffffffffffffffffffffffffffffffffffffffff168152602001600073ffffffffffffffffffffffffffffffffffffffff168152602001600073ffffffffffffffffffffffffffffffffffffffff16815260200160008152602001600081526020016000815260200160008152602001600015158152602001600015158152602001600081525090565b6040518060e00160405280600073ffffffffffffffffffffffffffffffffffffffff1681526020016060815260200160608152602001606081526020016000151581526020016000151581526020016000151581525090565b600081519050919050565b600082825260208201905092915050565b6000819050602082019050919050565b6000819050919050565b61351481613501565b82525050565b600073ffffffffffffffffffffffffffffffffffffffff82169050919050565b60006135458261351a565b9050919050565b6135558161353a565b82525050565b60008115159050919050565b6135708161355b565b82525050565b6101608201600082015161358d600085018261350b565b5060208201516135a0602085018261354c565b5060408201516135b3604085018261354c565b5060608201516135c6606085018261354c565b5060808201516135d9608085018261350b565b5060a08201516135ec60a085018261350b565b5060c08201516135ff60c085018261350b565b5060e082015161361260e085018261350b565b50610100820151613627610100850182613567565b5061012082015161363c610120850182613567565b5061014082015161365161014085018261350b565b50505050565b60006136638383613576565b6101608301905092915050565b6000602082019050919050565b6000613688826134d5565b61369281856134e0565b935061369d836134f1565b8060005b838110156136ce5781516136b58882613657565b97506136c083613670565b9250506001810190506136a1565b5085935050505092915050565b600060208201905081810360008301526136f5818461367d565b905092915050565b6000604051905090565b600080fd5b600080fd5b60007fffffffff0000000000000000000000000000000000000000000000000000000082169050919050565b61374681613711565b811461375157600080fd5b50565b6000813590506137638161373d565b92915050565b60006020828403121561377f5761377e613707565b5b600061378d84828501613754565b91505092915050565b61379f8161355b565b82525050565b60006020820190506137ba6000830184613796565b92915050565b6137c98161353a565b81146137d457600080fd5b50565b6000813590506137e6816137c0565b92915050565b6000806040838503121561380357613802613707565b5b6000613811858286016137d7565b9250506020613822858286016137d7565b9150509250929050565b600081519050919050565b600082825260208201905092915050565b6000819050602082019050919050565b6000613864838361350b565b60208301905092915050565b6000602082019050919050565b60006138888261382c565b6138928185613837565b935061389d83613848565b8060005b838110156138ce5781516138b58882613858565b97506138c083613870565b9250506001810190506138a1565b5085935050505092915050565b600060208201905081810360008301526138f5818461387d565b905092915050565b600081519050919050565b600082825260208201905092915050565b60005b8381101561393757808201518184015260208101905061391c565b60008484015250505050565b6000601f19601f8301169050919050565b600061395f826138fd565b6139698185613908565b9350613979818560208601613919565b61398281613943565b840191505092915050565b600060208201905081810360008301526139a78184613954565b905092915050565b6139b881613501565b81146139c357600080fd5b50565b6000813590506139d5816139af565b92915050565b6000602082840312156139f1576139f0613707565b5b60006139ff848285016139c6565b91505092915050565b613a118161353a565b82525050565b6000602082019050613a2c6000830184613a08565b92915050565b60008060408385031215613a4957613a48613707565b5b6000613a57858286016137d7565b9250506020613a68858286016139c6565b9150509250929050565b6000819050919050565b613a8581613a72565b8114613a9057600080fd5b50565b600081359050613aa281613a7c565b92915050565b600060208284031215613abe57613abd613707565b5b6000613acc84828501613a93565b91505092915050565b60008060008060008060c08789031215613af257613af1613707565b5b6000613b0089828a016139c6565b9650506020613b1189828a016137d7565b9550506040613b2289828a016137d7565b9450506060613b3389828a016139c6565b9350506080613b4489828a016139c6565b92505060a0613b5589828a016137d7565b9150509295509295509295565b613b6b81613501565b82525050565b600061016082019050613b87600083018e613b62565b613b94602083018d613a08565b613ba1604083018c613a08565b613bae606083018b613a08565b613bbb608083018a613b62565b613bc860a0830189613b62565b613bd560c0830188613b62565b613be260e0830187613b62565b613bf0610100830186613796565b613bfe610120830185613796565b613c0c610140830184613b62565b9c9b505050505050505050505050565b60008060408385031215613c3357613c32613707565b5b6000613c41858286016139c6565b9250506020613c52858286016139c6565b9150509250929050565b600080600060608486031215613c7557613c74613707565b5b6000613c83868287016137d7565b9350506020613c94868287016137d7565b9250506040613ca5868287016139c6565b9150509250925092565b600080fd5b600080fd5b7f4e487b7100000000000000000000000000000000000000000000000000000000600052604160045260246000fd5b613cf182613943565b810181811067ffffffffffffffff82111715613d1057613d0f613cb9565b5b80604052505050565b6000613d236136fd565b9050613d2f8282613ce8565b919050565b600067ffffffffffffffff821115613d4f57613d4e613cb9565b5b613d5882613943565b9050602081019050919050565b82818337600083830152505050565b6000613d87613d8284613d34565b613d19565b905082815260208101848484011115613da357613da2613cb4565b5b613dae848285613d65565b509392505050565b600082601f830112613dcb57613dca613caf565b5b8135613ddb848260208601613d74565b91505092915050565b60008060008060808587031215613dfe57613dfd613707565b5b6000613e0c87828801613a93565b9450506020613e1d87828801613a93565b935050604085013567ffffffffffffffff811115613e3e57613e3d61370c565b5b613e4a87828801613db6565b925050606085013567ffffffffffffffff811115613e6b57613e6a61370c565b5b613e7787828801613db6565b91505092959194509250565b600060208284031215613e9957613e98613707565b5b6000613ea7848285016137d7565b91505092915050565b6000602082019050613ec56000830184613b62565b92915050565b600082825260208201905092915050565b6000613ee7826138fd565b613ef18185613ecb565b9350613f01818560208601613919565b613f0a81613943565b840191505092915050565b600081519050919050565b600082825260208201905092915050565b6000819050602082019050919050565b6000613f4d8383613edc565b905092915050565b6000602082019050919050565b6000613f6d82613f15565b613f778185613f20565b935083602082028501613f8985613f31565b8060005b85811015613fc55784840389528151613fa68582613f41565b9450613fb183613f55565b925060208a01995050600181019050613f8d565b50829750879550505050505092915050565b600060e083016000830151613fef600086018261354c565b50602083015184820360208601526140078282613edc565b915050604083015184820360408601526140218282613edc565b9150506060830151848203606086015261403b8282613f62565b91505060808301516140506080860182613567565b5060a083015161406360a0860182613567565b5060c083015161407660c0860182613567565b508091505092915050565b6000602082019050818103600083015261409b8184613fd7565b905092915050565b600080600080600060a086880312156140bf576140be613707565b5b60006140cd88828901613a93565b95505060206140de88828901613a93565b94505060406140ef888289016137d7565b9350506060614100888289016137d7565b925050608061411188828901613a93565b9150509295509295909350565b6141278161355b565b811461413257600080fd5b50565b6000813590506141448161411e565b92915050565b6000806040838503121561416157614160613707565b5b600061416f858286016137d7565b925050602061418085828601614135565b9150509250929050565b6000806000606084860312156141a3576141a2613707565b5b60006141b1868287016139c6565b93505060206141c2868287016137d7565b92505060406141d3868287016137d7565b9150509250925092565b600067ffffffffffffffff8211156141f8576141f7613cb9565b5b61420182613943565b9050602081019050919050565b600061422161421c846141dd565b613d19565b90508281526020810184848401111561423d5761423c613cb4565b5b614248848285613d65565b509392505050565b600082601f83011261426557614264613caf565b5b813561427584826020860161420e565b91505092915050565b6000806000806080858703121561429857614297613707565b5b60006142a6878288016137d7565b94505060206142b7878288016137d7565b93505060406142c8878288016139c6565b925050606085013567ffffffffffffffff8111156142e9576142e861370c565b5b6142f587828801614250565b91505092959194509250565b6000806040838503121561431857614317613707565b5b6000614326858286016137d7565b925050602083013567ffffffffffffffff8111156143475761434661370c565b5b61435385828601613db6565b9150509250929050565b600067ffffffffffffffff82111561437857614377613cb9565b5b602082029050602081019050919050565b600080fd5b60006143a161439c8461435d565b613d19565b905080838252602082019050602084028301858111156143c4576143c3614389565b5b835b818110156143ed57806143d988826139c6565b8452602084019350506020810190506143c6565b5050509392505050565b600082601f83011261440c5761440b613caf565b5b813561441c84826020860161438e565b91505092915050565b60006020828403121561443b5761443a613707565b5b600082013567ffffffffffffffff8111156144595761445861370c565b5b614465848285016143f7565b91505092915050565b7f4e487b7100000000000000000000000000000000000000000000000000000000600052603260045260246000fd5b7f4e487b7100000000000000000000000000000000000000000000000000000000600052601160045260246000fd5b60006144d782613501565b91507fffffffffffffffffffffffffffffffffffffffffffffffffffffffffffffffff82036145095761450861449d565b5b600182019050919050565b6000815190506145238161411e565b92915050565b60006020828403121561453f5761453e613707565b5b600061454d84828501614514565b91505092915050565b7f4e6f2073756368204d6574614d61736b20416464726573732e2e506c6561736560008201527f20436865636b2e2e212100000000000000000000000000000000000000000000602082015250565b60006145b2602a83613908565b91506145bd82614556565b604082019050919050565b600060208201905081810360008301526145e1816145a5565b9050919050565b7f4e487b7100000000000000000000000000000000000000000000000000000000600052602260045260246000fd5b6000600282049050600182168061462f57607f821691505b602082108103614642576146416145e8565b5b50919050565b7f536f72727920636f6d706c657465207468652070726576696f7573207374657060008201527f2066697273740000000000000000000000000000000000000000000000000000602082015250565b60006146a4602683613908565b91506146af82614648565b604082019050919050565b600060208201905081810360008301526146d381614697565b9050919050565b7f446f6e6f72206973206e6f7420746865726520696e20746865206c6973742e5060008201527f6c65617365207665726966792e2e000000000000000000000000000000000000602082015250565b6000614736602e83613908565b9150614741826146da565b604082019050919050565b6000602082019050818103600083015261476581614729565b9050919050565b7f596f757220617265206e6f7420616c6c6f77656420746f20706572666f726d2060008201527f74686973206f7065726174696f6e000000000000000000000000000000000000602082015250565b60006147c8602e83613908565b91506147d38261476c565b604082019050919050565b600060208201905081810360008301526147f7816147bb565b9050919050565b7f596f752063616e206f6e6c7920646f206974206f6e6365000000000000000000600082015250565b6000614834601783613908565b915061483f826147fe565b602082019050919050565b6000602082019050818103600083015261486381614827565b9050919050565b600060608201905061487f6000830186613a08565b61488c6020830185613b62565b6148996040830184613a08565b949350505050565b60008190508160005260206000209050919050565b60006020601f8301049050919050565b600082821b905092915050565b6000600883026149037fffffffffffffffffffffffffffffffffffffffffffffffffffffffffffffffff826148c6565b61490d86836148c6565b95508019841693508086168417925050509392505050565b6000819050919050565b600061494a61494561494084613501565b614925565b613501565b9050919050565b6000819050919050565b6149648361492f565b61497861497082614951565b8484546148d3565b825550505050565b600090565b61498d614980565b61499881848461495b565b505050565b5b818110156149bc576149b1600082614985565b60018101905061499e565b5050565b601f821115614a01576149d2816148a1565b6149db846148b6565b810160208510156149ea578190505b6149fe6149f6856148b6565b83018261499d565b50505b505050565b600082821c905092915050565b6000614a2460001984600802614a06565b1980831691505092915050565b6000614a3d8383614a13565b9150826002028217905092915050565b614a56826138fd565b67ffffffffffffffff811115614a6f57614a6e613cb9565b5b614a798254614617565b614a848282856149c0565b600060209050601f831160018114614ab75760008415614aa5578287015190505b614aaf8582614a31565b865550614b17565b601f198416614ac5866148a1565b60005b82811015614aed57848901518255600182019150602085019450602081019050614ac8565b86831015614b0a5784890151614b06601f891682614a13565b8355505b6001600288020188555050505b505050505050565b600080fd5b600080fd5b600081519050614b38816137c0565b92915050565b6000614b51614b4c84613d34565b613d19565b905082815260208101848484011115614b6d57614b6c613cb4565b5b614b78848285613919565b509392505050565b600082601f830112614b9557614b94613caf565b5b8151614ba5848260208601614b3e565b91505092915050565b600067ffffffffffffffff821115614bc957614bc8613cb9565b5b602082029050602081019050919050565b6000614bed614be884614bae565b613d19565b90508083825260208201905060208402830185811115614c1057614c0f614389565b5b835b81811015614c5757805167ffffffffffffffff811115614c3557614c34613caf565b5b808601614c428982614b80565b85526020850194505050602081019050614c12565b5050509392505050565b600082601f830112614c7657614c75613caf565b5b8151614c86848260208601614bda565b91505092915050565b600060e08284031215614ca557614ca4614b1f565b5b614caf60e0613d19565b90506000614cbf84828501614b29565b600083015250602082015167ffffffffffffffff811115614ce357614ce2614b24565b5b614cef84828501614b80565b602083015250604082015167ffffffffffffffff811115614d1357614d12614b24565b5b614d1f84828501614b80565b604083015250606082015167ffffffffffffffff811115614d4357614d42614b24565b5b614d4f84828501614c61565b6060830152506080614d6384828501614514565b60808301525060a0614d7784828501614514565b60a08301525060c0614d8b84828501614514565b60c08301525092915050565b600060208284031215614dad57614dac613707565b5b600082015167ffffffffffffffff811115614dcb57614dca61370c565b5b614dd784828501614c8f565b91505092915050565b7f54686520446f6e6f7220697320616c72656164792070726573656e7420696e2060008201527f746865204c697374000000000000000000000000000000000000000000000000602082015250565b6000614e3c602883613908565b9150614e4782614de0565b604082019050919050565b60006020820190508181036000830152614e6b81614e2f565b9050919050565b600081905092915050565b6000614e88826138fd565b614e928185614e72565b9350614ea2818560208601613919565b80840191505092915050565b6000614eba8285614e7d565b9150614ec68284614e7d565b91508190509392505050565b7f596f7520617265206e6f7420746865206f776e6572206f66207468697320746f60008201527f6b656e0000000000000000000000000000000000000000000000000000000000602082015250565b6000614f2e602383613908565b9150614f3982614ed2565b604082019050919050565b60006020820190508181036000830152614f5d81614f21565b9050919050565b600081519050919050565b600082825260208201905092915050565b6000614f8b82614f64565b614f958185614f6f565b9350614fa5818560208601613919565b614fae81613943565b840191505092915050565b6000608082019050614fce6000830187613a08565b614fdb6020830186613a08565b614fe86040830185613b62565b8181036060830152614ffa8184614f80565b905095945050505050565b6000815190506150148161373d565b92915050565b6000602082840312156150305761502f613707565b5b600061503e84828501615005565b91505092915050565b600060408201905061505c6000830185613a08565b6150696020830184613b62565b9392505050565b7f4e487b7100000000000000000000000000000000000000000000000000000000600052601260045260246000fdfea2646970667358221220a40f7c4b7f8ec7e29ae498f8fc66740bdb767bee32de59e02d8f2c136748bcb264736f6c63430008140033",
  "linkReferences": {},
  "deployedLinkReferences": {}
}