{
  "_format": "hh-sol-artifact-1",
  "contractName": "NFT",
  "sourceName": "contracts/Contract_2.sol",
  "abi": [
    {
      "inputs": [],
      "stateMutability": "nonpayable",
      "type": "constructor"
    },
    {
      "inputs": [
        {
          "internalType": "address",
          "name": "sender",
          "type": "address"
        },
        {
          "internalType": "uint256",
          "name": "tokenId",
          "type": "uint256"
        },
        {
          "internalType": "address",
          "name": "owner",
          "type": "address"
        }
      ],
      "name": "ERC721IncorrectOwner",
      "type": "error"
    },
    {
      "inputs": [
        {
          "internalType": "address",
          "name": "operator",
          "type": "address"
        },
        {
          "internalType": "uint256",
          "name": "tokenId",
          "type": "uint256"
        }
      ],
      "name": "ERC721InsufficientApproval",
      "type": "error"
    },
    {
      "inputs": [
        {
          "internalType": "address",
          "name": "approver",
          "type": "address"
        }
      ],
      "name": "ERC721InvalidApprover",
      "type": "error"
    },
    {
      "inputs": [
        {
          "internalType": "address",
          "name": "operator",
          "type": "address"
        }
      ],
      "name": "ERC721InvalidOperator",
      "type": "error"
    },
    {
      "inputs": [
        {
          "internalType": "address",
          "name": "owner",
          "type": "address"
        }
      ],
      "name": "ERC721InvalidOwner",
      "type": "error"
    },
    {
      "inputs": [
        {
          "internalType": "address",
          "name": "receiver",
          "type": "address"
        }
      ],
      "name": "ERC721InvalidReceiver",
      "type": "error"
    },
    {
      "inputs": [
        {
          "internalType": "address",
          "name": "sender",
          "type": "address"
        }
      ],
      "name": "ERC721InvalidSender",
      "type": "error"
    },
    {
      "inputs": [
        {
          "internalType": "uint256",
          "name": "tokenId",
          "type": "uint256"
        }
      ],
      "name": "ERC721NonexistentToken",
      "type": "error"
    },
    {
      "anonymous": false,
      "inputs": [
        {
          "indexed": true,
          "internalType": "address",
          "name": "owner",
          "type": "address"
        },
        {
          "indexed": true,
          "internalType": "address",
          "name": "approved",
          "type": "address"
        },
        {
          "indexed": true,
          "internalType": "uint256",
          "name": "tokenId",
          "type": "uint256"
        }
      ],
      "name": "Approval",
      "type": "event"
    },
    {
      "anonymous": false,
      "inputs": [
        {
          "indexed": true,
          "internalType": "address",
          "name": "owner",
          "type": "address"
        },
        {
          "indexed": true,
          "internalType": "address",
          "name": "operator",
          "type": "address"
        },
        {
          "indexed": false,
          "internalType": "bool",
          "name": "approved",
          "type": "bool"
        }
      ],
      "name": "ApprovalForAll",
      "type": "event"
    },
    {
      "anonymous": false,
      "inputs": [
        {
          "indexed": false,
          "internalType": "uint256",
          "name": "_fromTokenId",
          "type": "uint256"
        },
        {
          "indexed": false,
          "internalType": "uint256",
          "name": "_toTokenId",
          "type": "uint256"
        }
      ],
      "name": "BatchMetadataUpdate",
      "type": "event"
    },
    {
      "anonymous": false,
      "inputs": [
        {
          "indexed": false,
          "internalType": "uint256",
          "name": "_tokenId",
          "type": "uint256"
        }
      ],
      "name": "MetadataUpdate",
      "type": "event"
    },
    {
      "anonymous": false,
      "inputs": [
        {
          "indexed": true,
          "internalType": "address",
          "name": "from",
          "type": "address"
        },
        {
          "indexed": true,
          "internalType": "address",
          "name": "to",
          "type": "address"
        },
        {
          "indexed": true,
          "internalType": "uint256",
          "name": "tokenId",
          "type": "uint256"
        }
      ],
      "name": "Transfer",
      "type": "event"
    },
    {
      "inputs": [
        {
          "internalType": "uint256",
          "name": "",
          "type": "uint256"
        }
      ],
      "name": "BDmapping",
      "outputs": [
        {
          "internalType": "uint256",
          "name": "id",
          "type": "uint256"
        },
        {
          "internalType": "address",
          "name": "donor_hosp",
          "type": "address"
        },
        {
          "internalType": "address",
          "name": "doc_1",
          "type": "address"
        },
        {
          "internalType": "address",
          "name": "doc_2",
          "type": "address"
        },
        {
          "internalType": "uint256",
          "name": "id1",
          "type": "uint256"
        },
        {
          "internalType": "uint256",
          "name": "id2",
          "type": "uint256"
        },
        {
          "internalType": "uint256",
          "name": "sign1",
          "type": "uint256"
        },
        {
          "internalType": "uint256",
          "name": "sign2",
          "type": "uint256"
        },
        {
          "internalType": "bool",
          "name": "status",
          "type": "bool"
        },
        {
          "internalType": "bool",
          "name": "flag",
          "type": "bool"
        },
        {
          "internalType": "uint256",
          "name": "timestamp",
          "type": "uint256"
        }
      ],
      "stateMutability": "view",
      "type": "function"
    },
    {
      "inputs": [
        {
          "internalType": "uint256",
          "name": "id",
          "type": "uint256"
        }
      ],
      "name": "DocPat",
      "outputs": [
        {
          "components": [
            {
              "internalType": "uint256",
              "name": "id",
              "type": "uint256"
            },
            {
              "internalType": "address",
              "name": "donor_hosp",
              "type": "address"
            },
            {
              "internalType": "address",
              "name": "doc_1",
              "type": "address"
            },
            {
              "internalType": "address",
              "name": "doc_2",
              "type": "address"
            },
            {
              "internalType": "uint256",
              "name": "id1",
              "type": "uint256"
            },
            {
              "internalType": "uint256",
              "name": "id2",
              "type": "uint256"
            },
            {
              "internalType": "uint256",
              "name": "sign1",
              "type": "uint256"
            },
            {
              "internalType": "uint256",
              "name": "sign2",
              "type": "uint256"
            },
            {
              "internalType": "bool",
              "name": "status",
              "type": "bool"
            },
            {
              "internalType": "bool",
              "name": "flag",
              "type": "bool"
            },
            {
              "internalType": "uint256",
              "name": "timestamp",
              "type": "uint256"
            }
          ],
          "internalType": "struct NFT.BD[]",
          "name": "",
          "type": "tuple[]"
        }
      ],
      "stateMutability": "view",
      "type": "function"
    },
    {
      "inputs": [
        {
          "internalType": "uint256",
          "name": "donor_id",
          "type": "uint256"
        },
        {
          "internalType": "uint256",
          "name": "reciever_id",
          "type": "uint256"
        },
        {
          "internalType": "address",
          "name": "donor_hosp",
          "type": "address"
        },
        {
          "internalType": "address",
          "name": "reciever_hosp",
          "type": "address"
        },
        {
          "internalType": "int256",
          "name": "transplant_id",
          "type": "int256"
        },
        {
          "internalType": "string",
          "name": "organ",
          "type": "string"
        },
        {
          "internalType": "address",
          "name": "ContractA_Address",
          "type": "address"
        }
      ],
      "name": "TransDetails",
      "outputs": [
        {
          "internalType": "bool",
          "name": "",
          "type": "bool"
        }
      ],
      "stateMutability": "nonpayable",
      "type": "function"
    },
    {
      "inputs": [
        {
          "internalType": "address",
          "name": "to",
          "type": "address"
        },
        {
          "internalType": "uint256",
          "name": "tokenId",
          "type": "uint256"
        }
      ],
      "name": "approve",
      "outputs": [],
      "stateMutability": "nonpayable",
      "type": "function"
    },
    {
      "inputs": [
        {
          "internalType": "address[]",
          "name": "to",
          "type": "address[]"
        },
        {
          "internalType": "uint256",
          "name": "tokenId",
          "type": "uint256"
        }
      ],
      "name": "approveTransfer",
      "outputs": [],
      "stateMutability": "nonpayable",
      "type": "function"
    },
    {
      "inputs": [
        {
          "internalType": "address",
          "name": "player",
          "type": "address"
        },
        {
          "internalType": "string",
          "name": "tokenURI",
          "type": "string"
        }
      ],
      "name": "awardItem",
      "outputs": [
        {
          "internalType": "uint256",
          "name": "",
          "type": "uint256"
        }
      ],
      "stateMutability": "nonpayable",
      "type": "function"
    },
    {
      "inputs": [
        {
          "internalType": "address",
          "name": "owner",
          "type": "address"
        }
      ],
      "name": "balanceOf",
      "outputs": [
        {
          "internalType": "uint256",
          "name": "",
          "type": "uint256"
        }
      ],
      "stateMutability": "view",
      "type": "function"
    },
    {
      "inputs": [
        {
          "internalType": "uint256",
          "name": "donor_id",
          "type": "uint256"
        },
        {
          "internalType": "address",
          "name": "donor_hosp",
          "type": "address"
        },
        {
          "internalType": "address",
          "name": "ContractA_Address",
          "type": "address"
        }
      ],
      "name": "brain_Dead",
      "outputs": [
        {
          "internalType": "bool",
          "name": "",
          "type": "bool"
        }
      ],
      "stateMutability": "nonpayable",
      "type": "function"
    },
    {
      "inputs": [
        {
          "internalType": "int256",
          "name": "transplant_id",
          "type": "int256"
        },
        {
          "internalType": "address",
          "name": "ContractA_Address",
          "type": "address"
        }
      ],
      "name": "end_surgery",
      "outputs": [
        {
          "internalType": "bool",
          "name": "",
          "type": "bool"
        }
      ],
      "stateMutability": "nonpayable",
      "type": "function"
    },
    {
      "inputs": [
        {
          "internalType": "int256",
          "name": "transplant_id",
          "type": "int256"
        }
      ],
      "name": "end_transport",
      "outputs": [
        {
          "internalType": "bool",
          "name": "",
          "type": "bool"
        }
      ],
      "stateMutability": "nonpayable",
      "type": "function"
    },
    {
      "inputs": [],
      "name": "getAllBDs",
      "outputs": [
        {
          "components": [
            {
              "internalType": "uint256",
              "name": "id",
              "type": "uint256"
            },
            {
              "internalType": "address",
              "name": "donor_hosp",
              "type": "address"
            },
            {
              "internalType": "address",
              "name": "doc_1",
              "type": "address"
            },
            {
              "internalType": "address",
              "name": "doc_2",
              "type": "address"
            },
            {
              "internalType": "uint256",
              "name": "id1",
              "type": "uint256"
            },
            {
              "internalType": "uint256",
              "name": "id2",
              "type": "uint256"
            },
            {
              "internalType": "uint256",
              "name": "sign1",
              "type": "uint256"
            },
            {
              "internalType": "uint256",
              "name": "sign2",
              "type": "uint256"
            },
            {
              "internalType": "bool",
              "name": "status",
              "type": "bool"
            },
            {
              "internalType": "bool",
              "name": "flag",
              "type": "bool"
            },
            {
              "internalType": "uint256",
              "name": "timestamp",
              "type": "uint256"
            }
          ],
          "internalType": "struct NFT.BD[]",
          "name": "",
          "type": "tuple[]"
        }
      ],
      "stateMutability": "view",
      "type": "function"
    },
    {
      "inputs": [
        {
          "internalType": "uint256",
          "name": "tokenId",
          "type": "uint256"
        }
      ],
      "name": "getApproved",
      "outputs": [
        {
          "internalType": "address",
          "name": "",
          "type": "address"
        }
      ],
      "stateMutability": "view",
      "type": "function"
    },
    {
      "inputs": [
        {
          "internalType": "uint256[]",
          "name": "list",
          "type": "uint256[]"
        }
      ],
      "name": "getBrainDeadDetails",
      "outputs": [
        {
          "components": [
            {
              "internalType": "uint256",
              "name": "id",
              "type": "uint256"
            },
            {
              "internalType": "address",
              "name": "donor_hosp",
              "type": "address"
            },
            {
              "internalType": "address",
              "name": "doc_1",
              "type": "address"
            },
            {
              "internalType": "address",
              "name": "doc_2",
              "type": "address"
            },
            {
              "internalType": "uint256",
              "name": "id1",
              "type": "uint256"
            },
            {
              "internalType": "uint256",
              "name": "id2",
              "type": "uint256"
            },
            {
              "internalType": "uint256",
              "name": "sign1",
              "type": "uint256"
            },
            {
              "internalType": "uint256",
              "name": "sign2",
              "type": "uint256"
            },
            {
              "internalType": "bool",
              "name": "status",
              "type": "bool"
            },
            {
              "internalType": "bool",
              "name": "flag",
              "type": "bool"
            },
            {
              "internalType": "uint256",
              "name": "timestamp",
              "type": "uint256"
            }
          ],
          "internalType": "struct NFT.BD[]",
          "name": "",
          "type": "tuple[]"
        }
      ],
      "stateMutability": "view",
      "type": "function"
    },
    {
      "inputs": [
        {
          "internalType": "address",
          "name": "donor_hosp",
          "type": "address"
        },
        {
          "internalType": "address",
          "name": "ContractA_Address",
          "type": "address"
        }
      ],
      "name": "getbrainDead",
      "outputs": [
        {
          "internalType": "uint256[]",
          "name": "",
          "type": "uint256[]"
        }
      ],
      "stateMutability": "view",
      "type": "function"
    },
    {
      "inputs": [
        {
          "internalType": "address",
          "name": "owner",
          "type": "address"
        },
        {
          "internalType": "address",
          "name": "operator",
          "type": "address"
        }
      ],
      "name": "isApprovedForAll",
      "outputs": [
        {
          "internalType": "bool",
          "name": "",
          "type": "bool"
        }
      ],
      "stateMutability": "view",
      "type": "function"
    },
    {
      "inputs": [],
      "name": "name",
      "outputs": [
        {
          "internalType": "string",
          "name": "",
          "type": "string"
        }
      ],
      "stateMutability": "view",
      "type": "function"
    },
    {
      "inputs": [
        {
          "internalType": "uint256",
          "name": "tokenId",
          "type": "uint256"
        }
      ],
      "name": "ownerOf",
      "outputs": [
        {
          "internalType": "address",
          "name": "",
          "type": "address"
        }
      ],
      "stateMutability": "view",
      "type": "function"
    },
    {
      "inputs": [
        {
          "internalType": "uint256",
          "name": "id",
          "type": "uint256"
        },
        {
          "internalType": "address",
          "name": "doc_1",
          "type": "address"
        },
        {
          "internalType": "address",
          "name": "doc_2",
          "type": "address"
        },
        {
          "internalType": "uint256",
          "name": "id1",
          "type": "uint256"
        },
        {
          "internalType": "uint256",
          "name": "id2",
          "type": "uint256"
        },
        {
          "internalType": "address",
          "name": "ContractA_Address",
          "type": "address"
        }
      ],
      "name": "reg_braindead",
      "outputs": [],
      "stateMutability": "nonpayable",
      "type": "function"
    },
    {
      "inputs": [
        {
          "internalType": "address",
          "name": "from",
          "type": "address"
        },
        {
          "internalType": "address",
          "name": "to",
          "type": "address"
        },
        {
          "internalType": "uint256",
          "name": "tokenId",
          "type": "uint256"
        }
      ],
      "name": "safeTransferFrom",
      "outputs": [],
      "stateMutability": "nonpayable",
      "type": "function"
    },
    {
      "inputs": [
        {
          "internalType": "address",
          "name": "from",
          "type": "address"
        },
        {
          "internalType": "address",
          "name": "to",
          "type": "address"
        },
        {
          "internalType": "uint256",
          "name": "tokenId",
          "type": "uint256"
        },
        {
          "internalType": "bytes",
          "name": "data",
          "type": "bytes"
        }
      ],
      "name": "safeTransferFrom",
      "outputs": [],
      "stateMutability": "nonpayable",
      "type": "function"
    },
    {
      "inputs": [
        {
          "internalType": "address",
          "name": "operator",
          "type": "address"
        },
        {
          "internalType": "bool",
          "name": "approved",
          "type": "bool"
        }
      ],
      "name": "setApprovalForAll",
      "outputs": [],
      "stateMutability": "nonpayable",
      "type": "function"
    },
    {
      "inputs": [
        {
          "internalType": "uint256",
          "name": "id",
          "type": "uint256"
        },
        {
          "internalType": "uint256",
          "name": "val",
          "type": "uint256"
        }
      ],
      "name": "signApproval",
      "outputs": [],
      "stateMutability": "nonpayable",
      "type": "function"
    },
    {
      "inputs": [
        {
          "internalType": "int256",
          "name": "transplant_id",
          "type": "int256"
        }
      ],
      "name": "start_surgery",
      "outputs": [
        {
          "internalType": "bool",
          "name": "",
          "type": "bool"
        }
      ],
      "stateMutability": "nonpayable",
      "type": "function"
    },
    {
      "inputs": [
        {
          "internalType": "int256",
          "name": "transplant_id",
          "type": "int256"
        },
        {
          "internalType": "uint256",
          "name": "contact",
          "type": "uint256"
        },
        {
          "internalType": "string",
          "name": "name",
          "type": "string"
        },
        {
          "internalType": "string",
          "name": "plate_num",
          "type": "string"
        }
      ],
      "name": "start_transport",
      "outputs": [
        {
          "internalType": "bool",
          "name": "",
          "type": "bool"
        }
      ],
      "stateMutability": "nonpayable",
      "type": "function"
    },
    {
      "inputs": [
        {
          "internalType": "bytes4",
          "name": "interfaceId",
          "type": "bytes4"
        }
      ],
      "name": "supportsInterface",
      "outputs": [
        {
          "internalType": "bool",
          "name": "",
          "type": "bool"
        }
      ],
      "stateMutability": "view",
      "type": "function"
    },
    {
      "inputs": [],
      "name": "symbol",
      "outputs": [
        {
          "internalType": "string",
          "name": "",
          "type": "string"
        }
      ],
      "stateMutability": "view",
      "type": "function"
    },
    {
      "inputs": [
        {
          "internalType": "uint256",
          "name": "tokenId",
          "type": "uint256"
        }
      ],
      "name": "tokenURI",
      "outputs": [
        {
          "internalType": "string",
          "name": "",
          "type": "string"
        }
      ],
      "stateMutability": "view",
      "type": "function"
    },
    {
      "inputs": [
        {
          "internalType": "address",
          "name": "from",
          "type": "address"
        },
        {
          "internalType": "address",
          "name": "to",
          "type": "address"
        },
        {
          "internalType": "uint256",
          "name": "tokenId",
          "type": "uint256"
        }
      ],
      "name": "transferFrom",
      "outputs": [],
      "stateMutability": "nonpayable",
      "type": "function"
    },
    {
      "inputs": [
        {
          "internalType": "address",
          "name": "from",
          "type": "address"
        },
        {
          "internalType": "address",
          "name": "to",
          "type": "address"
        },
        {
          "internalType": "uint256",
          "name": "tokenId",
          "type": "uint256"
        }
      ],
      "name": "transferNFT",
      "outputs": [],
      "stateMutability": "nonpayable",
      "type": "function"
    },
    {
      "inputs": [
        {
          "internalType": "uint256",
          "name": "id",
          "type": "uint256"
        }
      ],
      "name": "verifyBrainDead",
      "outputs": [
        {
          "internalType": "bool",
          "name": "",
          "type": "bool"
        }
      ],
      "stateMutability": "view",
      "type": "function"
    }
  ],
  "bytecode": "0x60806040523480156200001157600080fd5b506040518060400160405280600f81526020017f4f726167616e20446f6e6174696f6e00000000000000000000000000000000008152506040518060400160405280600281526020017f4f4400000000000000000000000000000000000000000000000000000000000081525081600090816200008f919062000324565b508060019081620000a1919062000324565b5050506200040b565b600081519050919050565b7f4e487b7100000000000000000000000000000000000000000000000000000000600052604160045260246000fd5b7f4e487b7100000000000000000000000000000000000000000000000000000000600052602260045260246000fd5b600060028204905060018216806200012c57607f821691505b602082108103620001425762000141620000e4565b5b50919050565b60008190508160005260206000209050919050565b60006020601f8301049050919050565b600082821b905092915050565b600060088302620001ac7fffffffffffffffffffffffffffffffffffffffffffffffffffffffffffffffff826200016d565b620001b886836200016d565b95508019841693508086168417925050509392505050565b6000819050919050565b6000819050919050565b600062000205620001ff620001f984620001d0565b620001da565b620001d0565b9050919050565b6000819050919050565b6200022183620001e4565b6200023962000230826200020c565b8484546200017a565b825550505050565b600090565b6200025062000241565b6200025d81848462000216565b505050565b5b8181101562000285576200027960008262000246565b60018101905062000263565b5050565b601f821115620002d4576200029e8162000148565b620002a9846200015d565b81016020851015620002b9578190505b620002d1620002c8856200015d565b83018262000262565b50505b505050565b600082821c905092915050565b6000620002f960001984600802620002d9565b1980831691505092915050565b6000620003148383620002e6565b9150826002028217905092915050565b6200032f82620000aa565b67ffffffffffffffff8111156200034b576200034a620000b5565b5b62000357825462000113565b6200036482828562000289565b600060209050601f8311600181146200039c576000841562000387578287015190505b62000393858262000306565b86555062000403565b601f198416620003ac8662000148565b60005b82811015620003d657848901518255600182019150602085019450602081019050620003af565b86831015620003f65784890151620003f2601f891682620002e6565b8355505b6001600288020188555050505b505050505050565b615af8806200041b6000396000f3fe608060405234801561001057600080fd5b50600436106101da5760003560e01c806342842e0e11610104578063a22cb465116100a2578063cf37834311610071578063cf378343146105df578063de326da01461060f578063e8aa00141461063f578063e985e9c51461066f576101da565b8063a22cb46514610547578063a30e81fe14610563578063b88d4fde14610593578063c87b56dd146105af576101da565b806370a08231116100de57806370a0823114610499578063766b41ea146104c9578063795197cc146104f957806395d89b4114610529576101da565b806342842e0e146104315780636352211e1461044d57806369e9cae11461047d576101da565b80630ab20b251161017c5780631ae1d9071161014b5780631ae1d907146103ad5780631b59ede4146103dd5780631c62ac17146103f957806323b872dd14610415576101da565b80630ab20b25146102f75780630c8abc92146103275780630decb3311461034357806317ff262f1461037d576101da565b806306fdde03116101b857806306fdde031461025d57806307cf0a5a1461027b578063081812fc146102ab578063095ea7b3146102db576101da565b8063018ba128146101df57806301ffc9a7146101fd578063047dd3011461022d575b600080fd5b6101e761069f565b6040516101f49190613fab565b60405180910390f35b61021760048036038101906102129190614039565b6108fe565b6040516102249190614075565b60405180910390f35b610247600480360381019061024291906140bc565b61095f565b60405161025491906141ab565b60405180910390f35b610265610abd565b604051610272919061425d565b60405180910390f35b61029560048036038101906102909190614416565b610b4f565b6040516102a29190614075565b60405180910390f35b6102c560048036038101906102c091906144b5565b610c6b565b6040516102d291906144f1565b60405180910390f35b6102f560048036038101906102f0919061450c565b610c87565b005b610311600480360381019061030c919061454c565b610c9d565b60405161031e9190614075565b60405180910390f35b610341600480360381019061033c9190614579565b610da2565b005b61035d600480360381019061035891906144b5565b610f6e565b6040516103749b9a99989796959493929190614615565b60405180910390f35b610397600480360381019061039291906144b5565b611042565b6040516103a49190613fab565b60405180910390f35b6103c760048036038101906103c291906144b5565b6112d6565b6040516103d49190614075565b60405180910390f35b6103f760048036038101906103f29190614788565b611303565b005b610413600480360381019061040e91906147e4565b6113c1565b005b61042f600480360381019061042a9190614824565b61177e565b005b61044b60048036038101906104469190614824565b611880565b005b610467600480360381019061046291906144b5565b6118a0565b60405161047491906144f1565b60405180910390f35b61049760048036038101906104929190614824565b6118b2565b005b6104b360048036038101906104ae9190614877565b6118c2565b6040516104c091906148a4565b60405180910390f35b6104e360048036038101906104de91906148bf565b61197c565b6040516104f09190614075565b60405180910390f35b610513600480360381019061050e919061454c565b611f58565b6040516105209190614075565b60405180910390f35b61053161205d565b60405161053e919061425d565b60405180910390f35b610561600480360381019061055c91906149a9565b6120ef565b005b61057d600480360381019061057891906149e9565b612105565b60405161058a9190614075565b60405180910390f35b6105ad60048036038101906105a89190614add565b61271a565b005b6105c960048036038101906105c491906144b5565b612737565b6040516105d6919061425d565b60405180910390f35b6105f960048036038101906105f49190614b60565b61284a565b60405161060691906148a4565b60405180910390f35b61062960048036038101906106249190614c7f565b612881565b6040516106369190613fab565b60405180910390f35b61065960048036038101906106549190614cc8565b612ad6565b6040516106669190614075565b60405180910390f35b610689600480360381019061068491906140bc565b612d65565b6040516106969190614075565b60405180910390f35b6060600060098054905067ffffffffffffffff8111156106c2576106c16142eb565b5b6040519080825280602002602001820160405280156106fb57816020015b6106e8613d05565b8152602001906001900390816106e05790505b50905060005b6009805490508110156108f6576000600a60006009848154811061072857610727614d08565b5b9060005260206000200154815260200190815260200160002060405180610160016040529081600082015481526020016001820160009054906101000a900473ffffffffffffffffffffffffffffffffffffffff1673ffffffffffffffffffffffffffffffffffffffff1673ffffffffffffffffffffffffffffffffffffffff1681526020016002820160009054906101000a900473ffffffffffffffffffffffffffffffffffffffff1673ffffffffffffffffffffffffffffffffffffffff1673ffffffffffffffffffffffffffffffffffffffff1681526020016003820160009054906101000a900473ffffffffffffffffffffffffffffffffffffffff1673ffffffffffffffffffffffffffffffffffffffff1673ffffffffffffffffffffffffffffffffffffffff168152602001600482015481526020016005820154815260200160068201548152602001600782015481526020016008820160009054906101000a900460ff161515151581526020016008820160019054906101000a900460ff161515151581526020016009820154815250509050808383815181106108d7576108d6614d08565b5b60200260200101819052505080806108ee90614d66565b915050610701565b508091505090565b6000634906490660e01b7bffffffffffffffffffffffffffffffffffffffffffffffffffffffff1916827bffffffffffffffffffffffffffffffffffffffffffffffffffffffff19161480610958575061095782612df9565b5b9050919050565b60606000829050600115158173ffffffffffffffffffffffffffffffffffffffff1663c23697a8866040518263ffffffff1660e01b81526004016109a391906144f1565b602060405180830381865afa1580156109c0573d6000803e3d6000fd5b505050506040513d601f19601f820116820180604052508101906109e49190614dc3565b151514610a26576040517f08c379a0000000000000000000000000000000000000000000000000000000008152600401610a1d90614e62565b60405180910390fd5b600b60008573ffffffffffffffffffffffffffffffffffffffff1673ffffffffffffffffffffffffffffffffffffffff168152602001908152602001600020805480602002602001604051908101604052809291908181526020018280548015610aaf57602002820191906000526020600020905b815481526020019060010190808311610a9b575b505050505091505092915050565b606060008054610acc90614eb1565b80601f0160208091040260200160405190810160405280929190818152602001828054610af890614eb1565b8015610b455780601f10610b1a57610100808354040283529160200191610b45565b820191906000526020600020905b815481529060010190602001808311610b2857829003601f168201915b5050505050905090565b600060011515600e600087815260200190815260200160002060060160019054906101000a900460ff16151514610bbb576040517f08c379a0000000000000000000000000000000000000000000000000000000008152600401610bb290614f54565b60405180910390fd5b42600d600087815260200190815260200160002060010181905550600060405180606001604052808581526020018481526020018681525090506002600e60008881526020019081526020016000206005018190555080600f60008881526020019081526020016000206000820151816000019081610c3a9190615120565b506020820151816001019081610c509190615120565b50604082015181600201559050506001915050949350505050565b6000610c7682612edb565b50610c8082612f63565b9050919050565b610c998282610c94612fa0565b612fa8565b5050565b60006002600e60008481526020019081526020016000206005015414610cf8576040517f08c379a0000000000000000000000000000000000000000000000000000000008152600401610cef90615264565b60405180910390fd5b60011515600e600084815260200190815260200160002060060160019054906101000a900460ff16151514610d62576040517f08c379a0000000000000000000000000000000000000000000000000000000008152600401610d5990614f54565b60405180910390fd5b42600d6000848152602001908152602001600020600201819055506003600e60008481526020019081526020016000206005018190555060019050919050565b600081905060011515600a600089815260200190815260200160002060080160019054906101000a900460ff16151514610e11576040517f08c379a0000000000000000000000000000000000000000000000000000000008152600401610e08906152f6565b60405180910390fd5b85600a600089815260200190815260200160002060020160006101000a81548173ffffffffffffffffffffffffffffffffffffffff021916908373ffffffffffffffffffffffffffffffffffffffff16021790555084600a600089815260200190815260200160002060030160006101000a81548173ffffffffffffffffffffffffffffffffffffffff021916908373ffffffffffffffffffffffffffffffffffffffff16021790555083600a600089815260200190815260200160002060040181905550600c600085815260200190815260200160002087908060018154018082558091505060019003906000526020600020016000909190919091505582600a600089815260200190815260200160002060050181905550600c600084815260200190815260200160002087908060018154018082558091505060019003906000526020600020016000909190919091505550505050505050565b600a6020528060005260406000206000915090508060000154908060010160009054906101000a900473ffffffffffffffffffffffffffffffffffffffff16908060020160009054906101000a900473ffffffffffffffffffffffffffffffffffffffff16908060030160009054906101000a900473ffffffffffffffffffffffffffffffffffffffff16908060040154908060050154908060060154908060070154908060080160009054906101000a900460ff16908060080160019054906101000a900460ff1690806009015490508b565b60606000600c60008481526020019081526020016000208054905067ffffffffffffffff811115611076576110756142eb565b5b6040519080825280602002602001820160405280156110af57816020015b61109c613d05565b8152602001906001900390816110945790505b50905060005b600c6000858152602001908152602001600020805490508110156112cc576000600a6000600c600088815260200190815260200160002084815481106110fe576110fd614d08565b5b9060005260206000200154815260200190815260200160002060405180610160016040529081600082015481526020016001820160009054906101000a900473ffffffffffffffffffffffffffffffffffffffff1673ffffffffffffffffffffffffffffffffffffffff1673ffffffffffffffffffffffffffffffffffffffff1681526020016002820160009054906101000a900473ffffffffffffffffffffffffffffffffffffffff1673ffffffffffffffffffffffffffffffffffffffff1673ffffffffffffffffffffffffffffffffffffffff1681526020016003820160009054906101000a900473ffffffffffffffffffffffffffffffffffffffff1673ffffffffffffffffffffffffffffffffffffffff1673ffffffffffffffffffffffffffffffffffffffff168152602001600482015481526020016005820154815260200160068201548152602001600782015481526020016008820160009054906101000a900460ff161515151581526020016008820160019054906101000a900460ff161515151581526020016009820154815250509050808383815181106112ad576112ac614d08565b5b60200260200101819052505080806112c490614d66565b9150506110b5565b5080915050919050565b6000600a600083815260200190815260200160002060080160009054906101000a900460ff169050919050565b3373ffffffffffffffffffffffffffffffffffffffff16611323826118a0565b73ffffffffffffffffffffffffffffffffffffffff1614611379576040517f08c379a000000000000000000000000000000000000000000000000000000000815260040161137090615388565b60405180910390fd5b60005b82518110156113bc576113a983828151811061139b5761139a614d08565b5b602002602001015183610c87565b80806113b490614d66565b91505061137c565b505050565b60011515600a600084815260200190815260200160002060080160019054906101000a900460ff1615151461142b576040517f08c379a0000000000000000000000000000000000000000000000000000000008152600401611422906152f6565b60405180910390fd5b600a600083815260200190815260200160002060020160009054906101000a900473ffffffffffffffffffffffffffffffffffffffff1673ffffffffffffffffffffffffffffffffffffffff163373ffffffffffffffffffffffffffffffffffffffff1614806114fc5750600a600083815260200190815260200160002060030160009054906101000a900473ffffffffffffffffffffffffffffffffffffffff1673ffffffffffffffffffffffffffffffffffffffff163373ffffffffffffffffffffffffffffffffffffffff16145b61153b576040517f08c379a00000000000000000000000000000000000000000000000000000000081526004016115329061541a565b60405180910390fd5b600a600083815260200190815260200160002060020160009054906101000a900473ffffffffffffffffffffffffffffffffffffffff1673ffffffffffffffffffffffffffffffffffffffff163373ffffffffffffffffffffffffffffffffffffffff160361161d576000600a600084815260200190815260200160002060060154146115fd576040517f08c379a00000000000000000000000000000000000000000000000000000000081526004016115f490615486565b60405180910390fd5b80600a600084815260200190815260200160002060060181905550611692565b6000600a60008481526020019081526020016000206007015414611676576040517f08c379a000000000000000000000000000000000000000000000000000000000815260040161166d90615486565b60405180910390fd5b80600a6000848152602001908152602001600020600701819055505b6000600a600084815260200190815260200160002060060154141580156116d057506000600a60008481526020019081526020016000206007015414155b1561177a576002600a600084815260200190815260200160002060060154148061171057506002600a600084815260200190815260200160002060070154145b15611749576000600a600084815260200190815260200160002060080160006101000a81548160ff021916908315150217905550611779565b6001600a600084815260200190815260200160002060080160006101000a81548160ff0219169083151502179055505b5b5050565b600073ffffffffffffffffffffffffffffffffffffffff168273ffffffffffffffffffffffffffffffffffffffff16036117f05760006040517f64a0ae920000000000000000000000000000000000000000000000000000000081526004016117e791906144f1565b60405180910390fd5b600061180483836117ff612fa0565b612fba565b90508373ffffffffffffffffffffffffffffffffffffffff168173ffffffffffffffffffffffffffffffffffffffff161461187a578382826040517f64283d7b000000000000000000000000000000000000000000000000000000008152600401611871939291906154a6565b60405180910390fd5b50505050565b61189b8383836040518060200160405280600081525061271a565b505050565b60006118ab82612edb565b9050919050565b6118bd838383611880565b505050565b60008073ffffffffffffffffffffffffffffffffffffffff168273ffffffffffffffffffffffffffffffffffffffff16036119355760006040517f89c62b6400000000000000000000000000000000000000000000000000000000815260040161192c91906144f1565b60405180910390fd5b600360008373ffffffffffffffffffffffffffffffffffffffff1673ffffffffffffffffffffffffffffffffffffffff168152602001908152602001600020549050919050565b600080829050600115158173ffffffffffffffffffffffffffffffffffffffff1663c23697a8896040518263ffffffff1660e01b81526004016119bf91906144f1565b602060405180830381865afa1580156119dc573d6000803e3d6000fd5b505050506040513d601f19601f82011682018060405250810190611a009190614dc3565b151514611a42576040517f08c379a0000000000000000000000000000000000000000000000000000000008152600401611a3990614e62565b60405180910390fd5b600115158173ffffffffffffffffffffffffffffffffffffffff1663e7fd15308b6040518263ffffffff1660e01b8152600401611a7f91906148a4565b602060405180830381865afa158015611a9c573d6000803e3d6000fd5b505050506040513d601f19601f82011682018060405250810190611ac09190614dc3565b151514611b02576040517f08c379a0000000000000000000000000000000000000000000000000000000008152600401611af99061554f565b60405180910390fd5b600115158173ffffffffffffffffffffffffffffffffffffffff166368bdf2428b6040518263ffffffff1660e01b8152600401611b3f91906148a4565b602060405180830381865afa158015611b5c573d6000803e3d6000fd5b505050506040513d601f19601f82011682018060405250810190611b809190614dc3565b151514611bc2576040517f08c379a0000000000000000000000000000000000000000000000000000000008152600401611bb9906155bb565b60405180910390fd5b600115158173ffffffffffffffffffffffffffffffffffffffff16634394f5818a6040518263ffffffff1660e01b8152600401611bff91906148a4565b602060405180830381865afa158015611c1c573d6000803e3d6000fd5b505050506040513d601f19601f82011682018060405250810190611c409190614dc3565b151514611c82576040517f08c379a0000000000000000000000000000000000000000000000000000000008152600401611c799061564d565b60405180910390fd5b600115158173ffffffffffffffffffffffffffffffffffffffff1663627360218a6040518263ffffffff1660e01b8152600401611cbf91906148a4565b602060405180830381865afa158015611cdc573d6000803e3d6000fd5b505050506040513d601f19601f82011682018060405250810190611d009190614dc3565b151514611d42576040517f08c379a0000000000000000000000000000000000000000000000000000000008152600401611d39906156df565b60405180910390fd5b60006040518061010001604052808b81526020018a81526020018973ffffffffffffffffffffffffffffffffffffffff1681526020018873ffffffffffffffffffffffffffffffffffffffff1681526020018681526020016001815260200160001515815260200160011515815250905080600e6000888152602001908152602001600020600082015181600001556020820151816001015560408201518160020160006101000a81548173ffffffffffffffffffffffffffffffffffffffff021916908373ffffffffffffffffffffffffffffffffffffffff16021790555060608201518160030160006101000a81548173ffffffffffffffffffffffffffffffffffffffff021916908373ffffffffffffffffffffffffffffffffffffffff1602179055506080820151816004019081611e7e9190615120565b5060a0820151816005015560c08201518160060160006101000a81548160ff02191690831515021790555060e08201518160060160016101000a81548160ff021916908315150217905550905050600042905060006040518060a0016040528083815260200142815260200142815260200142815260200142815250905080600d60008a815260200190815260200160002060008201518160000155602082015181600101556040820151816002015560608201518160030155608082015181600401559050506001945050505050979650505050505050565b60006003600e60008481526020019081526020016000206005015414611fb3576040517f08c379a0000000000000000000000000000000000000000000000000000000008152600401611faa90615264565b60405180910390fd5b60011515600e600084815260200190815260200160002060060160019054906101000a900460ff1615151461201d576040517f08c379a000000000000000000000000000000000000000000000000000000000815260040161201490614f54565b60405180910390fd5b42600d6000848152602001908152602001600020600301819055506004600e60008481526020019081526020016000206005018190555060019050919050565b60606001805461206c90614eb1565b80601f016020809104026020016040519081016040528092919081815260200182805461209890614eb1565b80156120e55780601f106120ba576101008083540402835291602001916120e5565b820191906000526020600020905b8154815290600101906020018083116120c857829003601f168201915b5050505050905090565b6121016120fa612fa0565b83836131d4565b5050565b6000801515600a600086815260200190815260200160002060080160019054906101000a900460ff16151514612170576040517f08c379a000000000000000000000000000000000000000000000000000000000815260040161216790615771565b60405180910390fd5b6000829050600015158173ffffffffffffffffffffffffffffffffffffffff1663b52e7576876040518263ffffffff1660e01b81526004016121b291906148a4565b602060405180830381865afa1580156121cf573d6000803e3d6000fd5b505050506040513d601f19601f820116820180604052508101906121f39190614dc3565b151514612235576040517f08c379a000000000000000000000000000000000000000000000000000000000815260040161222c90615803565b60405180910390fd5b600115158173ffffffffffffffffffffffffffffffffffffffff1663c23697a8866040518263ffffffff1660e01b815260040161227291906144f1565b602060405180830381865afa15801561228f573d6000803e3d6000fd5b505050506040513d601f19601f820116820180604052508101906122b39190614dc3565b1515146122f5576040517f08c379a00000000000000000000000000000000000000000000000000000000081526004016122ec90614e62565b60405180910390fd5b600115158173ffffffffffffffffffffffffffffffffffffffff1663e7fd1530876040518263ffffffff1660e01b815260040161233291906148a4565b602060405180830381865afa15801561234f573d6000803e3d6000fd5b505050506040513d601f19601f820116820180604052508101906123739190614dc3565b1515146123b5576040517f08c379a00000000000000000000000000000000000000000000000000000000081526004016123ac9061554f565b60405180910390fd5b600115158173ffffffffffffffffffffffffffffffffffffffff166368bdf242876040518263ffffffff1660e01b81526004016123f291906148a4565b602060405180830381865afa15801561240f573d6000803e3d6000fd5b505050506040513d601f19601f820116820180604052508101906124339190614dc3565b151514612475576040517f08c379a000000000000000000000000000000000000000000000000000000000815260040161246c906155bb565b60405180910390fd5b600b60008573ffffffffffffffffffffffffffffffffffffffff1673ffffffffffffffffffffffffffffffffffffffff16815260200190815260200160002085908060018154018082558091505060019003906000526020600020016000909190919091505560006040518061016001604052808781526020018673ffffffffffffffffffffffffffffffffffffffff168152602001600073ffffffffffffffffffffffffffffffffffffffff168152602001600073ffffffffffffffffffffffffffffffffffffffff1681526020016000815260200160008152602001600081526020016000815260200160001515815260200160011515815260200142815250905080600a60008881526020019081526020016000206000820151816000015560208201518160010160006101000a81548173ffffffffffffffffffffffffffffffffffffffff021916908373ffffffffffffffffffffffffffffffffffffffff16021790555060408201518160020160006101000a81548173ffffffffffffffffffffffffffffffffffffffff021916908373ffffffffffffffffffffffffffffffffffffffff16021790555060608201518160030160006101000a81548173ffffffffffffffffffffffffffffffffffffffff021916908373ffffffffffffffffffffffffffffffffffffffff1602179055506080820151816004015560a0820151816005015560c0820151816006015560e082015181600701556101008201518160080160006101000a81548160ff0219169083151502179055506101208201518160080160016101000a81548160ff021916908315150217905550610140820151816009015590505060098690806001815401808255809150506001900390600052602060002001600090919091909150556001925050509392505050565b61272584848461177e565b61273184848484613343565b50505050565b606061274282612edb565b50600060066000848152602001908152602001600020805461276390614eb1565b80601f016020809104026020016040519081016040528092919081815260200182805461278f90614eb1565b80156127dc5780601f106127b1576101008083540402835291602001916127dc565b820191906000526020600020905b8154815290600101906020018083116127bf57829003601f168201915b5050505050905060006127ed6134fa565b90506000815103612802578192505050612845565b60008251111561283757808260405160200161281f92919061585f565b60405160208183030381529060405292505050612845565b61284084613511565b925050505b919050565b600080612857600761357a565b90506128638482613588565b61286d8184613681565b61287760076136dd565b8091505092915050565b60606000825167ffffffffffffffff8111156128a05761289f6142eb565b5b6040519080825280602002602001820160405280156128d957816020015b6128c6613d05565b8152602001906001900390816128be5790505b50905060005b8351811015612acc576000600a600086848151811061290157612900614d08565b5b6020026020010151815260200190815260200160002060405180610160016040529081600082015481526020016001820160009054906101000a900473ffffffffffffffffffffffffffffffffffffffff1673ffffffffffffffffffffffffffffffffffffffff1673ffffffffffffffffffffffffffffffffffffffff1681526020016002820160009054906101000a900473ffffffffffffffffffffffffffffffffffffffff1673ffffffffffffffffffffffffffffffffffffffff1673ffffffffffffffffffffffffffffffffffffffff1681526020016003820160009054906101000a900473ffffffffffffffffffffffffffffffffffffffff1673ffffffffffffffffffffffffffffffffffffffff1673ffffffffffffffffffffffffffffffffffffffff168152602001600482015481526020016005820154815260200160068201548152602001600782015481526020016008820160009054906101000a900460ff161515151581526020016008820160019054906101000a900460ff16151515158152602001600982015481525050905080838381518110612aad57612aac614d08565b5b6020026020010181905250508080612ac490614d66565b9150506128df565b5080915050919050565b6000808290506004600e60008681526020019081526020016000206005015414612b35576040517f08c379a0000000000000000000000000000000000000000000000000000000008152600401612b2c90615264565b60405180910390fd5b60011515600e600086815260200190815260200160002060060160019054906101000a900460ff16151514612b9f576040517f08c379a0000000000000000000000000000000000000000000000000000000008152600401612b9690614f54565b60405180910390fd5b42600d6000868152602001908152602001600020600401819055506005600e6000868152602001908152602001600020600501819055506001600e600086815260200190815260200160002060060160006101000a81548160ff0219169083151502179055508073ffffffffffffffffffffffffffffffffffffffff1663ce294a55600e600087815260200190815260200160002060000154600e600088815260200190815260200160002060010154600e60008981526020019081526020016000206004016040518463ffffffff1660e01b8152600401612c8393929190615907565b6020604051808303816000875af1158015612ca2573d6000803e3d6000fd5b505050506040513d601f19601f82011682018060405250810190612cc69190614dc3565b508073ffffffffffffffffffffffffffffffffffffffff1663eb0c3f5b600e6000878152602001908152602001600020600001546040518263ffffffff1660e01b8152600401612d1691906148a4565b6020604051808303816000875af1158015612d35573d6000803e3d6000fd5b505050506040513d601f19601f82011682018060405250810190612d59919061595a565b50600191505092915050565b6000600560008473ffffffffffffffffffffffffffffffffffffffff1673ffffffffffffffffffffffffffffffffffffffff16815260200190815260200160002060008373ffffffffffffffffffffffffffffffffffffffff1673ffffffffffffffffffffffffffffffffffffffff16815260200190815260200160002060009054906101000a900460ff16905092915050565b60007f80ac58cd000000000000000000000000000000000000000000000000000000007bffffffffffffffffffffffffffffffffffffffffffffffffffffffff1916827bffffffffffffffffffffffffffffffffffffffffffffffffffffffff19161480612ec457507f5b5e139f000000000000000000000000000000000000000000000000000000007bffffffffffffffffffffffffffffffffffffffffffffffffffffffff1916827bffffffffffffffffffffffffffffffffffffffffffffffffffffffff1916145b80612ed45750612ed3826136f3565b5b9050919050565b600080612ee78361375d565b9050600073ffffffffffffffffffffffffffffffffffffffff168173ffffffffffffffffffffffffffffffffffffffff1603612f5a57826040517f7e273289000000000000000000000000000000000000000000000000000000008152600401612f5191906148a4565b60405180910390fd5b80915050919050565b60006004600083815260200190815260200160002060009054906101000a900473ffffffffffffffffffffffffffffffffffffffff169050919050565b600033905090565b612fb5838383600161379a565b505050565b600080612fc68461375d565b9050600073ffffffffffffffffffffffffffffffffffffffff168373ffffffffffffffffffffffffffffffffffffffff16146130085761300781848661395f565b5b600073ffffffffffffffffffffffffffffffffffffffff168173ffffffffffffffffffffffffffffffffffffffff16146130995761304a60008560008061379a565b6001600360008373ffffffffffffffffffffffffffffffffffffffff1673ffffffffffffffffffffffffffffffffffffffff168152602001908152602001600020600082825403925050819055505b600073ffffffffffffffffffffffffffffffffffffffff168573ffffffffffffffffffffffffffffffffffffffff161461311c576001600360008773ffffffffffffffffffffffffffffffffffffffff1673ffffffffffffffffffffffffffffffffffffffff168152602001908152602001600020600082825401925050819055505b846002600086815260200190815260200160002060006101000a81548173ffffffffffffffffffffffffffffffffffffffff021916908373ffffffffffffffffffffffffffffffffffffffff160217905550838573ffffffffffffffffffffffffffffffffffffffff168273ffffffffffffffffffffffffffffffffffffffff167fddf252ad1be2c89b69c2b068fc378daa952ba7f163c4a11628f55a4df523b3ef60405160405180910390a4809150509392505050565b600073ffffffffffffffffffffffffffffffffffffffff168273ffffffffffffffffffffffffffffffffffffffff160361324557816040517f5b08ba1800000000000000000000000000000000000000000000000000000000815260040161323c91906144f1565b60405180910390fd5b80600560008573ffffffffffffffffffffffffffffffffffffffff1673ffffffffffffffffffffffffffffffffffffffff16815260200190815260200160002060008473ffffffffffffffffffffffffffffffffffffffff1673ffffffffffffffffffffffffffffffffffffffff16815260200190815260200160002060006101000a81548160ff0219169083151502179055508173ffffffffffffffffffffffffffffffffffffffff168373ffffffffffffffffffffffffffffffffffffffff167f17307eab39ab6107e8899845ad3d59bd9653f200f220920489ca2b5937696c31836040516133369190614075565b60405180910390a3505050565b60008373ffffffffffffffffffffffffffffffffffffffff163b11156134f4578273ffffffffffffffffffffffffffffffffffffffff1663150b7a02613387612fa0565b8685856040518563ffffffff1660e01b81526004016133a994939291906159dc565b6020604051808303816000875af19250505080156133e557506040513d601f19601f820116820180604052508101906133e29190615a3d565b60015b613469573d8060008114613415576040519150601f19603f3d011682016040523d82523d6000602084013e61341a565b606091505b50600081510361346157836040517f64a0ae9200000000000000000000000000000000000000000000000000000000815260040161345891906144f1565b60405180910390fd5b805181602001fd5b63150b7a0260e01b7bffffffffffffffffffffffffffffffffffffffffffffffffffffffff1916817bffffffffffffffffffffffffffffffffffffffffffffffffffffffff1916146134f257836040517f64a0ae920000000000000000000000000000000000000000000000000000000081526004016134e991906144f1565b60405180910390fd5b505b50505050565b606060405180602001604052806000815250905090565b606061351c82612edb565b5060006135276134fa565b905060008151116135475760405180602001604052806000815250613572565b8061355184613a23565b60405160200161356292919061585f565b6040516020818303038152906040525b915050919050565b600081600001549050919050565b600073ffffffffffffffffffffffffffffffffffffffff168273ffffffffffffffffffffffffffffffffffffffff16036135fa5760006040517f64a0ae920000000000000000000000000000000000000000000000000000000081526004016135f191906144f1565b60405180910390fd5b600061360883836000612fba565b9050600073ffffffffffffffffffffffffffffffffffffffff168173ffffffffffffffffffffffffffffffffffffffff161461367c5760006040517f73c6ac6e00000000000000000000000000000000000000000000000000000000815260040161367391906144f1565b60405180910390fd5b505050565b806006600084815260200190815260200160002090816136a19190615120565b507ff8e1a15aba9398e019f0b49df1a4fde98ee17ae345cb5f6b5e2c27f5033e8ce7826040516136d191906148a4565b60405180910390a15050565b6001816000016000828254019250508190555050565b60007f01ffc9a7000000000000000000000000000000000000000000000000000000007bffffffffffffffffffffffffffffffffffffffffffffffffffffffff1916827bffffffffffffffffffffffffffffffffffffffffffffffffffffffff1916149050919050565b60006002600083815260200190815260200160002060009054906101000a900473ffffffffffffffffffffffffffffffffffffffff169050919050565b80806137d35750600073ffffffffffffffffffffffffffffffffffffffff168273ffffffffffffffffffffffffffffffffffffffff1614155b156139075760006137e384612edb565b9050600073ffffffffffffffffffffffffffffffffffffffff168373ffffffffffffffffffffffffffffffffffffffff161415801561384e57508273ffffffffffffffffffffffffffffffffffffffff168173ffffffffffffffffffffffffffffffffffffffff1614155b8015613861575061385f8184612d65565b155b156138a357826040517fa9fbf51f00000000000000000000000000000000000000000000000000000000815260040161389a91906144f1565b60405180910390fd5b811561390557838573ffffffffffffffffffffffffffffffffffffffff168273ffffffffffffffffffffffffffffffffffffffff167f8c5be1e5ebec7d5bd14f71427d1e84f3dd0314c0f7b2291e5b200ac8c7c3b92560405160405180910390a45b505b836004600085815260200190815260200160002060006101000a81548173ffffffffffffffffffffffffffffffffffffffff021916908373ffffffffffffffffffffffffffffffffffffffff16021790555050505050565b61396a838383613af1565b613a1e57600073ffffffffffffffffffffffffffffffffffffffff168373ffffffffffffffffffffffffffffffffffffffff16036139df57806040517f7e2732890000000000000000000000000000000000000000000000000000000081526004016139d691906148a4565b60405180910390fd5b81816040517f177e802f000000000000000000000000000000000000000000000000000000008152600401613a15929190615a6a565b60405180910390fd5b505050565b606060006001613a3284613bb2565b01905060008167ffffffffffffffff811115613a5157613a506142eb565b5b6040519080825280601f01601f191660200182016040528015613a835781602001600182028036833780820191505090505b509050600082602001820190505b600115613ae6578080600190039150507f3031323334353637383961626364656600000000000000000000000000000000600a86061a8153600a8581613ada57613ad9615a93565b5b04945060008503613a91575b819350505050919050565b60008073ffffffffffffffffffffffffffffffffffffffff168373ffffffffffffffffffffffffffffffffffffffff1614158015613ba957508273ffffffffffffffffffffffffffffffffffffffff168473ffffffffffffffffffffffffffffffffffffffff161480613b6a5750613b698484612d65565b5b80613ba857508273ffffffffffffffffffffffffffffffffffffffff16613b9083612f63565b73ffffffffffffffffffffffffffffffffffffffff16145b5b90509392505050565b600080600090507a184f03e93ff9f4daa797ed6e38ed64bf6a1f0100000000000000008310613c10577a184f03e93ff9f4daa797ed6e38ed64bf6a1f0100000000000000008381613c0657613c05615a93565b5b0492506040810190505b6d04ee2d6d415b85acef81000000008310613c4d576d04ee2d6d415b85acef81000000008381613c4357613c42615a93565b5b0492506020810190505b662386f26fc100008310613c7c57662386f26fc100008381613c7257613c71615a93565b5b0492506010810190505b6305f5e1008310613ca5576305f5e1008381613c9b57613c9a615a93565b5b0492506008810190505b6127108310613cca576127108381613cc057613cbf615a93565b5b0492506004810190505b60648310613ced5760648381613ce357613ce2615a93565b5b0492506002810190505b600a8310613cfc576001810190505b80915050919050565b60405180610160016040528060008152602001600073ffffffffffffffffffffffffffffffffffffffff168152602001600073ffffffffffffffffffffffffffffffffffffffff168152602001600073ffffffffffffffffffffffffffffffffffffffff16815260200160008152602001600081526020016000815260200160008152602001600015158152602001600015158152602001600081525090565b600081519050919050565b600082825260208201905092915050565b6000819050602082019050919050565b6000819050919050565b613de481613dd1565b82525050565b600073ffffffffffffffffffffffffffffffffffffffff82169050919050565b6000613e1582613dea565b9050919050565b613e2581613e0a565b82525050565b60008115159050919050565b613e4081613e2b565b82525050565b61016082016000820151613e5d6000850182613ddb565b506020820151613e706020850182613e1c565b506040820151613e836040850182613e1c565b506060820151613e966060850182613e1c565b506080820151613ea96080850182613ddb565b5060a0820151613ebc60a0850182613ddb565b5060c0820151613ecf60c0850182613ddb565b5060e0820151613ee260e0850182613ddb565b50610100820151613ef7610100850182613e37565b50610120820151613f0c610120850182613e37565b50610140820151613f21610140850182613ddb565b50505050565b6000613f338383613e46565b6101608301905092915050565b6000602082019050919050565b6000613f5882613da5565b613f628185613db0565b9350613f6d83613dc1565b8060005b83811015613f9e578151613f858882613f27565b9750613f9083613f40565b925050600181019050613f71565b5085935050505092915050565b60006020820190508181036000830152613fc58184613f4d565b905092915050565b6000604051905090565b600080fd5b600080fd5b60007fffffffff0000000000000000000000000000000000000000000000000000000082169050919050565b61401681613fe1565b811461402157600080fd5b50565b6000813590506140338161400d565b92915050565b60006020828403121561404f5761404e613fd7565b5b600061405d84828501614024565b91505092915050565b61406f81613e2b565b82525050565b600060208201905061408a6000830184614066565b92915050565b61409981613e0a565b81146140a457600080fd5b50565b6000813590506140b681614090565b92915050565b600080604083850312156140d3576140d2613fd7565b5b60006140e1858286016140a7565b92505060206140f2858286016140a7565b9150509250929050565b600081519050919050565b600082825260208201905092915050565b6000819050602082019050919050565b60006141348383613ddb565b60208301905092915050565b6000602082019050919050565b6000614158826140fc565b6141628185614107565b935061416d83614118565b8060005b8381101561419e5781516141858882614128565b975061419083614140565b925050600181019050614171565b5085935050505092915050565b600060208201905081810360008301526141c5818461414d565b905092915050565b600081519050919050565b600082825260208201905092915050565b60005b838110156142075780820151818401526020810190506141ec565b60008484015250505050565b6000601f19601f8301169050919050565b600061422f826141cd565b61423981856141d8565b93506142498185602086016141e9565b61425281614213565b840191505092915050565b600060208201905081810360008301526142778184614224565b905092915050565b6000819050919050565b6142928161427f565b811461429d57600080fd5b50565b6000813590506142af81614289565b92915050565b6142be81613dd1565b81146142c957600080fd5b50565b6000813590506142db816142b5565b92915050565b600080fd5b600080fd5b7f4e487b7100000000000000000000000000000000000000000000000000000000600052604160045260246000fd5b61432382614213565b810181811067ffffffffffffffff82111715614342576143416142eb565b5b80604052505050565b6000614355613fcd565b9050614361828261431a565b919050565b600067ffffffffffffffff821115614381576143806142eb565b5b61438a82614213565b9050602081019050919050565b82818337600083830152505050565b60006143b96143b484614366565b61434b565b9050828152602081018484840111156143d5576143d46142e6565b5b6143e0848285614397565b509392505050565b600082601f8301126143fd576143fc6142e1565b5b813561440d8482602086016143a6565b91505092915050565b600080600080608085870312156144305761442f613fd7565b5b600061443e878288016142a0565b945050602061444f878288016142cc565b935050604085013567ffffffffffffffff8111156144705761446f613fdc565b5b61447c878288016143e8565b925050606085013567ffffffffffffffff81111561449d5761449c613fdc565b5b6144a9878288016143e8565b91505092959194509250565b6000602082840312156144cb576144ca613fd7565b5b60006144d9848285016142cc565b91505092915050565b6144eb81613e0a565b82525050565b600060208201905061450660008301846144e2565b92915050565b6000806040838503121561452357614522613fd7565b5b6000614531858286016140a7565b9250506020614542858286016142cc565b9150509250929050565b60006020828403121561456257614561613fd7565b5b6000614570848285016142a0565b91505092915050565b60008060008060008060c0878903121561459657614595613fd7565b5b60006145a489828a016142cc565b96505060206145b589828a016140a7565b95505060406145c689828a016140a7565b94505060606145d789828a016142cc565b93505060806145e889828a016142cc565b92505060a06145f989828a016140a7565b9150509295509295509295565b61460f81613dd1565b82525050565b60006101608201905061462b600083018e614606565b614638602083018d6144e2565b614645604083018c6144e2565b614652606083018b6144e2565b61465f608083018a614606565b61466c60a0830189614606565b61467960c0830188614606565b61468660e0830187614606565b614694610100830186614066565b6146a2610120830185614066565b6146b0610140830184614606565b9c9b505050505050505050505050565b600067ffffffffffffffff8211156146db576146da6142eb565b5b602082029050602081019050919050565b600080fd5b60006147046146ff846146c0565b61434b565b90508083825260208201905060208402830185811115614727576147266146ec565b5b835b81811015614750578061473c88826140a7565b845260208401935050602081019050614729565b5050509392505050565b600082601f83011261476f5761476e6142e1565b5b813561477f8482602086016146f1565b91505092915050565b6000806040838503121561479f5761479e613fd7565b5b600083013567ffffffffffffffff8111156147bd576147bc613fdc565b5b6147c98582860161475a565b92505060206147da858286016142cc565b9150509250929050565b600080604083850312156147fb576147fa613fd7565b5b6000614809858286016142cc565b925050602061481a858286016142cc565b9150509250929050565b60008060006060848603121561483d5761483c613fd7565b5b600061484b868287016140a7565b935050602061485c868287016140a7565b925050604061486d868287016142cc565b9150509250925092565b60006020828403121561488d5761488c613fd7565b5b600061489b848285016140a7565b91505092915050565b60006020820190506148b96000830184614606565b92915050565b600080600080600080600060e0888a0312156148de576148dd613fd7565b5b60006148ec8a828b016142cc565b97505060206148fd8a828b016142cc565b965050604061490e8a828b016140a7565b955050606061491f8a828b016140a7565b94505060806149308a828b016142a0565b93505060a088013567ffffffffffffffff81111561495157614950613fdc565b5b61495d8a828b016143e8565b92505060c061496e8a828b016140a7565b91505092959891949750929550565b61498681613e2b565b811461499157600080fd5b50565b6000813590506149a38161497d565b92915050565b600080604083850312156149c0576149bf613fd7565b5b60006149ce858286016140a7565b92505060206149df85828601614994565b9150509250929050565b600080600060608486031215614a0257614a01613fd7565b5b6000614a10868287016142cc565b9350506020614a21868287016140a7565b9250506040614a32868287016140a7565b9150509250925092565b600067ffffffffffffffff821115614a5757614a566142eb565b5b614a6082614213565b9050602081019050919050565b6000614a80614a7b84614a3c565b61434b565b905082815260208101848484011115614a9c57614a9b6142e6565b5b614aa7848285614397565b509392505050565b600082601f830112614ac457614ac36142e1565b5b8135614ad4848260208601614a6d565b91505092915050565b60008060008060808587031215614af757614af6613fd7565b5b6000614b05878288016140a7565b9450506020614b16878288016140a7565b9350506040614b27878288016142cc565b925050606085013567ffffffffffffffff811115614b4857614b47613fdc565b5b614b5487828801614aaf565b91505092959194509250565b60008060408385031215614b7757614b76613fd7565b5b6000614b85858286016140a7565b925050602083013567ffffffffffffffff811115614ba657614ba5613fdc565b5b614bb2858286016143e8565b9150509250929050565b600067ffffffffffffffff821115614bd757614bd66142eb565b5b602082029050602081019050919050565b6000614bfb614bf684614bbc565b61434b565b90508083825260208201905060208402830185811115614c1e57614c1d6146ec565b5b835b81811015614c475780614c3388826142cc565b845260208401935050602081019050614c20565b5050509392505050565b600082601f830112614c6657614c656142e1565b5b8135614c76848260208601614be8565b91505092915050565b600060208284031215614c9557614c94613fd7565b5b600082013567ffffffffffffffff811115614cb357614cb2613fdc565b5b614cbf84828501614c51565b91505092915050565b60008060408385031215614cdf57614cde613fd7565b5b6000614ced858286016142a0565b9250506020614cfe858286016140a7565b9150509250929050565b7f4e487b7100000000000000000000000000000000000000000000000000000000600052603260045260246000fd5b7f4e487b7100000000000000000000000000000000000000000000000000000000600052601160045260246000fd5b6000614d7182613dd1565b91507fffffffffffffffffffffffffffffffffffffffffffffffffffffffffffffffff8203614da357614da2614d37565b5b600182019050919050565b600081519050614dbd8161497d565b92915050565b600060208284031215614dd957614dd8613fd7565b5b6000614de784828501614dae565b91505092915050565b7f4e6f2073756368204d6574614d61736b20416464726573732e2e506c6561736560008201527f20436865636b2e2e212100000000000000000000000000000000000000000000602082015250565b6000614e4c602a836141d8565b9150614e5782614df0565b604082019050919050565b60006020820190508181036000830152614e7b81614e3f565b9050919050565b7f4e487b7100000000000000000000000000000000000000000000000000000000600052602260045260246000fd5b60006002820490506001821680614ec957607f821691505b602082108103614edc57614edb614e82565b5b50919050565b7f4e6f2073756368207472616e73706c616e742070726f636573732074616b696e60008201527f6720706c61636500000000000000000000000000000000000000000000000000602082015250565b6000614f3e6027836141d8565b9150614f4982614ee2565b604082019050919050565b60006020820190508181036000830152614f6d81614f31565b9050919050565b60008190508160005260206000209050919050565b60006020601f8301049050919050565b600082821b905092915050565b600060088302614fd67fffffffffffffffffffffffffffffffffffffffffffffffffffffffffffffffff82614f99565b614fe08683614f99565b95508019841693508086168417925050509392505050565b6000819050919050565b600061501d61501861501384613dd1565b614ff8565b613dd1565b9050919050565b6000819050919050565b61503783615002565b61504b61504382615024565b848454614fa6565b825550505050565b600090565b615060615053565b61506b81848461502e565b505050565b5b8181101561508f57615084600082615058565b600181019050615071565b5050565b601f8211156150d4576150a581614f74565b6150ae84614f89565b810160208510156150bd578190505b6150d16150c985614f89565b830182615070565b50505b505050565b600082821c905092915050565b60006150f7600019846008026150d9565b1980831691505092915050565b600061511083836150e6565b9150826002028217905092915050565b615129826141cd565b67ffffffffffffffff811115615142576151416142eb565b5b61514c8254614eb1565b615157828285615093565b600060209050601f83116001811461518a5760008415615178578287015190505b6151828582615104565b8655506151ea565b601f19841661519886614f74565b60005b828110156151c05784890151825560018201915060208501945060208101905061519b565b868310156151dd57848901516151d9601f8916826150e6565b8355505b6001600288020188555050505b505050505050565b7f536f72727920636f6d706c657465207468652070726576696f7573207374657060008201527f2066697273740000000000000000000000000000000000000000000000000000602082015250565b600061524e6026836141d8565b9150615259826151f2565b604082019050919050565b6000602082019050818103600083015261527d81615241565b9050919050565b7f446f6e6f72206973206e6f7420746865726520696e20746865206c6973742e5060008201527f6c65617365207665726966792e2e000000000000000000000000000000000000602082015250565b60006152e0602e836141d8565b91506152eb82615284565b604082019050919050565b6000602082019050818103600083015261530f816152d3565b9050919050565b7f596f7520617265206e6f7420746865206f776e6572206f66207468697320746f60008201527f6b656e0000000000000000000000000000000000000000000000000000000000602082015250565b60006153726023836141d8565b915061537d82615316565b604082019050919050565b600060208201905081810360008301526153a181615365565b9050919050565b7f596f757220617265206e6f7420616c6c6f77656420746f20706572666f726d2060008201527f74686973206f7065726174696f6e000000000000000000000000000000000000602082015250565b6000615404602e836141d8565b915061540f826153a8565b604082019050919050565b60006020820190508181036000830152615433816153f7565b9050919050565b7f596f752063616e206f6e6c7920646f206974206f6e6365000000000000000000600082015250565b60006154706017836141d8565b915061547b8261543a565b602082019050919050565b6000602082019050818103600083015261549f81615463565b9050919050565b60006060820190506154bb60008301866144e2565b6154c86020830185614606565b6154d560408301846144e2565b949350505050565b7f506c6561736520636865636b20616e642076657269667920796f757220446f6e60008201527f6f72204964212100000000000000000000000000000000000000000000000000602082015250565b60006155396027836141d8565b9150615544826154dd565b604082019050919050565b600060208201905081810360008301526155688161552c565b9050919050565b7f54686520476976656e20446f6e6f722069732072656a65637465642e2e212100600082015250565b60006155a5601f836141d8565b91506155b08261556f565b602082019050919050565b600060208201905081810360008301526155d481615598565b9050919050565b7f506c6561736520636865636b20616e642076657269667920796f75722052656360008201527f6965766572204964212100000000000000000000000000000000000000000000602082015250565b6000615637602a836141d8565b9150615642826155db565b604082019050919050565b600060208201905081810360008301526156668161562a565b9050919050565b7f54686520476976656e2052656369657665722069732072656a65637465642e2e60008201527f2121000000000000000000000000000000000000000000000000000000000000602082015250565b60006156c96022836141d8565b91506156d48261566d565b604082019050919050565b600060208201905081810360008301526156f8816156bc565b9050919050565b7f54686520446f6e6f7220697320616c72656164792070726573656e7420696e2060008201527f746865204c697374000000000000000000000000000000000000000000000000602082015250565b600061575b6028836141d8565b9150615766826156ff565b604082019050919050565b6000602082019050818103600083015261578a8161574e565b9050919050565b7f5468652050617469656e742063616e206e6f7420646f6e617465204f7267616e60008201527f7300000000000000000000000000000000000000000000000000000000000000602082015250565b60006157ed6021836141d8565b91506157f882615791565b604082019050919050565b6000602082019050818103600083015261581c816157e0565b9050919050565b600081905092915050565b6000615839826141cd565b6158438185615823565b93506158538185602086016141e9565b80840191505092915050565b600061586b828561582e565b9150615877828461582e565b91508190509392505050565b6000815461589081614eb1565b61589a81866141d8565b945060018216600081146158b557600181146158cb576158fe565b60ff1983168652811515602002860193506158fe565b6158d485614f74565b60005b838110156158f6578154818901526001820191506020810190506158d7565b808801955050505b50505092915050565b600060608201905061591c6000830186614606565b6159296020830185614606565b818103604083015261593b8184615883565b9050949350505050565b600081519050615954816142b5565b92915050565b6000602082840312156159705761596f613fd7565b5b600061597e84828501615945565b91505092915050565b600081519050919050565b600082825260208201905092915050565b60006159ae82615987565b6159b88185615992565b93506159c88185602086016141e9565b6159d181614213565b840191505092915050565b60006080820190506159f160008301876144e2565b6159fe60208301866144e2565b615a0b6040830185614606565b8181036060830152615a1d81846159a3565b905095945050505050565b600081519050615a378161400d565b92915050565b600060208284031215615a5357615a52613fd7565b5b6000615a6184828501615a28565b91505092915050565b6000604082019050615a7f60008301856144e2565b615a8c6020830184614606565b9392505050565b7f4e487b7100000000000000000000000000000000000000000000000000000000600052601260045260246000fdfea2646970667358221220054ea3e3826c4e7d4ce5ee7ab77d87ae5192523e45455ef3230470ef5af12ec164736f6c63430008140033",
  "linkReferences": {},
  "deployedLinkReferences": {}
}