{
  "_format": "hh-sol-artifact-1",
  "contractName": "register",
  "sourceName": "contracts/Signin.sol",
  "abi": [
    {
      "inputs": [],
      "stateMutability": "nonpayable",
      "type": "constructor"
    },
    {
      "inputs": [
        {
          "internalType": "address",
          "name": "sender",
          "type": "address"
        },
        {
          "internalType": "uint256",
          "name": "tokenId",
          "type": "uint256"
        },
        {
          "internalType": "address",
          "name": "owner",
          "type": "address"
        }
      ],
      "name": "ERC721IncorrectOwner",
      "type": "error"
    },
    {
      "inputs": [
        {
          "internalType": "address",
          "name": "operator",
          "type": "address"
        },
        {
          "internalType": "uint256",
          "name": "tokenId",
          "type": "uint256"
        }
      ],
      "name": "ERC721InsufficientApproval",
      "type": "error"
    },
    {
      "inputs": [
        {
          "internalType": "address",
          "name": "approver",
          "type": "address"
        }
      ],
      "name": "ERC721InvalidApprover",
      "type": "error"
    },
    {
      "inputs": [
        {
          "internalType": "address",
          "name": "operator",
          "type": "address"
        }
      ],
      "name": "ERC721InvalidOperator",
      "type": "error"
    },
    {
      "inputs": [
        {
          "internalType": "address",
          "name": "owner",
          "type": "address"
        }
      ],
      "name": "ERC721InvalidOwner",
      "type": "error"
    },
    {
      "inputs": [
        {
          "internalType": "address",
          "name": "receiver",
          "type": "address"
        }
      ],
      "name": "ERC721InvalidReceiver",
      "type": "error"
    },
    {
      "inputs": [
        {
          "internalType": "address",
          "name": "sender",
          "type": "address"
        }
      ],
      "name": "ERC721InvalidSender",
      "type": "error"
    },
    {
      "inputs": [
        {
          "internalType": "uint256",
          "name": "tokenId",
          "type": "uint256"
        }
      ],
      "name": "ERC721NonexistentToken",
      "type": "error"
    },
    {
      "anonymous": false,
      "inputs": [
        {
          "indexed": true,
          "internalType": "address",
          "name": "owner",
          "type": "address"
        },
        {
          "indexed": true,
          "internalType": "address",
          "name": "approved",
          "type": "address"
        },
        {
          "indexed": true,
          "internalType": "uint256",
          "name": "tokenId",
          "type": "uint256"
        }
      ],
      "name": "Approval",
      "type": "event"
    },
    {
      "anonymous": false,
      "inputs": [
        {
          "indexed": true,
          "internalType": "address",
          "name": "owner",
          "type": "address"
        },
        {
          "indexed": true,
          "internalType": "address",
          "name": "operator",
          "type": "address"
        },
        {
          "indexed": false,
          "internalType": "bool",
          "name": "approved",
          "type": "bool"
        }
      ],
      "name": "ApprovalForAll",
      "type": "event"
    },
    {
      "anonymous": false,
      "inputs": [
        {
          "indexed": false,
          "internalType": "uint256",
          "name": "_fromTokenId",
          "type": "uint256"
        },
        {
          "indexed": false,
          "internalType": "uint256",
          "name": "_toTokenId",
          "type": "uint256"
        }
      ],
      "name": "BatchMetadataUpdate",
      "type": "event"
    },
    {
      "anonymous": false,
      "inputs": [
        {
          "indexed": false,
          "internalType": "uint256",
          "name": "_tokenId",
          "type": "uint256"
        }
      ],
      "name": "MetadataUpdate",
      "type": "event"
    },
    {
      "anonymous": false,
      "inputs": [
        {
          "indexed": true,
          "internalType": "address",
          "name": "from",
          "type": "address"
        },
        {
          "indexed": true,
          "internalType": "address",
          "name": "to",
          "type": "address"
        },
        {
          "indexed": true,
          "internalType": "uint256",
          "name": "tokenId",
          "type": "uint256"
        }
      ],
      "name": "Transfer",
      "type": "event"
    },
    {
      "inputs": [
        {
          "internalType": "address",
          "name": "to",
          "type": "address"
        },
        {
          "internalType": "uint256",
          "name": "tokenId",
          "type": "uint256"
        }
      ],
      "name": "approve",
      "outputs": [],
      "stateMutability": "nonpayable",
      "type": "function"
    },
    {
      "inputs": [
        {
          "internalType": "address",
          "name": "player",
          "type": "address"
        },
        {
          "internalType": "string",
          "name": "tokenURI",
          "type": "string"
        }
      ],
      "name": "awardItem",
      "outputs": [
        {
          "internalType": "uint256",
          "name": "",
          "type": "uint256"
        }
      ],
      "stateMutability": "nonpayable",
      "type": "function"
    },
    {
      "inputs": [
        {
          "internalType": "address",
          "name": "owner",
          "type": "address"
        }
      ],
      "name": "balanceOf",
      "outputs": [
        {
          "internalType": "uint256",
          "name": "",
          "type": "uint256"
        }
      ],
      "stateMutability": "view",
      "type": "function"
    },
    {
      "inputs": [
        {
          "internalType": "address",
          "name": "id",
          "type": "address"
        }
      ],
      "name": "check",
      "outputs": [
        {
          "internalType": "bool",
          "name": "",
          "type": "bool"
        }
      ],
      "stateMutability": "view",
      "type": "function"
    },
    {
      "inputs": [
        {
          "internalType": "uint256",
          "name": "id",
          "type": "uint256"
        }
      ],
      "name": "checkDonor",
      "outputs": [
        {
          "internalType": "bool",
          "name": "",
          "type": "bool"
        }
      ],
      "stateMutability": "view",
      "type": "function"
    },
    {
      "inputs": [
        {
          "internalType": "uint256",
          "name": "id",
          "type": "uint256"
        }
      ],
      "name": "checkReceive",
      "outputs": [
        {
          "internalType": "bool",
          "name": "",
          "type": "bool"
        }
      ],
      "stateMutability": "view",
      "type": "function"
    },
    {
      "inputs": [
        {
          "internalType": "uint256",
          "name": "tokenId",
          "type": "uint256"
        }
      ],
      "name": "getApproved",
      "outputs": [
        {
          "internalType": "address",
          "name": "",
          "type": "address"
        }
      ],
      "stateMutability": "view",
      "type": "function"
    },
    {
      "inputs": [],
      "name": "getDonorId",
      "outputs": [
        {
          "internalType": "uint256",
          "name": "",
          "type": "uint256"
        }
      ],
      "stateMutability": "view",
      "type": "function"
    },
    {
      "inputs": [],
      "name": "getRecieverId",
      "outputs": [
        {
          "internalType": "uint256",
          "name": "",
          "type": "uint256"
        }
      ],
      "stateMutability": "view",
      "type": "function"
    },
    {
      "inputs": [
        {
          "internalType": "uint256",
          "name": "id",
          "type": "uint256"
        }
      ],
      "name": "getRegDonor",
      "outputs": [
        {
          "components": [
            {
              "internalType": "address",
              "name": "metamask_address",
              "type": "address"
            },
            {
              "internalType": "string",
              "name": "hla",
              "type": "string"
            },
            {
              "internalType": "string",
              "name": "bloodgrp",
              "type": "string"
            },
            {
              "internalType": "string[]",
              "name": "organs",
              "type": "string[]"
            },
            {
              "internalType": "bool",
              "name": "flag",
              "type": "bool"
            }
          ],
          "internalType": "struct register.RegDonor",
          "name": "",
          "type": "tuple"
        }
      ],
      "stateMutability": "view",
      "type": "function"
    },
    {
      "inputs": [
        {
          "internalType": "uint256",
          "name": "id",
          "type": "uint256"
        }
      ],
      "name": "getRegReceive",
      "outputs": [
        {
          "components": [
            {
              "internalType": "address",
              "name": "metamask_address",
              "type": "address"
            },
            {
              "internalType": "string",
              "name": "hla",
              "type": "string"
            },
            {
              "internalType": "string",
              "name": "bloodgrp",
              "type": "string"
            },
            {
              "internalType": "string[]",
              "name": "organs",
              "type": "string[]"
            },
            {
              "internalType": "bool",
              "name": "flag",
              "type": "bool"
            }
          ],
          "internalType": "struct register.RegRecieve",
          "name": "",
          "type": "tuple"
        }
      ],
      "stateMutability": "view",
      "type": "function"
    },
    {
      "inputs": [
        {
          "internalType": "address",
          "name": "owner",
          "type": "address"
        },
        {
          "internalType": "address",
          "name": "operator",
          "type": "address"
        }
      ],
      "name": "isApprovedForAll",
      "outputs": [
        {
          "internalType": "bool",
          "name": "",
          "type": "bool"
        }
      ],
      "stateMutability": "view",
      "type": "function"
    },
    {
      "inputs": [
        {
          "internalType": "uint256",
          "name": "id",
          "type": "uint256"
        }
      ],
      "name": "matchDonorwReceiver",
      "outputs": [
        {
          "components": [
            {
              "internalType": "address",
              "name": "metamask_address",
              "type": "address"
            },
            {
              "internalType": "string",
              "name": "hla",
              "type": "string"
            },
            {
              "internalType": "string",
              "name": "bloodgrp",
              "type": "string"
            },
            {
              "internalType": "string[]",
              "name": "organs",
              "type": "string[]"
            },
            {
              "internalType": "bool",
              "name": "flag",
              "type": "bool"
            }
          ],
          "internalType": "struct register.RegRecieve[]",
          "name": "",
          "type": "tuple[]"
        }
      ],
      "stateMutability": "nonpayable",
      "type": "function"
    },
    {
      "inputs": [],
      "name": "name",
      "outputs": [
        {
          "internalType": "string",
          "name": "",
          "type": "string"
        }
      ],
      "stateMutability": "view",
      "type": "function"
    },
    {
      "inputs": [
        {
          "internalType": "uint256",
          "name": "tokenId",
          "type": "uint256"
        }
      ],
      "name": "ownerOf",
      "outputs": [
        {
          "internalType": "address",
          "name": "",
          "type": "address"
        }
      ],
      "stateMutability": "view",
      "type": "function"
    },
    {
      "inputs": [],
      "name": "printArraydonor",
      "outputs": [
        {
          "internalType": "uint256[]",
          "name": "",
          "type": "uint256[]"
        }
      ],
      "stateMutability": "view",
      "type": "function"
    },
    {
      "inputs": [],
      "name": "printArrayreceiver",
      "outputs": [
        {
          "internalType": "uint256[]",
          "name": "",
          "type": "uint256[]"
        }
      ],
      "stateMutability": "view",
      "type": "function"
    },
    {
      "inputs": [],
      "name": "receiverMatched",
      "outputs": [
        {
          "internalType": "uint256[]",
          "name": "",
          "type": "uint256[]"
        }
      ],
      "stateMutability": "view",
      "type": "function"
    },
    {
      "inputs": [
        {
          "internalType": "address",
          "name": "metamask_address",
          "type": "address"
        },
        {
          "internalType": "string",
          "name": "hla",
          "type": "string"
        },
        {
          "internalType": "string",
          "name": "bloodgrp",
          "type": "string"
        },
        {
          "internalType": "string[]",
          "name": "organs",
          "type": "string[]"
        },
        {
          "internalType": "bool",
          "name": "status",
          "type": "bool"
        }
      ],
      "name": "registerDonor",
      "outputs": [],
      "stateMutability": "nonpayable",
      "type": "function"
    },
    {
      "inputs": [
        {
          "internalType": "string",
          "name": "name",
          "type": "string"
        },
        {
          "internalType": "uint256",
          "name": "hospital_id",
          "type": "uint256"
        },
        {
          "internalType": "address",
          "name": "metamask_address",
          "type": "address"
        }
      ],
      "name": "registerHospital",
      "outputs": [],
      "stateMutability": "payable",
      "type": "function"
    },
    {
      "inputs": [
        {
          "internalType": "address",
          "name": "metamask_address",
          "type": "address"
        },
        {
          "internalType": "string",
          "name": "hla",
          "type": "string"
        },
        {
          "internalType": "string",
          "name": "bloodgrp",
          "type": "string"
        },
        {
          "internalType": "string[]",
          "name": "organs",
          "type": "string[]"
        },
        {
          "internalType": "bool",
          "name": "status",
          "type": "bool"
        }
      ],
      "name": "registerReceive",
      "outputs": [],
      "stateMutability": "nonpayable",
      "type": "function"
    },
    {
      "inputs": [
        {
          "internalType": "address",
          "name": "from",
          "type": "address"
        },
        {
          "internalType": "address",
          "name": "to",
          "type": "address"
        },
        {
          "internalType": "uint256",
          "name": "tokenId",
          "type": "uint256"
        }
      ],
      "name": "safeTransferFrom",
      "outputs": [],
      "stateMutability": "nonpayable",
      "type": "function"
    },
    {
      "inputs": [
        {
          "internalType": "address",
          "name": "from",
          "type": "address"
        },
        {
          "internalType": "address",
          "name": "to",
          "type": "address"
        },
        {
          "internalType": "uint256",
          "name": "tokenId",
          "type": "uint256"
        },
        {
          "internalType": "bytes",
          "name": "data",
          "type": "bytes"
        }
      ],
      "name": "safeTransferFrom",
      "outputs": [],
      "stateMutability": "nonpayable",
      "type": "function"
    },
    {
      "inputs": [
        {
          "internalType": "address",
          "name": "operator",
          "type": "address"
        },
        {
          "internalType": "bool",
          "name": "approved",
          "type": "bool"
        }
      ],
      "name": "setApprovalForAll",
      "outputs": [],
      "stateMutability": "nonpayable",
      "type": "function"
    },
    {
      "inputs": [
        {
          "internalType": "bytes4",
          "name": "interfaceId",
          "type": "bytes4"
        }
      ],
      "name": "supportsInterface",
      "outputs": [
        {
          "internalType": "bool",
          "name": "",
          "type": "bool"
        }
      ],
      "stateMutability": "view",
      "type": "function"
    },
    {
      "inputs": [],
      "name": "symbol",
      "outputs": [
        {
          "internalType": "string",
          "name": "",
          "type": "string"
        }
      ],
      "stateMutability": "view",
      "type": "function"
    },
    {
      "inputs": [
        {
          "internalType": "uint256",
          "name": "tokenId",
          "type": "uint256"
        }
      ],
      "name": "tokenURI",
      "outputs": [
        {
          "internalType": "string",
          "name": "",
          "type": "string"
        }
      ],
      "stateMutability": "view",
      "type": "function"
    },
    {
      "inputs": [
        {
          "internalType": "address",
          "name": "from",
          "type": "address"
        },
        {
          "internalType": "address",
          "name": "to",
          "type": "address"
        },
        {
          "internalType": "uint256",
          "name": "tokenId",
          "type": "uint256"
        }
      ],
      "name": "transferFrom",
      "outputs": [],
      "stateMutability": "nonpayable",
      "type": "function"
    }
  ],
  "bytecode": "0x608060405260006013553480156200001657600080fd5b506040518060400160405280600f81526020017f4f726167616e20446f6e6174696f6e00000000000000000000000000000000008152506040518060400160405280600281526020017f4f44000000000000000000000000000000000000000000000000000000000000815250816000908162000094919062000329565b508060019081620000a6919062000329565b50505062000410565b600081519050919050565b7f4e487b7100000000000000000000000000000000000000000000000000000000600052604160045260246000fd5b7f4e487b7100000000000000000000000000000000000000000000000000000000600052602260045260246000fd5b600060028204905060018216806200013157607f821691505b602082108103620001475762000146620000e9565b5b50919050565b60008190508160005260206000209050919050565b60006020601f8301049050919050565b600082821b905092915050565b600060088302620001b17fffffffffffffffffffffffffffffffffffffffffffffffffffffffffffffffff8262000172565b620001bd868362000172565b95508019841693508086168417925050509392505050565b6000819050919050565b6000819050919050565b60006200020a62000204620001fe84620001d5565b620001df565b620001d5565b9050919050565b6000819050919050565b6200022683620001e9565b6200023e620002358262000211565b8484546200017f565b825550505050565b600090565b6200025562000246565b620002628184846200021b565b505050565b5b818110156200028a576200027e6000826200024b565b60018101905062000268565b5050565b601f821115620002d957620002a3816200014d565b620002ae8462000162565b81016020851015620002be578190505b620002d6620002cd8562000162565b83018262000267565b50505b505050565b600082821c905092915050565b6000620002fe60001984600802620002de565b1980831691505092915050565b6000620003198383620002eb565b9150826002028217905092915050565b6200033482620000af565b67ffffffffffffffff81111562000350576200034f620000ba565b5b6200035c825462000118565b620003698282856200028e565b600060209050601f831160018114620003a157600084156200038c578287015190505b6200039885826200030b565b86555062000408565b601f198416620003b1866200014d565b60005b82811015620003db57848901518255600182019150602085019450602081019050620003b4565b86831015620003fb5784890151620003f7601f891682620002eb565b8355505b6001600288020188555050505b505050505050565b6147b780620004206000396000f3fe6080604052600436106101b75760003560e01c8063924455f1116100ec578063c23697a81161008a578063e7fd153011610064578063e7fd15301461066d578063e985e9c5146106aa578063efe80f53146106e7578063f7e3d58714610712576101b7565b8063c23697a8146105b6578063c87b56dd146105f3578063cf37834314610630576101b7565b8063a22cb465116100c6578063a22cb465146104ea578063a8cb694214610513578063b73d517914610550578063b88d4fde1461058d576101b7565b8063924455f11461047857806393237d571461049457806395d89b41146104bf576101b7565b80633754c2e6116101595780636352211e116101335780636352211e146103965780636b2ecebc146103d357806370a08231146103fe57806376607bae1461043b576101b7565b80633754c2e6146103195780633e79dee91461034457806342842e0e1461036d576101b7565b8063083ce91211610195578063083ce91214610261578063095ea7b31461029e57806323b872dd146102c75780633198479f146102f0576101b7565b806301ffc9a7146101bc57806306fdde03146101f9578063081812fc14610224575b600080fd5b3480156101c857600080fd5b506101e360048036038101906101de919061324f565b61073d565b6040516101f09190613297565b60405180910390f35b34801561020557600080fd5b5061020e61079e565b60405161021b9190613342565b60405180910390f35b34801561023057600080fd5b5061024b6004803603810190610246919061339a565b610830565b6040516102589190613408565b60405180910390f35b34801561026d57600080fd5b506102886004803603810190610283919061339a565b61084c565b6040516102959190613693565b60405180910390f35b3480156102aa57600080fd5b506102c560048036038101906102c091906136e1565b610df5565b005b3480156102d357600080fd5b506102ee60048036038101906102e99190613721565b610e0b565b005b3480156102fc57600080fd5b50610317600480360381019061031291906139bb565b610f0d565b005b34801561032557600080fd5b5061032e6111ff565b60405161033b9190613b48565b60405180910390f35b34801561035057600080fd5b5061036b600480360381019061036691906139bb565b611257565b005b34801561037957600080fd5b50610394600480360381019061038f9190613721565b611549565b005b3480156103a257600080fd5b506103bd60048036038101906103b8919061339a565b611569565b6040516103ca9190613408565b60405180910390f35b3480156103df57600080fd5b506103e861157b565b6040516103f59190613b48565b60405180910390f35b34801561040a57600080fd5b5061042560048036038101906104209190613b6a565b6115d3565b6040516104329190613ba6565b60405180910390f35b34801561044757600080fd5b50610462600480360381019061045d919061339a565b61168d565b60405161046f9190613c45565b60405180910390f35b610492600480360381019061048d9190613c67565b611928565b005b3480156104a057600080fd5b506104a9611a5b565b6040516104b69190613ba6565b60405180910390f35b3480156104cb57600080fd5b506104d4611a92565b6040516104e19190613342565b60405180910390f35b3480156104f657600080fd5b50610511600480360381019061050c9190613cd6565b611b24565b005b34801561051f57600080fd5b5061053a6004803603810190610535919061339a565b611b3a565b6040516105479190613297565b60405180910390f35b34801561055c57600080fd5b506105776004803603810190610572919061339a565b611b67565b6040516105849190613d9a565b60405180910390f35b34801561059957600080fd5b506105b460048036038101906105af9190613e5d565b611e02565b005b3480156105c257600080fd5b506105dd60048036038101906105d89190613b6a565b611e1f565b6040516105ea9190613297565b60405180910390f35b3480156105ff57600080fd5b5061061a6004803603810190610615919061339a565b611e78565b6040516106279190613342565b60405180910390f35b34801561063c57600080fd5b5061065760048036038101906106529190613ee0565b611f8b565b6040516106649190613ba6565b60405180910390f35b34801561067957600080fd5b50610694600480360381019061068f919061339a565b611fc2565b6040516106a19190613297565b60405180910390f35b3480156106b657600080fd5b506106d160048036038101906106cc9190613f3c565b611fef565b6040516106de9190613297565b60405180910390f35b3480156106f357600080fd5b506106fc612083565b6040516107099190613b48565b60405180910390f35b34801561071e57600080fd5b506107276120db565b6040516107349190613ba6565b60405180910390f35b6000634906490660e01b7bffffffffffffffffffffffffffffffffffffffffffffffffffffffff1916827bffffffffffffffffffffffffffffffffffffffffffffffffffffffff19161480610797575061079682612112565b5b9050919050565b6060600080546107ad90613fab565b80601f01602080910402602001604051908101604052809291908181526020018280546107d990613fab565b80156108265780601f106107fb57610100808354040283529160200191610826565b820191906000526020600020905b81548152906001019060200180831161080957829003601f168201915b5050505050905090565b600061083b826121f4565b506108458261227c565b9050919050565b606060005b600980549050811015610b2757600f60006009838154811061087657610875613fdc565b5b906000526020600020015481526020019081526020016000206002016040516020016108a291906140a4565b60405160208183030381529060405280519060200120600d60008581526020019081526020016000206002016040516020016108de91906140a4565b604051602081830303815290604052805190602001201480156109945750600f60006009838154811061091457610913613fdc565b5b9060005260206000200154815260200190815260200160002060010160405160200161094091906140a4565b60405160208183030381529060405280519060200120600d600085815260200190815260200160002060010160405160200161097c91906140a4565b60405160208183030381529060405280519060200120145b15610b14576012600f6000600984815481106109b3576109b2613fdc565b5b9060005260206000200154815260200190815260200160002090806001815401808255809150506001900390600052602060002090600502016000909190919091506000820160009054906101000a900473ffffffffffffffffffffffffffffffffffffffff168160000160006101000a81548173ffffffffffffffffffffffffffffffffffffffff021916908373ffffffffffffffffffffffffffffffffffffffff16021790555060018201816001019081610a709190614273565b5060028201816002019081610a859190614273565b506003820181600301908054610a9c92919061301e565b506004820160009054906101000a900460ff168160040160006101000a81548160ff0219169083151502179055505050600a60098281548110610ae257610ae1613fdc565b5b906000526020600020015490806001815401808255809150506001900390600052602060002001600090919091909150555b8080610b1f9061438a565b915050610851565b506012805480602002602001604051908101604052809291908181526020016000905b82821015610dea57838290600052602060002090600502016040518060a00160405290816000820160009054906101000a900473ffffffffffffffffffffffffffffffffffffffff1673ffffffffffffffffffffffffffffffffffffffff1673ffffffffffffffffffffffffffffffffffffffff168152602001600182018054610bd390613fab565b80601f0160208091040260200160405190810160405280929190818152602001828054610bff90613fab565b8015610c4c5780601f10610c2157610100808354040283529160200191610c4c565b820191906000526020600020905b815481529060010190602001808311610c2f57829003601f168201915b50505050508152602001600282018054610c6590613fab565b80601f0160208091040260200160405190810160405280929190818152602001828054610c9190613fab565b8015610cde5780601f10610cb357610100808354040283529160200191610cde565b820191906000526020600020905b815481529060010190602001808311610cc157829003601f168201915b5050505050815260200160038201805480602002602001604051908101604052809291908181526020016000905b82821015610db8578382906000526020600020018054610d2b90613fab565b80601f0160208091040260200160405190810160405280929190818152602001828054610d5790613fab565b8015610da45780601f10610d7957610100808354040283529160200191610da4565b820191906000526020600020905b815481529060010190602001808311610d8757829003601f168201915b505050505081526020019060010190610d0c565b5050505081526020016004820160009054906101000a900460ff16151515158152505081526020019060010190610b4a565b505050509050919050565b610e078282610e026122b9565b6122c1565b5050565b600073ffffffffffffffffffffffffffffffffffffffff168273ffffffffffffffffffffffffffffffffffffffff1603610e7d5760006040517f64a0ae92000000000000000000000000000000000000000000000000000000008152600401610e749190613408565b60405180910390fd5b6000610e918383610e8c6122b9565b6122d3565b90508373ffffffffffffffffffffffffffffffffffffffff168173ffffffffffffffffffffffffffffffffffffffff1614610f07578382826040517f64283d7b000000000000000000000000000000000000000000000000000000008152600401610efe939291906143d2565b60405180910390fd5b50505050565b60006040518060a001604052808773ffffffffffffffffffffffffffffffffffffffff16815260200186815260200185815260200184815260200160011515815250905060136000815480929190610f649061438a565b919050555060005b620f42404233601354604051602001610f8793929190614472565b6040516020818303038152906040528051906020012060001c610faa91906144de565b9050600115156011600083815260200190815260200160002060009054906101000a900460ff16151514610f6c5760016011600083815260200190815260200160002060006101000a81548160ff02191690831515021790555060011515831515036111055781600f600083815260200190815260200160002060008201518160000160006101000a81548173ffffffffffffffffffffffffffffffffffffffff021916908373ffffffffffffffffffffffffffffffffffffffff1602179055506020820151816001019081611080919061450f565b506040820151816002019081611096919061450f565b5060608201518160030190805190602001906110b392919061307b565b5060808201518160040160006101000a81548160ff02191690831515021790555090505060098190806001815401808255809150506001900390600052602060002001600090919091909150556111f6565b816010600083815260200190815260200160002060008201518160000160006101000a81548173ffffffffffffffffffffffffffffffffffffffff021916908373ffffffffffffffffffffffffffffffffffffffff1602179055506020820151816001019081611175919061450f565b50604082015181600201908161118b919061450f565b5060608201518160030190805190602001906111a892919061307b565b5060808201518160040160006101000a81548160ff02191690831515021790555090505060098190806001815401808255809150506001900390600052602060002001600090919091909150555b50505050505050565b6060600880548060200260200160405190810160405280929190818152602001828054801561124d57602002820191906000526020600020905b815481526020019060010190808311611239575b5050505050905090565b60006040518060a001604052808773ffffffffffffffffffffffffffffffffffffffff168152602001868152602001858152602001848152602001600115158152509050601360008154809291906112ae9061438a565b919050555060005b620f424042336013546040516020016112d193929190614472565b6040516020818303038152906040528051906020012060001c6112f491906144de565b9050600115156011600083815260200190815260200160002060009054906101000a900460ff161515146112b65760016011600083815260200190815260200160002060006101000a81548160ff021916908315150217905550600115158315150361144f5781600d600083815260200190815260200160002060008201518160000160006101000a81548173ffffffffffffffffffffffffffffffffffffffff021916908373ffffffffffffffffffffffffffffffffffffffff16021790555060208201518160010190816113ca919061450f565b5060408201518160020190816113e0919061450f565b5060608201518160030190805190602001906113fd92919061307b565b5060808201518160040160006101000a81548160ff0219169083151502179055509050506008819080600181540180825580915050600190039060005260206000200160009091909190915055611540565b81600e600083815260200190815260200160002060008201518160000160006101000a81548173ffffffffffffffffffffffffffffffffffffffff021916908373ffffffffffffffffffffffffffffffffffffffff16021790555060208201518160010190816114bf919061450f565b5060408201518160020190816114d5919061450f565b5060608201518160030190805190602001906114f292919061307b565b5060808201518160040160006101000a81548160ff02191690831515021790555090505060088190806001815401808255809150506001900390600052602060002001600090919091909150555b50505050505050565b61156483838360405180602001604052806000815250611e02565b505050565b6000611574826121f4565b9050919050565b606060098054806020026020016040519081016040528092919081815260200182805480156115c957602002820191906000526020600020905b8154815260200190600101908083116115b5575b5050505050905090565b60008073ffffffffffffffffffffffffffffffffffffffff168273ffffffffffffffffffffffffffffffffffffffff16036116465760006040517f89c62b6400000000000000000000000000000000000000000000000000000000815260040161163d9190613408565b60405180910390fd5b600360008373ffffffffffffffffffffffffffffffffffffffff1673ffffffffffffffffffffffffffffffffffffffff168152602001908152602001600020549050919050565b6116956130d4565b600f60008381526020019081526020016000206040518060a00160405290816000820160009054906101000a900473ffffffffffffffffffffffffffffffffffffffff1673ffffffffffffffffffffffffffffffffffffffff1673ffffffffffffffffffffffffffffffffffffffff16815260200160018201805461171990613fab565b80601f016020809104026020016040519081016040528092919081815260200182805461174590613fab565b80156117925780601f1061176757610100808354040283529160200191611792565b820191906000526020600020905b81548152906001019060200180831161177557829003601f168201915b505050505081526020016002820180546117ab90613fab565b80601f01602080910402602001604051908101604052809291908181526020018280546117d790613fab565b80156118245780601f106117f957610100808354040283529160200191611824565b820191906000526020600020905b81548152906001019060200180831161180757829003601f168201915b5050505050815260200160038201805480602002602001604051908101604052809291908181526020016000905b828210156118fe57838290600052602060002001805461187190613fab565b80601f016020809104026020016040519081016040528092919081815260200182805461189d90613fab565b80156118ea5780601f106118bf576101008083540402835291602001916118ea565b820191906000526020600020905b8154815290600101906020018083116118cd57829003601f168201915b505050505081526020019060010190611852565b5050505081526020016004820160009054906101000a900460ff1615151515815250509050919050565b6000604051806080016040528085815260200184815260200142815260200160011515815250905080600b60008473ffffffffffffffffffffffffffffffffffffffff1673ffffffffffffffffffffffffffffffffffffffff16815260200190815260200160002060008201518160000190816119a5919061450f565b50602082015181600101556040820151816002015560608201518160030160006101000a81548160ff021916908315150217905550905050600c8190806001815401808255809150506001900390600052602060002090600402016000909190919091506000820151816000019081611a1e919061450f565b50602082015181600101556040820151816002015560608201518160030160006101000a81548160ff021916908315150217905550505050505050565b600060086001600880549050611a7191906145e1565b81548110611a8257611a81613fdc565b5b9060005260206000200154905090565b606060018054611aa190613fab565b80601f0160208091040260200160405190810160405280929190818152602001828054611acd90613fab565b8015611b1a5780601f10611aef57610100808354040283529160200191611b1a565b820191906000526020600020905b815481529060010190602001808311611afd57829003601f168201915b5050505050905090565b611b36611b2f6122b9565b83836124ed565b5050565b6000600f600083815260200190815260200160002060040160009054906101000a900460ff169050919050565b611b6f61311b565b600d60008381526020019081526020016000206040518060a00160405290816000820160009054906101000a900473ffffffffffffffffffffffffffffffffffffffff1673ffffffffffffffffffffffffffffffffffffffff1673ffffffffffffffffffffffffffffffffffffffff168152602001600182018054611bf390613fab565b80601f0160208091040260200160405190810160405280929190818152602001828054611c1f90613fab565b8015611c6c5780601f10611c4157610100808354040283529160200191611c6c565b820191906000526020600020905b815481529060010190602001808311611c4f57829003601f168201915b50505050508152602001600282018054611c8590613fab565b80601f0160208091040260200160405190810160405280929190818152602001828054611cb190613fab565b8015611cfe5780601f10611cd357610100808354040283529160200191611cfe565b820191906000526020600020905b815481529060010190602001808311611ce157829003601f168201915b5050505050815260200160038201805480602002602001604051908101604052809291908181526020016000905b82821015611dd8578382906000526020600020018054611d4b90613fab565b80601f0160208091040260200160405190810160405280929190818152602001828054611d7790613fab565b8015611dc45780601f10611d9957610100808354040283529160200191611dc4565b820191906000526020600020905b815481529060010190602001808311611da757829003601f168201915b505050505081526020019060010190611d2c565b5050505081526020016004820160009054906101000a900460ff1615151515815250509050919050565b611e0d848484610e0b565b611e198484848461265c565b50505050565b6000600b60008373ffffffffffffffffffffffffffffffffffffffff1673ffffffffffffffffffffffffffffffffffffffff16815260200190815260200160002060030160009054906101000a900460ff169050919050565b6060611e83826121f4565b506000600660008481526020019081526020016000208054611ea490613fab565b80601f0160208091040260200160405190810160405280929190818152602001828054611ed090613fab565b8015611f1d5780601f10611ef257610100808354040283529160200191611f1d565b820191906000526020600020905b815481529060010190602001808311611f0057829003601f168201915b505050505090506000611f2e612813565b90506000815103611f43578192505050611f86565b600082511115611f78578082604051602001611f60929190614651565b60405160208183030381529060405292505050611f86565b611f818461282a565b925050505b919050565b600080611f986007612893565b9050611fa484826128a1565b611fae818461299a565b611fb860076129f6565b8091505092915050565b6000600d600083815260200190815260200160002060040160009054906101000a900460ff169050919050565b6000600560008473ffffffffffffffffffffffffffffffffffffffff1673ffffffffffffffffffffffffffffffffffffffff16815260200190815260200160002060008373ffffffffffffffffffffffffffffffffffffffff1673ffffffffffffffffffffffffffffffffffffffff16815260200190815260200160002060009054906101000a900460ff16905092915050565b6060600a8054806020026020016040519081016040528092919081815260200182805480156120d157602002820191906000526020600020905b8154815260200190600101908083116120bd575b5050505050905090565b6000600860016008805490506120f191906145e1565b8154811061210257612101613fdc565b5b9060005260206000200154905090565b60007f80ac58cd000000000000000000000000000000000000000000000000000000007bffffffffffffffffffffffffffffffffffffffffffffffffffffffff1916827bffffffffffffffffffffffffffffffffffffffffffffffffffffffff191614806121dd57507f5b5e139f000000000000000000000000000000000000000000000000000000007bffffffffffffffffffffffffffffffffffffffffffffffffffffffff1916827bffffffffffffffffffffffffffffffffffffffffffffffffffffffff1916145b806121ed57506121ec82612a0c565b5b9050919050565b60008061220083612a76565b9050600073ffffffffffffffffffffffffffffffffffffffff168173ffffffffffffffffffffffffffffffffffffffff160361227357826040517f7e27328900000000000000000000000000000000000000000000000000000000815260040161226a9190613ba6565b60405180910390fd5b80915050919050565b60006004600083815260200190815260200160002060009054906101000a900473ffffffffffffffffffffffffffffffffffffffff169050919050565b600033905090565b6122ce8383836001612ab3565b505050565b6000806122df84612a76565b9050600073ffffffffffffffffffffffffffffffffffffffff168373ffffffffffffffffffffffffffffffffffffffff161461232157612320818486612c78565b5b600073ffffffffffffffffffffffffffffffffffffffff168173ffffffffffffffffffffffffffffffffffffffff16146123b257612363600085600080612ab3565b6001600360008373ffffffffffffffffffffffffffffffffffffffff1673ffffffffffffffffffffffffffffffffffffffff168152602001908152602001600020600082825403925050819055505b600073ffffffffffffffffffffffffffffffffffffffff168573ffffffffffffffffffffffffffffffffffffffff1614612435576001600360008773ffffffffffffffffffffffffffffffffffffffff1673ffffffffffffffffffffffffffffffffffffffff168152602001908152602001600020600082825401925050819055505b846002600086815260200190815260200160002060006101000a81548173ffffffffffffffffffffffffffffffffffffffff021916908373ffffffffffffffffffffffffffffffffffffffff160217905550838573ffffffffffffffffffffffffffffffffffffffff168273ffffffffffffffffffffffffffffffffffffffff167fddf252ad1be2c89b69c2b068fc378daa952ba7f163c4a11628f55a4df523b3ef60405160405180910390a4809150509392505050565b600073ffffffffffffffffffffffffffffffffffffffff168273ffffffffffffffffffffffffffffffffffffffff160361255e57816040517f5b08ba180000000000000000000000000000000000000000000000000000000081526004016125559190613408565b60405180910390fd5b80600560008573ffffffffffffffffffffffffffffffffffffffff1673ffffffffffffffffffffffffffffffffffffffff16815260200190815260200160002060008473ffffffffffffffffffffffffffffffffffffffff1673ffffffffffffffffffffffffffffffffffffffff16815260200190815260200160002060006101000a81548160ff0219169083151502179055508173ffffffffffffffffffffffffffffffffffffffff168373ffffffffffffffffffffffffffffffffffffffff167f17307eab39ab6107e8899845ad3d59bd9653f200f220920489ca2b5937696c318360405161264f9190613297565b60405180910390a3505050565b60008373ffffffffffffffffffffffffffffffffffffffff163b111561280d578273ffffffffffffffffffffffffffffffffffffffff1663150b7a026126a06122b9565b8685856040518563ffffffff1660e01b81526004016126c294939291906146ca565b6020604051808303816000875af19250505080156126fe57506040513d601f19601f820116820180604052508101906126fb919061472b565b60015b612782573d806000811461272e576040519150601f19603f3d011682016040523d82523d6000602084013e612733565b606091505b50600081510361277a57836040517f64a0ae920000000000000000000000000000000000000000000000000000000081526004016127719190613408565b60405180910390fd5b805181602001fd5b63150b7a0260e01b7bffffffffffffffffffffffffffffffffffffffffffffffffffffffff1916817bffffffffffffffffffffffffffffffffffffffffffffffffffffffff19161461280b57836040517f64a0ae920000000000000000000000000000000000000000000000000000000081526004016128029190613408565b60405180910390fd5b505b50505050565b606060405180602001604052806000815250905090565b6060612835826121f4565b506000612840612813565b90506000815111612860576040518060200160405280600081525061288b565b8061286a84612d3c565b60405160200161287b929190614651565b6040516020818303038152906040525b915050919050565b600081600001549050919050565b600073ffffffffffffffffffffffffffffffffffffffff168273ffffffffffffffffffffffffffffffffffffffff16036129135760006040517f64a0ae9200000000000000000000000000000000000000000000000000000000815260040161290a9190613408565b60405180910390fd5b6000612921838360006122d3565b9050600073ffffffffffffffffffffffffffffffffffffffff168173ffffffffffffffffffffffffffffffffffffffff16146129955760006040517f73c6ac6e00000000000000000000000000000000000000000000000000000000815260040161298c9190613408565b60405180910390fd5b505050565b806006600084815260200190815260200160002090816129ba919061450f565b507ff8e1a15aba9398e019f0b49df1a4fde98ee17ae345cb5f6b5e2c27f5033e8ce7826040516129ea9190613ba6565b60405180910390a15050565b6001816000016000828254019250508190555050565b60007f01ffc9a7000000000000000000000000000000000000000000000000000000007bffffffffffffffffffffffffffffffffffffffffffffffffffffffff1916827bffffffffffffffffffffffffffffffffffffffffffffffffffffffff1916149050919050565b60006002600083815260200190815260200160002060009054906101000a900473ffffffffffffffffffffffffffffffffffffffff169050919050565b8080612aec5750600073ffffffffffffffffffffffffffffffffffffffff168273ffffffffffffffffffffffffffffffffffffffff1614155b15612c20576000612afc846121f4565b9050600073ffffffffffffffffffffffffffffffffffffffff168373ffffffffffffffffffffffffffffffffffffffff1614158015612b6757508273ffffffffffffffffffffffffffffffffffffffff168173ffffffffffffffffffffffffffffffffffffffff1614155b8015612b7a5750612b788184611fef565b155b15612bbc57826040517fa9fbf51f000000000000000000000000000000000000000000000000000000008152600401612bb39190613408565b60405180910390fd5b8115612c1e57838573ffffffffffffffffffffffffffffffffffffffff168273ffffffffffffffffffffffffffffffffffffffff167f8c5be1e5ebec7d5bd14f71427d1e84f3dd0314c0f7b2291e5b200ac8c7c3b92560405160405180910390a45b505b836004600085815260200190815260200160002060006101000a81548173ffffffffffffffffffffffffffffffffffffffff021916908373ffffffffffffffffffffffffffffffffffffffff16021790555050505050565b612c83838383612e0a565b612d3757600073ffffffffffffffffffffffffffffffffffffffff168373ffffffffffffffffffffffffffffffffffffffff1603612cf857806040517f7e273289000000000000000000000000000000000000000000000000000000008152600401612cef9190613ba6565b60405180910390fd5b81816040517f177e802f000000000000000000000000000000000000000000000000000000008152600401612d2e929190614758565b60405180910390fd5b505050565b606060006001612d4b84612ecb565b01905060008167ffffffffffffffff811115612d6a57612d6961377e565b5b6040519080825280601f01601f191660200182016040528015612d9c5781602001600182028036833780820191505090505b509050600082602001820190505b600115612dff578080600190039150507f3031323334353637383961626364656600000000000000000000000000000000600a86061a8153600a8581612df357612df26144af565b5b04945060008503612daa575b819350505050919050565b60008073ffffffffffffffffffffffffffffffffffffffff168373ffffffffffffffffffffffffffffffffffffffff1614158015612ec257508273ffffffffffffffffffffffffffffffffffffffff168473ffffffffffffffffffffffffffffffffffffffff161480612e835750612e828484611fef565b5b80612ec157508273ffffffffffffffffffffffffffffffffffffffff16612ea98361227c565b73ffffffffffffffffffffffffffffffffffffffff16145b5b90509392505050565b600080600090507a184f03e93ff9f4daa797ed6e38ed64bf6a1f0100000000000000008310612f29577a184f03e93ff9f4daa797ed6e38ed64bf6a1f0100000000000000008381612f1f57612f1e6144af565b5b0492506040810190505b6d04ee2d6d415b85acef81000000008310612f66576d04ee2d6d415b85acef81000000008381612f5c57612f5b6144af565b5b0492506020810190505b662386f26fc100008310612f9557662386f26fc100008381612f8b57612f8a6144af565b5b0492506010810190505b6305f5e1008310612fbe576305f5e1008381612fb457612fb36144af565b5b0492506008810190505b6127108310612fe3576127108381612fd957612fd86144af565b5b0492506004810190505b606483106130065760648381612ffc57612ffb6144af565b5b0492506002810190505b600a8310613015576001810190505b80915050919050565b82805482825590600052602060002090810192821561306a5760005260206000209182015b8281111561306957828290816130599190614273565b5091600101919060010190613043565b5b5090506130779190613162565b5090565b8280548282559060005260206000209081019282156130c3579160200282015b828111156130c25782518290816130b2919061450f565b509160200191906001019061309b565b5b5090506130d09190613162565b5090565b6040518060a00160405280600073ffffffffffffffffffffffffffffffffffffffff1681526020016060815260200160608152602001606081526020016000151581525090565b6040518060a00160405280600073ffffffffffffffffffffffffffffffffffffffff1681526020016060815260200160608152602001606081526020016000151581525090565b5b8082111561318257600081816131799190613186565b50600101613163565b5090565b50805461319290613fab565b6000825580601f106131a457506131c3565b601f0160209004906000526020600020908101906131c291906131c6565b5b50565b5b808211156131df5760008160009055506001016131c7565b5090565b6000604051905090565b600080fd5b600080fd5b60007fffffffff0000000000000000000000000000000000000000000000000000000082169050919050565b61322c816131f7565b811461323757600080fd5b50565b60008135905061324981613223565b92915050565b600060208284031215613265576132646131ed565b5b60006132738482850161323a565b91505092915050565b60008115159050919050565b6132918161327c565b82525050565b60006020820190506132ac6000830184613288565b92915050565b600081519050919050565b600082825260208201905092915050565b60005b838110156132ec5780820151818401526020810190506132d1565b60008484015250505050565b6000601f19601f8301169050919050565b6000613314826132b2565b61331e81856132bd565b935061332e8185602086016132ce565b613337816132f8565b840191505092915050565b6000602082019050818103600083015261335c8184613309565b905092915050565b6000819050919050565b61337781613364565b811461338257600080fd5b50565b6000813590506133948161336e565b92915050565b6000602082840312156133b0576133af6131ed565b5b60006133be84828501613385565b91505092915050565b600073ffffffffffffffffffffffffffffffffffffffff82169050919050565b60006133f2826133c7565b9050919050565b613402816133e7565b82525050565b600060208201905061341d60008301846133f9565b92915050565b600081519050919050565b600082825260208201905092915050565b6000819050602082019050919050565b613458816133e7565b82525050565b600082825260208201905092915050565b600061347a826132b2565b613484818561345e565b93506134948185602086016132ce565b61349d816132f8565b840191505092915050565b600081519050919050565b600082825260208201905092915050565b6000819050602082019050919050565b60006134e0838361346f565b905092915050565b6000602082019050919050565b6000613500826134a8565b61350a81856134b3565b93508360208202850161351c856134c4565b8060005b85811015613558578484038952815161353985826134d4565b9450613544836134e8565b925060208a01995050600181019050613520565b50829750879550505050505092915050565b6135738161327c565b82525050565b600060a083016000830151613591600086018261344f565b50602083015184820360208601526135a9828261346f565b915050604083015184820360408601526135c3828261346f565b915050606083015184820360608601526135dd82826134f5565b91505060808301516135f2608086018261356a565b508091505092915050565b60006136098383613579565b905092915050565b6000602082019050919050565b600061362982613423565b613633818561342e565b9350836020820285016136458561343f565b8060005b85811015613681578484038952815161366285826135fd565b945061366d83613611565b925060208a01995050600181019050613649565b50829750879550505050505092915050565b600060208201905081810360008301526136ad818461361e565b905092915050565b6136be816133e7565b81146136c957600080fd5b50565b6000813590506136db816136b5565b92915050565b600080604083850312156136f8576136f76131ed565b5b6000613706858286016136cc565b925050602061371785828601613385565b9150509250929050565b60008060006060848603121561373a576137396131ed565b5b6000613748868287016136cc565b9350506020613759868287016136cc565b925050604061376a86828701613385565b9150509250925092565b600080fd5b600080fd5b7f4e487b7100000000000000000000000000000000000000000000000000000000600052604160045260246000fd5b6137b6826132f8565b810181811067ffffffffffffffff821117156137d5576137d461377e565b5b80604052505050565b60006137e86131e3565b90506137f482826137ad565b919050565b600067ffffffffffffffff8211156138145761381361377e565b5b61381d826132f8565b9050602081019050919050565b82818337600083830152505050565b600061384c613847846137f9565b6137de565b90508281526020810184848401111561386857613867613779565b5b61387384828561382a565b509392505050565b600082601f8301126138905761388f613774565b5b81356138a0848260208601613839565b91505092915050565b600067ffffffffffffffff8211156138c4576138c361377e565b5b602082029050602081019050919050565b600080fd5b60006138ed6138e8846138a9565b6137de565b905080838252602082019050602084028301858111156139105761390f6138d5565b5b835b8181101561395757803567ffffffffffffffff81111561393557613934613774565b5b808601613942898261387b565b85526020850194505050602081019050613912565b5050509392505050565b600082601f83011261397657613975613774565b5b81356139868482602086016138da565b91505092915050565b6139988161327c565b81146139a357600080fd5b50565b6000813590506139b58161398f565b92915050565b600080600080600060a086880312156139d7576139d66131ed565b5b60006139e5888289016136cc565b955050602086013567ffffffffffffffff811115613a0657613a056131f2565b5b613a128882890161387b565b945050604086013567ffffffffffffffff811115613a3357613a326131f2565b5b613a3f8882890161387b565b935050606086013567ffffffffffffffff811115613a6057613a5f6131f2565b5b613a6c88828901613961565b9250506080613a7d888289016139a6565b9150509295509295909350565b600081519050919050565b600082825260208201905092915050565b6000819050602082019050919050565b613abf81613364565b82525050565b6000613ad18383613ab6565b60208301905092915050565b6000602082019050919050565b6000613af582613a8a565b613aff8185613a95565b9350613b0a83613aa6565b8060005b83811015613b3b578151613b228882613ac5565b9750613b2d83613add565b925050600181019050613b0e565b5085935050505092915050565b60006020820190508181036000830152613b628184613aea565b905092915050565b600060208284031215613b8057613b7f6131ed565b5b6000613b8e848285016136cc565b91505092915050565b613ba081613364565b82525050565b6000602082019050613bbb6000830184613b97565b92915050565b600060a083016000830151613bd9600086018261344f565b5060208301518482036020860152613bf1828261346f565b91505060408301518482036040860152613c0b828261346f565b91505060608301518482036060860152613c2582826134f5565b9150506080830151613c3a608086018261356a565b508091505092915050565b60006020820190508181036000830152613c5f8184613bc1565b905092915050565b600080600060608486031215613c8057613c7f6131ed565b5b600084013567ffffffffffffffff811115613c9e57613c9d6131f2565b5b613caa8682870161387b565b9350506020613cbb86828701613385565b9250506040613ccc868287016136cc565b9150509250925092565b60008060408385031215613ced57613cec6131ed565b5b6000613cfb858286016136cc565b9250506020613d0c858286016139a6565b9150509250929050565b600060a083016000830151613d2e600086018261344f565b5060208301518482036020860152613d46828261346f565b91505060408301518482036040860152613d60828261346f565b91505060608301518482036060860152613d7a82826134f5565b9150506080830151613d8f608086018261356a565b508091505092915050565b60006020820190508181036000830152613db48184613d16565b905092915050565b600067ffffffffffffffff821115613dd757613dd661377e565b5b613de0826132f8565b9050602081019050919050565b6000613e00613dfb84613dbc565b6137de565b905082815260208101848484011115613e1c57613e1b613779565b5b613e2784828561382a565b509392505050565b600082601f830112613e4457613e43613774565b5b8135613e54848260208601613ded565b91505092915050565b60008060008060808587031215613e7757613e766131ed565b5b6000613e85878288016136cc565b9450506020613e96878288016136cc565b9350506040613ea787828801613385565b925050606085013567ffffffffffffffff811115613ec857613ec76131f2565b5b613ed487828801613e2f565b91505092959194509250565b60008060408385031215613ef757613ef66131ed565b5b6000613f05858286016136cc565b925050602083013567ffffffffffffffff811115613f2657613f256131f2565b5b613f328582860161387b565b9150509250929050565b60008060408385031215613f5357613f526131ed565b5b6000613f61858286016136cc565b9250506020613f72858286016136cc565b9150509250929050565b7f4e487b7100000000000000000000000000000000000000000000000000000000600052602260045260246000fd5b60006002820490506001821680613fc357607f821691505b602082108103613fd657613fd5613f7c565b5b50919050565b7f4e487b7100000000000000000000000000000000000000000000000000000000600052603260045260246000fd5b60008190508160005260206000209050919050565b6000815461402d81613fab565b61403781866132bd565b9450600182166000811461405257600181146140685761409b565b60ff19831686528115156020028601935061409b565b6140718561400b565b60005b8381101561409357815481890152600182019150602081019050614074565b808801955050505b50505092915050565b600060208201905081810360008301526140be8184614020565b905092915050565b6000815490506140d581613fab565b9050919050565b60006020601f8301049050919050565b600082821b905092915050565b6000600883026141297fffffffffffffffffffffffffffffffffffffffffffffffffffffffffffffffff826140ec565b61413386836140ec565b95508019841693508086168417925050509392505050565b6000819050919050565b600061417061416b61416684613364565b61414b565b613364565b9050919050565b6000819050919050565b61418a83614155565b61419e61419682614177565b8484546140f9565b825550505050565b600090565b6141b36141a6565b6141be818484614181565b505050565b5b818110156141e2576141d76000826141ab565b6001810190506141c4565b5050565b601f821115614227576141f88161400b565b614201846140dc565b81016020851015614210578190505b61422461421c856140dc565b8301826141c3565b50505b505050565b600082821c905092915050565b600061424a6000198460080261422c565b1980831691505092915050565b60006142638383614239565b9150826002028217905092915050565b818103614281575050614359565b61428a826140c6565b67ffffffffffffffff8111156142a3576142a261377e565b5b6142ad8254613fab565b6142b88282856141e6565b6000601f8311600181146142e757600084156142d5578287015490505b6142df8582614257565b865550614352565b601f1984166142f58761400b565b96506143008661400b565b60005b8281101561432857848901548255600182019150600185019450602081019050614303565b868310156143455784890154614341601f891682614239565b8355505b6001600288020188555050505b5050505050505b565b7f4e487b7100000000000000000000000000000000000000000000000000000000600052601160045260246000fd5b600061439582613364565b91507fffffffffffffffffffffffffffffffffffffffffffffffffffffffffffffffff82036143c7576143c661435b565b5b600182019050919050565b60006060820190506143e760008301866133f9565b6143f46020830185613b97565b61440160408301846133f9565b949350505050565b6000819050919050565b61442461441f82613364565b614409565b82525050565b60008160601b9050919050565b60006144428261442a565b9050919050565b600061445482614437565b9050919050565b61446c614467826133e7565b614449565b82525050565b600061447e8286614413565b60208201915061448e828561445b565b60148201915061449e8284614413565b602082019150819050949350505050565b7f4e487b7100000000000000000000000000000000000000000000000000000000600052601260045260246000fd5b60006144e982613364565b91506144f483613364565b925082614504576145036144af565b5b828206905092915050565b614518826132b2565b67ffffffffffffffff8111156145315761453061377e565b5b61453b8254613fab565b6145468282856141e6565b600060209050601f8311600181146145795760008415614567578287015190505b6145718582614257565b8655506145d9565b601f1984166145878661400b565b60005b828110156145af5784890151825560018201915060208501945060208101905061458a565b868310156145cc57848901516145c8601f891682614239565b8355505b6001600288020188555050505b505050505050565b60006145ec82613364565b91506145f783613364565b925082820390508181111561460f5761460e61435b565b5b92915050565b600081905092915050565b600061462b826132b2565b6146358185614615565b93506146458185602086016132ce565b80840191505092915050565b600061465d8285614620565b91506146698284614620565b91508190509392505050565b600081519050919050565b600082825260208201905092915050565b600061469c82614675565b6146a68185614680565b93506146b68185602086016132ce565b6146bf816132f8565b840191505092915050565b60006080820190506146df60008301876133f9565b6146ec60208301866133f9565b6146f96040830185613b97565b818103606083015261470b8184614691565b905095945050505050565b60008151905061472581613223565b92915050565b600060208284031215614741576147406131ed565b5b600061474f84828501614716565b91505092915050565b600060408201905061476d60008301856133f9565b61477a6020830184613b97565b939250505056fea264697066735822122089b55b42aa9d056470db1a5a85bc1e03b776ad60aa97c168309ac49dbc99d6b164736f6c63430008140033",
  "linkReferences": {},
  "deployedLinkReferences": {}
}