{
  "_format": "hh-sol-artifact-1",
  "contractName": "register",
  "sourceName": "contracts/Signin.sol",
  "abi": [
    {
      "inputs": [
        {
          "internalType": "uint256",
          "name": "id",
          "type": "uint256"
        }
      ],
      "name": "AcceptedDonor",
      "outputs": [
        {
          "internalType": "bool",
          "name": "",
          "type": "bool"
        }
      ],
      "stateMutability": "view",
      "type": "function"
    },
    {
      "inputs": [
        {
          "internalType": "uint256",
          "name": "id",
          "type": "uint256"
        }
      ],
      "name": "AcceptedReciever",
      "outputs": [
        {
          "internalType": "bool",
          "name": "",
          "type": "bool"
        }
      ],
      "stateMutability": "view",
      "type": "function"
    },
    {
      "inputs": [
        {
          "internalType": "address",
          "name": "id",
          "type": "address"
        }
      ],
      "name": "check",
      "outputs": [
        {
          "internalType": "bool",
          "name": "",
          "type": "bool"
        }
      ],
      "stateMutability": "view",
      "type": "function"
    },
    {
      "inputs": [
        {
          "internalType": "uint256",
          "name": "id",
          "type": "uint256"
        }
      ],
      "name": "checkDead",
      "outputs": [
        {
          "internalType": "bool",
          "name": "",
          "type": "bool"
        }
      ],
      "stateMutability": "view",
      "type": "function"
    },
    {
      "inputs": [
        {
          "internalType": "uint256",
          "name": "id",
          "type": "uint256"
        }
      ],
      "name": "checkDonor",
      "outputs": [
        {
          "internalType": "bool",
          "name": "",
          "type": "bool"
        }
      ],
      "stateMutability": "view",
      "type": "function"
    },
    {
      "inputs": [
        {
          "internalType": "uint256",
          "name": "id",
          "type": "uint256"
        }
      ],
      "name": "checkReciever",
      "outputs": [
        {
          "internalType": "bool",
          "name": "",
          "type": "bool"
        }
      ],
      "stateMutability": "view",
      "type": "function"
    },
    {
      "inputs": [],
      "name": "getDonorId",
      "outputs": [
        {
          "internalType": "uint256",
          "name": "",
          "type": "uint256"
        }
      ],
      "stateMutability": "view",
      "type": "function"
    },
    {
      "inputs": [],
      "name": "getMatchedArray",
      "outputs": [
        {
          "internalType": "uint256[]",
          "name": "",
          "type": "uint256[]"
        }
      ],
      "stateMutability": "view",
      "type": "function"
    },
    {
      "inputs": [
        {
          "internalType": "uint256",
          "name": "id",
          "type": "uint256"
        }
      ],
      "name": "getOrganLength",
      "outputs": [
        {
          "internalType": "uint256",
          "name": "",
          "type": "uint256"
        }
      ],
      "stateMutability": "nonpayable",
      "type": "function"
    },
    {
      "inputs": [],
      "name": "getRecieverId",
      "outputs": [
        {
          "internalType": "uint256",
          "name": "",
          "type": "uint256"
        }
      ],
      "stateMutability": "view",
      "type": "function"
    },
    {
      "inputs": [
        {
          "internalType": "uint256",
          "name": "id",
          "type": "uint256"
        }
      ],
      "name": "getRegDonor",
      "outputs": [
        {
          "components": [
            {
              "internalType": "address",
              "name": "metamask_address",
              "type": "address"
            },
            {
              "internalType": "string",
              "name": "hla",
              "type": "string"
            },
            {
              "internalType": "string",
              "name": "bloodgrp",
              "type": "string"
            },
            {
              "internalType": "string[]",
              "name": "organs",
              "type": "string[]"
            },
            {
              "internalType": "bool",
              "name": "flag",
              "type": "bool"
            },
            {
              "internalType": "bool",
              "name": "status",
              "type": "bool"
            },
            {
              "internalType": "bool",
              "name": "braindead",
              "type": "bool"
            }
          ],
          "internalType": "struct register.RegDonor",
          "name": "",
          "type": "tuple"
        }
      ],
      "stateMutability": "view",
      "type": "function"
    },
    {
      "inputs": [
        {
          "internalType": "uint256",
          "name": "id",
          "type": "uint256"
        }
      ],
      "name": "getRegReceive",
      "outputs": [
        {
          "components": [
            {
              "internalType": "address",
              "name": "metamask_address",
              "type": "address"
            },
            {
              "internalType": "string",
              "name": "hla",
              "type": "string"
            },
            {
              "internalType": "string",
              "name": "bloodgrp",
              "type": "string"
            },
            {
              "internalType": "string[]",
              "name": "organs",
              "type": "string[]"
            },
            {
              "internalType": "bool",
              "name": "flag",
              "type": "bool"
            },
            {
              "internalType": "bool",
              "name": "status",
              "type": "bool"
            },
            {
              "internalType": "bool",
              "name": "braindead",
              "type": "bool"
            }
          ],
          "internalType": "struct register.RegDonor",
          "name": "",
          "type": "tuple"
        }
      ],
      "stateMutability": "view",
      "type": "function"
    },
    {
      "inputs": [
        {
          "internalType": "uint256[]",
          "name": "receivers",
          "type": "uint256[]"
        },
        {
          "internalType": "uint256",
          "name": "id",
          "type": "uint256"
        },
        {
          "internalType": "string",
          "name": "org",
          "type": "string"
        }
      ],
      "name": "matchDonorwReceiver",
      "outputs": [
        {
          "internalType": "uint256[]",
          "name": "",
          "type": "uint256[]"
        }
      ],
      "stateMutability": "nonpayable",
      "type": "function"
    },
    {
      "inputs": [
        {
          "internalType": "string",
          "name": "bloodgrp",
          "type": "string"
        },
        {
          "internalType": "uint256",
          "name": "id",
          "type": "uint256"
        },
        {
          "internalType": "string",
          "name": "organ",
          "type": "string"
        },
        {
          "internalType": "address",
          "name": "ContractB_Address",
          "type": "address"
        }
      ],
      "name": "passbloodgrpid",
      "outputs": [
        {
          "internalType": "uint256[]",
          "name": "",
          "type": "uint256[]"
        }
      ],
      "stateMutability": "nonpayable",
      "type": "function"
    },
    {
      "inputs": [
        {
          "internalType": "address",
          "name": "metamask_address",
          "type": "address"
        },
        {
          "internalType": "string",
          "name": "hla",
          "type": "string"
        },
        {
          "internalType": "string",
          "name": "bloodgrp",
          "type": "string"
        },
        {
          "internalType": "string[]",
          "name": "organs",
          "type": "string[]"
        },
        {
          "internalType": "bool",
          "name": "status",
          "type": "bool"
        }
      ],
      "name": "registerDonor",
      "outputs": [
        {
          "internalType": "uint256",
          "name": "",
          "type": "uint256"
        }
      ],
      "stateMutability": "nonpayable",
      "type": "function"
    },
    {
      "inputs": [
        {
          "internalType": "string",
          "name": "name",
          "type": "string"
        },
        {
          "internalType": "uint256",
          "name": "hospital_id",
          "type": "uint256"
        },
        {
          "internalType": "address",
          "name": "metamask_address",
          "type": "address"
        }
      ],
      "name": "registerHospital",
      "outputs": [],
      "stateMutability": "payable",
      "type": "function"
    },
    {
      "inputs": [
        {
          "internalType": "address",
          "name": "metamask_address",
          "type": "address"
        },
        {
          "internalType": "string",
          "name": "hla",
          "type": "string"
        },
        {
          "internalType": "string",
          "name": "bloodgrp",
          "type": "string"
        },
        {
          "internalType": "string[]",
          "name": "organs",
          "type": "string[]"
        },
        {
          "internalType": "bool",
          "name": "status",
          "type": "bool"
        }
      ],
      "name": "registerReceive",
      "outputs": [
        {
          "internalType": "uint256",
          "name": "",
          "type": "uint256"
        }
      ],
      "stateMutability": "nonpayable",
      "type": "function"
    },
    {
      "inputs": [
        {
          "internalType": "uint256",
          "name": "id",
          "type": "uint256"
        },
        {
          "internalType": "uint256",
          "name": "r_id",
          "type": "uint256"
        },
        {
          "internalType": "string",
          "name": "organ",
          "type": "string"
        }
      ],
      "name": "remove_organ",
      "outputs": [
        {
          "internalType": "bool",
          "name": "",
          "type": "bool"
        }
      ],
      "stateMutability": "nonpayable",
      "type": "function"
    }
  ],
  "bytecode": "0x60806040526000600f5534801561001557600080fd5b506146b0806100256000396000f3fe6080604052600436106101095760003560e01c806393237d5711610095578063ce294a5511610064578063ce294a55146103e2578063e6cb55121461041f578063e7fd15301461045c578063eb0c3f5b14610499578063f7e3d587146104d657610109565b806393237d5714610300578063b52e75761461032b578063b73d517914610368578063c23697a8146103a557610109565b806367ae1b0a116100dc57806367ae1b0a1461020257806368bdf2421461023f5780636d8f243d1461027c57806376607bae146102a7578063924455f1146102e457610109565b80633198479f1461010e5780633e79dee91461014b5780634394f5811461018857806362736021146101c5575b600080fd5b34801561011a57600080fd5b506101356004803603810190610130919061309b565b610501565b6040516101429190613183565b60405180910390f35b34801561015757600080fd5b50610172600480360381019061016d919061309b565b610d0d565b60405161017f9190613183565b60405180910390f35b34801561019457600080fd5b506101af60048036038101906101aa91906131ca565b611096565b6040516101bc9190613206565b60405180910390f35b3480156101d157600080fd5b506101ec60048036038101906101e791906131ca565b6110c3565b6040516101f99190613206565b60405180910390f35b34801561020e57600080fd5b5061022960048036038101906102249190613221565b6110f0565b604051610236919061337e565b60405180910390f35b34801561024b57600080fd5b50610266600480360381019061026191906131ca565b611a81565b6040516102739190613206565b60405180910390f35b34801561028857600080fd5b50610291611aae565b60405161029e919061337e565b60405180910390f35b3480156102b357600080fd5b506102ce60048036038101906102c991906131ca565b611b06565b6040516102db91906135a9565b60405180910390f35b6102fe60048036038101906102f991906135cb565b611dd7565b005b34801561030c57600080fd5b50610315611e92565b6040516103229190613183565b60405180910390f35b34801561033757600080fd5b50610352600480360381019061034d91906131ca565b611ec9565b60405161035f9190613206565b60405180910390f35b34801561037457600080fd5b5061038f600480360381019061038a91906131ca565b611ef3565b60405161039c91906135a9565b60405180910390f35b3480156103b157600080fd5b506103cc60048036038101906103c7919061363a565b6121c4565b6040516103d99190613206565b60405180910390f35b3480156103ee57600080fd5b5061040960048036038101906104049190613667565b61221d565b6040516104169190613206565b60405180910390f35b34801561042b57600080fd5b5061044660048036038101906104419190613799565b6128ee565b604051610453919061337e565b60405180910390f35b34801561046857600080fd5b50610483600480360381019061047e91906131ca565b612b50565b6040516104909190613206565b60405180910390f35b3480156104a557600080fd5b506104c060048036038101906104bb91906131ca565b612b7d565b6040516104cd9190613183565b60405180910390f35b3480156104e257600080fd5b506104eb612bed565b6040516104f89190613183565b60405180910390f35b6000806040518060e001604052808873ffffffffffffffffffffffffffffffffffffffff1681526020018781526020018681526020018581526020016001151581526020018415158152602001600015158152509050600f600081548092919061056a90613853565b919050555060005b620f42404233600f5460405160200161058d93929190613904565b6040516020818303038152906040528051906020012060001c6105b09190613970565b905060011515600b600083815260200190815260200160002060009054906101000a900460ff16151514610572576001600b600083815260200190815260200160002060006101000a81548160ff021916908315150217905550604051602001610619906139fe565b60405160208183030381529060405280519060200120866040516020016106409190613a57565b60405160208183030381529060405280519060200120148015610667575060011515841515145b1561069a576000819080600181540180825580915050600190039060005260206000200160009091909190915055610a8d565b6040516020016106a990613ac5565b60405160208183030381529060405280519060200120866040516020016106d09190613a57565b604051602081830303815290604052805190602001201480156106f7575060011515841515145b1561072a576001819080600181540180825580915050600190039060005260206000200160009091909190915055610a8c565b60405160200161073990613b31565b60405160208183030381529060405280519060200120866040516020016107609190613a57565b60405160208183030381529060405280519060200120148015610787575060011515841515145b156107ba576002819080600181540180825580915050600190039060005260206000200160009091909190915055610a8b565b6040516020016107c990613b9d565b60405160208183030381529060405280519060200120866040516020016107f09190613a57565b60405160208183030381529060405280519060200120148015610817575060011515841515145b1561084a576003819080600181540180825580915050600190039060005260206000200160009091909190915055610a8a565b60405160200161085990613c09565b60405160208183030381529060405280519060200120866040516020016108809190613a57565b604051602081830303815290604052805190602001201480156108a7575060011515841515145b156108da576004819080600181540180825580915050600190039060005260206000200160009091909190915055610a89565b6040516020016108e990613c75565b60405160208183030381529060405280519060200120866040516020016109109190613a57565b60405160208183030381529060405280519060200120148015610937575060011515841515145b1561096a576005819080600181540180825580915050600190039060005260206000200160009091909190915055610a88565b60405160200161097990613ce1565b60405160208183030381529060405280519060200120866040516020016109a09190613a57565b604051602081830303815290604052805190602001201480156109c7575060011515841515145b156109fa576007819080600181540180825580915050600190039060005260206000200160009091909190915055610a87565b604051602001610a0990613d4d565b6040516020818303038152906040528051906020012086604051602001610a309190613a57565b60405160208183030381529060405280519060200120148015610a57575060011515841515145b15610a865760068190806001815401808255809150506001900390600052602060002001600090919091909150555b5b5b5b5b5b5b5b6001151584151503610bce57816010600083815260200190815260200160002060008201518160000160006101000a81548173ffffffffffffffffffffffffffffffffffffffff021916908373ffffffffffffffffffffffffffffffffffffffff1602179055506020820151816001019081610b099190613f79565b506040820151816002019081610b1f9190613f79565b506060820151816003019080519060200190610b3c929190612c24565b5060808201518160040160006101000a81548160ff02191690831515021790555060a08201518160040160016101000a81548160ff02191690831515021790555060c08201518160040160026101000a81548160ff0219169083151502179055509050506009819080600181540180825580915050600190039060005260206000200160009091909190915055610cff565b816012600083815260200190815260200160002060008201518160000160006101000a81548173ffffffffffffffffffffffffffffffffffffffff021916908373ffffffffffffffffffffffffffffffffffffffff1602179055506020820151816001019081610c3e9190613f79565b506040820151816002019081610c549190613f79565b506060820151816003019080519060200190610c71929190612c24565b5060808201518160040160006101000a81548160ff02191690831515021790555060a08201518160040160016101000a81548160ff02191690831515021790555060c08201518160040160026101000a81548160ff02191690831515021790555090505060098190806001815401808255809150506001900390600052602060002001600090919091909150555b809250505095945050505050565b6000806040518060e001604052808873ffffffffffffffffffffffffffffffffffffffff1681526020018781526020018681526020018581526020016001151581526020018415158152602001600015158152509050600f6000815480929190610d7690613853565b919050555060005b620f42404233600f54604051602001610d9993929190613904565b6040516020818303038152906040528051906020012060001c610dbc9190613970565b905060011515600b600083815260200190815260200160002060009054906101000a900460ff16151514610d7e576001600b600083815260200190815260200160002060006101000a81548160ff0219169083151502179055506001151584151503610f575781600d600083815260200190815260200160002060008201518160000160006101000a81548173ffffffffffffffffffffffffffffffffffffffff021916908373ffffffffffffffffffffffffffffffffffffffff1602179055506020820151816001019081610e929190613f79565b506040820151816002019081610ea89190613f79565b506060820151816003019080519060200190610ec5929190612c24565b5060808201518160040160006101000a81548160ff02191690831515021790555060a08201518160040160016101000a81548160ff02191690831515021790555060c08201518160040160026101000a81548160ff0219169083151502179055509050506008819080600181540180825580915050600190039060005260206000200160009091909190915055611088565b81600e600083815260200190815260200160002060008201518160000160006101000a81548173ffffffffffffffffffffffffffffffffffffffff021916908373ffffffffffffffffffffffffffffffffffffffff1602179055506020820151816001019081610fc79190613f79565b506040820151816002019081610fdd9190613f79565b506060820151816003019080519060200190610ffa929190612c24565b5060808201518160040160006101000a81548160ff02191690831515021790555060a08201518160040160016101000a81548160ff02191690831515021790555060c08201518160040160026101000a81548160ff02191690831515021790555090505060088190806001815401808255809150506001900390600052602060002001600090919091909150555b809250505095945050505050565b60006010600083815260200190815260200160002060040160009054906101000a900460ff169050919050565b60006010600083815260200190815260200160002060040160019054906101000a900460ff169050919050565b6060601460006111009190612c7d565b600080839050600d600087815260200190815260200160002060040160009054906101000a900460ff16611169576040517f08c379a000000000000000000000000000000000000000000000000000000000815260040161116090614097565b60405180910390fd5b60001515600c600088815260200190815260200160002060009054906101000a900460ff161515146111d0576040517f08c379a00000000000000000000000000000000000000000000000000000000081526004016111c790614129565b60405180910390fd5b600115158173ffffffffffffffffffffffffffffffffffffffff16631ae1d907886040518263ffffffff1660e01b815260040161120d9190613183565b602060405180830381865afa15801561122a573d6000803e3d6000fd5b505050506040513d601f19601f8201168201806040525081019061124e919061415e565b151514611290576040517f08c379a0000000000000000000000000000000000000000000000000000000008152600401611287906141fd565b60405180910390fd5b600d60008781526020019081526020016000206002016040516020016112b691906142a1565b60405160208183030381529060405280519060200120876040516020016112dd9190613a57565b6040516020818303038152906040528051906020012014611333576040517f08c379a000000000000000000000000000000000000000000000000000000000815260040161132a9061430f565b60405180910390fd5b60005b600d6000888152602001908152602001600020600301805490508110156113f357600d6000888152602001908152602001600020600301818154811061137f5761137e61432f565b5b9060005260206000200160405160200161139991906142a1565b60405160208183030381529060405280519060200120866040516020016113c09190613a57565b60405160208183030381529060405280519060200120036113e057600192505b80806113eb90613853565b915050611336565b50600015158215150361143b576040517f08c379a0000000000000000000000000000000000000000000000000000000008152600401611432906143d0565b60405180910390fd5b60405160200161144a906139fe565b60405160208183030381529060405280519060200120876040516020016114719190613a57565b6040516020818303038152906040528051906020012003611502576114e760008054806020026020016040519081016040528092919081815260200182805480156114db57602002820191906000526020600020905b8154815260200190600101908083116114c7575b505050505087876128ee565b601490805190602001906114fc929190612c9e565b50611a24565b60405160200161151190613ac5565b60405160208183030381529060405280519060200120876040516020016115389190613a57565b60405160208183030381529060405280519060200120036115c9576115ae60018054806020026020016040519081016040528092919081815260200182805480156115a257602002820191906000526020600020905b81548152602001906001019080831161158e575b505050505087876128ee565b601490805190602001906115c3929190612c9e565b50611a23565b6040516020016115d890613b31565b60405160208183030381529060405280519060200120876040516020016115ff9190613a57565b604051602081830303815290604052805190602001200361169057611675600280548060200260200160405190810160405280929190818152602001828054801561166957602002820191906000526020600020905b815481526020019060010190808311611655575b505050505087876128ee565b6014908051906020019061168a929190612c9e565b50611a22565b60405160200161169f90613b9d565b60405160208183030381529060405280519060200120876040516020016116c69190613a57565b60405160208183030381529060405280519060200120036117575761173c600380548060200260200160405190810160405280929190818152602001828054801561173057602002820191906000526020600020905b81548152602001906001019080831161171c575b505050505087876128ee565b60149080519060200190611751929190612c9e565b50611a21565b60405160200161176690613c09565b604051602081830303815290604052805190602001208760405160200161178d9190613a57565b604051602081830303815290604052805190602001200361181e5761180360048054806020026020016040519081016040528092919081815260200182805480156117f757602002820191906000526020600020905b8154815260200190600101908083116117e3575b505050505087876128ee565b60149080519060200190611818929190612c9e565b50611a20565b60405160200161182d90613c75565b60405160208183030381529060405280519060200120876040516020016118549190613a57565b60405160208183030381529060405280519060200120036118e5576118ca60058054806020026020016040519081016040528092919081815260200182805480156118be57602002820191906000526020600020905b8154815260200190600101908083116118aa575b505050505087876128ee565b601490805190602001906118df929190612c9e565b50611a1f565b6040516020016118f490613ce1565b604051602081830303815290604052805190602001208760405160200161191b9190613a57565b60405160208183030381529060405280519060200120036119ac57611991600780548060200260200160405190810160405280929190818152602001828054801561198557602002820191906000526020600020905b815481526020019060010190808311611971575b505050505087876128ee565b601490805190602001906119a6929190612c9e565b50611a1e565b611a0760068054806020026020016040519081016040528092919081815260200182805480156119fb57602002820191906000526020600020905b8154815260200190600101908083116119e7575b505050505087876128ee565b60149080519060200190611a1c929190612c9e565b505b5b5b5b5b5b5b6014805480602002602001604051908101604052809291908181526020018280548015611a7057602002820191906000526020600020905b815481526020019060010190808311611a5c575b505050505092505050949350505050565b6000600d600083815260200190815260200160002060040160019054906101000a900460ff169050919050565b60606013805480602002602001604051908101604052809291908181526020018280548015611afc57602002820191906000526020600020905b815481526020019060010190808311611ae8575b5050505050905090565b611b0e612ceb565b601060008381526020019081526020016000206040518060e00160405290816000820160009054906101000a900473ffffffffffffffffffffffffffffffffffffffff1673ffffffffffffffffffffffffffffffffffffffff1673ffffffffffffffffffffffffffffffffffffffff168152602001600182018054611b9290613d9c565b80601f0160208091040260200160405190810160405280929190818152602001828054611bbe90613d9c565b8015611c0b5780601f10611be057610100808354040283529160200191611c0b565b820191906000526020600020905b815481529060010190602001808311611bee57829003601f168201915b50505050508152602001600282018054611c2490613d9c565b80601f0160208091040260200160405190810160405280929190818152602001828054611c5090613d9c565b8015611c9d5780601f10611c7257610100808354040283529160200191611c9d565b820191906000526020600020905b815481529060010190602001808311611c8057829003601f168201915b5050505050815260200160038201805480602002602001604051908101604052809291908181526020016000905b82821015611d77578382906000526020600020018054611cea90613d9c565b80601f0160208091040260200160405190810160405280929190818152602001828054611d1690613d9c565b8015611d635780601f10611d3857610100808354040283529160200191611d63565b820191906000526020600020905b815481529060010190602001808311611d4657829003601f168201915b505050505081526020019060010190611ccb565b5050505081526020016004820160009054906101000a900460ff161515151581526020016004820160019054906101000a900460ff161515151581526020016004820160029054906101000a900460ff1615151515815250509050919050565b6000604051806080016040528085815260200184815260200142815260200160011515815250905080600a60008473ffffffffffffffffffffffffffffffffffffffff1673ffffffffffffffffffffffffffffffffffffffff1681526020019081526020016000206000820151816000019081611e549190613f79565b50602082015181600101556040820151816002015560608201518160030160006101000a81548160ff02191690831515021790555090505050505050565b600060096001600980549050611ea891906143f0565b81548110611eb957611eb861432f565b5b9060005260206000200154905090565b6000600c600083815260200190815260200160002060009054906101000a900460ff169050919050565b611efb612ceb565b600d60008381526020019081526020016000206040518060e00160405290816000820160009054906101000a900473ffffffffffffffffffffffffffffffffffffffff1673ffffffffffffffffffffffffffffffffffffffff1673ffffffffffffffffffffffffffffffffffffffff168152602001600182018054611f7f90613d9c565b80601f0160208091040260200160405190810160405280929190818152602001828054611fab90613d9c565b8015611ff85780601f10611fcd57610100808354040283529160200191611ff8565b820191906000526020600020905b815481529060010190602001808311611fdb57829003601f168201915b5050505050815260200160028201805461201190613d9c565b80601f016020809104026020016040519081016040528092919081815260200182805461203d90613d9c565b801561208a5780601f1061205f5761010080835404028352916020019161208a565b820191906000526020600020905b81548152906001019060200180831161206d57829003601f168201915b5050505050815260200160038201805480602002602001604051908101604052809291908181526020016000905b828210156121645783829060005260206000200180546120d790613d9c565b80601f016020809104026020016040519081016040528092919081815260200182805461210390613d9c565b80156121505780601f1061212557610100808354040283529160200191612150565b820191906000526020600020905b81548152906001019060200180831161213357829003601f168201915b5050505050815260200190600101906120b8565b5050505081526020016004820160009054906101000a900460ff161515151581526020016004820160019054906101000a900460ff161515151581526020016004820160029054906101000a900460ff1615151515815250509050919050565b6000600a60008373ffffffffffffffffffffffffffffffffffffffff1673ffffffffffffffffffffffffffffffffffffffff16815260200190815260200160002060030160009054906101000a900460ff169050919050565b600060011515600d600086815260200190815260200160002060040160009054906101000a900460ff16151514612289576040517f08c379a000000000000000000000000000000000000000000000000000000000815260040161228090614496565b60405180910390fd5b60011515600d600086815260200190815260200160002060040160019054906101000a900460ff161515146122f3576040517f08c379a00000000000000000000000000000000000000000000000000000000081526004016122ea90614502565b60405180910390fd5b600115156010600085815260200190815260200160002060040160009054906101000a900460ff1615151461235d576040517f08c379a000000000000000000000000000000000000000000000000000000000815260040161235490614594565b60405180910390fd5b600115156010600085815260200190815260200160002060040160019054906101000a900460ff161515146123c7576040517f08c379a00000000000000000000000000000000000000000000000000000000081526004016123be90614626565b60405180910390fd5b60006001600d6000878152602001908152602001600020600301805490506123ef91906143f0565b67ffffffffffffffff81111561240857612407612e52565b5b60405190808252806020026020018201604052801561243b57816020015b60608152602001906001900390816124265790505b50905060006001601060008781526020019081526020016000206003018054905061246691906143f0565b67ffffffffffffffff81111561247f5761247e612e52565b5b6040519080825280602002602001820160405280156124b257816020015b606081526020019060019003908161249d5790505b5090506000805b600d60008981526020019081526020016000206003018054905081101561269d57600d600089815260200190815260200160002060030181815481106125025761250161432f565b5b9060005260206000200160405160200161251c91906142a1565b60405160208183030381529060405280519060200120866040516020016125439190613a57565b60405160208183030381529060405280519060200120036125a157600d600089815260200190815260200160002060030181815481106125865761258561432f565b5b90600052602060002001600061259c9190612d44565b61268a565b600d600089815260200190815260200160002060030181815481106125c9576125c861432f565b5b9060005260206000200180546125de90613d9c565b80601f016020809104026020016040519081016040528092919081815260200182805461260a90613d9c565b80156126575780601f1061262c57610100808354040283529160200191612657565b820191906000526020600020905b81548152906001019060200180831161263a57829003601f168201915b505050505084838151811061266f5761266e61432f565b5b60200260200101819052506001826126879190614646565b91505b808061269590613853565b9150506124b9565b5082600d600089815260200190815260200160002060030190805190602001906126c8929190612c24565b506000905060005b60106000888152602001908152602001600020600301805490508110156128b4576010600088815260200190815260200160002060030181815481106127195761271861432f565b5b9060005260206000200160405160200161273391906142a1565b604051602081830303815290604052805190602001208660405160200161275a9190613a57565b60405160208183030381529060405280519060200120036127b85760106000888152602001908152602001600020600301818154811061279d5761279c61432f565b5b9060005260206000200160006127b39190612d44565b6128a1565b6010600088815260200190815260200160002060030181815481106127e0576127df61432f565b5b9060005260206000200180546127f590613d9c565b80601f016020809104026020016040519081016040528092919081815260200182805461282190613d9c565b801561286e5780601f106128435761010080835404028352916020019161286e565b820191906000526020600020905b81548152906001019060200180831161285157829003601f168201915b50505050508383815181106128865761288561432f565b5b602002602001018190525060018261289e9190614646565b91505b80806128ac90613853565b9150506126d0565b50816010600088815260200190815260200160002060030190805190602001906128df929190612c24565b50600193505050509392505050565b6060601360006128fe9190612c7d565b60005b8451811015612af55760106000600983815481106129225761292161432f565b5b9060005260206000200154815260200190815260200160002060010160405160200161294e91906142a1565b60405160208183030381529060405280519060200120600d600086815260200190815260200160002060010160405160200161298a91906142a1565b6040516020818303038152906040528051906020012003612ae25760005b60106000600984815481106129c0576129bf61432f565b5b9060005260206000200154815260200190815260200160002060030180549050811015612ae05760106000600984815481106129ff576129fe61432f565b5b906000526020600020015481526020019081526020016000206003018181548110612a2d57612a2c61432f565b5b90600052602060002001604051602001612a4791906142a1565b6040516020818303038152906040528051906020012084604051602001612a6e9190613a57565b6040516020818303038152906040528051906020012003612acd576013868381518110612a9e57612a9d61432f565b5b602002602001015190806001815401808255809150506001900390600052602060002001600090919091909150555b8080612ad890613853565b9150506129a8565b505b8080612aed90613853565b915050612901565b506013805480602002602001604051908101604052809291908181526020018280548015612b4257602002820191906000526020600020905b815481526020019060010190808311612b2e575b505050505090509392505050565b6000600d600083815260200190815260200160002060040160009054906101000a900460ff169050919050565b600080600d60008481526020019081526020016000206003018054905003612bcc576001600c600084815260200190815260200160002060006101000a81548160ff0219169083151502179055505b600d6000838152602001908152602001600020600301805490509050919050565b600060086001600880549050612c0391906143f0565b81548110612c1457612c1361432f565b5b9060005260206000200154905090565b828054828255906000526020600020908101928215612c6c579160200282015b82811115612c6b578251829081612c5b9190613f79565b5091602001919060010190612c44565b5b509050612c799190612d84565b5090565b5080546000825590600052602060002090810190612c9b9190612da8565b50565b828054828255906000526020600020908101928215612cda579160200282015b82811115612cd9578251825591602001919060010190612cbe565b5b509050612ce79190612da8565b5090565b6040518060e00160405280600073ffffffffffffffffffffffffffffffffffffffff1681526020016060815260200160608152602001606081526020016000151581526020016000151581526020016000151581525090565b508054612d5090613d9c565b6000825580601f10612d625750612d81565b601f016020900490600052602060002090810190612d809190612da8565b5b50565b5b80821115612da45760008181612d9b9190612d44565b50600101612d85565b5090565b5b80821115612dc1576000816000905550600101612da9565b5090565b6000604051905090565b600080fd5b600080fd5b600073ffffffffffffffffffffffffffffffffffffffff82169050919050565b6000612e0482612dd9565b9050919050565b612e1481612df9565b8114612e1f57600080fd5b50565b600081359050612e3181612e0b565b92915050565b600080fd5b600080fd5b6000601f19601f8301169050919050565b7f4e487b7100000000000000000000000000000000000000000000000000000000600052604160045260246000fd5b612e8a82612e41565b810181811067ffffffffffffffff82111715612ea957612ea8612e52565b5b80604052505050565b6000612ebc612dc5565b9050612ec88282612e81565b919050565b600067ffffffffffffffff821115612ee857612ee7612e52565b5b612ef182612e41565b9050602081019050919050565b82818337600083830152505050565b6000612f20612f1b84612ecd565b612eb2565b905082815260208101848484011115612f3c57612f3b612e3c565b5b612f47848285612efe565b509392505050565b600082601f830112612f6457612f63612e37565b5b8135612f74848260208601612f0d565b91505092915050565b600067ffffffffffffffff821115612f9857612f97612e52565b5b602082029050602081019050919050565b600080fd5b6000612fc1612fbc84612f7d565b612eb2565b90508083825260208201905060208402830185811115612fe457612fe3612fa9565b5b835b8181101561302b57803567ffffffffffffffff81111561300957613008612e37565b5b8086016130168982612f4f565b85526020850194505050602081019050612fe6565b5050509392505050565b600082601f83011261304a57613049612e37565b5b813561305a848260208601612fae565b91505092915050565b60008115159050919050565b61307881613063565b811461308357600080fd5b50565b6000813590506130958161306f565b92915050565b600080600080600060a086880312156130b7576130b6612dcf565b5b60006130c588828901612e22565b955050602086013567ffffffffffffffff8111156130e6576130e5612dd4565b5b6130f288828901612f4f565b945050604086013567ffffffffffffffff81111561311357613112612dd4565b5b61311f88828901612f4f565b935050606086013567ffffffffffffffff8111156131405761313f612dd4565b5b61314c88828901613035565b925050608061315d88828901613086565b9150509295509295909350565b6000819050919050565b61317d8161316a565b82525050565b60006020820190506131986000830184613174565b92915050565b6131a78161316a565b81146131b257600080fd5b50565b6000813590506131c48161319e565b92915050565b6000602082840312156131e0576131df612dcf565b5b60006131ee848285016131b5565b91505092915050565b61320081613063565b82525050565b600060208201905061321b60008301846131f7565b92915050565b6000806000806080858703121561323b5761323a612dcf565b5b600085013567ffffffffffffffff81111561325957613258612dd4565b5b61326587828801612f4f565b9450506020613276878288016131b5565b935050604085013567ffffffffffffffff81111561329757613296612dd4565b5b6132a387828801612f4f565b92505060606132b487828801612e22565b91505092959194509250565b600081519050919050565b600082825260208201905092915050565b6000819050602082019050919050565b6132f58161316a565b82525050565b600061330783836132ec565b60208301905092915050565b6000602082019050919050565b600061332b826132c0565b61333581856132cb565b9350613340836132dc565b8060005b8381101561337157815161335888826132fb565b975061336383613313565b925050600181019050613344565b5085935050505092915050565b600060208201905081810360008301526133988184613320565b905092915050565b6133a981612df9565b82525050565b600081519050919050565b600082825260208201905092915050565b60005b838110156133e95780820151818401526020810190506133ce565b60008484015250505050565b6000613400826133af565b61340a81856133ba565b935061341a8185602086016133cb565b61342381612e41565b840191505092915050565b600081519050919050565b600082825260208201905092915050565b6000819050602082019050919050565b600061346683836133f5565b905092915050565b6000602082019050919050565b60006134868261342e565b6134908185613439565b9350836020820285016134a28561344a565b8060005b858110156134de57848403895281516134bf858261345a565b94506134ca8361346e565b925060208a019950506001810190506134a6565b50829750879550505050505092915050565b6134f981613063565b82525050565b600060e08301600083015161351760008601826133a0565b506020830151848203602086015261352f82826133f5565b9150506040830151848203604086015261354982826133f5565b91505060608301518482036060860152613563828261347b565b915050608083015161357860808601826134f0565b5060a083015161358b60a08601826134f0565b5060c083015161359e60c08601826134f0565b508091505092915050565b600060208201905081810360008301526135c381846134ff565b905092915050565b6000806000606084860312156135e4576135e3612dcf565b5b600084013567ffffffffffffffff81111561360257613601612dd4565b5b61360e86828701612f4f565b935050602061361f868287016131b5565b925050604061363086828701612e22565b9150509250925092565b6000602082840312156136505761364f612dcf565b5b600061365e84828501612e22565b91505092915050565b6000806000606084860312156136805761367f612dcf565b5b600061368e868287016131b5565b935050602061369f868287016131b5565b925050604084013567ffffffffffffffff8111156136c0576136bf612dd4565b5b6136cc86828701612f4f565b9150509250925092565b600067ffffffffffffffff8211156136f1576136f0612e52565b5b602082029050602081019050919050565b6000613715613710846136d6565b612eb2565b9050808382526020820190506020840283018581111561373857613737612fa9565b5b835b81811015613761578061374d88826131b5565b84526020840193505060208101905061373a565b5050509392505050565b600082601f8301126137805761377f612e37565b5b8135613790848260208601613702565b91505092915050565b6000806000606084860312156137b2576137b1612dcf565b5b600084013567ffffffffffffffff8111156137d0576137cf612dd4565b5b6137dc8682870161376b565b93505060206137ed868287016131b5565b925050604084013567ffffffffffffffff81111561380e5761380d612dd4565b5b61381a86828701612f4f565b9150509250925092565b7f4e487b7100000000000000000000000000000000000000000000000000000000600052601160045260246000fd5b600061385e8261316a565b91507fffffffffffffffffffffffffffffffffffffffffffffffffffffffffffffffff82036138905761388f613824565b5b600182019050919050565b6000819050919050565b6138b66138b18261316a565b61389b565b82525050565b60008160601b9050919050565b60006138d4826138bc565b9050919050565b60006138e6826138c9565b9050919050565b6138fe6138f982612df9565b6138db565b82525050565b600061391082866138a5565b60208201915061392082856138ed565b60148201915061393082846138a5565b602082019150819050949350505050565b7f4e487b7100000000000000000000000000000000000000000000000000000000600052601260045260246000fd5b600061397b8261316a565b91506139868361316a565b92508261399657613995613941565b5b828206905092915050565b600082825260208201905092915050565b7f4f2b000000000000000000000000000000000000000000000000000000000000600082015250565b60006139e86002836139a1565b91506139f3826139b2565b602082019050919050565b60006020820190508181036000830152613a17816139db565b9050919050565b6000613a29826133af565b613a3381856139a1565b9350613a438185602086016133cb565b613a4c81612e41565b840191505092915050565b60006020820190508181036000830152613a718184613a1e565b905092915050565b7f4f2d000000000000000000000000000000000000000000000000000000000000600082015250565b6000613aaf6002836139a1565b9150613aba82613a79565b602082019050919050565b60006020820190508181036000830152613ade81613aa2565b9050919050565b7f412b000000000000000000000000000000000000000000000000000000000000600082015250565b6000613b1b6002836139a1565b9150613b2682613ae5565b602082019050919050565b60006020820190508181036000830152613b4a81613b0e565b9050919050565b7f412d000000000000000000000000000000000000000000000000000000000000600082015250565b6000613b876002836139a1565b9150613b9282613b51565b602082019050919050565b60006020820190508181036000830152613bb681613b7a565b9050919050565b7f422b000000000000000000000000000000000000000000000000000000000000600082015250565b6000613bf36002836139a1565b9150613bfe82613bbd565b602082019050919050565b60006020820190508181036000830152613c2281613be6565b9050919050565b7f422d000000000000000000000000000000000000000000000000000000000000600082015250565b6000613c5f6002836139a1565b9150613c6a82613c29565b602082019050919050565b60006020820190508181036000830152613c8e81613c52565b9050919050565b7f41422b0000000000000000000000000000000000000000000000000000000000600082015250565b6000613ccb6003836139a1565b9150613cd682613c95565b602082019050919050565b60006020820190508181036000830152613cfa81613cbe565b9050919050565b7f41422d0000000000000000000000000000000000000000000000000000000000600082015250565b6000613d376003836139a1565b9150613d4282613d01565b602082019050919050565b60006020820190508181036000830152613d6681613d2a565b9050919050565b7f4e487b7100000000000000000000000000000000000000000000000000000000600052602260045260246000fd5b60006002820490506001821680613db457607f821691505b602082108103613dc757613dc6613d6d565b5b50919050565b60008190508160005260206000209050919050565b60006020601f8301049050919050565b600082821b905092915050565b600060088302613e2f7fffffffffffffffffffffffffffffffffffffffffffffffffffffffffffffffff82613df2565b613e398683613df2565b95508019841693508086168417925050509392505050565b6000819050919050565b6000613e76613e71613e6c8461316a565b613e51565b61316a565b9050919050565b6000819050919050565b613e9083613e5b565b613ea4613e9c82613e7d565b848454613dff565b825550505050565b600090565b613eb9613eac565b613ec4818484613e87565b505050565b5b81811015613ee857613edd600082613eb1565b600181019050613eca565b5050565b601f821115613f2d57613efe81613dcd565b613f0784613de2565b81016020851015613f16578190505b613f2a613f2285613de2565b830182613ec9565b50505b505050565b600082821c905092915050565b6000613f5060001984600802613f32565b1980831691505092915050565b6000613f698383613f3f565b9150826002028217905092915050565b613f82826133af565b67ffffffffffffffff811115613f9b57613f9a612e52565b5b613fa58254613d9c565b613fb0828285613eec565b600060209050601f831160018114613fe35760008415613fd1578287015190505b613fdb8582613f5d565b865550614043565b601f198416613ff186613dcd565b60005b8281101561401957848901518255600182019150602085019450602081019050613ff4565b868310156140365784890151614032601f891682613f3f565b8355505b6001600288020188555050505b505050505050565b7f536f727279206e6f20737563682070617469656e742065786973747300000000600082015250565b6000614081601c836139a1565b915061408c8261404b565b602082019050919050565b600060208201905081810360008301526140b081614074565b9050919050565b7f536f727279207468652070617469656e74206f7267616e73206861766520616c60008201527f7265616479206265656e20706c65646765640000000000000000000000000000602082015250565b60006141136032836139a1565b915061411e826140b7565b604082019050919050565b6000602082019050818103600083015261414281614106565b9050919050565b6000815190506141588161306f565b92915050565b60006020828403121561417457614173612dcf565b5b600061418284828501614149565b91505092915050565b7f476976656e20446f6e6f7220686173206e6f74206265656e20617070726f766560008201527f6420666f72204f7267616e20446f6e6174696f6e2050726f6365737300000000602082015250565b60006141e7603c836139a1565b91506141f28261418b565b604082019050919050565b60006020820190508181036000830152614216816141da565b9050919050565b6000815461422a81613d9c565b61423481866139a1565b9450600182166000811461424f576001811461426557614298565b60ff198316865281151560200286019350614298565b61426e85613dcd565b60005b8381101561429057815481890152600182019150602081019050614271565b808801955050505b50505092915050565b600060208201905081810360008301526142bb818461421d565b905092915050565b7f536f7272792077726f6e672064657461696c7320656e74657265640000000000600082015250565b60006142f9601b836139a1565b9150614304826142c3565b602082019050919050565b60006020820190508181036000830152614328816142ec565b9050919050565b7f4e487b7100000000000000000000000000000000000000000000000000000000600052603260045260246000fd5b7f536f72727920746865207573657220686173276e7420706c656467656420746860008201527f6973206f7267616e2e2e00000000000000000000000000000000000000000000602082015250565b60006143ba602a836139a1565b91506143c58261435e565b604082019050919050565b600060208201905081810360008301526143e9816143ad565b9050919050565b60006143fb8261316a565b91506144068361316a565b925082820390508181111561441e5761441d613824565b5b92915050565b7f506c6561736520636865636b20616e642076657269667920796f757220446f6e60008201527f6f72204964212100000000000000000000000000000000000000000000000000602082015250565b60006144806027836139a1565b915061448b82614424565b604082019050919050565b600060208201905081810360008301526144af81614473565b9050919050565b7f54686520476976656e20446f6e6f722069732072656a65637465642e2e212100600082015250565b60006144ec601f836139a1565b91506144f7826144b6565b602082019050919050565b6000602082019050818103600083015261451b816144df565b9050919050565b7f506c6561736520636865636b20616e642076657269667920796f75722052656360008201527f6965766572204964212100000000000000000000000000000000000000000000602082015250565b600061457e602a836139a1565b915061458982614522565b604082019050919050565b600060208201905081810360008301526145ad81614571565b9050919050565b7f54686520476976656e2052656369657665722069732072656a65637465642e2e60008201527f2121000000000000000000000000000000000000000000000000000000000000602082015250565b60006146106022836139a1565b915061461b826145b4565b604082019050919050565b6000602082019050818103600083015261463f81614603565b9050919050565b60006146518261316a565b915061465c8361316a565b925082820190508082111561467457614673613824565b5b9291505056fea264697066735822122014b1074477330717d3c8a3d6fc4860b0a63e7a9f5b0701321cd0fe1577a3d31064736f6c63430008140033",
  "linkReferences": {},
  "deployedLinkReferences": {}
}