{
  "_format": "hh-sol-artifact-1",
  "contractName": "register",
  "sourceName": "contracts/Signin.sol",
  "abi": [
    {
      "inputs": [
        {
          "internalType": "address",
          "name": "id",
          "type": "address"
        }
      ],
      "name": "check",
      "outputs": [
        {
          "internalType": "bool",
          "name": "",
          "type": "bool"
        }
      ],
      "stateMutability": "view",
      "type": "function"
    },
    {
      "inputs": [
        {
          "internalType": "uint256",
          "name": "id",
          "type": "uint256"
        },
        {
          "internalType": "uint256",
          "name": "r_id",
          "type": "uint256"
        },
        {
          "internalType": "string",
          "name": "organ",
          "type": "string"
        }
      ],
      "name": "end_surgery",
      "outputs": [
        {
          "internalType": "bool",
          "name": "",
          "type": "bool"
        }
      ],
      "stateMutability": "nonpayable",
      "type": "function"
    },
    {
      "inputs": [],
      "name": "getDonorId",
      "outputs": [
        {
          "internalType": "uint256",
          "name": "",
          "type": "uint256"
        }
      ],
      "stateMutability": "view",
      "type": "function"
    },
    {
      "inputs": [],
      "name": "getMatchedArray",
      "outputs": [
        {
          "internalType": "uint256[]",
          "name": "",
          "type": "uint256[]"
        }
      ],
      "stateMutability": "view",
      "type": "function"
    },
    {
      "inputs": [
        {
          "internalType": "uint256",
          "name": "id",
          "type": "uint256"
        }
      ],
      "name": "getOrganLength",
      "outputs": [
        {
          "internalType": "uint256",
          "name": "",
          "type": "uint256"
        }
      ],
      "stateMutability": "nonpayable",
      "type": "function"
    },
    {
      "inputs": [],
      "name": "getRecieverId",
      "outputs": [
        {
          "internalType": "uint256",
          "name": "",
          "type": "uint256"
        }
      ],
      "stateMutability": "view",
      "type": "function"
    },
    {
      "inputs": [
        {
          "internalType": "uint256",
          "name": "id",
          "type": "uint256"
        }
      ],
      "name": "getRegDonor",
      "outputs": [
        {
          "components": [
            {
              "internalType": "address",
              "name": "metamask_address",
              "type": "address"
            },
            {
              "internalType": "string",
              "name": "hla",
              "type": "string"
            },
            {
              "internalType": "string",
              "name": "bloodgrp",
              "type": "string"
            },
            {
              "internalType": "string[]",
              "name": "organs",
              "type": "string[]"
            },
            {
              "internalType": "bool",
              "name": "flag",
              "type": "bool"
            },
            {
              "internalType": "bool",
              "name": "status",
              "type": "bool"
            },
            {
              "internalType": "bool",
              "name": "braindead",
              "type": "bool"
            }
          ],
          "internalType": "struct register.RegDonor",
          "name": "",
          "type": "tuple"
        }
      ],
      "stateMutability": "view",
      "type": "function"
    },
    {
      "inputs": [
        {
          "internalType": "uint256",
          "name": "id",
          "type": "uint256"
        }
      ],
      "name": "getRegReceive",
      "outputs": [
        {
          "components": [
            {
              "internalType": "address",
              "name": "metamask_address",
              "type": "address"
            },
            {
              "internalType": "string",
              "name": "hla",
              "type": "string"
            },
            {
              "internalType": "string",
              "name": "bloodgrp",
              "type": "string"
            },
            {
              "internalType": "string[]",
              "name": "organs",
              "type": "string[]"
            },
            {
              "internalType": "bool",
              "name": "flag",
              "type": "bool"
            },
            {
              "internalType": "bool",
              "name": "status",
              "type": "bool"
            },
            {
              "internalType": "bool",
              "name": "braindead",
              "type": "bool"
            }
          ],
          "internalType": "struct register.RegDonor",
          "name": "",
          "type": "tuple"
        }
      ],
      "stateMutability": "view",
      "type": "function"
    },
    {
      "inputs": [
        {
          "internalType": "uint256[]",
          "name": "receivers",
          "type": "uint256[]"
        },
        {
          "internalType": "uint256",
          "name": "id",
          "type": "uint256"
        },
        {
          "internalType": "string",
          "name": "org",
          "type": "string"
        }
      ],
      "name": "matchDonorwReceiver",
      "outputs": [
        {
          "internalType": "uint256[]",
          "name": "",
          "type": "uint256[]"
        }
      ],
      "stateMutability": "nonpayable",
      "type": "function"
    },
    {
      "inputs": [
        {
          "internalType": "string",
          "name": "bloodgrp",
          "type": "string"
        },
        {
          "internalType": "uint256",
          "name": "id",
          "type": "uint256"
        },
        {
          "internalType": "string",
          "name": "organ",
          "type": "string"
        }
      ],
      "name": "passbloodgrpid",
      "outputs": [
        {
          "internalType": "uint256[]",
          "name": "",
          "type": "uint256[]"
        }
      ],
      "stateMutability": "nonpayable",
      "type": "function"
    },
    {
      "inputs": [
        {
          "internalType": "address",
          "name": "metamask_address",
          "type": "address"
        },
        {
          "internalType": "string",
          "name": "hla",
          "type": "string"
        },
        {
          "internalType": "string",
          "name": "bloodgrp",
          "type": "string"
        },
        {
          "internalType": "string[]",
          "name": "organs",
          "type": "string[]"
        },
        {
          "internalType": "bool",
          "name": "status",
          "type": "bool"
        }
      ],
      "name": "registerDonor",
      "outputs": [
        {
          "internalType": "uint256",
          "name": "",
          "type": "uint256"
        }
      ],
      "stateMutability": "nonpayable",
      "type": "function"
    },
    {
      "inputs": [
        {
          "internalType": "string",
          "name": "name",
          "type": "string"
        },
        {
          "internalType": "uint256",
          "name": "hospital_id",
          "type": "uint256"
        },
        {
          "internalType": "address",
          "name": "metamask_address",
          "type": "address"
        }
      ],
      "name": "registerHospital",
      "outputs": [],
      "stateMutability": "payable",
      "type": "function"
    },
    {
      "inputs": [
        {
          "internalType": "address",
          "name": "metamask_address",
          "type": "address"
        },
        {
          "internalType": "string",
          "name": "hla",
          "type": "string"
        },
        {
          "internalType": "string",
          "name": "bloodgrp",
          "type": "string"
        },
        {
          "internalType": "string[]",
          "name": "organs",
          "type": "string[]"
        },
        {
          "internalType": "bool",
          "name": "status",
          "type": "bool"
        }
      ],
      "name": "registerReceive",
      "outputs": [
        {
          "internalType": "uint256",
          "name": "",
          "type": "uint256"
        }
      ],
      "stateMutability": "nonpayable",
      "type": "function"
    }
  ],
  "bytecode": "0x60806040526000600f5534801561001557600080fd5b50613b8a806100256000396000f3fe6080604052600436106100c25760003560e01c8063924455f11161007f578063c23697a811610059578063c23697a8146102a7578063e6cb5512146102e4578063eb0c3f5b14610321578063f7e3d5871461035e576100c2565b8063924455f11461022357806393237d571461023f578063b73d51791461026a576100c2565b806319ffeb8b146100c757806325738f56146101045780633198479f146101415780633e79dee91461017e5780636d8f243d146101bb57806376607bae146101e6575b600080fd5b3480156100d357600080fd5b506100ee60048036038101906100e9919061276d565b610389565b6040516100fb91906128b6565b60405180910390f35b34801561011057600080fd5b5061012b600480360381019061012691906128d8565b610c53565b6040516101389190612962565b60405180910390f35b34801561014d57600080fd5b5061016860048036038101906101639190612aed565b610e59565b6040516101759190612bcb565b60405180910390f35b34801561018a57600080fd5b506101a560048036038101906101a09190612aed565b611665565b6040516101b29190612bcb565b60405180910390f35b3480156101c757600080fd5b506101d06119ee565b6040516101dd91906128b6565b60405180910390f35b3480156101f257600080fd5b5061020d60048036038101906102089190612be6565b611a46565b60405161021a9190612e1c565b60405180910390f35b61023d60048036038101906102389190612e3e565b611d17565b005b34801561024b57600080fd5b50610254611dd2565b6040516102619190612bcb565b60405180910390f35b34801561027657600080fd5b50610291600480360381019061028c9190612be6565b611e09565b60405161029e9190612e1c565b60405180910390f35b3480156102b357600080fd5b506102ce60048036038101906102c99190612ead565b6120da565b6040516102db9190612962565b60405180910390f35b3480156102f057600080fd5b5061030b60048036038101906103069190612f9d565b612133565b60405161031891906128b6565b60405180910390f35b34801561032d57600080fd5b5061034860048036038101906103439190612be6565b612395565b6040516103559190612bcb565b60405180910390f35b34801561036a57600080fd5b50610373612405565b6040516103809190612bcb565b60405180910390f35b606060146000610399919061243c565b6000801515600c600086815260200190815260200160002060009054906101000a900460ff16151514610401576040517f08c379a00000000000000000000000000000000000000000000000000000000081526004016103f8906130ab565b60405180910390fd5b600d600085815260200190815260200160002060040160009054906101000a900460ff16610464576040517f08c379a000000000000000000000000000000000000000000000000000000000815260040161045b90613117565b60405180910390fd5b600d600085815260200190815260200160002060020160405160200161048a9190613230565b60405160208183030381529060405280519060200120856040516020016104b1919061328b565b6040516020818303038152906040528051906020012014610507576040517f08c379a00000000000000000000000000000000000000000000000000000000081526004016104fe906132f9565b60405180910390fd5b60005b600d6000868152602001908152602001600020600301805490508110156105c757600d6000868152602001908152602001600020600301818154811061055357610552613319565b5b9060005260206000200160405160200161056d9190613230565b6040516020818303038152906040528051906020012084604051602001610594919061328b565b60405160208183030381529060405280519060200120036105b457600191505b80806105bf90613377565b91505061050a565b50600015158115150361060f576040517f08c379a000000000000000000000000000000000000000000000000000000000815260040161060690613431565b60405180910390fd5b60405160200161061e9061349d565b6040516020818303038152906040528051906020012085604051602001610645919061328b565b60405160208183030381529060405280519060200120036106d6576106bb60008054806020026020016040519081016040528092919081815260200182805480156106af57602002820191906000526020600020905b81548152602001906001019080831161069b575b50505050508585612133565b601490805190602001906106d092919061245d565b50610bf8565b6040516020016106e590613509565b604051602081830303815290604052805190602001208560405160200161070c919061328b565b604051602081830303815290604052805190602001200361079d57610782600180548060200260200160405190810160405280929190818152602001828054801561077657602002820191906000526020600020905b815481526020019060010190808311610762575b50505050508585612133565b6014908051906020019061079792919061245d565b50610bf7565b6040516020016107ac90613575565b60405160208183030381529060405280519060200120856040516020016107d3919061328b565b604051602081830303815290604052805190602001200361086457610849600280548060200260200160405190810160405280929190818152602001828054801561083d57602002820191906000526020600020905b815481526020019060010190808311610829575b50505050508585612133565b6014908051906020019061085e92919061245d565b50610bf6565b604051602001610873906135e1565b604051602081830303815290604052805190602001208560405160200161089a919061328b565b604051602081830303815290604052805190602001200361092b57610910600380548060200260200160405190810160405280929190818152602001828054801561090457602002820191906000526020600020905b8154815260200190600101908083116108f0575b50505050508585612133565b6014908051906020019061092592919061245d565b50610bf5565b60405160200161093a9061364d565b6040516020818303038152906040528051906020012085604051602001610961919061328b565b60405160208183030381529060405280519060200120036109f2576109d760048054806020026020016040519081016040528092919081815260200182805480156109cb57602002820191906000526020600020905b8154815260200190600101908083116109b7575b50505050508585612133565b601490805190602001906109ec92919061245d565b50610bf4565b604051602001610a01906136b9565b6040516020818303038152906040528051906020012085604051602001610a28919061328b565b6040516020818303038152906040528051906020012003610ab957610a9e6005805480602002602001604051908101604052809291908181526020018280548015610a9257602002820191906000526020600020905b815481526020019060010190808311610a7e575b50505050508585612133565b60149080519060200190610ab392919061245d565b50610bf3565b604051602001610ac890613725565b6040516020818303038152906040528051906020012085604051602001610aef919061328b565b6040516020818303038152906040528051906020012003610b8057610b656007805480602002602001604051908101604052809291908181526020018280548015610b5957602002820191906000526020600020905b815481526020019060010190808311610b45575b50505050508585612133565b60149080519060200190610b7a92919061245d565b50610bf2565b610bdb6006805480602002602001604051908101604052809291908181526020018280548015610bcf57602002820191906000526020600020905b815481526020019060010190808311610bbb575b50505050508585612133565b60149080519060200190610bf092919061245d565b505b5b5b5b5b5b5b6014805480602002602001604051908101604052809291908181526020018280548015610c4457602002820191906000526020600020905b815481526020019060010190808311610c30575b50505050509150509392505050565b600080600090505b600d600086815260200190815260200160002060030180549050811015610d5257600d60008681526020019081526020016000206003018181548110610ca457610ca3613319565b5b90600052602060002001604051602001610cbe9190613230565b6040516020818303038152906040528051906020012083604051602001610ce5919061328b565b6040516020818303038152906040528051906020012003610d3f57600d60008681526020019081526020016000206003018181548110610d2857610d27613319565b5b906000526020600020016000610d3e91906124aa565b5b8080610d4a90613377565b915050610c5b565b5060005b6010600085815260200190815260200160002060030180549050811015610e4d57601060008581526020019081526020016000206003018181548110610d9f57610d9e613319565b5b90600052602060002001604051602001610db99190613230565b6040516020818303038152906040528051906020012083604051602001610de0919061328b565b6040516020818303038152906040528051906020012003610e3a57601060008681526020019081526020016000206003018181548110610e2357610e22613319565b5b906000526020600020016000610e3991906124aa565b5b8080610e4590613377565b915050610d56565b50600190509392505050565b6000806040518060e001604052808873ffffffffffffffffffffffffffffffffffffffff1681526020018781526020018681526020018581526020016001151581526020018415158152602001600015158152509050600f6000815480929190610ec290613377565b919050555060005b620f42404233600f54604051602001610ee5939291906137ae565b6040516020818303038152906040528051906020012060001c610f08919061381a565b905060011515600b600083815260200190815260200160002060009054906101000a900460ff16151514610eca576001600b600083815260200190815260200160002060006101000a81548160ff021916908315150217905550604051602001610f719061349d565b6040516020818303038152906040528051906020012086604051602001610f98919061328b565b60405160208183030381529060405280519060200120148015610fbf575060011515841515145b15610ff25760008190806001815401808255809150506001900390600052602060002001600090919091909150556113e5565b60405160200161100190613509565b6040516020818303038152906040528051906020012086604051602001611028919061328b565b6040516020818303038152906040528051906020012014801561104f575060011515841515145b156110825760018190806001815401808255809150506001900390600052602060002001600090919091909150556113e4565b60405160200161109190613575565b60405160208183030381529060405280519060200120866040516020016110b8919061328b565b604051602081830303815290604052805190602001201480156110df575060011515841515145b156111125760028190806001815401808255809150506001900390600052602060002001600090919091909150556113e3565b604051602001611121906135e1565b6040516020818303038152906040528051906020012086604051602001611148919061328b565b6040516020818303038152906040528051906020012014801561116f575060011515841515145b156111a25760038190806001815401808255809150506001900390600052602060002001600090919091909150556113e2565b6040516020016111b19061364d565b60405160208183030381529060405280519060200120866040516020016111d8919061328b565b604051602081830303815290604052805190602001201480156111ff575060011515841515145b156112325760048190806001815401808255809150506001900390600052602060002001600090919091909150556113e1565b604051602001611241906136b9565b6040516020818303038152906040528051906020012086604051602001611268919061328b565b6040516020818303038152906040528051906020012014801561128f575060011515841515145b156112c25760058190806001815401808255809150506001900390600052602060002001600090919091909150556113e0565b6040516020016112d190613725565b60405160208183030381529060405280519060200120866040516020016112f8919061328b565b6040516020818303038152906040528051906020012014801561131f575060011515841515145b156113525760078190806001815401808255809150506001900390600052602060002001600090919091909150556113df565b60405160200161136190613897565b6040516020818303038152906040528051906020012086604051602001611388919061328b565b604051602081830303815290604052805190602001201480156113af575060011515841515145b156113de5760068190806001815401808255809150506001900390600052602060002001600090919091909150555b5b5b5b5b5b5b5b600115158415150361152657816010600083815260200190815260200160002060008201518160000160006101000a81548173ffffffffffffffffffffffffffffffffffffffff021916908373ffffffffffffffffffffffffffffffffffffffff16021790555060208201518160010190816114619190613a4e565b5060408201518160020190816114779190613a4e565b5060608201518160030190805190602001906114949291906124ea565b5060808201518160040160006101000a81548160ff02191690831515021790555060a08201518160040160016101000a81548160ff02191690831515021790555060c08201518160040160026101000a81548160ff0219169083151502179055509050506009819080600181540180825580915050600190039060005260206000200160009091909190915055611657565b816012600083815260200190815260200160002060008201518160000160006101000a81548173ffffffffffffffffffffffffffffffffffffffff021916908373ffffffffffffffffffffffffffffffffffffffff16021790555060208201518160010190816115969190613a4e565b5060408201518160020190816115ac9190613a4e565b5060608201518160030190805190602001906115c99291906124ea565b5060808201518160040160006101000a81548160ff02191690831515021790555060a08201518160040160016101000a81548160ff02191690831515021790555060c08201518160040160026101000a81548160ff02191690831515021790555090505060098190806001815401808255809150506001900390600052602060002001600090919091909150555b809250505095945050505050565b6000806040518060e001604052808873ffffffffffffffffffffffffffffffffffffffff1681526020018781526020018681526020018581526020016001151581526020018415158152602001600015158152509050600f60008154809291906116ce90613377565b919050555060005b620f42404233600f546040516020016116f1939291906137ae565b6040516020818303038152906040528051906020012060001c611714919061381a565b905060011515600b600083815260200190815260200160002060009054906101000a900460ff161515146116d6576001600b600083815260200190815260200160002060006101000a81548160ff02191690831515021790555060011515841515036118af5781600d600083815260200190815260200160002060008201518160000160006101000a81548173ffffffffffffffffffffffffffffffffffffffff021916908373ffffffffffffffffffffffffffffffffffffffff16021790555060208201518160010190816117ea9190613a4e565b5060408201518160020190816118009190613a4e565b50606082015181600301908051906020019061181d9291906124ea565b5060808201518160040160006101000a81548160ff02191690831515021790555060a08201518160040160016101000a81548160ff02191690831515021790555060c08201518160040160026101000a81548160ff02191690831515021790555090505060088190806001815401808255809150506001900390600052602060002001600090919091909150556119e0565b81600e600083815260200190815260200160002060008201518160000160006101000a81548173ffffffffffffffffffffffffffffffffffffffff021916908373ffffffffffffffffffffffffffffffffffffffff160217905550602082015181600101908161191f9190613a4e565b5060408201518160020190816119359190613a4e565b5060608201518160030190805190602001906119529291906124ea565b5060808201518160040160006101000a81548160ff02191690831515021790555060a08201518160040160016101000a81548160ff02191690831515021790555060c08201518160040160026101000a81548160ff02191690831515021790555090505060088190806001815401808255809150506001900390600052602060002001600090919091909150555b809250505095945050505050565b60606013805480602002602001604051908101604052809291908181526020018280548015611a3c57602002820191906000526020600020905b815481526020019060010190808311611a28575b5050505050905090565b611a4e612543565b601060008381526020019081526020016000206040518060e00160405290816000820160009054906101000a900473ffffffffffffffffffffffffffffffffffffffff1673ffffffffffffffffffffffffffffffffffffffff1673ffffffffffffffffffffffffffffffffffffffff168152602001600182018054611ad290613166565b80601f0160208091040260200160405190810160405280929190818152602001828054611afe90613166565b8015611b4b5780601f10611b2057610100808354040283529160200191611b4b565b820191906000526020600020905b815481529060010190602001808311611b2e57829003601f168201915b50505050508152602001600282018054611b6490613166565b80601f0160208091040260200160405190810160405280929190818152602001828054611b9090613166565b8015611bdd5780601f10611bb257610100808354040283529160200191611bdd565b820191906000526020600020905b815481529060010190602001808311611bc057829003601f168201915b5050505050815260200160038201805480602002602001604051908101604052809291908181526020016000905b82821015611cb7578382906000526020600020018054611c2a90613166565b80601f0160208091040260200160405190810160405280929190818152602001828054611c5690613166565b8015611ca35780601f10611c7857610100808354040283529160200191611ca3565b820191906000526020600020905b815481529060010190602001808311611c8657829003601f168201915b505050505081526020019060010190611c0b565b5050505081526020016004820160009054906101000a900460ff161515151581526020016004820160019054906101000a900460ff161515151581526020016004820160029054906101000a900460ff1615151515815250509050919050565b6000604051806080016040528085815260200184815260200142815260200160011515815250905080600a60008473ffffffffffffffffffffffffffffffffffffffff1673ffffffffffffffffffffffffffffffffffffffff1681526020019081526020016000206000820151816000019081611d949190613a4e565b50602082015181600101556040820151816002015560608201518160030160006101000a81548160ff02191690831515021790555090505050505050565b600060096001600980549050611de89190613b20565b81548110611df957611df8613319565b5b9060005260206000200154905090565b611e11612543565b600d60008381526020019081526020016000206040518060e00160405290816000820160009054906101000a900473ffffffffffffffffffffffffffffffffffffffff1673ffffffffffffffffffffffffffffffffffffffff1673ffffffffffffffffffffffffffffffffffffffff168152602001600182018054611e9590613166565b80601f0160208091040260200160405190810160405280929190818152602001828054611ec190613166565b8015611f0e5780601f10611ee357610100808354040283529160200191611f0e565b820191906000526020600020905b815481529060010190602001808311611ef157829003601f168201915b50505050508152602001600282018054611f2790613166565b80601f0160208091040260200160405190810160405280929190818152602001828054611f5390613166565b8015611fa05780601f10611f7557610100808354040283529160200191611fa0565b820191906000526020600020905b815481529060010190602001808311611f8357829003601f168201915b5050505050815260200160038201805480602002602001604051908101604052809291908181526020016000905b8282101561207a578382906000526020600020018054611fed90613166565b80601f016020809104026020016040519081016040528092919081815260200182805461201990613166565b80156120665780601f1061203b57610100808354040283529160200191612066565b820191906000526020600020905b81548152906001019060200180831161204957829003601f168201915b505050505081526020019060010190611fce565b5050505081526020016004820160009054906101000a900460ff161515151581526020016004820160019054906101000a900460ff161515151581526020016004820160029054906101000a900460ff1615151515815250509050919050565b6000600a60008373ffffffffffffffffffffffffffffffffffffffff1673ffffffffffffffffffffffffffffffffffffffff16815260200190815260200160002060030160009054906101000a900460ff169050919050565b606060136000612143919061243c565b60005b845181101561233a57601060006009838154811061216757612166613319565b5b906000526020600020015481526020019081526020016000206001016040516020016121939190613230565b60405160208183030381529060405280519060200120600d60008681526020019081526020016000206001016040516020016121cf9190613230565b60405160208183030381529060405280519060200120036123275760005b601060006009848154811061220557612204613319565b5b906000526020600020015481526020019081526020016000206003018054905081101561232557601060006009848154811061224457612243613319565b5b90600052602060002001548152602001908152602001600020600301818154811061227257612271613319565b5b9060005260206000200160405160200161228c9190613230565b60405160208183030381529060405280519060200120846040516020016122b3919061328b565b60405160208183030381529060405280519060200120036123125760138683815181106122e3576122e2613319565b5b602002602001015190806001815401808255809150506001900390600052602060002001600090919091909150555b808061231d90613377565b9150506121ed565b505b808061233290613377565b915050612146565b50601380548060200260200160405190810160405280929190818152602001828054801561238757602002820191906000526020600020905b815481526020019060010190808311612373575b505050505090509392505050565b600080600d600084815260200190815260200160002060030180549050036123e4576001600c600084815260200190815260200160002060006101000a81548160ff0219169083151502179055505b600d6000838152602001908152602001600020600301805490509050919050565b60006008600160088054905061241b9190613b20565b8154811061242c5761242b613319565b5b9060005260206000200154905090565b508054600082559060005260206000209081019061245a919061259c565b50565b828054828255906000526020600020908101928215612499579160200282015b8281111561249857825182559160200191906001019061247d565b5b5090506124a6919061259c565b5090565b5080546124b690613166565b6000825580601f106124c857506124e7565b601f0160209004906000526020600020908101906124e6919061259c565b5b50565b828054828255906000526020600020908101928215612532579160200282015b828111156125315782518290816125219190613a4e565b509160200191906001019061250a565b5b50905061253f91906125b9565b5090565b6040518060e00160405280600073ffffffffffffffffffffffffffffffffffffffff1681526020016060815260200160608152602001606081526020016000151581526020016000151581526020016000151581525090565b5b808211156125b557600081600090555060010161259d565b5090565b5b808211156125d957600081816125d091906124aa565b506001016125ba565b5090565b6000604051905090565b600080fd5b600080fd5b600080fd5b600080fd5b6000601f19601f8301169050919050565b7f4e487b7100000000000000000000000000000000000000000000000000000000600052604160045260246000fd5b612644826125fb565b810181811067ffffffffffffffff821117156126635761266261260c565b5b80604052505050565b60006126766125dd565b9050612682828261263b565b919050565b600067ffffffffffffffff8211156126a2576126a161260c565b5b6126ab826125fb565b9050602081019050919050565b82818337600083830152505050565b60006126da6126d584612687565b61266c565b9050828152602081018484840111156126f6576126f56125f6565b5b6127018482856126b8565b509392505050565b600082601f83011261271e5761271d6125f1565b5b813561272e8482602086016126c7565b91505092915050565b6000819050919050565b61274a81612737565b811461275557600080fd5b50565b60008135905061276781612741565b92915050565b600080600060608486031215612786576127856125e7565b5b600084013567ffffffffffffffff8111156127a4576127a36125ec565b5b6127b086828701612709565b93505060206127c186828701612758565b925050604084013567ffffffffffffffff8111156127e2576127e16125ec565b5b6127ee86828701612709565b9150509250925092565b600081519050919050565b600082825260208201905092915050565b6000819050602082019050919050565b61282d81612737565b82525050565b600061283f8383612824565b60208301905092915050565b6000602082019050919050565b6000612863826127f8565b61286d8185612803565b935061287883612814565b8060005b838110156128a95781516128908882612833565b975061289b8361284b565b92505060018101905061287c565b5085935050505092915050565b600060208201905081810360008301526128d08184612858565b905092915050565b6000806000606084860312156128f1576128f06125e7565b5b60006128ff86828701612758565b935050602061291086828701612758565b925050604084013567ffffffffffffffff811115612931576129306125ec565b5b61293d86828701612709565b9150509250925092565b60008115159050919050565b61295c81612947565b82525050565b60006020820190506129776000830184612953565b92915050565b600073ffffffffffffffffffffffffffffffffffffffff82169050919050565b60006129a88261297d565b9050919050565b6129b88161299d565b81146129c357600080fd5b50565b6000813590506129d5816129af565b92915050565b600067ffffffffffffffff8211156129f6576129f561260c565b5b602082029050602081019050919050565b600080fd5b6000612a1f612a1a846129db565b61266c565b90508083825260208201905060208402830185811115612a4257612a41612a07565b5b835b81811015612a8957803567ffffffffffffffff811115612a6757612a666125f1565b5b808601612a748982612709565b85526020850194505050602081019050612a44565b5050509392505050565b600082601f830112612aa857612aa76125f1565b5b8135612ab8848260208601612a0c565b91505092915050565b612aca81612947565b8114612ad557600080fd5b50565b600081359050612ae781612ac1565b92915050565b600080600080600060a08688031215612b0957612b086125e7565b5b6000612b17888289016129c6565b955050602086013567ffffffffffffffff811115612b3857612b376125ec565b5b612b4488828901612709565b945050604086013567ffffffffffffffff811115612b6557612b646125ec565b5b612b7188828901612709565b935050606086013567ffffffffffffffff811115612b9257612b916125ec565b5b612b9e88828901612a93565b9250506080612baf88828901612ad8565b9150509295509295909350565b612bc581612737565b82525050565b6000602082019050612be06000830184612bbc565b92915050565b600060208284031215612bfc57612bfb6125e7565b5b6000612c0a84828501612758565b91505092915050565b612c1c8161299d565b82525050565b600081519050919050565b600082825260208201905092915050565b60005b83811015612c5c578082015181840152602081019050612c41565b60008484015250505050565b6000612c7382612c22565b612c7d8185612c2d565b9350612c8d818560208601612c3e565b612c96816125fb565b840191505092915050565b600081519050919050565b600082825260208201905092915050565b6000819050602082019050919050565b6000612cd98383612c68565b905092915050565b6000602082019050919050565b6000612cf982612ca1565b612d038185612cac565b935083602082028501612d1585612cbd565b8060005b85811015612d515784840389528151612d328582612ccd565b9450612d3d83612ce1565b925060208a01995050600181019050612d19565b50829750879550505050505092915050565b612d6c81612947565b82525050565b600060e083016000830151612d8a6000860182612c13565b5060208301518482036020860152612da28282612c68565b91505060408301518482036040860152612dbc8282612c68565b91505060608301518482036060860152612dd68282612cee565b9150506080830151612deb6080860182612d63565b5060a0830151612dfe60a0860182612d63565b5060c0830151612e1160c0860182612d63565b508091505092915050565b60006020820190508181036000830152612e368184612d72565b905092915050565b600080600060608486031215612e5757612e566125e7565b5b600084013567ffffffffffffffff811115612e7557612e746125ec565b5b612e8186828701612709565b9350506020612e9286828701612758565b9250506040612ea3868287016129c6565b9150509250925092565b600060208284031215612ec357612ec26125e7565b5b6000612ed1848285016129c6565b91505092915050565b600067ffffffffffffffff821115612ef557612ef461260c565b5b602082029050602081019050919050565b6000612f19612f1484612eda565b61266c565b90508083825260208201905060208402830185811115612f3c57612f3b612a07565b5b835b81811015612f655780612f518882612758565b845260208401935050602081019050612f3e565b5050509392505050565b600082601f830112612f8457612f836125f1565b5b8135612f94848260208601612f06565b91505092915050565b600080600060608486031215612fb657612fb56125e7565b5b600084013567ffffffffffffffff811115612fd457612fd36125ec565b5b612fe086828701612f6f565b9350506020612ff186828701612758565b925050604084013567ffffffffffffffff811115613012576130116125ec565b5b61301e86828701612709565b9150509250925092565b600082825260208201905092915050565b7f536f727279207468652070617469656e74206f7267616e73206861766520616c60008201527f7265616479206265656e20706c65646765640000000000000000000000000000602082015250565b6000613095603283613028565b91506130a082613039565b604082019050919050565b600060208201905081810360008301526130c481613088565b9050919050565b7f536f727279206e6f20737563682070617469656e742065786973747300000000600082015250565b6000613101601c83613028565b915061310c826130cb565b602082019050919050565b60006020820190508181036000830152613130816130f4565b9050919050565b7f4e487b7100000000000000000000000000000000000000000000000000000000600052602260045260246000fd5b6000600282049050600182168061317e57607f821691505b60208210810361319157613190613137565b5b50919050565b60008190508160005260206000209050919050565b600081546131b981613166565b6131c38186613028565b945060018216600081146131de57600181146131f457613227565b60ff198316865281151560200286019350613227565b6131fd85613197565b60005b8381101561321f57815481890152600182019150602081019050613200565b808801955050505b50505092915050565b6000602082019050818103600083015261324a81846131ac565b905092915050565b600061325d82612c22565b6132678185613028565b9350613277818560208601612c3e565b613280816125fb565b840191505092915050565b600060208201905081810360008301526132a58184613252565b905092915050565b7f536f7272792077726f6e672064657461696c7320656e74657265640000000000600082015250565b60006132e3601b83613028565b91506132ee826132ad565b602082019050919050565b60006020820190508181036000830152613312816132d6565b9050919050565b7f4e487b7100000000000000000000000000000000000000000000000000000000600052603260045260246000fd5b7f4e487b7100000000000000000000000000000000000000000000000000000000600052601160045260246000fd5b600061338282612737565b91507fffffffffffffffffffffffffffffffffffffffffffffffffffffffffffffffff82036133b4576133b3613348565b5b600182019050919050565b7f536f72727920746865207573657220686173276e7420706c656467656420746860008201527f6973206f7267616e2e2e00000000000000000000000000000000000000000000602082015250565b600061341b602a83613028565b9150613426826133bf565b604082019050919050565b6000602082019050818103600083015261344a8161340e565b9050919050565b7f4f2b000000000000000000000000000000000000000000000000000000000000600082015250565b6000613487600283613028565b915061349282613451565b602082019050919050565b600060208201905081810360008301526134b68161347a565b9050919050565b7f4f2d000000000000000000000000000000000000000000000000000000000000600082015250565b60006134f3600283613028565b91506134fe826134bd565b602082019050919050565b60006020820190508181036000830152613522816134e6565b9050919050565b7f412b000000000000000000000000000000000000000000000000000000000000600082015250565b600061355f600283613028565b915061356a82613529565b602082019050919050565b6000602082019050818103600083015261358e81613552565b9050919050565b7f412d000000000000000000000000000000000000000000000000000000000000600082015250565b60006135cb600283613028565b91506135d682613595565b602082019050919050565b600060208201905081810360008301526135fa816135be565b9050919050565b7f422b000000000000000000000000000000000000000000000000000000000000600082015250565b6000613637600283613028565b915061364282613601565b602082019050919050565b600060208201905081810360008301526136668161362a565b9050919050565b7f422d000000000000000000000000000000000000000000000000000000000000600082015250565b60006136a3600283613028565b91506136ae8261366d565b602082019050919050565b600060208201905081810360008301526136d281613696565b9050919050565b7f41422b0000000000000000000000000000000000000000000000000000000000600082015250565b600061370f600383613028565b915061371a826136d9565b602082019050919050565b6000602082019050818103600083015261373e81613702565b9050919050565b6000819050919050565b61376061375b82612737565b613745565b82525050565b60008160601b9050919050565b600061377e82613766565b9050919050565b600061379082613773565b9050919050565b6137a86137a38261299d565b613785565b82525050565b60006137ba828661374f565b6020820191506137ca8285613797565b6014820191506137da828461374f565b602082019150819050949350505050565b7f4e487b7100000000000000000000000000000000000000000000000000000000600052601260045260246000fd5b600061382582612737565b915061383083612737565b9250826138405761383f6137eb565b5b828206905092915050565b7f41422d0000000000000000000000000000000000000000000000000000000000600082015250565b6000613881600383613028565b915061388c8261384b565b602082019050919050565b600060208201905081810360008301526138b081613874565b9050919050565b60006020601f8301049050919050565b600082821b905092915050565b6000600883026139047fffffffffffffffffffffffffffffffffffffffffffffffffffffffffffffffff826138c7565b61390e86836138c7565b95508019841693508086168417925050509392505050565b6000819050919050565b600061394b61394661394184612737565b613926565b612737565b9050919050565b6000819050919050565b61396583613930565b61397961397182613952565b8484546138d4565b825550505050565b600090565b61398e613981565b61399981848461395c565b505050565b5b818110156139bd576139b2600082613986565b60018101905061399f565b5050565b601f821115613a02576139d381613197565b6139dc846138b7565b810160208510156139eb578190505b6139ff6139f7856138b7565b83018261399e565b50505b505050565b600082821c905092915050565b6000613a2560001984600802613a07565b1980831691505092915050565b6000613a3e8383613a14565b9150826002028217905092915050565b613a5782612c22565b67ffffffffffffffff811115613a7057613a6f61260c565b5b613a7a8254613166565b613a858282856139c1565b600060209050601f831160018114613ab85760008415613aa6578287015190505b613ab08582613a32565b865550613b18565b601f198416613ac686613197565b60005b82811015613aee57848901518255600182019150602085019450602081019050613ac9565b86831015613b0b5784890151613b07601f891682613a14565b8355505b6001600288020188555050505b505050505050565b6000613b2b82612737565b9150613b3683612737565b9250828203905081811115613b4e57613b4d613348565b5b9291505056fea2646970667358221220abad356c9f11c5f201139f05e11cf9fc13c77c93186dc8f55ec5e9881dbbb74b64736f6c63430008140033",
  "linkReferences": {},
  "deployedLinkReferences": {}
}