{
  "_format": "hh-sol-artifact-1",
  "contractName": "register",
  "sourceName": "contracts/Signin.sol",
  "abi": [
    {
      "inputs": [
        {
          "internalType": "uint256",
          "name": "id",
          "type": "uint256"
        }
      ],
      "name": "AcceptedDonor",
      "outputs": [
        {
          "internalType": "bool",
          "name": "",
          "type": "bool"
        }
      ],
      "stateMutability": "view",
      "type": "function"
    },
    {
      "inputs": [
        {
          "internalType": "uint256",
          "name": "id",
          "type": "uint256"
        }
      ],
      "name": "AcceptedReciever",
      "outputs": [
        {
          "internalType": "bool",
          "name": "",
          "type": "bool"
        }
      ],
      "stateMutability": "view",
      "type": "function"
    },
    {
      "inputs": [
        {
          "internalType": "uint256",
          "name": "id",
          "type": "uint256"
        }
      ],
      "name": "DeadReceiver",
      "outputs": [],
      "stateMutability": "nonpayable",
      "type": "function"
    },
    {
      "inputs": [
        {
          "internalType": "uint256",
          "name": "id",
          "type": "uint256"
        }
      ],
      "name": "MatchedReciever",
      "outputs": [],
      "stateMutability": "nonpayable",
      "type": "function"
    },
    {
      "inputs": [
        {
          "internalType": "uint256",
          "name": "r_id",
          "type": "uint256"
        },
        {
          "internalType": "string",
          "name": "organ",
          "type": "string"
        }
      ],
      "name": "add_receiver_organ",
      "outputs": [
        {
          "internalType": "bool",
          "name": "",
          "type": "bool"
        }
      ],
      "stateMutability": "nonpayable",
      "type": "function"
    },
    {
      "inputs": [
        {
          "internalType": "address",
          "name": "id",
          "type": "address"
        }
      ],
      "name": "check",
      "outputs": [
        {
          "internalType": "bool",
          "name": "",
          "type": "bool"
        }
      ],
      "stateMutability": "view",
      "type": "function"
    },
    {
      "inputs": [
        {
          "internalType": "uint256",
          "name": "id",
          "type": "uint256"
        }
      ],
      "name": "checkDead",
      "outputs": [
        {
          "internalType": "bool",
          "name": "",
          "type": "bool"
        }
      ],
      "stateMutability": "view",
      "type": "function"
    },
    {
      "inputs": [
        {
          "internalType": "uint256",
          "name": "id",
          "type": "uint256"
        }
      ],
      "name": "checkDonor",
      "outputs": [
        {
          "internalType": "bool",
          "name": "",
          "type": "bool"
        }
      ],
      "stateMutability": "view",
      "type": "function"
    },
    {
      "inputs": [
        {
          "internalType": "uint256",
          "name": "id",
          "type": "uint256"
        }
      ],
      "name": "checkReciever",
      "outputs": [
        {
          "internalType": "bool",
          "name": "",
          "type": "bool"
        }
      ],
      "stateMutability": "view",
      "type": "function"
    },
    {
      "inputs": [
        {
          "internalType": "int256",
          "name": "transplant_id",
          "type": "int256"
        }
      ],
      "name": "checkTrans",
      "outputs": [
        {
          "internalType": "bool",
          "name": "",
          "type": "bool"
        }
      ],
      "stateMutability": "view",
      "type": "function"
    },
    {
      "inputs": [
        {
          "internalType": "int256",
          "name": "transplant_id",
          "type": "int256"
        },
        {
          "internalType": "uint256",
          "name": "r_id",
          "type": "uint256"
        },
        {
          "internalType": "string",
          "name": "link",
          "type": "string"
        },
        {
          "internalType": "string",
          "name": "organ",
          "type": "string"
        },
        {
          "internalType": "address",
          "name": "ContractB_Address",
          "type": "address"
        }
      ],
      "name": "failedTrans",
      "outputs": [],
      "stateMutability": "nonpayable",
      "type": "function"
    },
    {
      "inputs": [],
      "name": "getDonorId",
      "outputs": [
        {
          "internalType": "uint256",
          "name": "",
          "type": "uint256"
        }
      ],
      "stateMutability": "view",
      "type": "function"
    },
    {
      "inputs": [
        {
          "internalType": "int256",
          "name": "trans_id",
          "type": "int256"
        },
        {
          "internalType": "address",
          "name": "ContractB_Address",
          "type": "address"
        }
      ],
      "name": "getDriverDet",
      "outputs": [
        {
          "internalType": "string",
          "name": "name",
          "type": "string"
        },
        {
          "internalType": "string",
          "name": "plate_num",
          "type": "string"
        },
        {
          "internalType": "uint256",
          "name": "id",
          "type": "uint256"
        }
      ],
      "stateMutability": "view",
      "type": "function"
    },
    {
      "inputs": [
        {
          "internalType": "int256",
          "name": "transplant_id",
          "type": "int256"
        }
      ],
      "name": "getFailedTrans",
      "outputs": [
        {
          "components": [
            {
              "internalType": "bool",
              "name": "flag",
              "type": "bool"
            },
            {
              "internalType": "string",
              "name": "report",
              "type": "string"
            }
          ],
          "internalType": "struct register.Failed",
          "name": "",
          "type": "tuple"
        }
      ],
      "stateMutability": "view",
      "type": "function"
    },
    {
      "inputs": [],
      "name": "getMatchedArray",
      "outputs": [
        {
          "internalType": "uint256[]",
          "name": "",
          "type": "uint256[]"
        }
      ],
      "stateMutability": "view",
      "type": "function"
    },
    {
      "inputs": [
        {
          "internalType": "uint256",
          "name": "id",
          "type": "uint256"
        }
      ],
      "name": "getOrganLength",
      "outputs": [
        {
          "internalType": "uint256",
          "name": "",
          "type": "uint256"
        }
      ],
      "stateMutability": "nonpayable",
      "type": "function"
    },
    {
      "inputs": [],
      "name": "getRecieverId",
      "outputs": [
        {
          "internalType": "uint256",
          "name": "",
          "type": "uint256"
        }
      ],
      "stateMutability": "view",
      "type": "function"
    },
    {
      "inputs": [
        {
          "internalType": "uint256",
          "name": "id",
          "type": "uint256"
        }
      ],
      "name": "getRegDonor",
      "outputs": [
        {
          "components": [
            {
              "internalType": "address",
              "name": "metamask_address",
              "type": "address"
            },
            {
              "internalType": "string",
              "name": "hla",
              "type": "string"
            },
            {
              "internalType": "string",
              "name": "bloodgrp",
              "type": "string"
            },
            {
              "internalType": "string[]",
              "name": "organs",
              "type": "string[]"
            },
            {
              "internalType": "bool",
              "name": "flag",
              "type": "bool"
            },
            {
              "internalType": "bool",
              "name": "status",
              "type": "bool"
            },
            {
              "internalType": "bool",
              "name": "braindead",
              "type": "bool"
            }
          ],
          "internalType": "struct register.RegDonor",
          "name": "",
          "type": "tuple"
        }
      ],
      "stateMutability": "view",
      "type": "function"
    },
    {
      "inputs": [
        {
          "internalType": "uint256",
          "name": "id",
          "type": "uint256"
        }
      ],
      "name": "getRegReceive",
      "outputs": [
        {
          "components": [
            {
              "internalType": "address",
              "name": "metamask_address",
              "type": "address"
            },
            {
              "internalType": "string",
              "name": "hla",
              "type": "string"
            },
            {
              "internalType": "string",
              "name": "bloodgrp",
              "type": "string"
            },
            {
              "internalType": "string[]",
              "name": "organs",
              "type": "string[]"
            },
            {
              "internalType": "bool",
              "name": "flag",
              "type": "bool"
            },
            {
              "internalType": "bool",
              "name": "status",
              "type": "bool"
            },
            {
              "internalType": "bool",
              "name": "braindead",
              "type": "bool"
            }
          ],
          "internalType": "struct register.RegDonor",
          "name": "",
          "type": "tuple"
        }
      ],
      "stateMutability": "view",
      "type": "function"
    },
    {
      "inputs": [
        {
          "internalType": "int256",
          "name": "trans_id",
          "type": "int256"
        },
        {
          "internalType": "address",
          "name": "ContractB_Address",
          "type": "address"
        }
      ],
      "name": "getTransDet",
      "outputs": [
        {
          "internalType": "uint256",
          "name": "donor_id",
          "type": "uint256"
        },
        {
          "internalType": "uint256",
          "name": "receiver_id",
          "type": "uint256"
        },
        {
          "internalType": "address",
          "name": "donor_hosp",
          "type": "address"
        },
        {
          "internalType": "address",
          "name": "receiever_hosp",
          "type": "address"
        },
        {
          "internalType": "string",
          "name": "organ",
          "type": "string"
        },
        {
          "internalType": "int256",
          "name": "stage",
          "type": "int256"
        },
        {
          "internalType": "uint256",
          "name": "success",
          "type": "uint256"
        },
        {
          "internalType": "bool",
          "name": "flag",
          "type": "bool"
        }
      ],
      "stateMutability": "view",
      "type": "function"
    },
    {
      "inputs": [
        {
          "internalType": "int256",
          "name": "trans_id",
          "type": "int256"
        },
        {
          "internalType": "address",
          "name": "ContractB_Address",
          "type": "address"
        }
      ],
      "name": "getTransTime",
      "outputs": [
        {
          "internalType": "uint256",
          "name": "organ_match",
          "type": "uint256"
        },
        {
          "internalType": "uint256",
          "name": "start_trans",
          "type": "uint256"
        },
        {
          "internalType": "uint256",
          "name": "end_trans",
          "type": "uint256"
        },
        {
          "internalType": "uint256",
          "name": "start_sur",
          "type": "uint256"
        },
        {
          "internalType": "uint256",
          "name": "end_sur",
          "type": "uint256"
        }
      ],
      "stateMutability": "view",
      "type": "function"
    },
    {
      "inputs": [
        {
          "internalType": "uint256[]",
          "name": "receivers",
          "type": "uint256[]"
        },
        {
          "internalType": "uint256",
          "name": "id",
          "type": "uint256"
        },
        {
          "internalType": "string",
          "name": "org",
          "type": "string"
        }
      ],
      "name": "matchDonorwReceiver",
      "outputs": [
        {
          "internalType": "uint256[]",
          "name": "",
          "type": "uint256[]"
        }
      ],
      "stateMutability": "nonpayable",
      "type": "function"
    },
    {
      "inputs": [
        {
          "internalType": "string",
          "name": "bloodgrp",
          "type": "string"
        },
        {
          "internalType": "uint256",
          "name": "id",
          "type": "uint256"
        },
        {
          "internalType": "string",
          "name": "organ",
          "type": "string"
        },
        {
          "internalType": "address",
          "name": "ContractB_Address",
          "type": "address"
        }
      ],
      "name": "passbloodgrpid",
      "outputs": [
        {
          "internalType": "uint256[]",
          "name": "",
          "type": "uint256[]"
        }
      ],
      "stateMutability": "nonpayable",
      "type": "function"
    },
    {
      "inputs": [
        {
          "internalType": "address",
          "name": "metamask_address",
          "type": "address"
        },
        {
          "internalType": "string",
          "name": "hla",
          "type": "string"
        },
        {
          "internalType": "string",
          "name": "bloodgrp",
          "type": "string"
        },
        {
          "internalType": "string[]",
          "name": "organs",
          "type": "string[]"
        },
        {
          "internalType": "bool",
          "name": "status",
          "type": "bool"
        }
      ],
      "name": "registerDonor",
      "outputs": [
        {
          "internalType": "uint256",
          "name": "",
          "type": "uint256"
        }
      ],
      "stateMutability": "nonpayable",
      "type": "function"
    },
    {
      "inputs": [
        {
          "internalType": "string",
          "name": "name",
          "type": "string"
        },
        {
          "internalType": "uint256",
          "name": "hospital_id",
          "type": "uint256"
        },
        {
          "internalType": "address",
          "name": "metamask_address",
          "type": "address"
        }
      ],
      "name": "registerHospital",
      "outputs": [],
      "stateMutability": "payable",
      "type": "function"
    },
    {
      "inputs": [
        {
          "internalType": "address",
          "name": "metamask_address",
          "type": "address"
        },
        {
          "internalType": "string",
          "name": "hla",
          "type": "string"
        },
        {
          "internalType": "string",
          "name": "bloodgrp",
          "type": "string"
        },
        {
          "internalType": "string[]",
          "name": "organs",
          "type": "string[]"
        },
        {
          "internalType": "bool",
          "name": "status",
          "type": "bool"
        }
      ],
      "name": "registerReceive",
      "outputs": [
        {
          "internalType": "uint256",
          "name": "",
          "type": "uint256"
        }
      ],
      "stateMutability": "nonpayable",
      "type": "function"
    },
    {
      "inputs": [
        {
          "internalType": "uint256",
          "name": "id",
          "type": "uint256"
        },
        {
          "internalType": "string",
          "name": "organ",
          "type": "string"
        }
      ],
      "name": "remove_organ",
      "outputs": [
        {
          "internalType": "bool",
          "name": "",
          "type": "bool"
        }
      ],
      "stateMutability": "nonpayable",
      "type": "function"
    },
    {
      "inputs": [
        {
          "internalType": "uint256",
          "name": "r_id",
          "type": "uint256"
        },
        {
          "internalType": "string",
          "name": "organ",
          "type": "string"
        }
      ],
      "name": "remove_receiver_organ",
      "outputs": [
        {
          "internalType": "bool",
          "name": "",
          "type": "bool"
        }
      ],
      "stateMutability": "nonpayable",
      "type": "function"
    }
  ],
  "bytecode": "0x6080604052600060105534801561001557600080fd5b5061583a80620000266000396000f3fe6080604052600436106101b75760003560e01c8063a848e35b116100ec578063e6cb55121161008a578063eb0c3f5b11610064578063eb0c3f5b146106f5578063f4b649ae14610732578063f7e3d58714610776578063fbda53c8146107a1576101b7565b8063e6cb55121461063e578063e7fd15301461067b578063ea3facbf146106b8576101b7565b8063c0fc9490116100c6578063c0fc949014610548578063c23697a814610587578063c24be05b146105c4578063e57a5c4f14610601576101b7565b8063a848e35b146104a5578063b52e7576146104ce578063b73d51791461050b576101b7565b806368bdf2421161015957806385c516de1161013357806385c516de146103f8578063924455f11461043557806393237d5714610451578063a1f21b011461047c576101b7565b806368bdf242146103535780636d8f243d1461039057806376607bae146103bb576101b7565b80634615affe116101955780634615affe146102735780634a84f3a91461029c57806362736021146102d957806367ae1b0a14610316576101b7565b80633198479f146101bc5780633e79dee9146101f95780634394f58114610236575b600080fd5b3480156101c857600080fd5b506101e360048036038101906101de9190613b82565b6107e2565b6040516101f09190613c6a565b60405180910390f35b34801561020557600080fd5b50610220600480360381019061021b9190613b82565b611096565b60405161022d9190613c6a565b60405180910390f35b34801561024257600080fd5b5061025d60048036038101906102589190613cb1565b6114c7565b60405161026a9190613ced565b60405180910390f35b34801561027f57600080fd5b5061029a60048036038101906102959190613cb1565b6114f4565b005b3480156102a857600080fd5b506102c360048036038101906102be9190613d3e565b611523565b6040516102d09190613ced565b60405180910390f35b3480156102e557600080fd5b5061030060048036038101906102fb9190613cb1565b611550565b60405161030d9190613ced565b60405180910390f35b34801561032257600080fd5b5061033d60048036038101906103389190613d6b565b61157d565b60405161034a9190613ec8565b60405180910390f35b34801561035f57600080fd5b5061037a60048036038101906103759190613cb1565b611f5d565b6040516103879190613ced565b60405180910390f35b34801561039c57600080fd5b506103a5611f8a565b6040516103b29190613ec8565b60405180910390f35b3480156103c757600080fd5b506103e260048036038101906103dd9190613cb1565b611fe2565b6040516103ef91906140f3565b60405180910390f35b34801561040457600080fd5b5061041f600480360381019061041a9190613d3e565b6122b3565b60405161042c9190614152565b60405180910390f35b61044f600480360381019061044a9190614174565b61238d565b005b34801561045d57600080fd5b506104666124de565b6040516104739190613c6a565b60405180910390f35b34801561048857600080fd5b506104a3600480360381019061049e9190613cb1565b612515565b005b3480156104b157600080fd5b506104cc60048036038101906104c791906141e3565b612547565b005b3480156104da57600080fd5b506104f560048036038101906104f09190613cb1565b612634565b6040516105029190613ced565b60405180910390f35b34801561051757600080fd5b50610532600480360381019061052d9190613cb1565b61265e565b60405161053f91906140f3565b60405180910390f35b34801561055457600080fd5b5061056f600480360381019061056a9190614296565b61292f565b60405161057e93929190614320565b60405180910390f35b34801561059357600080fd5b506105ae60048036038101906105a99190614365565b6129c5565b6040516105bb9190613ced565b60405180910390f35b3480156105d057600080fd5b506105eb60048036038101906105e69190614392565b612a1e565b6040516105f89190613ced565b60405180910390f35b34801561060d57600080fd5b5061062860048036038101906106239190614392565b612b47565b6040516106359190613ced565b60405180910390f35b34801561064a57600080fd5b50610665600480360381019061066091906144b1565b612eb4565b6040516106729190613ec8565b60405180910390f35b34801561068757600080fd5b506106a2600480360381019061069d9190613cb1565b613165565b6040516106af9190613ced565b60405180910390f35b3480156106c457600080fd5b506106df60048036038101906106da9190614392565b613192565b6040516106ec9190613ced565b60405180910390f35b34801561070157600080fd5b5061071c60048036038101906107179190613cb1565b6134ff565b6040516107299190613c6a565b60405180910390f35b34801561073e57600080fd5b5061075960048036038101906107549190614296565b61356f565b60405161076d98979695949392919061455a565b60405180910390f35b34801561078257600080fd5b5061078b61361d565b6040516107989190613c6a565b60405180910390f35b3480156107ad57600080fd5b506107c860048036038101906107c39190614296565b613654565b6040516107d99594939291906145df565b60405180910390f35b6000600115156107f1336129c5565b151514610833576040517f08c379a000000000000000000000000000000000000000000000000000000000815260040161082a906146a4565b60405180910390fd5b60006040518060e001604052808873ffffffffffffffffffffffffffffffffffffffff16815260200187815260200186815260200185815260200160011515815260200184151581526020016000151581525090506010600081548092919061089b906146f3565b919050555060005b620f424042336010546040516020016108be939291906147a4565b6040516020818303038152906040528051906020012060001c6108e19190614810565b905060011515600b600083815260200190815260200160002060009054906101000a900460ff161515146108a3576001600b600083815260200190815260200160002060006101000a81548160ff02191690831515021790555060405160200161094a9061488d565b604051602081830303815290604052805190602001208660405160200161097191906148ad565b60405160208183030381529060405280519060200120148015610998575060011515841515145b156109cb576000819080600181540180825580915050600190039060005260206000200160009091909190915055610dbe565b6040516020016109da9061491b565b6040516020818303038152906040528051906020012086604051602001610a0191906148ad565b60405160208183030381529060405280519060200120148015610a28575060011515841515145b15610a5b576001819080600181540180825580915050600190039060005260206000200160009091909190915055610dbd565b604051602001610a6a90614987565b6040516020818303038152906040528051906020012086604051602001610a9191906148ad565b60405160208183030381529060405280519060200120148015610ab8575060011515841515145b15610aeb576002819080600181540180825580915050600190039060005260206000200160009091909190915055610dbc565b604051602001610afa906149f3565b6040516020818303038152906040528051906020012086604051602001610b2191906148ad565b60405160208183030381529060405280519060200120148015610b48575060011515841515145b15610b7b576003819080600181540180825580915050600190039060005260206000200160009091909190915055610dbb565b604051602001610b8a90614a5f565b6040516020818303038152906040528051906020012086604051602001610bb191906148ad565b60405160208183030381529060405280519060200120148015610bd8575060011515841515145b15610c0b576004819080600181540180825580915050600190039060005260206000200160009091909190915055610dba565b604051602001610c1a90614acb565b6040516020818303038152906040528051906020012086604051602001610c4191906148ad565b60405160208183030381529060405280519060200120148015610c68575060011515841515145b15610c9b576005819080600181540180825580915050600190039060005260206000200160009091909190915055610db9565b604051602001610caa90614b37565b6040516020818303038152906040528051906020012086604051602001610cd191906148ad565b60405160208183030381529060405280519060200120148015610cf8575060011515841515145b15610d2b576007819080600181540180825580915050600190039060005260206000200160009091909190915055610db8565b604051602001610d3a90614ba3565b6040516020818303038152906040528051906020012086604051602001610d6191906148ad565b60405160208183030381529060405280519060200120148015610d88575060011515841515145b15610db75760068190806001815401808255809150506001900390600052602060002001600090919091909150555b5b5b5b5b5b5b5b6001151584151503610f5757816011600083815260200190815260200160002060008201518160000160006101000a81548173ffffffffffffffffffffffffffffffffffffffff021916908373ffffffffffffffffffffffffffffffffffffffff1602179055506020820151816001019081610e3a9190614dcf565b506040820151816002019081610e509190614dcf565b506060820151816003019080519060200190610e6d9291906136ef565b5060808201518160040160006101000a81548160ff02191690831515021790555060a08201518160040160016101000a81548160ff02191690831515021790555060c08201518160040160026101000a81548160ff0219169083151502179055509050506001600f60008a73ffffffffffffffffffffffffffffffffffffffff1673ffffffffffffffffffffffffffffffffffffffff16815260200190815260200160002060006101000a81548160ff0219169083151502179055506009819080600181540180825580915050600190039060005260206000200160009091909190915055611088565b816013600083815260200190815260200160002060008201518160000160006101000a81548173ffffffffffffffffffffffffffffffffffffffff021916908373ffffffffffffffffffffffffffffffffffffffff1602179055506020820151816001019081610fc79190614dcf565b506040820151816002019081610fdd9190614dcf565b506060820151816003019080519060200190610ffa9291906136ef565b5060808201518160040160006101000a81548160ff02191690831515021790555060a08201518160040160016101000a81548160ff02191690831515021790555060c08201518160040160026101000a81548160ff02191690831515021790555090505060098190806001815401808255809150506001900390600052602060002001600090919091909150555b809250505095945050505050565b6000600115156110a5336129c5565b1515146110e7576040517f08c379a00000000000000000000000000000000000000000000000000000000081526004016110de906146a4565b60405180910390fd5b60006040518060e001604052808873ffffffffffffffffffffffffffffffffffffffff16815260200187815260200186815260200185815260200160011515815260200184151581526020016000151581525090506010600081548092919061114f906146f3565b919050555060005b620f42404233601054604051602001611172939291906147a4565b6040516020818303038152906040528051906020012060001c6111959190614810565b905060011515600b600083815260200190815260200160002060009054906101000a900460ff16151514611157576001600b600083815260200190815260200160002060006101000a81548160ff02191690831515021790555060011515841515036113885781600d600083815260200190815260200160002060008201518160000160006101000a81548173ffffffffffffffffffffffffffffffffffffffff021916908373ffffffffffffffffffffffffffffffffffffffff160217905550602082015181600101908161126b9190614dcf565b5060408201518160020190816112819190614dcf565b50606082015181600301908051906020019061129e9291906136ef565b5060808201518160040160006101000a81548160ff02191690831515021790555060a08201518160040160016101000a81548160ff02191690831515021790555060c08201518160040160026101000a81548160ff0219169083151502179055509050506001600f60008a73ffffffffffffffffffffffffffffffffffffffff1673ffffffffffffffffffffffffffffffffffffffff16815260200190815260200160002060006101000a81548160ff02191690831515021790555060088190806001815401808255809150506001900390600052602060002001600090919091909150556114b9565b81600e600083815260200190815260200160002060008201518160000160006101000a81548173ffffffffffffffffffffffffffffffffffffffff021916908373ffffffffffffffffffffffffffffffffffffffff16021790555060208201518160010190816113f89190614dcf565b50604082015181600201908161140e9190614dcf565b50606082015181600301908051906020019061142b9291906136ef565b5060808201518160040160006101000a81548160ff02191690831515021790555060a08201518160040160016101000a81548160ff02191690831515021790555060c08201518160040160026101000a81548160ff02191690831515021790555090505060088190806001815401808255809150506001900390600052602060002001600090919091909150555b809250505095945050505050565b60006011600083815260200190815260200160002060040160009054906101000a900460ff169050919050565b6001600c600083815260200190815260200160002060006101000a81548160ff02191690831515021790555050565b60006016600083815260200190815260200160002060000160009054906101000a900460ff169050919050565b60006011600083815260200190815260200160002060040160019054906101000a900460ff169050919050565b60606001151561158c336129c5565b1515146115ce576040517f08c379a00000000000000000000000000000000000000000000000000000000081526004016115c5906146a4565b60405180910390fd5b601560006115dc9190613748565b600080839050600d600087815260200190815260200160002060040160009054906101000a900460ff16611645576040517f08c379a000000000000000000000000000000000000000000000000000000000815260040161163c90614eed565b60405180910390fd5b60001515600c600088815260200190815260200160002060009054906101000a900460ff161515146116ac576040517f08c379a00000000000000000000000000000000000000000000000000000000081526004016116a390614f7f565b60405180910390fd5b600115158173ffffffffffffffffffffffffffffffffffffffff16631ae1d907886040518263ffffffff1660e01b81526004016116e99190613c6a565b602060405180830381865afa158015611706573d6000803e3d6000fd5b505050506040513d601f19601f8201168201806040525081019061172a9190614fb4565b15151461176c576040517f08c379a000000000000000000000000000000000000000000000000000000000815260040161176390615053565b60405180910390fd5b600d600087815260200190815260200160002060020160405160200161179291906150f7565b60405160208183030381529060405280519060200120876040516020016117b991906148ad565b604051602081830303815290604052805190602001201461180f576040517f08c379a000000000000000000000000000000000000000000000000000000000815260040161180690615165565b60405180910390fd5b60005b600d6000888152602001908152602001600020600301805490508110156118cf57600d6000888152602001908152602001600020600301818154811061185b5761185a615185565b5b9060005260206000200160405160200161187591906150f7565b604051602081830303815290604052805190602001208660405160200161189c91906148ad565b60405160208183030381529060405280519060200120036118bc57600192505b80806118c7906146f3565b915050611812565b506000151582151503611917576040517f08c379a000000000000000000000000000000000000000000000000000000000815260040161190e90615226565b60405180910390fd5b6040516020016119269061488d565b604051602081830303815290604052805190602001208760405160200161194d91906148ad565b60405160208183030381529060405280519060200120036119de576119c360008054806020026020016040519081016040528092919081815260200182805480156119b757602002820191906000526020600020905b8154815260200190600101908083116119a3575b50505050508787612eb4565b601590805190602001906119d8929190613769565b50611f00565b6040516020016119ed9061491b565b6040516020818303038152906040528051906020012087604051602001611a1491906148ad565b6040516020818303038152906040528051906020012003611aa557611a8a6001805480602002602001604051908101604052809291908181526020018280548015611a7e57602002820191906000526020600020905b815481526020019060010190808311611a6a575b50505050508787612eb4565b60159080519060200190611a9f929190613769565b50611eff565b604051602001611ab490614987565b6040516020818303038152906040528051906020012087604051602001611adb91906148ad565b6040516020818303038152906040528051906020012003611b6c57611b516002805480602002602001604051908101604052809291908181526020018280548015611b4557602002820191906000526020600020905b815481526020019060010190808311611b31575b50505050508787612eb4565b60159080519060200190611b66929190613769565b50611efe565b604051602001611b7b906149f3565b6040516020818303038152906040528051906020012087604051602001611ba291906148ad565b6040516020818303038152906040528051906020012003611c3357611c186003805480602002602001604051908101604052809291908181526020018280548015611c0c57602002820191906000526020600020905b815481526020019060010190808311611bf8575b50505050508787612eb4565b60159080519060200190611c2d929190613769565b50611efd565b604051602001611c4290614a5f565b6040516020818303038152906040528051906020012087604051602001611c6991906148ad565b6040516020818303038152906040528051906020012003611cfa57611cdf6004805480602002602001604051908101604052809291908181526020018280548015611cd357602002820191906000526020600020905b815481526020019060010190808311611cbf575b50505050508787612eb4565b60159080519060200190611cf4929190613769565b50611efc565b604051602001611d0990614acb565b6040516020818303038152906040528051906020012087604051602001611d3091906148ad565b6040516020818303038152906040528051906020012003611dc157611da66005805480602002602001604051908101604052809291908181526020018280548015611d9a57602002820191906000526020600020905b815481526020019060010190808311611d86575b50505050508787612eb4565b60159080519060200190611dbb929190613769565b50611efb565b604051602001611dd090614b37565b6040516020818303038152906040528051906020012087604051602001611df791906148ad565b6040516020818303038152906040528051906020012003611e8857611e6d6007805480602002602001604051908101604052809291908181526020018280548015611e6157602002820191906000526020600020905b815481526020019060010190808311611e4d575b50505050508787612eb4565b60159080519060200190611e82929190613769565b50611efa565b611ee36006805480602002602001604051908101604052809291908181526020018280548015611ed757602002820191906000526020600020905b815481526020019060010190808311611ec3575b50505050508787612eb4565b60159080519060200190611ef8929190613769565b505b5b5b5b5b5b5b6015805480602002602001604051908101604052809291908181526020018280548015611f4c57602002820191906000526020600020905b815481526020019060010190808311611f38575b505050505092505050949350505050565b6000600d600083815260200190815260200160002060040160019054906101000a900460ff169050919050565b60606014805480602002602001604051908101604052809291908181526020018280548015611fd857602002820191906000526020600020905b815481526020019060010190808311611fc4575b5050505050905090565b611fea6137b6565b601160008381526020019081526020016000206040518060e00160405290816000820160009054906101000a900473ffffffffffffffffffffffffffffffffffffffff1673ffffffffffffffffffffffffffffffffffffffff1673ffffffffffffffffffffffffffffffffffffffff16815260200160018201805461206e90614bf2565b80601f016020809104026020016040519081016040528092919081815260200182805461209a90614bf2565b80156120e75780601f106120bc576101008083540402835291602001916120e7565b820191906000526020600020905b8154815290600101906020018083116120ca57829003601f168201915b5050505050815260200160028201805461210090614bf2565b80601f016020809104026020016040519081016040528092919081815260200182805461212c90614bf2565b80156121795780601f1061214e57610100808354040283529160200191612179565b820191906000526020600020905b81548152906001019060200180831161215c57829003601f168201915b5050505050815260200160038201805480602002602001604051908101604052809291908181526020016000905b828210156122535783829060005260206000200180546121c690614bf2565b80601f01602080910402602001604051908101604052809291908181526020018280546121f290614bf2565b801561223f5780601f106122145761010080835404028352916020019161223f565b820191906000526020600020905b81548152906001019060200180831161222257829003601f168201915b5050505050815260200190600101906121a7565b5050505081526020016004820160009054906101000a900460ff161515151581526020016004820160019054906101000a900460ff161515151581526020016004820160029054906101000a900460ff1615151515815250509050919050565b6122bb61380f565b601660008381526020019081526020016000206040518060400160405290816000820160009054906101000a900460ff1615151515815260200160018201805461230490614bf2565b80601f016020809104026020016040519081016040528092919081815260200182805461233090614bf2565b801561237d5780601f106123525761010080835404028352916020019161237d565b820191906000526020600020905b81548152906001019060200180831161236057829003601f168201915b5050505050815250509050919050565b60001515600a60008373ffffffffffffffffffffffffffffffffffffffff1673ffffffffffffffffffffffffffffffffffffffff16815260200190815260200160002060030160009054906101000a900460ff16151514612423576040517f08c379a000000000000000000000000000000000000000000000000000000000815260040161241a906152b8565b60405180910390fd5b6000604051806080016040528085815260200184815260200142815260200160011515815250905080600a60008473ffffffffffffffffffffffffffffffffffffffff1673ffffffffffffffffffffffffffffffffffffffff16815260200190815260200160002060008201518160000190816124a09190614dcf565b50602082015181600101556040820151816002015560608201518160030160006101000a81548160ff02191690831515021790555090505050505050565b6000600960016009805490506124f491906152d8565b8154811061250557612504615185565b5b9060005260206000200154905090565b60016011600083815260200190815260200160002060040160026101000a81548160ff02191690831515021790555050565b600081905060006040518060400160405280600115158152602001868152509050806016600089815260200190815260200160002060008201518160000160006101000a81548160ff02191690831515021790555060208201518160010190816125b19190614dcf565b509050506125bf8685612a1e565b508173ffffffffffffffffffffffffffffffffffffffff16631ef96c38886040518263ffffffff1660e01b81526004016125f9919061530c565b600060405180830381600087803b15801561261357600080fd5b505af1158015612627573d6000803e3d6000fd5b5050505050505050505050565b6000600c600083815260200190815260200160002060009054906101000a900460ff169050919050565b6126666137b6565b600d60008381526020019081526020016000206040518060e00160405290816000820160009054906101000a900473ffffffffffffffffffffffffffffffffffffffff1673ffffffffffffffffffffffffffffffffffffffff1673ffffffffffffffffffffffffffffffffffffffff1681526020016001820180546126ea90614bf2565b80601f016020809104026020016040519081016040528092919081815260200182805461271690614bf2565b80156127635780601f1061273857610100808354040283529160200191612763565b820191906000526020600020905b81548152906001019060200180831161274657829003601f168201915b5050505050815260200160028201805461277c90614bf2565b80601f01602080910402602001604051908101604052809291908181526020018280546127a890614bf2565b80156127f55780601f106127ca576101008083540402835291602001916127f5565b820191906000526020600020905b8154815290600101906020018083116127d857829003601f168201915b5050505050815260200160038201805480602002602001604051908101604052809291908181526020016000905b828210156128cf57838290600052602060002001805461284290614bf2565b80601f016020809104026020016040519081016040528092919081815260200182805461286e90614bf2565b80156128bb5780601f10612890576101008083540402835291602001916128bb565b820191906000526020600020905b81548152906001019060200180831161289e57829003601f168201915b505050505081526020019060010190612823565b5050505081526020016004820160009054906101000a900460ff161515151581526020016004820160019054906101000a900460ff161515151581526020016004820160029054906101000a900460ff1615151515815250509050919050565b6060806000808490508073ffffffffffffffffffffffffffffffffffffffff1663cadb4263876040518263ffffffff1660e01b8152600401612971919061530c565b600060405180830381865afa15801561298e573d6000803e3d6000fd5b505050506040513d6000823e3d601f19601f820116820180604052508101906129b791906153ac565b935093509350509250925092565b6000600a60008373ffffffffffffffffffffffffffffffffffffffff1673ffffffffffffffffffffffffffffffffffffffff16815260200190815260200160002060030160009054906101000a900460ff169050919050565b6000600115156011600085815260200190815260200160002060040160009054906101000a900460ff16151514612a8a576040517f08c379a0000000000000000000000000000000000000000000000000000000008152600401612a81906154a9565b60405180910390fd5b600115156011600085815260200190815260200160002060040160019054906101000a900460ff16151514612af4576040517f08c379a0000000000000000000000000000000000000000000000000000000008152600401612aeb9061553b565b60405180910390fd5b6011600084815260200190815260200160002060030182908060018154018082558091505060019003906000526020600020016000909190919091509081612b3c9190614dcf565b506001905092915050565b600060011515600d600085815260200190815260200160002060040160009054906101000a900460ff16151514612bb3576040517f08c379a0000000000000000000000000000000000000000000000000000000008152600401612baa906155cd565b60405180910390fd5b60011515600d600085815260200190815260200160002060040160019054906101000a900460ff16151514612c1d576040517f08c379a0000000000000000000000000000000000000000000000000000000008152600401612c1490615639565b60405180910390fd5b60006001600d600086815260200190815260200160002060030180549050612c4591906152d8565b67ffffffffffffffff811115612c5e57612c5d613939565b5b604051908082528060200260200182016040528015612c9157816020015b6060815260200190600190039081612c7c5790505b5090506000805b600d600087815260200190815260200160002060030180549050811015612e7c57600d60008781526020019081526020016000206003018181548110612ce157612ce0615185565b5b90600052602060002001604051602001612cfb91906150f7565b6040516020818303038152906040528051906020012085604051602001612d2291906148ad565b6040516020818303038152906040528051906020012003612d8057600d60008781526020019081526020016000206003018181548110612d6557612d64615185565b5b906000526020600020016000612d7b919061382b565b612e69565b600d60008781526020019081526020016000206003018181548110612da857612da7615185565b5b906000526020600020018054612dbd90614bf2565b80601f0160208091040260200160405190810160405280929190818152602001828054612de990614bf2565b8015612e365780601f10612e0b57610100808354040283529160200191612e36565b820191906000526020600020905b815481529060010190602001808311612e1957829003601f168201915b5050505050838381518110612e4e57612e4d615185565b5b6020026020010181905250600182612e669190615659565b91505b8080612e74906146f3565b915050612c98565b5081600d60008781526020019081526020016000206003019080519060200190612ea79291906136ef565b5060019250505092915050565b606060146000612ec49190613748565b60005b845181101561310a576011600060098381548110612ee857612ee7615185565b5b90600052602060002001548152602001908152602001600020600101604051602001612f1491906150f7565b60405160208183030381529060405280519060200120600d6000868152602001908152602001600020600101604051602001612f5091906150f7565b60405160208183030381529060405280519060200120148015612fb5575060001515600c600060098481548110612f8a57612f89615185565b5b9060005260206000200154815260200190815260200160002060009054906101000a900460ff161515145b156130f75760005b6011600060098481548110612fd557612fd4615185565b5b90600052602060002001548152602001908152602001600020600301805490508110156130f557601160006009848154811061301457613013615185565b5b90600052602060002001548152602001908152602001600020600301818154811061304257613041615185565b5b9060005260206000200160405160200161305c91906150f7565b604051602081830303815290604052805190602001208460405160200161308391906148ad565b60405160208183030381529060405280519060200120036130e25760148683815181106130b3576130b2615185565b5b602002602001015190806001815401808255809150506001900390600052602060002001600090919091909150555b80806130ed906146f3565b915050612fbd565b505b8080613102906146f3565b915050612ec7565b50601480548060200260200160405190810160405280929190818152602001828054801561315757602002820191906000526020600020905b815481526020019060010190808311613143575b505050505090509392505050565b6000600d600083815260200190815260200160002060040160009054906101000a900460ff169050919050565b6000600115156011600085815260200190815260200160002060040160009054906101000a900460ff161515146131fe576040517f08c379a00000000000000000000000000000000000000000000000000000000081526004016131f5906154a9565b60405180910390fd5b600115156011600085815260200190815260200160002060040160019054906101000a900460ff16151514613268576040517f08c379a000000000000000000000000000000000000000000000000000000000815260040161325f9061553b565b60405180910390fd5b60006001601160008681526020019081526020016000206003018054905061329091906152d8565b67ffffffffffffffff8111156132a9576132a8613939565b5b6040519080825280602002602001820160405280156132dc57816020015b60608152602001906001900390816132c75790505b5090506000805b60116000878152602001908152602001600020600301805490508110156134c75760116000878152602001908152602001600020600301818154811061332c5761332b615185565b5b9060005260206000200160405160200161334691906150f7565b604051602081830303815290604052805190602001208560405160200161336d91906148ad565b60405160208183030381529060405280519060200120036133cb576011600087815260200190815260200160002060030181815481106133b0576133af615185565b5b9060005260206000200160006133c6919061382b565b6134b4565b6011600087815260200190815260200160002060030181815481106133f3576133f2615185565b5b90600052602060002001805461340890614bf2565b80601f016020809104026020016040519081016040528092919081815260200182805461343490614bf2565b80156134815780601f1061345657610100808354040283529160200191613481565b820191906000526020600020905b81548152906001019060200180831161346457829003601f168201915b505050505083838151811061349957613498615185565b5b60200260200101819052506001826134b19190615659565b91505b80806134bf906146f3565b9150506132e3565b50816011600087815260200190815260200160002060030190805190602001906134f29291906136ef565b5060019250505092915050565b600080600d6000848152602001908152602001600020600301805490500361354e576001600c600084815260200190815260200160002060006101000a81548160ff0219169083151502179055505b600d6000838152602001908152602001600020600301805490509050919050565b60008060008060606000806000808990508073ffffffffffffffffffffffffffffffffffffffff16634f8935a08c6040518263ffffffff1660e01b81526004016135b9919061530c565b600060405180830381865afa1580156135d6573d6000803e3d6000fd5b505050506040513d6000823e3d601f19601f820116820180604052508101906135ff91906156b7565b98509850985098509850985098509850509295985092959890939650565b60006008600160088054905061363391906152d8565b8154811061364457613643615185565b5b9060005260206000200154905090565b6000806000806000808690508073ffffffffffffffffffffffffffffffffffffffff166386459b9a896040518263ffffffff1660e01b8152600401613699919061530c565b60a060405180830381865afa1580156136b6573d6000803e3d6000fd5b505050506040513d601f19601f820116820180604052508101906136da9190615789565b95509550955095509550509295509295909350565b828054828255906000526020600020908101928215613737579160200282015b828111156137365782518290816137269190614dcf565b509160200191906001019061370f565b5b509050613744919061386b565b5090565b5080546000825590600052602060002090810190613766919061388f565b50565b8280548282559060005260206000209081019282156137a5579160200282015b828111156137a4578251825591602001919060010190613789565b5b5090506137b2919061388f565b5090565b6040518060e00160405280600073ffffffffffffffffffffffffffffffffffffffff1681526020016060815260200160608152602001606081526020016000151581526020016000151581526020016000151581525090565b6040518060400160405280600015158152602001606081525090565b50805461383790614bf2565b6000825580601f106138495750613868565b601f016020900490600052602060002090810190613867919061388f565b5b50565b5b8082111561388b5760008181613882919061382b565b5060010161386c565b5090565b5b808211156138a8576000816000905550600101613890565b5090565b6000604051905090565b600080fd5b600080fd5b600073ffffffffffffffffffffffffffffffffffffffff82169050919050565b60006138eb826138c0565b9050919050565b6138fb816138e0565b811461390657600080fd5b50565b600081359050613918816138f2565b92915050565b600080fd5b600080fd5b6000601f19601f8301169050919050565b7f4e487b7100000000000000000000000000000000000000000000000000000000600052604160045260246000fd5b61397182613928565b810181811067ffffffffffffffff821117156139905761398f613939565b5b80604052505050565b60006139a36138ac565b90506139af8282613968565b919050565b600067ffffffffffffffff8211156139cf576139ce613939565b5b6139d882613928565b9050602081019050919050565b82818337600083830152505050565b6000613a07613a02846139b4565b613999565b905082815260208101848484011115613a2357613a22613923565b5b613a2e8482856139e5565b509392505050565b600082601f830112613a4b57613a4a61391e565b5b8135613a5b8482602086016139f4565b91505092915050565b600067ffffffffffffffff821115613a7f57613a7e613939565b5b602082029050602081019050919050565b600080fd5b6000613aa8613aa384613a64565b613999565b90508083825260208201905060208402830185811115613acb57613aca613a90565b5b835b81811015613b1257803567ffffffffffffffff811115613af057613aef61391e565b5b808601613afd8982613a36565b85526020850194505050602081019050613acd565b5050509392505050565b600082601f830112613b3157613b3061391e565b5b8135613b41848260208601613a95565b91505092915050565b60008115159050919050565b613b5f81613b4a565b8114613b6a57600080fd5b50565b600081359050613b7c81613b56565b92915050565b600080600080600060a08688031215613b9e57613b9d6138b6565b5b6000613bac88828901613909565b955050602086013567ffffffffffffffff811115613bcd57613bcc6138bb565b5b613bd988828901613a36565b945050604086013567ffffffffffffffff811115613bfa57613bf96138bb565b5b613c0688828901613a36565b935050606086013567ffffffffffffffff811115613c2757613c266138bb565b5b613c3388828901613b1c565b9250506080613c4488828901613b6d565b9150509295509295909350565b6000819050919050565b613c6481613c51565b82525050565b6000602082019050613c7f6000830184613c5b565b92915050565b613c8e81613c51565b8114613c9957600080fd5b50565b600081359050613cab81613c85565b92915050565b600060208284031215613cc757613cc66138b6565b5b6000613cd584828501613c9c565b91505092915050565b613ce781613b4a565b82525050565b6000602082019050613d026000830184613cde565b92915050565b6000819050919050565b613d1b81613d08565b8114613d2657600080fd5b50565b600081359050613d3881613d12565b92915050565b600060208284031215613d5457613d536138b6565b5b6000613d6284828501613d29565b91505092915050565b60008060008060808587031215613d8557613d846138b6565b5b600085013567ffffffffffffffff811115613da357613da26138bb565b5b613daf87828801613a36565b9450506020613dc087828801613c9c565b935050604085013567ffffffffffffffff811115613de157613de06138bb565b5b613ded87828801613a36565b9250506060613dfe87828801613909565b91505092959194509250565b600081519050919050565b600082825260208201905092915050565b6000819050602082019050919050565b613e3f81613c51565b82525050565b6000613e518383613e36565b60208301905092915050565b6000602082019050919050565b6000613e7582613e0a565b613e7f8185613e15565b9350613e8a83613e26565b8060005b83811015613ebb578151613ea28882613e45565b9750613ead83613e5d565b925050600181019050613e8e565b5085935050505092915050565b60006020820190508181036000830152613ee28184613e6a565b905092915050565b613ef3816138e0565b82525050565b600081519050919050565b600082825260208201905092915050565b60005b83811015613f33578082015181840152602081019050613f18565b60008484015250505050565b6000613f4a82613ef9565b613f548185613f04565b9350613f64818560208601613f15565b613f6d81613928565b840191505092915050565b600081519050919050565b600082825260208201905092915050565b6000819050602082019050919050565b6000613fb08383613f3f565b905092915050565b6000602082019050919050565b6000613fd082613f78565b613fda8185613f83565b935083602082028501613fec85613f94565b8060005b8581101561402857848403895281516140098582613fa4565b945061401483613fb8565b925060208a01995050600181019050613ff0565b50829750879550505050505092915050565b61404381613b4a565b82525050565b600060e0830160008301516140616000860182613eea565b50602083015184820360208601526140798282613f3f565b915050604083015184820360408601526140938282613f3f565b915050606083015184820360608601526140ad8282613fc5565b91505060808301516140c2608086018261403a565b5060a08301516140d560a086018261403a565b5060c08301516140e860c086018261403a565b508091505092915050565b6000602082019050818103600083015261410d8184614049565b905092915050565b600060408301600083015161412d600086018261403a565b50602083015184820360208601526141458282613f3f565b9150508091505092915050565b6000602082019050818103600083015261416c8184614115565b905092915050565b60008060006060848603121561418d5761418c6138b6565b5b600084013567ffffffffffffffff8111156141ab576141aa6138bb565b5b6141b786828701613a36565b93505060206141c886828701613c9c565b92505060406141d986828701613909565b9150509250925092565b600080600080600060a086880312156141ff576141fe6138b6565b5b600061420d88828901613d29565b955050602061421e88828901613c9c565b945050604086013567ffffffffffffffff81111561423f5761423e6138bb565b5b61424b88828901613a36565b935050606086013567ffffffffffffffff81111561426c5761426b6138bb565b5b61427888828901613a36565b925050608061428988828901613909565b9150509295509295909350565b600080604083850312156142ad576142ac6138b6565b5b60006142bb85828601613d29565b92505060206142cc85828601613909565b9150509250929050565b600082825260208201905092915050565b60006142f282613ef9565b6142fc81856142d6565b935061430c818560208601613f15565b61431581613928565b840191505092915050565b6000606082019050818103600083015261433a81866142e7565b9050818103602083015261434e81856142e7565b905061435d6040830184613c5b565b949350505050565b60006020828403121561437b5761437a6138b6565b5b600061438984828501613909565b91505092915050565b600080604083850312156143a9576143a86138b6565b5b60006143b785828601613c9c565b925050602083013567ffffffffffffffff8111156143d8576143d76138bb565b5b6143e485828601613a36565b9150509250929050565b600067ffffffffffffffff82111561440957614408613939565b5b602082029050602081019050919050565b600061442d614428846143ee565b613999565b905080838252602082019050602084028301858111156144505761444f613a90565b5b835b8181101561447957806144658882613c9c565b845260208401935050602081019050614452565b5050509392505050565b600082601f8301126144985761449761391e565b5b81356144a884826020860161441a565b91505092915050565b6000806000606084860312156144ca576144c96138b6565b5b600084013567ffffffffffffffff8111156144e8576144e76138bb565b5b6144f486828701614483565b935050602061450586828701613c9c565b925050604084013567ffffffffffffffff811115614526576145256138bb565b5b61453286828701613a36565b9150509250925092565b614545816138e0565b82525050565b61455481613d08565b82525050565b600061010082019050614570600083018b613c5b565b61457d602083018a613c5b565b61458a604083018961453c565b614597606083018861453c565b81810360808301526145a981876142e7565b90506145b860a083018661454b565b6145c560c0830185613c5b565b6145d260e0830184613cde565b9998505050505050505050565b600060a0820190506145f46000830188613c5b565b6146016020830187613c5b565b61460e6040830186613c5b565b61461b6060830185613c5b565b6146286080830184613c5b565b9695505050505050565b7f536f72727920746865206163636f7574206973206e6f74207072656d6974746560008201527f6400000000000000000000000000000000000000000000000000000000000000602082015250565b600061468e6021836142d6565b915061469982614632565b604082019050919050565b600060208201905081810360008301526146bd81614681565b9050919050565b7f4e487b7100000000000000000000000000000000000000000000000000000000600052601160045260246000fd5b60006146fe82613c51565b91507fffffffffffffffffffffffffffffffffffffffffffffffffffffffffffffffff82036147305761472f6146c4565b5b600182019050919050565b6000819050919050565b61475661475182613c51565b61473b565b82525050565b60008160601b9050919050565b60006147748261475c565b9050919050565b600061478682614769565b9050919050565b61479e614799826138e0565b61477b565b82525050565b60006147b08286614745565b6020820191506147c0828561478d565b6014820191506147d08284614745565b602082019150819050949350505050565b7f4e487b7100000000000000000000000000000000000000000000000000000000600052601260045260246000fd5b600061481b82613c51565b915061482683613c51565b925082614836576148356147e1565b5b828206905092915050565b7f4f2b000000000000000000000000000000000000000000000000000000000000600082015250565b60006148776002836142d6565b915061488282614841565b602082019050919050565b600060208201905081810360008301526148a68161486a565b9050919050565b600060208201905081810360008301526148c781846142e7565b905092915050565b7f4f2d000000000000000000000000000000000000000000000000000000000000600082015250565b60006149056002836142d6565b9150614910826148cf565b602082019050919050565b60006020820190508181036000830152614934816148f8565b9050919050565b7f412b000000000000000000000000000000000000000000000000000000000000600082015250565b60006149716002836142d6565b915061497c8261493b565b602082019050919050565b600060208201905081810360008301526149a081614964565b9050919050565b7f412d000000000000000000000000000000000000000000000000000000000000600082015250565b60006149dd6002836142d6565b91506149e8826149a7565b602082019050919050565b60006020820190508181036000830152614a0c816149d0565b9050919050565b7f422b000000000000000000000000000000000000000000000000000000000000600082015250565b6000614a496002836142d6565b9150614a5482614a13565b602082019050919050565b60006020820190508181036000830152614a7881614a3c565b9050919050565b7f422d000000000000000000000000000000000000000000000000000000000000600082015250565b6000614ab56002836142d6565b9150614ac082614a7f565b602082019050919050565b60006020820190508181036000830152614ae481614aa8565b9050919050565b7f41422b0000000000000000000000000000000000000000000000000000000000600082015250565b6000614b216003836142d6565b9150614b2c82614aeb565b602082019050919050565b60006020820190508181036000830152614b5081614b14565b9050919050565b7f41422d0000000000000000000000000000000000000000000000000000000000600082015250565b6000614b8d6003836142d6565b9150614b9882614b57565b602082019050919050565b60006020820190508181036000830152614bbc81614b80565b9050919050565b7f4e487b7100000000000000000000000000000000000000000000000000000000600052602260045260246000fd5b60006002820490506001821680614c0a57607f821691505b602082108103614c1d57614c1c614bc3565b5b50919050565b60008190508160005260206000209050919050565b60006020601f8301049050919050565b600082821b905092915050565b600060088302614c857fffffffffffffffffffffffffffffffffffffffffffffffffffffffffffffffff82614c48565b614c8f8683614c48565b95508019841693508086168417925050509392505050565b6000819050919050565b6000614ccc614cc7614cc284613c51565b614ca7565b613c51565b9050919050565b6000819050919050565b614ce683614cb1565b614cfa614cf282614cd3565b848454614c55565b825550505050565b600090565b614d0f614d02565b614d1a818484614cdd565b505050565b5b81811015614d3e57614d33600082614d07565b600181019050614d20565b5050565b601f821115614d8357614d5481614c23565b614d5d84614c38565b81016020851015614d6c578190505b614d80614d7885614c38565b830182614d1f565b50505b505050565b600082821c905092915050565b6000614da660001984600802614d88565b1980831691505092915050565b6000614dbf8383614d95565b9150826002028217905092915050565b614dd882613ef9565b67ffffffffffffffff811115614df157614df0613939565b5b614dfb8254614bf2565b614e06828285614d42565b600060209050601f831160018114614e395760008415614e27578287015190505b614e318582614db3565b865550614e99565b601f198416614e4786614c23565b60005b82811015614e6f57848901518255600182019150602085019450602081019050614e4a565b86831015614e8c5784890151614e88601f891682614d95565b8355505b6001600288020188555050505b505050505050565b7f536f727279206e6f20737563682070617469656e742065786973747300000000600082015250565b6000614ed7601c836142d6565b9150614ee282614ea1565b602082019050919050565b60006020820190508181036000830152614f0681614eca565b9050919050565b7f536f727279207468652070617469656e74206f7267616e73206861766520616c60008201527f7265616479206265656e20706c65646765640000000000000000000000000000602082015250565b6000614f696032836142d6565b9150614f7482614f0d565b604082019050919050565b60006020820190508181036000830152614f9881614f5c565b9050919050565b600081519050614fae81613b56565b92915050565b600060208284031215614fca57614fc96138b6565b5b6000614fd884828501614f9f565b91505092915050565b7f476976656e20446f6e6f7220686173206e6f74206265656e20617070726f766560008201527f6420666f72204f7267616e20446f6e6174696f6e2050726f6365737300000000602082015250565b600061503d603c836142d6565b915061504882614fe1565b604082019050919050565b6000602082019050818103600083015261506c81615030565b9050919050565b6000815461508081614bf2565b61508a81866142d6565b945060018216600081146150a557600181146150bb576150ee565b60ff1983168652811515602002860193506150ee565b6150c485614c23565b60005b838110156150e6578154818901526001820191506020810190506150c7565b808801955050505b50505092915050565b600060208201905081810360008301526151118184615073565b905092915050565b7f536f7272792077726f6e672064657461696c7320656e74657265640000000000600082015250565b600061514f601b836142d6565b915061515a82615119565b602082019050919050565b6000602082019050818103600083015261517e81615142565b9050919050565b7f4e487b7100000000000000000000000000000000000000000000000000000000600052603260045260246000fd5b7f536f72727920746865207573657220686173276e7420706c656467656420746860008201527f6973206f7267616e2e2e00000000000000000000000000000000000000000000602082015250565b6000615210602a836142d6565b915061521b826151b4565b604082019050919050565b6000602082019050818103600083015261523f81615203565b9050919050565b7f536f72727920746865204d6574614d61736b204164647265737320697320616c60008201527f7265616479206265696e67207573656400000000000000000000000000000000602082015250565b60006152a26030836142d6565b91506152ad82615246565b604082019050919050565b600060208201905081810360008301526152d181615295565b9050919050565b60006152e382613c51565b91506152ee83613c51565b9250828203905081811115615306576153056146c4565b5b92915050565b6000602082019050615321600083018461454b565b92915050565b600061533a615335846139b4565b613999565b90508281526020810184848401111561535657615355613923565b5b615361848285613f15565b509392505050565b600082601f83011261537e5761537d61391e565b5b815161538e848260208601615327565b91505092915050565b6000815190506153a681613c85565b92915050565b6000806000606084860312156153c5576153c46138b6565b5b600084015167ffffffffffffffff8111156153e3576153e26138bb565b5b6153ef86828701615369565b935050602084015167ffffffffffffffff8111156154105761540f6138bb565b5b61541c86828701615369565b925050604061542d86828701615397565b9150509250925092565b7f506c6561736520636865636b20616e642076657269667920796f75722052656360008201527f6965766572204964212100000000000000000000000000000000000000000000602082015250565b6000615493602a836142d6565b915061549e82615437565b604082019050919050565b600060208201905081810360008301526154c281615486565b9050919050565b7f54686520476976656e2052656369657665722069732072656a65637465642e2e60008201527f2121000000000000000000000000000000000000000000000000000000000000602082015250565b60006155256022836142d6565b9150615530826154c9565b604082019050919050565b6000602082019050818103600083015261555481615518565b9050919050565b7f506c6561736520636865636b20616e642076657269667920796f757220446f6e60008201527f6f72204964212100000000000000000000000000000000000000000000000000602082015250565b60006155b76027836142d6565b91506155c28261555b565b604082019050919050565b600060208201905081810360008301526155e6816155aa565b9050919050565b7f54686520476976656e20446f6e6f722069732072656a65637465642e2e212100600082015250565b6000615623601f836142d6565b915061562e826155ed565b602082019050919050565b6000602082019050818103600083015261565281615616565b9050919050565b600061566482613c51565b915061566f83613c51565b9250828201905080821115615687576156866146c4565b5b92915050565b60008151905061569c816138f2565b92915050565b6000815190506156b181613d12565b92915050565b600080600080600080600080610100898b0312156156d8576156d76138b6565b5b60006156e68b828c01615397565b98505060206156f78b828c01615397565b97505060406157088b828c0161568d565b96505060606157198b828c0161568d565b955050608089015167ffffffffffffffff81111561573a576157396138bb565b5b6157468b828c01615369565b94505060a06157578b828c016156a2565b93505060c06157688b828c01615397565b92505060e06157798b828c01614f9f565b9150509295985092959890939650565b600080600080600060a086880312156157a5576157a46138b6565b5b60006157b388828901615397565b95505060206157c488828901615397565b94505060406157d588828901615397565b93505060606157e688828901615397565b92505060806157f788828901615397565b915050929550929590935056fea26469706673582212205c3e7864592c73cdb2d1a7ca9da90b5be4269134217db312463f7190a43a83a464736f6c63430008140033",
  "linkReferences": {},
  "deployedLinkReferences": {}
}