{
  "_format": "hh-sol-artifact-1",
  "contractName": "register",
  "sourceName": "contracts/Signin.sol",
  "abi": [
    {
      "inputs": [],
      "stateMutability": "nonpayable",
      "type": "constructor"
    },
    {
      "inputs": [
        {
          "internalType": "address",
          "name": "sender",
          "type": "address"
        },
        {
          "internalType": "uint256",
          "name": "tokenId",
          "type": "uint256"
        },
        {
          "internalType": "address",
          "name": "owner",
          "type": "address"
        }
      ],
      "name": "ERC721IncorrectOwner",
      "type": "error"
    },
    {
      "inputs": [
        {
          "internalType": "address",
          "name": "operator",
          "type": "address"
        },
        {
          "internalType": "uint256",
          "name": "tokenId",
          "type": "uint256"
        }
      ],
      "name": "ERC721InsufficientApproval",
      "type": "error"
    },
    {
      "inputs": [
        {
          "internalType": "address",
          "name": "approver",
          "type": "address"
        }
      ],
      "name": "ERC721InvalidApprover",
      "type": "error"
    },
    {
      "inputs": [
        {
          "internalType": "address",
          "name": "operator",
          "type": "address"
        }
      ],
      "name": "ERC721InvalidOperator",
      "type": "error"
    },
    {
      "inputs": [
        {
          "internalType": "address",
          "name": "owner",
          "type": "address"
        }
      ],
      "name": "ERC721InvalidOwner",
      "type": "error"
    },
    {
      "inputs": [
        {
          "internalType": "address",
          "name": "receiver",
          "type": "address"
        }
      ],
      "name": "ERC721InvalidReceiver",
      "type": "error"
    },
    {
      "inputs": [
        {
          "internalType": "address",
          "name": "sender",
          "type": "address"
        }
      ],
      "name": "ERC721InvalidSender",
      "type": "error"
    },
    {
      "inputs": [
        {
          "internalType": "uint256",
          "name": "tokenId",
          "type": "uint256"
        }
      ],
      "name": "ERC721NonexistentToken",
      "type": "error"
    },
    {
      "anonymous": false,
      "inputs": [
        {
          "indexed": true,
          "internalType": "address",
          "name": "owner",
          "type": "address"
        },
        {
          "indexed": true,
          "internalType": "address",
          "name": "approved",
          "type": "address"
        },
        {
          "indexed": true,
          "internalType": "uint256",
          "name": "tokenId",
          "type": "uint256"
        }
      ],
      "name": "Approval",
      "type": "event"
    },
    {
      "anonymous": false,
      "inputs": [
        {
          "indexed": true,
          "internalType": "address",
          "name": "owner",
          "type": "address"
        },
        {
          "indexed": true,
          "internalType": "address",
          "name": "operator",
          "type": "address"
        },
        {
          "indexed": false,
          "internalType": "bool",
          "name": "approved",
          "type": "bool"
        }
      ],
      "name": "ApprovalForAll",
      "type": "event"
    },
    {
      "anonymous": false,
      "inputs": [
        {
          "indexed": false,
          "internalType": "uint256",
          "name": "_fromTokenId",
          "type": "uint256"
        },
        {
          "indexed": false,
          "internalType": "uint256",
          "name": "_toTokenId",
          "type": "uint256"
        }
      ],
      "name": "BatchMetadataUpdate",
      "type": "event"
    },
    {
      "anonymous": false,
      "inputs": [
        {
          "indexed": false,
          "internalType": "uint256",
          "name": "_tokenId",
          "type": "uint256"
        }
      ],
      "name": "MetadataUpdate",
      "type": "event"
    },
    {
      "anonymous": false,
      "inputs": [
        {
          "indexed": true,
          "internalType": "address",
          "name": "from",
          "type": "address"
        },
        {
          "indexed": true,
          "internalType": "address",
          "name": "to",
          "type": "address"
        },
        {
          "indexed": true,
          "internalType": "uint256",
          "name": "tokenId",
          "type": "uint256"
        }
      ],
      "name": "Transfer",
      "type": "event"
    },
    {
      "inputs": [
        {
          "internalType": "address",
          "name": "to",
          "type": "address"
        },
        {
          "internalType": "uint256",
          "name": "tokenId",
          "type": "uint256"
        }
      ],
      "name": "approve",
      "outputs": [],
      "stateMutability": "nonpayable",
      "type": "function"
    },
    {
      "inputs": [
        {
          "internalType": "address",
          "name": "player",
          "type": "address"
        },
        {
          "internalType": "string",
          "name": "tokenURI",
          "type": "string"
        }
      ],
      "name": "awardItem",
      "outputs": [
        {
          "internalType": "uint256",
          "name": "",
          "type": "uint256"
        }
      ],
      "stateMutability": "nonpayable",
      "type": "function"
    },
    {
      "inputs": [
        {
          "internalType": "address",
          "name": "owner",
          "type": "address"
        }
      ],
      "name": "balanceOf",
      "outputs": [
        {
          "internalType": "uint256",
          "name": "",
          "type": "uint256"
        }
      ],
      "stateMutability": "view",
      "type": "function"
    },
    {
      "inputs": [
        {
          "internalType": "address",
          "name": "id",
          "type": "address"
        }
      ],
      "name": "check",
      "outputs": [
        {
          "internalType": "bool",
          "name": "",
          "type": "bool"
        }
      ],
      "stateMutability": "view",
      "type": "function"
    },
    {
      "inputs": [
        {
          "internalType": "uint256",
          "name": "id",
          "type": "uint256"
        }
      ],
      "name": "checkDonor",
      "outputs": [
        {
          "internalType": "bool",
          "name": "",
          "type": "bool"
        }
      ],
      "stateMutability": "view",
      "type": "function"
    },
    {
      "inputs": [
        {
          "internalType": "uint256",
          "name": "id",
          "type": "uint256"
        }
      ],
      "name": "checkReceive",
      "outputs": [
        {
          "internalType": "bool",
          "name": "",
          "type": "bool"
        }
      ],
      "stateMutability": "view",
      "type": "function"
    },
    {
      "inputs": [
        {
          "internalType": "uint256",
          "name": "tokenId",
          "type": "uint256"
        }
      ],
      "name": "getApproved",
      "outputs": [
        {
          "internalType": "address",
          "name": "",
          "type": "address"
        }
      ],
      "stateMutability": "view",
      "type": "function"
    },
    {
      "inputs": [],
      "name": "getDonorId",
      "outputs": [
        {
          "internalType": "uint256",
          "name": "",
          "type": "uint256"
        }
      ],
      "stateMutability": "view",
      "type": "function"
    },
    {
      "inputs": [],
      "name": "getMatchedArray",
      "outputs": [
        {
          "internalType": "uint256[]",
          "name": "",
          "type": "uint256[]"
        }
      ],
      "stateMutability": "view",
      "type": "function"
    },
    {
      "inputs": [],
      "name": "getRecieverId",
      "outputs": [
        {
          "internalType": "uint256",
          "name": "",
          "type": "uint256"
        }
      ],
      "stateMutability": "view",
      "type": "function"
    },
    {
      "inputs": [
        {
          "internalType": "uint256",
          "name": "id",
          "type": "uint256"
        }
      ],
      "name": "getRegDonor",
      "outputs": [
        {
          "components": [
            {
              "internalType": "address",
              "name": "metamask_address",
              "type": "address"
            },
            {
              "internalType": "string",
              "name": "hla",
              "type": "string"
            },
            {
              "internalType": "string",
              "name": "bloodgrp",
              "type": "string"
            },
            {
              "internalType": "string[]",
              "name": "organs",
              "type": "string[]"
            },
            {
              "internalType": "bool",
              "name": "flag",
              "type": "bool"
            }
          ],
          "internalType": "struct register.RegDonor",
          "name": "",
          "type": "tuple"
        }
      ],
      "stateMutability": "view",
      "type": "function"
    },
    {
      "inputs": [
        {
          "internalType": "uint256",
          "name": "id",
          "type": "uint256"
        }
      ],
      "name": "getRegReceive",
      "outputs": [
        {
          "components": [
            {
              "internalType": "address",
              "name": "metamask_address",
              "type": "address"
            },
            {
              "internalType": "string",
              "name": "hla",
              "type": "string"
            },
            {
              "internalType": "string",
              "name": "bloodgrp",
              "type": "string"
            },
            {
              "internalType": "string[]",
              "name": "organs",
              "type": "string[]"
            },
            {
              "internalType": "bool",
              "name": "flag",
              "type": "bool"
            }
          ],
          "internalType": "struct register.RegRecieve",
          "name": "",
          "type": "tuple"
        }
      ],
      "stateMutability": "view",
      "type": "function"
    },
    {
      "inputs": [
        {
          "internalType": "address",
          "name": "owner",
          "type": "address"
        },
        {
          "internalType": "address",
          "name": "operator",
          "type": "address"
        }
      ],
      "name": "isApprovedForAll",
      "outputs": [
        {
          "internalType": "bool",
          "name": "",
          "type": "bool"
        }
      ],
      "stateMutability": "view",
      "type": "function"
    },
    {
      "inputs": [
        {
          "internalType": "uint256[]",
          "name": "receivers",
          "type": "uint256[]"
        },
        {
          "internalType": "uint256",
          "name": "id",
          "type": "uint256"
        },
        {
          "internalType": "string",
          "name": "org",
          "type": "string"
        }
      ],
      "name": "matchDonorwReceiver",
      "outputs": [
        {
          "internalType": "uint256[]",
          "name": "",
          "type": "uint256[]"
        }
      ],
      "stateMutability": "nonpayable",
      "type": "function"
    },
    {
      "inputs": [],
      "name": "name",
      "outputs": [
        {
          "internalType": "string",
          "name": "",
          "type": "string"
        }
      ],
      "stateMutability": "view",
      "type": "function"
    },
    {
      "inputs": [
        {
          "internalType": "uint256",
          "name": "tokenId",
          "type": "uint256"
        }
      ],
      "name": "ownerOf",
      "outputs": [
        {
          "internalType": "address",
          "name": "",
          "type": "address"
        }
      ],
      "stateMutability": "view",
      "type": "function"
    },
    {
      "inputs": [
        {
          "internalType": "string",
          "name": "bloodgrp",
          "type": "string"
        },
        {
          "internalType": "uint256",
          "name": "id",
          "type": "uint256"
        },
        {
          "internalType": "string",
          "name": "organ",
          "type": "string"
        }
      ],
      "name": "passbloodgrpid",
      "outputs": [
        {
          "internalType": "uint256[]",
          "name": "",
          "type": "uint256[]"
        }
      ],
      "stateMutability": "nonpayable",
      "type": "function"
    },
    {
      "inputs": [],
      "name": "printArraydonor",
      "outputs": [
        {
          "internalType": "uint256[]",
          "name": "",
          "type": "uint256[]"
        }
      ],
      "stateMutability": "view",
      "type": "function"
    },
    {
      "inputs": [],
      "name": "printArrayreceiver",
      "outputs": [
        {
          "internalType": "uint256[]",
          "name": "",
          "type": "uint256[]"
        }
      ],
      "stateMutability": "view",
      "type": "function"
    },
    {
      "inputs": [
        {
          "internalType": "address",
          "name": "metamask_address",
          "type": "address"
        },
        {
          "internalType": "string",
          "name": "hla",
          "type": "string"
        },
        {
          "internalType": "string",
          "name": "bloodgrp",
          "type": "string"
        },
        {
          "internalType": "string[]",
          "name": "organs",
          "type": "string[]"
        },
        {
          "internalType": "bool",
          "name": "status",
          "type": "bool"
        }
      ],
      "name": "registerDonor",
      "outputs": [
        {
          "internalType": "uint256",
          "name": "",
          "type": "uint256"
        }
      ],
      "stateMutability": "nonpayable",
      "type": "function"
    },
    {
      "inputs": [
        {
          "internalType": "string",
          "name": "name",
          "type": "string"
        },
        {
          "internalType": "uint256",
          "name": "hospital_id",
          "type": "uint256"
        },
        {
          "internalType": "address",
          "name": "metamask_address",
          "type": "address"
        }
      ],
      "name": "registerHospital",
      "outputs": [],
      "stateMutability": "payable",
      "type": "function"
    },
    {
      "inputs": [
        {
          "internalType": "address",
          "name": "metamask_address",
          "type": "address"
        },
        {
          "internalType": "string",
          "name": "hla",
          "type": "string"
        },
        {
          "internalType": "string",
          "name": "bloodgrp",
          "type": "string"
        },
        {
          "internalType": "string[]",
          "name": "organs",
          "type": "string[]"
        },
        {
          "internalType": "bool",
          "name": "status",
          "type": "bool"
        }
      ],
      "name": "registerReceive",
      "outputs": [
        {
          "internalType": "uint256",
          "name": "",
          "type": "uint256"
        }
      ],
      "stateMutability": "nonpayable",
      "type": "function"
    },
    {
      "inputs": [
        {
          "internalType": "address",
          "name": "from",
          "type": "address"
        },
        {
          "internalType": "address",
          "name": "to",
          "type": "address"
        },
        {
          "internalType": "uint256",
          "name": "tokenId",
          "type": "uint256"
        }
      ],
      "name": "safeTransferFrom",
      "outputs": [],
      "stateMutability": "nonpayable",
      "type": "function"
    },
    {
      "inputs": [
        {
          "internalType": "address",
          "name": "from",
          "type": "address"
        },
        {
          "internalType": "address",
          "name": "to",
          "type": "address"
        },
        {
          "internalType": "uint256",
          "name": "tokenId",
          "type": "uint256"
        },
        {
          "internalType": "bytes",
          "name": "data",
          "type": "bytes"
        }
      ],
      "name": "safeTransferFrom",
      "outputs": [],
      "stateMutability": "nonpayable",
      "type": "function"
    },
    {
      "inputs": [
        {
          "internalType": "address",
          "name": "operator",
          "type": "address"
        },
        {
          "internalType": "bool",
          "name": "approved",
          "type": "bool"
        }
      ],
      "name": "setApprovalForAll",
      "outputs": [],
      "stateMutability": "nonpayable",
      "type": "function"
    },
    {
      "inputs": [
        {
          "internalType": "bytes4",
          "name": "interfaceId",
          "type": "bytes4"
        }
      ],
      "name": "supportsInterface",
      "outputs": [
        {
          "internalType": "bool",
          "name": "",
          "type": "bool"
        }
      ],
      "stateMutability": "view",
      "type": "function"
    },
    {
      "inputs": [],
      "name": "symbol",
      "outputs": [
        {
          "internalType": "string",
          "name": "",
          "type": "string"
        }
      ],
      "stateMutability": "view",
      "type": "function"
    },
    {
      "inputs": [
        {
          "internalType": "uint256",
          "name": "tokenId",
          "type": "uint256"
        }
      ],
      "name": "tokenURI",
      "outputs": [
        {
          "internalType": "string",
          "name": "",
          "type": "string"
        }
      ],
      "stateMutability": "view",
      "type": "function"
    },
    {
      "inputs": [
        {
          "internalType": "address",
          "name": "from",
          "type": "address"
        },
        {
          "internalType": "address",
          "name": "to",
          "type": "address"
        },
        {
          "internalType": "uint256",
          "name": "tokenId",
          "type": "uint256"
        }
      ],
      "name": "transferFrom",
      "outputs": [],
      "stateMutability": "nonpayable",
      "type": "function"
    }
  ],
  "bytecode": "0x608060405260006019553480156200001657600080fd5b506040518060400160405280600f81526020017f4f726167616e20446f6e6174696f6e00000000000000000000000000000000008152506040518060400160405280600281526020017f4f44000000000000000000000000000000000000000000000000000000000000815250816000908162000094919062000329565b508060019081620000a6919062000329565b50505062000410565b600081519050919050565b7f4e487b7100000000000000000000000000000000000000000000000000000000600052604160045260246000fd5b7f4e487b7100000000000000000000000000000000000000000000000000000000600052602260045260246000fd5b600060028204905060018216806200013157607f821691505b602082108103620001475762000146620000e9565b5b50919050565b60008190508160005260206000209050919050565b60006020601f8301049050919050565b600082821b905092915050565b600060088302620001b17fffffffffffffffffffffffffffffffffffffffffffffffffffffffffffffffff8262000172565b620001bd868362000172565b95508019841693508086168417925050509392505050565b6000819050919050565b6000819050919050565b60006200020a62000204620001fe84620001d5565b620001df565b620001d5565b9050919050565b6000819050919050565b6200022683620001e9565b6200023e620002358262000211565b8484546200017f565b825550505050565b600090565b6200025562000246565b620002628184846200021b565b505050565b5b818110156200028a576200027e6000826200024b565b60018101905062000268565b5050565b601f821115620002d957620002a3816200014d565b620002ae8462000162565b81016020851015620002be578190505b620002d6620002cd8562000162565b83018262000267565b50505b505050565b600082821c905092915050565b6000620002fe60001984600802620002de565b1980831691505092915050565b6000620003198383620002eb565b9150826002028217905092915050565b6200033482620000af565b67ffffffffffffffff81111562000350576200034f620000ba565b5b6200035c825462000118565b620003698282856200028e565b600060209050601f831160018114620003a157600084156200038c578287015190505b6200039885826200030b565b86555062000408565b601f198416620003b1866200014d565b60005b82811015620003db57848901518255600182019150602085019450602081019050620003b4565b86831015620003fb5784890151620003f7601f891682620002eb565b8355505b6001600288020188555050505b505050505050565b6152a680620004206000396000f3fe6080604052600436106101c25760003560e01c806376607bae116100f7578063b88d4fde11610095578063e6cb551211610064578063e6cb5512146106cb578063e7fd153014610708578063e985e9c514610745578063f7e3d58714610782576101c2565b8063b88d4fde146105eb578063c23697a814610614578063c87b56dd14610651578063cf3783431461068e576101c2565b806395d89b41116100d157806395d89b411461051d578063a22cb46514610548578063a8cb694214610571578063b73d5179146105ae576101c2565b806376607bae14610499578063924455f1146104d657806393237d57146104f2576101c2565b80633754c2e6116101645780636352211e1161013e5780636352211e146103c95780636b2ecebc146104065780636d8f243d1461043157806370a082311461045c576101c2565b80633754c2e6146103385780633e79dee91461036357806342842e0e146103a0576101c2565b8063095ea7b3116101a0578063095ea7b31461026c57806319ffeb8b1461029557806323b872dd146102d25780633198479f146102fb576101c2565b806301ffc9a7146101c757806306fdde0314610204578063081812fc1461022f575b600080fd5b3480156101d357600080fd5b506101ee60048036038101906101e99190613a6b565b6107ad565b6040516101fb9190613ab3565b60405180910390f35b34801561021057600080fd5b5061021961080e565b6040516102269190613b5e565b60405180910390f35b34801561023b57600080fd5b5061025660048036038101906102519190613bb6565b6108a0565b6040516102639190613c24565b60405180910390f35b34801561027857600080fd5b50610293600480360381019061028e9190613c6b565b6108bc565b005b3480156102a157600080fd5b506102bc60048036038101906102b79190613de0565b6108d2565b6040516102c99190613f29565b60405180910390f35b3480156102de57600080fd5b506102f960048036038101906102f49190613f4b565b610f25565b005b34801561030757600080fd5b50610322600480360381019061031d91906140b0565b611027565b60405161032f919061418e565b60405180910390f35b34801561034457600080fd5b5061034d6117a2565b60405161035a9190613f29565b60405180910390f35b34801561036f57600080fd5b5061038a600480360381019061038591906140b0565b6117fa565b604051610397919061418e565b60405180910390f35b3480156103ac57600080fd5b506103c760048036038101906103c29190613f4b565b611af2565b005b3480156103d557600080fd5b506103f060048036038101906103eb9190613bb6565b611b12565b6040516103fd9190613c24565b60405180910390f35b34801561041257600080fd5b5061041b611b24565b6040516104289190613f29565b60405180910390f35b34801561043d57600080fd5b50610446611b7c565b6040516104539190613f29565b60405180910390f35b34801561046857600080fd5b50610483600480360381019061047e91906141a9565b611bd4565b604051610490919061418e565b60405180910390f35b3480156104a557600080fd5b506104c060048036038101906104bb9190613bb6565b611c8e565b6040516104cd9190614384565b60405180910390f35b6104f060048036038101906104eb91906143a6565b611f29565b005b3480156104fe57600080fd5b5061050761205c565b604051610514919061418e565b60405180910390f35b34801561052957600080fd5b50610532612093565b60405161053f9190613b5e565b60405180910390f35b34801561055457600080fd5b5061056f600480360381019061056a9190614415565b612125565b005b34801561057d57600080fd5b5061059860048036038101906105939190613bb6565b61213b565b6040516105a59190613ab3565b60405180910390f35b3480156105ba57600080fd5b506105d560048036038101906105d09190613bb6565b612168565b6040516105e291906144d9565b60405180910390f35b3480156105f757600080fd5b50610612600480360381019061060d919061459c565b612403565b005b34801561062057600080fd5b5061063b600480360381019061063691906141a9565b612420565b6040516106489190613ab3565b60405180910390f35b34801561065d57600080fd5b5061067860048036038101906106739190613bb6565b612479565b6040516106859190613b5e565b60405180910390f35b34801561069a57600080fd5b506106b560048036038101906106b0919061461f565b61258c565b6040516106c2919061418e565b60405180910390f35b3480156106d757600080fd5b506106f260048036038101906106ed919061473e565b6125c3565b6040516106ff9190613f29565b60405180910390f35b34801561071457600080fd5b5061072f600480360381019061072a9190613bb6565b612825565b60405161073c9190613ab3565b60405180910390f35b34801561075157600080fd5b5061076c600480360381019061076791906147c9565b612852565b6040516107799190613ab3565b60405180910390f35b34801561078e57600080fd5b506107976128e6565b6040516107a4919061418e565b60405180910390f35b6000634906490660e01b7bffffffffffffffffffffffffffffffffffffffffffffffffffffffff1916827bffffffffffffffffffffffffffffffffffffffffffffffffffffffff1916148061080757506108068261291d565b5b9050919050565b60606000805461081d90614838565b80601f016020809104026020016040519081016040528092919081815260200182805461084990614838565b80156108965780601f1061086b57610100808354040283529160200191610896565b820191906000526020600020905b81548152906001019060200180831161087957829003601f168201915b5050505050905090565b60006108ab826129ff565b506108b582612a87565b9050919050565b6108ce82826108c9612ac4565b612acc565b5050565b6060601b60006108e29190613829565b6040516020016108f1906148b5565b60405160208183030381529060405280519060200120846040516020016109189190613b5e565b60405160208183030381529060405280519060200120036109a95761098e600980548060200260200160405190810160405280929190818152602001828054801561098257602002820191906000526020600020905b81548152602001906001019080831161096e575b505050505084846125c3565b601b90805190602001906109a392919061384a565b50610ecb565b6040516020016109b890614921565b60405160208183030381529060405280519060200120846040516020016109df9190613b5e565b6040516020818303038152906040528051906020012003610a7057610a55600a805480602002602001604051908101604052809291908181526020018280548015610a4957602002820191906000526020600020905b815481526020019060010190808311610a35575b505050505084846125c3565b601b9080519060200190610a6a92919061384a565b50610eca565b604051602001610a7f9061498d565b6040516020818303038152906040528051906020012084604051602001610aa69190613b5e565b6040516020818303038152906040528051906020012003610b3757610b1c600b805480602002602001604051908101604052809291908181526020018280548015610b1057602002820191906000526020600020905b815481526020019060010190808311610afc575b505050505084846125c3565b601b9080519060200190610b3192919061384a565b50610ec9565b604051602001610b46906149f9565b6040516020818303038152906040528051906020012084604051602001610b6d9190613b5e565b6040516020818303038152906040528051906020012003610bfe57610be3600c805480602002602001604051908101604052809291908181526020018280548015610bd757602002820191906000526020600020905b815481526020019060010190808311610bc3575b505050505084846125c3565b601b9080519060200190610bf892919061384a565b50610ec8565b604051602001610c0d90614a65565b6040516020818303038152906040528051906020012084604051602001610c349190613b5e565b6040516020818303038152906040528051906020012003610cc557610caa600d805480602002602001604051908101604052809291908181526020018280548015610c9e57602002820191906000526020600020905b815481526020019060010190808311610c8a575b505050505084846125c3565b601b9080519060200190610cbf92919061384a565b50610ec7565b604051602001610cd490614ad1565b6040516020818303038152906040528051906020012084604051602001610cfb9190613b5e565b6040516020818303038152906040528051906020012003610d8c57610d71600e805480602002602001604051908101604052809291908181526020018280548015610d6557602002820191906000526020600020905b815481526020019060010190808311610d51575b505050505084846125c3565b601b9080519060200190610d8692919061384a565b50610ec6565b604051602001610d9b90614b3d565b6040516020818303038152906040528051906020012084604051602001610dc29190613b5e565b6040516020818303038152906040528051906020012003610e5357610e386010805480602002602001604051908101604052809291908181526020018280548015610e2c57602002820191906000526020600020905b815481526020019060010190808311610e18575b505050505084846125c3565b601b9080519060200190610e4d92919061384a565b50610ec5565b610eae600f805480602002602001604051908101604052809291908181526020018280548015610ea257602002820191906000526020600020905b815481526020019060010190808311610e8e575b505050505084846125c3565b601b9080519060200190610ec392919061384a565b505b5b5b5b5b5b5b601b805480602002602001604051908101604052809291908181526020018280548015610f1757602002820191906000526020600020905b815481526020019060010190808311610f03575b505050505090509392505050565b600073ffffffffffffffffffffffffffffffffffffffff168273ffffffffffffffffffffffffffffffffffffffff1603610f975760006040517f64a0ae92000000000000000000000000000000000000000000000000000000008152600401610f8e9190613c24565b60405180910390fd5b6000610fab8383610fa6612ac4565b612ade565b90508373ffffffffffffffffffffffffffffffffffffffff168173ffffffffffffffffffffffffffffffffffffffff1614611021578382826040517f64283d7b00000000000000000000000000000000000000000000000000000000815260040161101893929190614b5d565b60405180910390fd5b50505050565b6000806040518060a001604052808873ffffffffffffffffffffffffffffffffffffffff1681526020018781526020018681526020018581526020016001151581525090506019600081548092919061107f90614bc3565b919050555060005b620f424042336019546040516020016110a293929190614c74565b6040516020818303038152906040528051906020012060001c6110c59190614ce0565b9050600115156018600083815260200190815260200160002060009054906101000a900460ff161515146110875760016018600083815260200190815260200160002060006101000a81548160ff02191690831515021790555060405160200161112e906148b5565b60405160208183030381529060405280519060200120866040516020016111559190613b5e565b6040516020818303038152906040528051906020012014801561117c575060011515841515145b156111af5760098190806001815401808255809150506001900390600052602060002001600090919091909150556115a2565b6040516020016111be90614921565b60405160208183030381529060405280519060200120866040516020016111e59190613b5e565b6040516020818303038152906040528051906020012014801561120c575060011515841515145b1561123f57600a8190806001815401808255809150506001900390600052602060002001600090919091909150556115a1565b60405160200161124e9061498d565b60405160208183030381529060405280519060200120866040516020016112759190613b5e565b6040516020818303038152906040528051906020012014801561129c575060011515841515145b156112cf57600b8190806001815401808255809150506001900390600052602060002001600090919091909150556115a0565b6040516020016112de906149f9565b60405160208183030381529060405280519060200120866040516020016113059190613b5e565b6040516020818303038152906040528051906020012014801561132c575060011515841515145b1561135f57600c81908060018154018082558091505060019003906000526020600020016000909190919091505561159f565b60405160200161136e90614a65565b60405160208183030381529060405280519060200120866040516020016113959190613b5e565b604051602081830303815290604052805190602001201480156113bc575060011515841515145b156113ef57600d81908060018154018082558091505060019003906000526020600020016000909190919091505561159e565b6040516020016113fe90614ad1565b60405160208183030381529060405280519060200120866040516020016114259190613b5e565b6040516020818303038152906040528051906020012014801561144c575060011515841515145b1561147f57600e81908060018154018082558091505060019003906000526020600020016000909190919091505561159d565b60405160200161148e90614b3d565b60405160208183030381529060405280519060200120866040516020016114b59190613b5e565b604051602081830303815290604052805190602001201480156114dc575060011515841515145b1561150f57601081908060018154018082558091505060019003906000526020600020016000909190919091505561159c565b60405160200161151e90614d5d565b60405160208183030381529060405280519060200120866040516020016115459190613b5e565b6040516020818303038152906040528051906020012014801561156c575060011515841515145b1561159b57600f8190806001815401808255809150506001900390600052602060002001600090919091909150555b5b5b5b5b5b5b5b60011515841515036116a357816016600083815260200190815260200160002060008201518160000160006101000a81548173ffffffffffffffffffffffffffffffffffffffff021916908373ffffffffffffffffffffffffffffffffffffffff160217905550602082015181600101908161161e9190614f29565b5060408201518160020190816116349190614f29565b506060820151816003019080519060200190611651929190613897565b5060808201518160040160006101000a81548160ff0219169083151502179055509050506011819080600181540180825580915050600190039060005260206000200160009091909190915055611794565b816017600083815260200190815260200160002060008201518160000160006101000a81548173ffffffffffffffffffffffffffffffffffffffff021916908373ffffffffffffffffffffffffffffffffffffffff16021790555060208201518160010190816117139190614f29565b5060408201518160020190816117299190614f29565b506060820151816003019080519060200190611746929190613897565b5060808201518160040160006101000a81548160ff02191690831515021790555090505060118190806001815401808255809150506001900390600052602060002001600090919091909150555b809250505095945050505050565b606060088054806020026020016040519081016040528092919081815260200182805480156117f057602002820191906000526020600020905b8154815260200190600101908083116117dc575b5050505050905090565b6000806040518060a001604052808873ffffffffffffffffffffffffffffffffffffffff1681526020018781526020018681526020018581526020016001151581525090506019600081548092919061185290614bc3565b919050555060005b620f4240423360195460405160200161187593929190614c74565b6040516020818303038152906040528051906020012060001c6118989190614ce0565b9050600115156018600083815260200190815260200160002060009054906101000a900460ff1615151461185a5760016018600083815260200190815260200160002060006101000a81548160ff02191690831515021790555060011515841515036119f357816014600083815260200190815260200160002060008201518160000160006101000a81548173ffffffffffffffffffffffffffffffffffffffff021916908373ffffffffffffffffffffffffffffffffffffffff160217905550602082015181600101908161196e9190614f29565b5060408201518160020190816119849190614f29565b5060608201518160030190805190602001906119a1929190613897565b5060808201518160040160006101000a81548160ff0219169083151502179055509050506008819080600181540180825580915050600190039060005260206000200160009091909190915055611ae4565b816015600083815260200190815260200160002060008201518160000160006101000a81548173ffffffffffffffffffffffffffffffffffffffff021916908373ffffffffffffffffffffffffffffffffffffffff1602179055506020820151816001019081611a639190614f29565b506040820151816002019081611a799190614f29565b506060820151816003019080519060200190611a96929190613897565b5060808201518160040160006101000a81548160ff02191690831515021790555090505060088190806001815401808255809150506001900390600052602060002001600090919091909150555b809250505095945050505050565b611b0d83838360405180602001604052806000815250612403565b505050565b6000611b1d826129ff565b9050919050565b60606011805480602002602001604051908101604052809291908181526020018280548015611b7257602002820191906000526020600020905b815481526020019060010190808311611b5e575b5050505050905090565b6060601a805480602002602001604051908101604052809291908181526020018280548015611bca57602002820191906000526020600020905b815481526020019060010190808311611bb6575b5050505050905090565b60008073ffffffffffffffffffffffffffffffffffffffff168273ffffffffffffffffffffffffffffffffffffffff1603611c475760006040517f89c62b64000000000000000000000000000000000000000000000000000000008152600401611c3e9190613c24565b60405180910390fd5b600360008373ffffffffffffffffffffffffffffffffffffffff1673ffffffffffffffffffffffffffffffffffffffff168152602001908152602001600020549050919050565b611c966138f0565b601660008381526020019081526020016000206040518060a00160405290816000820160009054906101000a900473ffffffffffffffffffffffffffffffffffffffff1673ffffffffffffffffffffffffffffffffffffffff1673ffffffffffffffffffffffffffffffffffffffff168152602001600182018054611d1a90614838565b80601f0160208091040260200160405190810160405280929190818152602001828054611d4690614838565b8015611d935780601f10611d6857610100808354040283529160200191611d93565b820191906000526020600020905b815481529060010190602001808311611d7657829003601f168201915b50505050508152602001600282018054611dac90614838565b80601f0160208091040260200160405190810160405280929190818152602001828054611dd890614838565b8015611e255780601f10611dfa57610100808354040283529160200191611e25565b820191906000526020600020905b815481529060010190602001808311611e0857829003601f168201915b5050505050815260200160038201805480602002602001604051908101604052809291908181526020016000905b82821015611eff578382906000526020600020018054611e7290614838565b80601f0160208091040260200160405190810160405280929190818152602001828054611e9e90614838565b8015611eeb5780601f10611ec057610100808354040283529160200191611eeb565b820191906000526020600020905b815481529060010190602001808311611ece57829003601f168201915b505050505081526020019060010190611e53565b5050505081526020016004820160009054906101000a900460ff1615151515815250509050919050565b6000604051806080016040528085815260200184815260200142815260200160011515815250905080601260008473ffffffffffffffffffffffffffffffffffffffff1673ffffffffffffffffffffffffffffffffffffffff1681526020019081526020016000206000820151816000019081611fa69190614f29565b50602082015181600101556040820151816002015560608201518160030160006101000a81548160ff0219169083151502179055509050506013819080600181540180825580915050600190039060005260206000209060040201600090919091909150600082015181600001908161201f9190614f29565b50602082015181600101556040820151816002015560608201518160030160006101000a81548160ff021916908315150217905550505050505050565b6000601160016011805490506120729190614ffb565b815481106120835761208261502f565b5b9060005260206000200154905090565b6060600180546120a290614838565b80601f01602080910402602001604051908101604052809291908181526020018280546120ce90614838565b801561211b5780601f106120f05761010080835404028352916020019161211b565b820191906000526020600020905b8154815290600101906020018083116120fe57829003601f168201915b5050505050905090565b612137612130612ac4565b8383612cf8565b5050565b60006016600083815260200190815260200160002060040160009054906101000a900460ff169050919050565b612170613937565b601460008381526020019081526020016000206040518060a00160405290816000820160009054906101000a900473ffffffffffffffffffffffffffffffffffffffff1673ffffffffffffffffffffffffffffffffffffffff1673ffffffffffffffffffffffffffffffffffffffff1681526020016001820180546121f490614838565b80601f016020809104026020016040519081016040528092919081815260200182805461222090614838565b801561226d5780601f106122425761010080835404028352916020019161226d565b820191906000526020600020905b81548152906001019060200180831161225057829003601f168201915b5050505050815260200160028201805461228690614838565b80601f01602080910402602001604051908101604052809291908181526020018280546122b290614838565b80156122ff5780601f106122d4576101008083540402835291602001916122ff565b820191906000526020600020905b8154815290600101906020018083116122e257829003601f168201915b5050505050815260200160038201805480602002602001604051908101604052809291908181526020016000905b828210156123d957838290600052602060002001805461234c90614838565b80601f016020809104026020016040519081016040528092919081815260200182805461237890614838565b80156123c55780601f1061239a576101008083540402835291602001916123c5565b820191906000526020600020905b8154815290600101906020018083116123a857829003601f168201915b50505050508152602001906001019061232d565b5050505081526020016004820160009054906101000a900460ff1615151515815250509050919050565b61240e848484610f25565b61241a84848484612e67565b50505050565b6000601260008373ffffffffffffffffffffffffffffffffffffffff1673ffffffffffffffffffffffffffffffffffffffff16815260200190815260200160002060030160009054906101000a900460ff169050919050565b6060612484826129ff565b5060006006600084815260200190815260200160002080546124a590614838565b80601f01602080910402602001604051908101604052809291908181526020018280546124d190614838565b801561251e5780601f106124f35761010080835404028352916020019161251e565b820191906000526020600020905b81548152906001019060200180831161250157829003601f168201915b50505050509050600061252f61301e565b90506000815103612544578192505050612587565b60008251111561257957808260405160200161256192919061509a565b60405160208183030381529060405292505050612587565b61258284613035565b925050505b919050565b600080612599600761309e565b90506125a584826130ac565b6125af81846131a5565b6125b96007613201565b8091505092915050565b6060601a60006125d39190613829565b60005b84518110156127ca5760166000601183815481106125f7576125f661502f565b5b906000526020600020015481526020019081526020016000206001016040516020016126239190615142565b604051602081830303815290604052805190602001206014600086815260200190815260200160002060010160405160200161265f9190615142565b60405160208183030381529060405280519060200120036127b75760005b60166000601184815481106126955761269461502f565b5b90600052602060002001548152602001908152602001600020600301805490508110156127b55760166000601184815481106126d4576126d361502f565b5b9060005260206000200154815260200190815260200160002060030181815481106127025761270161502f565b5b9060005260206000200160405160200161271c9190615142565b60405160208183030381529060405280519060200120846040516020016127439190613b5e565b60405160208183030381529060405280519060200120036127a257601a8683815181106127735761277261502f565b5b602002602001015190806001815401808255809150506001900390600052602060002001600090919091909150555b80806127ad90614bc3565b91505061267d565b505b80806127c290614bc3565b9150506125d6565b50601a80548060200260200160405190810160405280929190818152602001828054801561281757602002820191906000526020600020905b815481526020019060010190808311612803575b505050505090509392505050565b60006014600083815260200190815260200160002060040160009054906101000a900460ff169050919050565b6000600560008473ffffffffffffffffffffffffffffffffffffffff1673ffffffffffffffffffffffffffffffffffffffff16815260200190815260200160002060008373ffffffffffffffffffffffffffffffffffffffff1673ffffffffffffffffffffffffffffffffffffffff16815260200190815260200160002060009054906101000a900460ff16905092915050565b6000600860016008805490506128fc9190614ffb565b8154811061290d5761290c61502f565b5b9060005260206000200154905090565b60007f80ac58cd000000000000000000000000000000000000000000000000000000007bffffffffffffffffffffffffffffffffffffffffffffffffffffffff1916827bffffffffffffffffffffffffffffffffffffffffffffffffffffffff191614806129e857507f5b5e139f000000000000000000000000000000000000000000000000000000007bffffffffffffffffffffffffffffffffffffffffffffffffffffffff1916827bffffffffffffffffffffffffffffffffffffffffffffffffffffffff1916145b806129f857506129f782613217565b5b9050919050565b600080612a0b83613281565b9050600073ffffffffffffffffffffffffffffffffffffffff168173ffffffffffffffffffffffffffffffffffffffff1603612a7e57826040517f7e273289000000000000000000000000000000000000000000000000000000008152600401612a75919061418e565b60405180910390fd5b80915050919050565b60006004600083815260200190815260200160002060009054906101000a900473ffffffffffffffffffffffffffffffffffffffff169050919050565b600033905090565b612ad983838360016132be565b505050565b600080612aea84613281565b9050600073ffffffffffffffffffffffffffffffffffffffff168373ffffffffffffffffffffffffffffffffffffffff1614612b2c57612b2b818486613483565b5b600073ffffffffffffffffffffffffffffffffffffffff168173ffffffffffffffffffffffffffffffffffffffff1614612bbd57612b6e6000856000806132be565b6001600360008373ffffffffffffffffffffffffffffffffffffffff1673ffffffffffffffffffffffffffffffffffffffff168152602001908152602001600020600082825403925050819055505b600073ffffffffffffffffffffffffffffffffffffffff168573ffffffffffffffffffffffffffffffffffffffff1614612c40576001600360008773ffffffffffffffffffffffffffffffffffffffff1673ffffffffffffffffffffffffffffffffffffffff168152602001908152602001600020600082825401925050819055505b846002600086815260200190815260200160002060006101000a81548173ffffffffffffffffffffffffffffffffffffffff021916908373ffffffffffffffffffffffffffffffffffffffff160217905550838573ffffffffffffffffffffffffffffffffffffffff168273ffffffffffffffffffffffffffffffffffffffff167fddf252ad1be2c89b69c2b068fc378daa952ba7f163c4a11628f55a4df523b3ef60405160405180910390a4809150509392505050565b600073ffffffffffffffffffffffffffffffffffffffff168273ffffffffffffffffffffffffffffffffffffffff1603612d6957816040517f5b08ba18000000000000000000000000000000000000000000000000000000008152600401612d609190613c24565b60405180910390fd5b80600560008573ffffffffffffffffffffffffffffffffffffffff1673ffffffffffffffffffffffffffffffffffffffff16815260200190815260200160002060008473ffffffffffffffffffffffffffffffffffffffff1673ffffffffffffffffffffffffffffffffffffffff16815260200190815260200160002060006101000a81548160ff0219169083151502179055508173ffffffffffffffffffffffffffffffffffffffff168373ffffffffffffffffffffffffffffffffffffffff167f17307eab39ab6107e8899845ad3d59bd9653f200f220920489ca2b5937696c3183604051612e5a9190613ab3565b60405180910390a3505050565b60008373ffffffffffffffffffffffffffffffffffffffff163b1115613018578273ffffffffffffffffffffffffffffffffffffffff1663150b7a02612eab612ac4565b8685856040518563ffffffff1660e01b8152600401612ecd94939291906151b9565b6020604051808303816000875af1925050508015612f0957506040513d601f19601f82011682018060405250810190612f06919061521a565b60015b612f8d573d8060008114612f39576040519150601f19603f3d011682016040523d82523d6000602084013e612f3e565b606091505b506000815103612f8557836040517f64a0ae92000000000000000000000000000000000000000000000000000000008152600401612f7c9190613c24565b60405180910390fd5b805181602001fd5b63150b7a0260e01b7bffffffffffffffffffffffffffffffffffffffffffffffffffffffff1916817bffffffffffffffffffffffffffffffffffffffffffffffffffffffff19161461301657836040517f64a0ae9200000000000000000000000000000000000000000000000000000000815260040161300d9190613c24565b60405180910390fd5b505b50505050565b606060405180602001604052806000815250905090565b6060613040826129ff565b50600061304b61301e565b9050600081511161306b5760405180602001604052806000815250613096565b8061307584613547565b60405160200161308692919061509a565b6040516020818303038152906040525b915050919050565b600081600001549050919050565b600073ffffffffffffffffffffffffffffffffffffffff168273ffffffffffffffffffffffffffffffffffffffff160361311e5760006040517f64a0ae920000000000000000000000000000000000000000000000000000000081526004016131159190613c24565b60405180910390fd5b600061312c83836000612ade565b9050600073ffffffffffffffffffffffffffffffffffffffff168173ffffffffffffffffffffffffffffffffffffffff16146131a05760006040517f73c6ac6e0000000000000000000000000000000000000000000000000000000081526004016131979190613c24565b60405180910390fd5b505050565b806006600084815260200190815260200160002090816131c59190614f29565b507ff8e1a15aba9398e019f0b49df1a4fde98ee17ae345cb5f6b5e2c27f5033e8ce7826040516131f5919061418e565b60405180910390a15050565b6001816000016000828254019250508190555050565b60007f01ffc9a7000000000000000000000000000000000000000000000000000000007bffffffffffffffffffffffffffffffffffffffffffffffffffffffff1916827bffffffffffffffffffffffffffffffffffffffffffffffffffffffff1916149050919050565b60006002600083815260200190815260200160002060009054906101000a900473ffffffffffffffffffffffffffffffffffffffff169050919050565b80806132f75750600073ffffffffffffffffffffffffffffffffffffffff168273ffffffffffffffffffffffffffffffffffffffff1614155b1561342b576000613307846129ff565b9050600073ffffffffffffffffffffffffffffffffffffffff168373ffffffffffffffffffffffffffffffffffffffff161415801561337257508273ffffffffffffffffffffffffffffffffffffffff168173ffffffffffffffffffffffffffffffffffffffff1614155b801561338557506133838184612852565b155b156133c757826040517fa9fbf51f0000000000000000000000000000000000000000000000000000000081526004016133be9190613c24565b60405180910390fd5b811561342957838573ffffffffffffffffffffffffffffffffffffffff168273ffffffffffffffffffffffffffffffffffffffff167f8c5be1e5ebec7d5bd14f71427d1e84f3dd0314c0f7b2291e5b200ac8c7c3b92560405160405180910390a45b505b836004600085815260200190815260200160002060006101000a81548173ffffffffffffffffffffffffffffffffffffffff021916908373ffffffffffffffffffffffffffffffffffffffff16021790555050505050565b61348e838383613615565b61354257600073ffffffffffffffffffffffffffffffffffffffff168373ffffffffffffffffffffffffffffffffffffffff160361350357806040517f7e2732890000000000000000000000000000000000000000000000000000000081526004016134fa919061418e565b60405180910390fd5b81816040517f177e802f000000000000000000000000000000000000000000000000000000008152600401613539929190615247565b60405180910390fd5b505050565b606060006001613556846136d6565b01905060008167ffffffffffffffff81111561357557613574613cb5565b5b6040519080825280601f01601f1916602001820160405280156135a75781602001600182028036833780820191505090505b509050600082602001820190505b60011561360a578080600190039150507f3031323334353637383961626364656600000000000000000000000000000000600a86061a8153600a85816135fe576135fd614cb1565b5b049450600085036135b5575b819350505050919050565b60008073ffffffffffffffffffffffffffffffffffffffff168373ffffffffffffffffffffffffffffffffffffffff16141580156136cd57508273ffffffffffffffffffffffffffffffffffffffff168473ffffffffffffffffffffffffffffffffffffffff16148061368e575061368d8484612852565b5b806136cc57508273ffffffffffffffffffffffffffffffffffffffff166136b483612a87565b73ffffffffffffffffffffffffffffffffffffffff16145b5b90509392505050565b600080600090507a184f03e93ff9f4daa797ed6e38ed64bf6a1f0100000000000000008310613734577a184f03e93ff9f4daa797ed6e38ed64bf6a1f010000000000000000838161372a57613729614cb1565b5b0492506040810190505b6d04ee2d6d415b85acef81000000008310613771576d04ee2d6d415b85acef8100000000838161376757613766614cb1565b5b0492506020810190505b662386f26fc1000083106137a057662386f26fc10000838161379657613795614cb1565b5b0492506010810190505b6305f5e10083106137c9576305f5e10083816137bf576137be614cb1565b5b0492506008810190505b61271083106137ee5761271083816137e4576137e3614cb1565b5b0492506004810190505b60648310613811576064838161380757613806614cb1565b5b0492506002810190505b600a8310613820576001810190505b80915050919050565b5080546000825590600052602060002090810190613847919061397e565b50565b828054828255906000526020600020908101928215613886579160200282015b8281111561388557825182559160200191906001019061386a565b5b509050613893919061397e565b5090565b8280548282559060005260206000209081019282156138df579160200282015b828111156138de5782518290816138ce9190614f29565b50916020019190600101906138b7565b5b5090506138ec919061399b565b5090565b6040518060a00160405280600073ffffffffffffffffffffffffffffffffffffffff1681526020016060815260200160608152602001606081526020016000151581525090565b6040518060a00160405280600073ffffffffffffffffffffffffffffffffffffffff1681526020016060815260200160608152602001606081526020016000151581525090565b5b8082111561399757600081600090555060010161397f565b5090565b5b808211156139bb57600081816139b291906139bf565b5060010161399c565b5090565b5080546139cb90614838565b6000825580601f106139dd57506139fc565b601f0160209004906000526020600020908101906139fb919061397e565b5b50565b6000604051905090565b600080fd5b600080fd5b60007fffffffff0000000000000000000000000000000000000000000000000000000082169050919050565b613a4881613a13565b8114613a5357600080fd5b50565b600081359050613a6581613a3f565b92915050565b600060208284031215613a8157613a80613a09565b5b6000613a8f84828501613a56565b91505092915050565b60008115159050919050565b613aad81613a98565b82525050565b6000602082019050613ac86000830184613aa4565b92915050565b600081519050919050565b600082825260208201905092915050565b60005b83811015613b08578082015181840152602081019050613aed565b60008484015250505050565b6000601f19601f8301169050919050565b6000613b3082613ace565b613b3a8185613ad9565b9350613b4a818560208601613aea565b613b5381613b14565b840191505092915050565b60006020820190508181036000830152613b788184613b25565b905092915050565b6000819050919050565b613b9381613b80565b8114613b9e57600080fd5b50565b600081359050613bb081613b8a565b92915050565b600060208284031215613bcc57613bcb613a09565b5b6000613bda84828501613ba1565b91505092915050565b600073ffffffffffffffffffffffffffffffffffffffff82169050919050565b6000613c0e82613be3565b9050919050565b613c1e81613c03565b82525050565b6000602082019050613c396000830184613c15565b92915050565b613c4881613c03565b8114613c5357600080fd5b50565b600081359050613c6581613c3f565b92915050565b60008060408385031215613c8257613c81613a09565b5b6000613c9085828601613c56565b9250506020613ca185828601613ba1565b9150509250929050565b600080fd5b600080fd5b7f4e487b7100000000000000000000000000000000000000000000000000000000600052604160045260246000fd5b613ced82613b14565b810181811067ffffffffffffffff82111715613d0c57613d0b613cb5565b5b80604052505050565b6000613d1f6139ff565b9050613d2b8282613ce4565b919050565b600067ffffffffffffffff821115613d4b57613d4a613cb5565b5b613d5482613b14565b9050602081019050919050565b82818337600083830152505050565b6000613d83613d7e84613d30565b613d15565b905082815260208101848484011115613d9f57613d9e613cb0565b5b613daa848285613d61565b509392505050565b600082601f830112613dc757613dc6613cab565b5b8135613dd7848260208601613d70565b91505092915050565b600080600060608486031215613df957613df8613a09565b5b600084013567ffffffffffffffff811115613e1757613e16613a0e565b5b613e2386828701613db2565b9350506020613e3486828701613ba1565b925050604084013567ffffffffffffffff811115613e5557613e54613a0e565b5b613e6186828701613db2565b9150509250925092565b600081519050919050565b600082825260208201905092915050565b6000819050602082019050919050565b613ea081613b80565b82525050565b6000613eb28383613e97565b60208301905092915050565b6000602082019050919050565b6000613ed682613e6b565b613ee08185613e76565b9350613eeb83613e87565b8060005b83811015613f1c578151613f038882613ea6565b9750613f0e83613ebe565b925050600181019050613eef565b5085935050505092915050565b60006020820190508181036000830152613f438184613ecb565b905092915050565b600080600060608486031215613f6457613f63613a09565b5b6000613f7286828701613c56565b9350506020613f8386828701613c56565b9250506040613f9486828701613ba1565b9150509250925092565b600067ffffffffffffffff821115613fb957613fb8613cb5565b5b602082029050602081019050919050565b600080fd5b6000613fe2613fdd84613f9e565b613d15565b9050808382526020820190506020840283018581111561400557614004613fca565b5b835b8181101561404c57803567ffffffffffffffff81111561402a57614029613cab565b5b8086016140378982613db2565b85526020850194505050602081019050614007565b5050509392505050565b600082601f83011261406b5761406a613cab565b5b813561407b848260208601613fcf565b91505092915050565b61408d81613a98565b811461409857600080fd5b50565b6000813590506140aa81614084565b92915050565b600080600080600060a086880312156140cc576140cb613a09565b5b60006140da88828901613c56565b955050602086013567ffffffffffffffff8111156140fb576140fa613a0e565b5b61410788828901613db2565b945050604086013567ffffffffffffffff81111561412857614127613a0e565b5b61413488828901613db2565b935050606086013567ffffffffffffffff81111561415557614154613a0e565b5b61416188828901614056565b92505060806141728882890161409b565b9150509295509295909350565b61418881613b80565b82525050565b60006020820190506141a3600083018461417f565b92915050565b6000602082840312156141bf576141be613a09565b5b60006141cd84828501613c56565b91505092915050565b6141df81613c03565b82525050565b600082825260208201905092915050565b600061420182613ace565b61420b81856141e5565b935061421b818560208601613aea565b61422481613b14565b840191505092915050565b600081519050919050565b600082825260208201905092915050565b6000819050602082019050919050565b600061426783836141f6565b905092915050565b6000602082019050919050565b60006142878261422f565b614291818561423a565b9350836020820285016142a38561424b565b8060005b858110156142df57848403895281516142c0858261425b565b94506142cb8361426f565b925060208a019950506001810190506142a7565b50829750879550505050505092915050565b6142fa81613a98565b82525050565b600060a08301600083015161431860008601826141d6565b506020830151848203602086015261433082826141f6565b9150506040830151848203604086015261434a82826141f6565b91505060608301518482036060860152614364828261427c565b915050608083015161437960808601826142f1565b508091505092915050565b6000602082019050818103600083015261439e8184614300565b905092915050565b6000806000606084860312156143bf576143be613a09565b5b600084013567ffffffffffffffff8111156143dd576143dc613a0e565b5b6143e986828701613db2565b93505060206143fa86828701613ba1565b925050604061440b86828701613c56565b9150509250925092565b6000806040838503121561442c5761442b613a09565b5b600061443a85828601613c56565b925050602061444b8582860161409b565b9150509250929050565b600060a08301600083015161446d60008601826141d6565b506020830151848203602086015261448582826141f6565b9150506040830151848203604086015261449f82826141f6565b915050606083015184820360608601526144b9828261427c565b91505060808301516144ce60808601826142f1565b508091505092915050565b600060208201905081810360008301526144f38184614455565b905092915050565b600067ffffffffffffffff82111561451657614515613cb5565b5b61451f82613b14565b9050602081019050919050565b600061453f61453a846144fb565b613d15565b90508281526020810184848401111561455b5761455a613cb0565b5b614566848285613d61565b509392505050565b600082601f83011261458357614582613cab565b5b813561459384826020860161452c565b91505092915050565b600080600080608085870312156145b6576145b5613a09565b5b60006145c487828801613c56565b94505060206145d587828801613c56565b93505060406145e687828801613ba1565b925050606085013567ffffffffffffffff81111561460757614606613a0e565b5b6146138782880161456e565b91505092959194509250565b6000806040838503121561463657614635613a09565b5b600061464485828601613c56565b925050602083013567ffffffffffffffff81111561466557614664613a0e565b5b61467185828601613db2565b9150509250929050565b600067ffffffffffffffff82111561469657614695613cb5565b5b602082029050602081019050919050565b60006146ba6146b58461467b565b613d15565b905080838252602082019050602084028301858111156146dd576146dc613fca565b5b835b8181101561470657806146f28882613ba1565b8452602084019350506020810190506146df565b5050509392505050565b600082601f83011261472557614724613cab565b5b81356147358482602086016146a7565b91505092915050565b60008060006060848603121561475757614756613a09565b5b600084013567ffffffffffffffff81111561477557614774613a0e565b5b61478186828701614710565b935050602061479286828701613ba1565b925050604084013567ffffffffffffffff8111156147b3576147b2613a0e565b5b6147bf86828701613db2565b9150509250925092565b600080604083850312156147e0576147df613a09565b5b60006147ee85828601613c56565b92505060206147ff85828601613c56565b9150509250929050565b7f4e487b7100000000000000000000000000000000000000000000000000000000600052602260045260246000fd5b6000600282049050600182168061485057607f821691505b60208210810361486357614862614809565b5b50919050565b7f4f2b000000000000000000000000000000000000000000000000000000000000600082015250565b600061489f600283613ad9565b91506148aa82614869565b602082019050919050565b600060208201905081810360008301526148ce81614892565b9050919050565b7f4f2d000000000000000000000000000000000000000000000000000000000000600082015250565b600061490b600283613ad9565b9150614916826148d5565b602082019050919050565b6000602082019050818103600083015261493a816148fe565b9050919050565b7f412b000000000000000000000000000000000000000000000000000000000000600082015250565b6000614977600283613ad9565b915061498282614941565b602082019050919050565b600060208201905081810360008301526149a68161496a565b9050919050565b7f412d000000000000000000000000000000000000000000000000000000000000600082015250565b60006149e3600283613ad9565b91506149ee826149ad565b602082019050919050565b60006020820190508181036000830152614a12816149d6565b9050919050565b7f422b000000000000000000000000000000000000000000000000000000000000600082015250565b6000614a4f600283613ad9565b9150614a5a82614a19565b602082019050919050565b60006020820190508181036000830152614a7e81614a42565b9050919050565b7f422d000000000000000000000000000000000000000000000000000000000000600082015250565b6000614abb600283613ad9565b9150614ac682614a85565b602082019050919050565b60006020820190508181036000830152614aea81614aae565b9050919050565b7f41422b0000000000000000000000000000000000000000000000000000000000600082015250565b6000614b27600383613ad9565b9150614b3282614af1565b602082019050919050565b60006020820190508181036000830152614b5681614b1a565b9050919050565b6000606082019050614b726000830186613c15565b614b7f602083018561417f565b614b8c6040830184613c15565b949350505050565b7f4e487b7100000000000000000000000000000000000000000000000000000000600052601160045260246000fd5b6000614bce82613b80565b91507fffffffffffffffffffffffffffffffffffffffffffffffffffffffffffffffff8203614c0057614bff614b94565b5b600182019050919050565b6000819050919050565b614c26614c2182613b80565b614c0b565b82525050565b60008160601b9050919050565b6000614c4482614c2c565b9050919050565b6000614c5682614c39565b9050919050565b614c6e614c6982613c03565b614c4b565b82525050565b6000614c808286614c15565b602082019150614c908285614c5d565b601482019150614ca08284614c15565b602082019150819050949350505050565b7f4e487b7100000000000000000000000000000000000000000000000000000000600052601260045260246000fd5b6000614ceb82613b80565b9150614cf683613b80565b925082614d0657614d05614cb1565b5b828206905092915050565b7f41422d0000000000000000000000000000000000000000000000000000000000600082015250565b6000614d47600383613ad9565b9150614d5282614d11565b602082019050919050565b60006020820190508181036000830152614d7681614d3a565b9050919050565b60008190508160005260206000209050919050565b60006020601f8301049050919050565b600082821b905092915050565b600060088302614ddf7fffffffffffffffffffffffffffffffffffffffffffffffffffffffffffffffff82614da2565b614de98683614da2565b95508019841693508086168417925050509392505050565b6000819050919050565b6000614e26614e21614e1c84613b80565b614e01565b613b80565b9050919050565b6000819050919050565b614e4083614e0b565b614e54614e4c82614e2d565b848454614daf565b825550505050565b600090565b614e69614e5c565b614e74818484614e37565b505050565b5b81811015614e9857614e8d600082614e61565b600181019050614e7a565b5050565b601f821115614edd57614eae81614d7d565b614eb784614d92565b81016020851015614ec6578190505b614eda614ed285614d92565b830182614e79565b50505b505050565b600082821c905092915050565b6000614f0060001984600802614ee2565b1980831691505092915050565b6000614f198383614eef565b9150826002028217905092915050565b614f3282613ace565b67ffffffffffffffff811115614f4b57614f4a613cb5565b5b614f558254614838565b614f60828285614e9c565b600060209050601f831160018114614f935760008415614f81578287015190505b614f8b8582614f0d565b865550614ff3565b601f198416614fa186614d7d565b60005b82811015614fc957848901518255600182019150602085019450602081019050614fa4565b86831015614fe65784890151614fe2601f891682614eef565b8355505b6001600288020188555050505b505050505050565b600061500682613b80565b915061501183613b80565b925082820390508181111561502957615028614b94565b5b92915050565b7f4e487b7100000000000000000000000000000000000000000000000000000000600052603260045260246000fd5b600081905092915050565b600061507482613ace565b61507e818561505e565b935061508e818560208601613aea565b80840191505092915050565b60006150a68285615069565b91506150b28284615069565b91508190509392505050565b600081546150cb81614838565b6150d58186613ad9565b945060018216600081146150f0576001811461510657615139565b60ff198316865281151560200286019350615139565b61510f85614d7d565b60005b8381101561513157815481890152600182019150602081019050615112565b808801955050505b50505092915050565b6000602082019050818103600083015261515c81846150be565b905092915050565b600081519050919050565b600082825260208201905092915050565b600061518b82615164565b615195818561516f565b93506151a5818560208601613aea565b6151ae81613b14565b840191505092915050565b60006080820190506151ce6000830187613c15565b6151db6020830186613c15565b6151e8604083018561417f565b81810360608301526151fa8184615180565b905095945050505050565b60008151905061521481613a3f565b92915050565b6000602082840312156152305761522f613a09565b5b600061523e84828501615205565b91505092915050565b600060408201905061525c6000830185613c15565b615269602083018461417f565b939250505056fea26469706673582212209300486b96ea00f03fdd09e670e5da5feb42b9b7664303e67675d8f378db1e6f64736f6c63430008140033",
  "linkReferences": {},
  "deployedLinkReferences": {}
}